Component: ARM Compiler 5.06 update 6 (build 750) Tool: armlink [4d35ed]

==============================================================================

Section Cross References

    startup_stm32f103xe.o(RESET) refers to startup_stm32f103xe.o(STACK) for __initial_sp
    startup_stm32f103xe.o(RESET) refers to startup_stm32f103xe.o(.text) for Reset_Handler
    startup_stm32f103xe.o(RESET) refers to stm32f1xx_it.o(i.NMI_Handler) for NMI_Handler
    startup_stm32f103xe.o(RESET) refers to stm32f1xx_it.o(i.HardFault_Handler) for HardFault_Handler
    startup_stm32f103xe.o(RESET) refers to stm32f1xx_it.o(i.MemManage_Handler) for MemManage_Handler
    startup_stm32f103xe.o(RESET) refers to stm32f1xx_it.o(i.BusFault_Handler) for BusFault_Handler
    startup_stm32f103xe.o(RESET) refers to stm32f1xx_it.o(i.UsageFault_Handler) for UsageFault_Handler
    startup_stm32f103xe.o(RESET) refers to stm32f1xx_it.o(i.SVC_Handler) for SVC_Handler
    startup_stm32f103xe.o(RESET) refers to stm32f1xx_it.o(i.DebugMon_Handler) for DebugMon_Handler
    startup_stm32f103xe.o(RESET) refers to stm32f1xx_it.o(i.PendSV_Handler) for PendSV_Handler
    startup_stm32f103xe.o(RESET) refers to stm32f1xx_it.o(i.SysTick_Handler) for SysTick_Handler
    startup_stm32f103xe.o(RESET) refers to stm32f1xx_it.o(i.EXTI0_IRQHandler) for EXTI0_IRQHandler
    startup_stm32f103xe.o(RESET) refers to stm32f1xx_it.o(i.EXTI2_IRQHandler) for EXTI2_IRQHandler
    startup_stm32f103xe.o(RESET) refers to stm32f1xx_it.o(i.EXTI3_IRQHandler) for EXTI3_IRQHandler
    startup_stm32f103xe.o(RESET) refers to stm32f1xx_it.o(i.EXTI4_IRQHandler) for EXTI4_IRQHandler
    startup_stm32f103xe.o(.text) refers to system_stm32f1xx.o(i.SystemInit) for SystemInit
    startup_stm32f103xe.o(.text) refers to entry.o(.ARM.Collect$$$$00000000) for __main
    main.o(i.EnterFileOrDir) refers to printf3.o(i.__0printf$3) for __2printf
==============================================================================

Removing Unused input sections from the image.

    Removing main.o(.rev16_text), (4 bytes).
    Removing main.o(.revsh_text), (4 bytes).
    Removing main.o(.rrx_text), (6 bytes).
    Removing gpio.o(.rev16_text), (4 bytes).
    Removing gpio.o(.revsh_text), (4 bytes).
    Removing gpio.o(.rrx_text), (6 bytes).
    Removing crc.o(.rev16_text), (4 bytes).
    Removing crc.o(.revsh_text), (4 bytes).
    Removing crc.o(.rrx_text), (6 bytes).
    Removing crc.o(i.HAL_CRC_MspDeInit), (28 bytes).
    Removing bsp_driver_sd.o(.rev16_text), (4 bytes).
    Removing bsp_driver_sd.o(.revsh_text), (4 bytes).
    Removing bsp_driver_sd.o(.rrx_text), (6 bytes).
    Removing bsp_driver_sd.o(i.BSP_SD_AbortCallback), (2 bytes).
    Removing bsp_driver_sd.o(i.BSP_SD_DetectIT), (2 bytes).
    Removing bsp_driver_sd.o(i.BSP_SD_Erase), (28 bytes).
    Removing bsp_driver_sd.o(i.BSP_SD_ITConfig), (4 bytes).
    Removing bsp_driver_sd.o(i.BSP_SD_ReadBlocks_DMA), (28 bytes).
==============================================================================

Image Symbol Table

    Local Symbols

    Symbol Name                              Value     Ov Type        Size  Object(Section)

    ../Drivers/STM32F1xx_HAL_Driver/Src/stm32f1xx_hal.c 0x00000000   Number         0  stm32f1xx_hal.o ABSOLUTE
    ../Drivers/STM32F1xx_HAL_Driver/Src/stm32f1xx_hal_cortex.c 0x00000000   Number         0  stm32f1xx_hal_cortex.o ABSOLUTE
    ../Drivers/STM32F1xx_HAL_Driver/Src/stm32f1xx_hal_crc.c 0x00000000   Number         0  stm32f1xx_hal_crc.o ABSOLUTE
    ../Drivers/STM32F1xx_HAL_Driver/Src/stm32f1xx_hal_dma.c 0x00000000   Number         0  stm32f1xx_hal_dma.o ABSOLUTE
    ../Drivers/STM32F1xx_HAL_Driver/Src/stm32f1xx_hal_exti.c 0x00000000   Number         0  stm32f1xx_hal_exti.o ABSOLUTE
    ../Drivers/STM32F1xx_HAL_Driver/Src/stm32f1xx_hal_flash.c 0x00000000   Number         0  stm32f1xx_hal_flash.o ABSOLUTE
    ../Drivers/STM32F1xx_HAL_Driver/Src/stm32f1xx_hal_flash_ex.c 0x00000000   Number         0  stm32f1xx_hal_flash_ex.o ABSOLUTE
    ../Drivers/STM32F1xx_HAL_Driver/Src/stm32f1xx_hal_gpio.c 0x00000000   Number         0  stm32f1xx_hal_gpio.o ABSOLUTE
    ../Drivers/STM32F1xx_HAL_Driver/Src/stm32f1xx_hal_gpio_ex.c 0x00000000   Number         0  stm32f1xx_hal_gpio_ex.o ABSOLUTE
    ../Drivers/STM32F1xx_HAL_Driver/Src/stm32f1xx_hal_pwr.c 0x00000000   Number         0  stm32f1xx_hal_pwr.o ABSOLUTE
    ../Drivers/STM32F1xx_HAL_Driver/Src/stm32f1xx_hal_rcc.c 0x00000000   Number         0  stm32f1xx_hal_rcc.o ABSOLUTE
    ../Drivers/STM32F1xx_HAL_Driver/Src/stm32f1xx_hal_rcc_ex.c 0x00000000   Number         0  stm32f1xx_hal_rcc_ex.o ABSOLUTE
    ../Drivers/STM32F1xx_HAL_Driver/Src/stm32f1xx_hal_rtc.c 0x00000000   Number         0  stm32f1xx_hal_rtc.o ABSOLUTE
    ../Drivers/STM32F1xx_HAL_Driver/Src/stm32f1xx_hal_rtc_ex.c 0x00000000   Number         0  stm32f1xx_hal_rtc_ex.o ABSOLUTE
    ../Drivers/STM32F1xx_HAL_Driver/Src/stm32f1xx_hal_sd.c 0x00000000   Number         0  stm32f1xx_hal_sd.o ABSOLUTE
    ../Drivers/STM32F1xx_HAL_Driver/Src/stm32f1xx_hal_sram.c 0x00000000   Number         0  stm32f1xx_hal_sram.o ABSOLUTE
    ../Drivers/STM32F1xx_HAL_Driver/Src/stm32f1xx_hal_tim.c 0x00000000   Number         0  stm32f1xx_hal_tim.o ABSOLUTE
    ../Drivers/STM32F1xx_HAL_Driver/Src/stm32f1xx_hal_tim_ex.c 0x00000000   Number         0  stm32f1xx_hal_tim_ex.o ABSOLUTE
    ../Drivers/STM32F1xx_HAL_Driver/Src/stm32f1xx_hal_uart.c 0x00000000   Number         0  stm32f1xx_hal_uart.o ABSOLUTE
    ../Drivers/STM32F1xx_HAL_Driver/Src/stm32f1xx_ll_fsmc.c 0x00000000   Number         0  stm32f1xx_ll_fsmc.o ABSOLUTE
    ../Drivers/STM32F1xx_HAL_Driver/Src/stm32f1xx_ll_sdmmc.c 0x00000000   Number         0  stm32f1xx_ll_sdmmc.o ABSOLUTE
    ../Middlewares/Third_Party/FatFs/src/diskio.c 0x00000000   Number         0  diskio.o ABSOLUTE
    ../Middlewares/Third_Party/FatFs/src/drivers/sd_diskio.c 0x00000000   Number         0  sd_diskio.o ABSOLUTE
    ../Middlewares/Third_Party/FatFs/src/ff.c 0x00000000   Number         0  ff.o ABSOLUTE
    ../Middlewares/Third_Party/FatFs/src/ff_gen_drv.c 0x00000000   Number         0  ff_gen_drv.o ABSOLUTE
    ../Middlewares/Third_Party/FatFs/src/option/cc936.c 0x00000000   Number         0  cc936.o ABSOLUTE
    ../Middlewares/Third_Party/FatFs/src/option/syscall.c 0x00000000   Number         0  syscall.o ABSOLUTE
    ../Src/bsp_driver_sd.c                   0x00000000   Number         0  bsp_driver_sd.o ABSOLUTE
    ../Src/crc.c                             0x00000000   Number         0  crc.o ABSOLUTE
    ../Src/fatfs.c                           0x00000000   Number         0  fatfs.o ABSOLUTE
    ../Src/fsmc.c                            0x00000000   Number         0  fsmc.o ABSOLUTE
    ../Src/gpio.c                            0x00000000   Number         0  gpio.o ABSOLUTE
    ../Src/main.c                            0x00000000   Number         0  main.o ABSOLUTE
    ../Src/rtc.c                             0x00000000   Number         0  rtc.o ABSOLUTE
    ../Src/sdio.c                            0x00000000   Number         0  sdio.o ABSOLUTE
    ../Src/stm32f1xx_hal_msp.c               0x00000000   Number         0  stm32f1xx_hal_msp.o ABSOLUTE
    ../Src/stm32f1xx_it.c                    0x00000000   Number         0  stm32f1xx_it.o ABSOLUTE
    ../Src/system_stm32f1xx.c                0x00000000   Number         0  system_stm32f1xx.o ABSOLUTE
    ../Src/usart.c                           0x00000000   Number         0  usart.o ABSOLUTE
    ../clib/microlib/division.c              0x00000000   Number         0  uldiv.o ABSOLUTE
    ../clib/microlib/division.c              0x00000000   Number         0  uidiv.o ABSOLUTE
    ../clib/microlib/init/entry.s            0x00000000   Number         0  entry5.o ABSOLUTE
    ../clib/microlib/init/entry.s            0x00000000   Number         0  entry7a.o ABSOLUTE
    ../clib/microlib/init/entry.s            0x00000000   Number         0  entry7b.o ABSOLUTE
    ../clib/microlib/init/entry.s            0x00000000   Number         0  entry11b.o ABSOLUTE
    ../clib/microlib/init/entry.s            0x00000000   Number         0  entry8a.o ABSOLUTE
    ../clib/microlib/init/entry.s            0x00000000   Number         0  entry8b.o ABSOLUTE
    ../clib/microlib/init/entry.s            0x00000000   Number         0  entry11a.o ABSOLUTE
    ../clib/microlib/init/entry.s            0x00000000   Number         0  entry10b.o ABSOLUTE
    ../clib/microlib/init/entry.s            0x00000000   Number         0  entry2.o ABSOLUTE
    ../clib/microlib/init/entry.s            0x00000000   Number         0  entry9b.o ABSOLUTE
    ../clib/microlib/init/entry.s            0x00000000   Number         0  entry.o ABSOLUTE
    ../clib/microlib/init/entry.s            0x00000000   Number         0  entry9a.o ABSOLUTE
    ../clib/microlib/init/entry.s            0x00000000   Number         0  entry10a.o ABSOLUTE
    ../clib/microlib/longlong.c              0x00000000   Number         0  llshl.o ABSOLUTE
    ../clib/microlib/longlong.c              0x00000000   Number         0  llsshr.o ABSOLUTE
    ../clib/microlib/longlong.c              0x00000000   Number         0  llushr.o ABSOLUTE
    ../clib/microlib/malloc/malloc.c         0x00000000   Number         0  mallocr.o ABSOLUTE
    ../clib/microlib/malloc/malloc.c         0x00000000   Number         0  malloca.o ABSOLUTE
    ../clib/microlib/malloc/malloc.c         0x00000000   Number         0  mallocra.o ABSOLUTE
    ../clib/microlib/malloc/malloc.c         0x00000000   Number         0  malloc.o ABSOLUTE
    ../clib/microlib/malloc/mvars.c          0x00000000   Number         0  mvars.o ABSOLUTE
    ../clib/microlib/printf/printf.c         0x00000000   Number         0  printf6.o ABSOLUTE
    ../clib/microlib/printf/printf.c         0x00000000   Number         0  printf3.o ABSOLUTE
    ../clib/microlib/printf/printf.c         0x00000000   Number         0  printf4.o ABSOLUTE
    ../clib/microlib/printf/printf.c         0x00000000   Number         0  printf5.o ABSOLUTE
    ../clib/microlib/printf/printf.c         0x00000000   Number         0  printf7.o ABSOLUTE
    ../clib/microlib/printf/printf.c         0x00000000   Number         0  printfa.o ABSOLUTE
    ../clib/microlib/printf/printf.c         0x00000000   Number         0  printf8.o ABSOLUTE
    ../clib/microlib/printf/printf.c         0x00000000   Number         0  printfb.o ABSOLUTE
    ../clib/microlib/printf/printf.c         0x00000000   Number         0  printf0.o ABSOLUTE
    ../clib/microlib/printf/printf.c         0x00000000   Number         0  printf1.o ABSOLUTE
    ../clib/microlib/printf/printf.c         0x00000000   Number         0  printf2.o ABSOLUTE
    ../clib/microlib/printf/stubs.s          0x00000000   Number         0  stubs.o ABSOLUTE
    ../clib/microlib/stdio/streams.c         0x00000000   Number         0  stdout.o ABSOLUTE
    ../clib/microlib/string/memcpy.c         0x00000000   Number         0  memcpya.o ABSOLUTE
    ../clib/microlib/string/memcpy.c         0x00000000   Number         0  memcpyb.o ABSOLUTE
    ../clib/microlib/string/memset.c         0x00000000   Number         0  memseta.o ABSOLUTE
    ../clib/microlib/string/strlen.c         0x00000000   Number         0  strlen.o ABSOLUTE
    ../clib/microlib/string/strstr.c         0x00000000   Number         0  strstr.o ABSOLUTE
    ../clib/microlib/stubs.s                 0x00000000   Number         0  iusefp.o ABSOLUTE
    ../fplib/microlib/fpadd.c                0x00000000   Number         0  dadd.o ABSOLUTE
    ../fplib/microlib/fpdiv.c                0x00000000   Number         0  ddiv.o ABSOLUTE
    ../fplib/microlib/fpepilogue.c           0x00000000   Number         0  depilogue.o ABSOLUTE
    ../fplib/microlib/fpfix.c                0x00000000   Number         0  dfixui.o ABSOLUTE
    ../fplib/microlib/fpfix.c                0x00000000   Number         0  dfixul.o ABSOLUTE
    ../fplib/microlib/fpflt.c                0x00000000   Number         0  dfltui.o ABSOLUTE
    ../fplib/microlib/fpmul.c                0x00000000   Number         0  dmul.o ABSOLUTE
    ..\Drivers\STM32F1xx_HAL_Driver\Src\stm32f1xx_hal.c 0x00000000   Number         0  stm32f1xx_hal.o ABSOLUTE
    ..\Drivers\STM32F1xx_HAL_Driver\Src\stm32f1xx_hal_cortex.c 0x00000000   Number         0  stm32f1xx_hal_cortex.o ABSOLUTE
    ..\Drivers\STM32F1xx_HAL_Driver\Src\stm32f1xx_hal_crc.c 0x00000000   Number         0  stm32f1xx_hal_crc.o ABSOLUTE
    ..\Drivers\STM32F1xx_HAL_Driver\Src\stm32f1xx_hal_dma.c 0x00000000   Number         0  stm32f1xx_hal_dma.o ABSOLUTE
    ..\Drivers\STM32F1xx_HAL_Driver\Src\stm32f1xx_hal_exti.c 0x00000000   Number         0  stm32f1xx_hal_exti.o ABSOLUTE
    ..\Drivers\STM32F1xx_HAL_Driver\Src\stm32f1xx_hal_flash.c 0x00000000   Number         0  stm32f1xx_hal_flash.o ABSOLUTE
    ..\Drivers\STM32F1xx_HAL_Driver\Src\stm32f1xx_hal_flash_ex.c 0x00000000   Number         0  stm32f1xx_hal_flash_ex.o ABSOLUTE
    ..\Drivers\STM32F1xx_HAL_Driver\Src\stm32f1xx_hal_gpio.c 0x00000000   Number         0  stm32f1xx_hal_gpio.o ABSOLUTE
    ..\Drivers\STM32F1xx_HAL_Driver\Src\stm32f1xx_hal_gpio_ex.c 0x00000000   Number         0  stm32f1xx_hal_gpio_ex.o ABSOLUTE
    ..\Drivers\STM32F1xx_HAL_Driver\Src\stm32f1xx_hal_pwr.c 0x00000000   Number         0  stm32f1xx_hal_pwr.o ABSOLUTE
    ..\Drivers\STM32F1xx_HAL_Driver\Src\stm32f1xx_hal_rcc.c 0x00000000   Number         0  stm32f1xx_hal_rcc.o ABSOLUTE
    ..\Drivers\STM32F1xx_HAL_Driver\Src\stm32f1xx_hal_rcc_ex.c 0x00000000   Number         0  stm32f1xx_hal_rcc_ex.o ABSOLUTE
    ..\Drivers\STM32F1xx_HAL_Driver\Src\stm32f1xx_hal_rtc.c 0x00000000   Number         0  stm32f1xx_hal_rtc.o ABSOLUTE
    ..\Drivers\STM32F1xx_HAL_Driver\Src\stm32f1xx_hal_rtc_ex.c 0x00000000   Number         0  stm32f1xx_hal_rtc_ex.o ABSOLUTE
    ..\Drivers\STM32F1xx_HAL_Driver\Src\stm32f1xx_hal_sd.c 0x00000000   Number         0  stm32f1xx_hal_sd.o ABSOLUTE
    ..\Drivers\STM32F1xx_HAL_Driver\Src\stm32f1xx_hal_sram.c 0x00000000   Number         0  stm32f1xx_hal_sram.o ABSOLUTE
    ..\Drivers\STM32F1xx_HAL_Driver\Src\stm32f1xx_hal_tim.c 0x00000000   Number         0  stm32f1xx_hal_tim.o ABSOLUTE
    ..\Drivers\STM32F1xx_HAL_Driver\Src\stm32f1xx_hal_tim_ex.c 0x00000000   Number         0  stm32f1xx_hal_tim_ex.o ABSOLUTE
    ..\Drivers\STM32F1xx_HAL_Driver\Src\stm32f1xx_hal_uart.c 0x00000000   Number         0  stm32f1xx_hal_uart.o ABSOLUTE
    ..\Drivers\STM32F1xx_HAL_Driver\Src\stm32f1xx_ll_fsmc.c 0x00000000   Number         0  stm32f1xx_ll_fsmc.o ABSOLUTE
    ..\Drivers\STM32F1xx_HAL_Driver\Src\stm32f1xx_ll_sdmmc.c 0x00000000   Number         0  stm32f1xx_ll_sdmmc.o ABSOLUTE
    ..\Lib\Src\iap.c                         0x00000000   Number         0  iap.o ABSOLUTE
    ..\Lib\Src\lcd_header.c                  0x00000000   Number         0  lcd_header.o ABSOLUTE
    ..\Lib\Src\malloc.c                      0x00000000   Number         0  malloc.o ABSOLUTE
    ..\Lib\Src\sram.c                        0x00000000   Number         0  sram.o ABSOLUTE
    ..\Lib\Src\tft_lcd_fsmc.c                0x00000000   Number         0  tft_lcd_fsmc.o ABSOLUTE
    ..\Middlewares\Third_Party\FatFs\src\diskio.c 0x00000000   Number         0  diskio.o ABSOLUTE
    ..\Middlewares\Third_Party\FatFs\src\drivers\sd_diskio.c 0x00000000   Number         0  sd_diskio.o ABSOLUTE
    ..\Middlewares\Third_Party\FatFs\src\ff.c 0x00000000   Number         0  ff.o ABSOLUTE
    ..\Middlewares\Third_Party\FatFs\src\ff_gen_drv.c 0x00000000   Number         0  ff_gen_drv.o ABSOLUTE
    ..\Middlewares\Third_Party\FatFs\src\option\cc936.c 0x00000000   Number         0  cc936.o ABSOLUTE
    ..\Middlewares\Third_Party\FatFs\src\option\syscall.c 0x00000000   Number         0  syscall.o ABSOLUTE
    ..\Src\bsp_driver_sd.c                   0x00000000   Number         0  bsp_driver_sd.o ABSOLUTE
    ..\Src\crc.c                             0x00000000   Number         0  crc.o ABSOLUTE
    ..\Src\fatfs.c                           0x00000000   Number         0  fatfs.o ABSOLUTE
    ..\Src\fsmc.c                            0x00000000   Number         0  fsmc.o ABSOLUTE
    ..\Src\gpio.c                            0x00000000   Number         0  gpio.o ABSOLUTE
    ..\Src\main.c                            0x00000000   Number         0  main.o ABSOLUTE
    ..\Src\rtc.c                             0x00000000   Number         0  rtc.o ABSOLUTE
    ..\Src\sdio.c                            0x00000000   Number         0  sdio.o ABSOLUTE
    ..\Src\stm32f1xx_hal_msp.c               0x00000000   Number         0  stm32f1xx_hal_msp.o ABSOLUTE
    ..\Src\stm32f1xx_it.c                    0x00000000   Number         0  stm32f1xx_it.o ABSOLUTE
    ..\Src\system_stm32f1xx.c                0x00000000   Number         0  system_stm32f1xx.o ABSOLUTE
    ..\Src\usart.c                           0x00000000   Number         0  usart.o ABSOLUTE
    ..\\Lib\\Src\\iap.c                      0x00000000   Number         0  iap.o ABSOLUTE
    ..\\source\\Src\\lcd_show.c              0x00000000   Number         0  lcd_show.o ABSOLUTE
    ..\source\Src\file_list.c                0x00000000   Number         0  file_list.o ABSOLUTE
    ..\source\Src\lcd_show.c                 0x00000000   Number         0  lcd_show.o ABSOLUTE
    cdrcmple.s                               0x00000000   Number         0  cdrcmple.o ABSOLUTE
    dc.s                                     0x00000000   Number         0  dc.o ABSOLUTE
    handlers.s                               0x00000000   Number         0  handlers.o ABSOLUTE
    init.s                                   0x00000000   Number         0  init.o ABSOLUTE
    startup_stm32f103xe.s                    0x00000000   Number         0  startup_stm32f103xe.o ABSOLUTE
    RESET                                    0x08000000   Section      304  startup_stm32f103xe.o(RESET)
    .ARM.Collect$$$$00000000                 0x08000130   Section        0  entry.o(.ARM.Collect$$$$00000000)
    .ARM.Collect$$$$00000001                 0x08000130   Section        4  entry2.o(.ARM.Collect$$$$00000001)
    .ARM.Collect$$$$00000004                 0x08000134   Section        4  entry5.o(.ARM.Collect$$$$00000004)
    .ARM.Collect$$$$00000008                 0x08000138   Section        0  entry7b.o(.ARM.Collect$$$$00000008)
    .ARM.Collect$$$$0000000A                 0x08000138   Section        0  entry8b.o(.ARM.Collect$$$$0000000A)
    .ARM.Collect$$$$0000000B                 0x08000138   Section        8  entry9a.o(.ARM.Collect$$$$0000000B)
    .ARM.Collect$$$$0000000D                 0x08000140   Section        0  entry10a.o(.ARM.Collect$$$$0000000D)
    .ARM.Collect$$$$0000000F                 0x08000140   Section        0  entry11a.o(.ARM.Collect$$$$0000000F)
    .ARM.Collect$$$$00002712                 0x08000140   Section        4  entry2.o(.ARM.Collect$$$$00002712)
    __lit__00000000                          0x08000140   Data           4  entry2.o(.ARM.Collect$$$$00002712)
    .emb_text                                0x08000144   Section        6  iap.o(.emb_text)
    .text                                    0x0800014c   Section       36  startup_stm32f103xe.o(.text)
    .text                                    0x08000170   Section        0  llushr.o(.text)
    .text                                    0x08000190   Section        0  memseta.o(.text)
    .text                                    0x080001b4   Section        0  strstr.o(.text)
    .text                                    0x080001d8   Section        0  strlen.o(.text)
    .text                                    0x080001e6   Section        0  dmul.o(.text)
    .text                                    0x080002ca   Section        0  dfltui.o(.text)
    .text                                    0x080002e4   Section        0  dfixui.o(.text)
    .text                                    0x08000316   Section        0  uidiv.o(.text)
    .text                                    0x08000342   Section        0  iusefp.o(.text)
    .text                                    0x08000342   Section        0  depilogue.o(.text)
    .text                                    0x080003fc   Section       36  init.o(.text)
    .text                                    0x08000420   Section        0  llshl.o(.text)
    i.BSP_SD_GetCardInfo                     0x08000440   Section        0  bsp_driver_sd.o(i.BSP_SD_GetCardInfo)
    i.BSP_SD_GetCardState                    0x0800044c   Section        0  bsp_driver_sd.o(i.BSP_SD_GetCardState)
    i.BSP_SD_Init                            0x08000464   Section        0  bsp_driver_sd.o(i.BSP_SD_Init)
    i.BSP_SD_IsDetected                      0x08000494   Section        0  bsp_driver_sd.o(i.BSP_SD_IsDetected)
    i.BSP_SD_ReadBlocks                      0x080004a4   Section        0  bsp_driver_sd.o(i.BSP_SD_ReadBlocks)
    i.BSP_SD_WriteBlocks                     0x080004c4   Section        0  bsp_driver_sd.o(i.BSP_SD_WriteBlocks)
    i.BusFault_Handler                       0x080004e4   Section        0  stm32f1xx_it.o(i.BusFault_Handler)
    i.DebugMon_Handler                       0x080004e6   Section        0  stm32f1xx_it.o(i.DebugMon_Handler)
    i.EXTI0_IRQHandler                       0x080004e8   Section        0  stm32f1xx_it.o(i.EXTI0_IRQHandler)
    i.EXTI2_IRQHandler                       0x080004ee   Section        0  stm32f1xx_it.o(i.EXTI2_IRQHandler)
    i.EXTI3_IRQHandler                       0x080004f4   Section        0  stm32f1xx_it.o(i.EXTI3_IRQHandler)
    i.EXTI4_IRQHandler                       0x080004fa   Section        0  stm32f1xx_it.o(i.EXTI4_IRQHandler)
    i.EnterFileOrDir                         0x08000500   Section        0  main.o(i.EnterFileOrDir)
    i.Error_Handler                          0x08000594   Section        0  main.o(i.Error_Handler)
    i.FATFS_LinkDriver                       0x08000596   Section        0  ff_gen_drv.o(i.FATFS_LinkDriver)
    i.FATFS_LinkDriverEx                     0x0800059c   Section        0  ff_gen_drv.o(i.FATFS_LinkDriverEx)
    i.FSMC_NORSRAM_Extended_Timing_Init      0x080005dc   Section        0  stm32f1xx_ll_fsmc.o(i.FSMC_NORSRAM_Extended_Timing_Init)
    i.FSMC_NORSRAM_Init                      0x08000618   Section        0  stm32f1xx_ll_fsmc.o(i.FSMC_NORSRAM_Init)
    i.FSMC_NORSRAM_Timing_Init               0x08000680   Section        0  stm32f1xx_ll_fsmc.o(i.FSMC_NORSRAM_Timing_Init)
    i.FSMC_SRAM_WriteBuffer                  0x080006c4   Section        0  sram.o(i.FSMC_SRAM_WriteBuffer)
    i.FileList_Add                           0x080006e0   Section        0  file_list.o(i.FileList_Add)
    i.FileList_GetToDo                       0x08000740   Section        0  file_list.o(i.FileList_GetToDo)
    i.FileList_Init                          0x0800077c   Section        0  file_list.o(i.FileList_Init)
    i.FileList_New                           0x08000788   Section        0  file_list.o(i.FileList_New)
    i.FileList_Traverse                      0x08000792   Section        0  file_list.o(i.FileList_Traverse)
    i.HAL_CRC_Init                           0x080007e8   Section        0  stm32f1xx_hal_crc.o(i.HAL_CRC_Init)
    i.HAL_CRC_MspInit                        0x0800080c   Section        0  crc.o(i.HAL_CRC_MspInit)
    i.HAL_Delay                              0x08000834   Section        0  stm32f1xx_hal.o(i.HAL_Delay)
    i.HAL_FSMC_MspInit                       0x08000858   Section        0  fsmc.o(i.HAL_FSMC_MspInit)
    HAL_FSMC_MspInit                         0x08000859   Thumb Code   124  fsmc.o(i.HAL_FSMC_MspInit)
    i.HAL_GPIO_EXTI_Callback                 0x080008ec   Section        0  main.o(i.HAL_GPIO_EXTI_Callback)
    i.HAL_GPIO_EXTI_IRQHandler               0x08000a60   Section        0  stm32f1xx_hal_gpio.o(i.HAL_GPIO_EXTI_IRQHandler)
    i.HAL_GPIO_Init                          0x08000a78   Section        0  stm32f1xx_hal_gpio.o(i.HAL_GPIO_Init)
    i.HAL_GPIO_TogglePin                     0x08000c70   Section        0  stm32f1xx_hal_gpio.o(i.HAL_GPIO_TogglePin)
    i.HAL_GPIO_WritePin                      0x08000c80   Section        0  stm32f1xx_hal_gpio.o(i.HAL_GPIO_WritePin)
    i.HAL_GetTick                            0x08000c8c   Section        0  stm32f1xx_hal.o(i.HAL_GetTick)
    i.HAL_IncTick                            0x08000c98   Section        0  stm32f1xx_hal.o(i.HAL_IncTick)
    i.HAL_Init                               0x08000ca8   Section        0  stm32f1xx_hal.o(i.HAL_Init)
    i.HAL_InitTick                           0x08000ccc   Section        0  stm32f1xx_hal.o(i.HAL_InitTick)
    i.HAL_MspInit                            0x08000d0c   Section        0  stm32f1xx_hal_msp.o(i.HAL_MspInit)
    i.HAL_NVIC_EnableIRQ                     0x08000d44   Section        0  stm32f1xx_hal_cortex.o(i.HAL_NVIC_EnableIRQ)
    i.HAL_NVIC_SetPriority                   0x08000d60   Section        0  stm32f1xx_hal_cortex.o(i.HAL_NVIC_SetPriority)
    i.HAL_NVIC_SetPriorityGrouping           0x08000da0   Section        0  stm32f1xx_hal_cortex.o(i.HAL_NVIC_SetPriorityGrouping)
    i.HAL_PWR_EnableBkUpAccess               0x08000dc4   Section        0  stm32f1xx_hal_pwr.o(i.HAL_PWR_EnableBkUpAccess)
    i.HAL_RCCEx_GetPeriphCLKFreq             0x08000dd0   Section        0  stm32f1xx_hal_rcc_ex.o(i.HAL_RCCEx_GetPeriphCLKFreq)
    i.HAL_RCCEx_PeriphCLKConfig              0x08000ea4   Section        0  stm32f1xx_hal_rcc_ex.o(i.HAL_RCCEx_PeriphCLKConfig)
    i.HAL_RCC_ClockConfig                    0x08000f90   Section        0  stm32f1xx_hal_rcc.o(i.HAL_RCC_ClockConfig)
    i.HAL_RCC_GetPCLK1Freq                   0x080010bc   Section        0  stm32f1xx_hal_rcc.o(i.HAL_RCC_GetPCLK1Freq)
    i.HAL_RCC_GetPCLK2Freq                   0x080010dc   Section        0  stm32f1xx_hal_rcc.o(i.HAL_RCC_GetPCLK2Freq)
    i.HAL_RCC_GetSysClockFreq                0x080010fc   Section        0  stm32f1xx_hal_rcc.o(i.HAL_RCC_GetSysClockFreq)
    i.HAL_RCC_OscConfig                      0x08001168   Section        0  stm32f1xx_hal_rcc.o(i.HAL_RCC_OscConfig)
    i.HAL_RTC_Init                           0x08001488   Section        0  stm32f1xx_hal_rtc.o(i.HAL_RTC_Init)
    i.HAL_RTC_MspInit                        0x08001528   Section        0  rtc.o(i.HAL_RTC_MspInit)
    i.HAL_RTC_SetDate                        0x0800155c   Section        0  stm32f1xx_hal_rtc.o(i.HAL_RTC_SetDate)
    i.HAL_RTC_SetTime                        0x08001620   Section        0  stm32f1xx_hal_rtc.o(i.HAL_RTC_SetTime)
    i.HAL_RTC_WaitForSynchro                 0x080016cc   Section        0  stm32f1xx_hal_rtc.o(i.HAL_RTC_WaitForSynchro)
    i.HAL_SD_ConfigWideBusOperation          0x08001708   Section        0  stm32f1xx_hal_sd.o(i.HAL_SD_ConfigWideBusOperation)
    i.HAL_SD_GetCardCSD                      0x080017fc   Section        0  stm32f1xx_hal_sd.o(i.HAL_SD_GetCardCSD)
    i.HAL_SD_GetCardInfo                     0x08001994   Section        0  stm32f1xx_hal_sd.o(i.HAL_SD_GetCardInfo)
    i.HAL_SD_GetCardState                    0x080019b8   Section        0  stm32f1xx_hal_sd.o(i.HAL_SD_GetCardState)
    i.HAL_SD_Init                            0x080019e4   Section        0  stm32f1xx_hal_sd.o(i.HAL_SD_Init)
    i.HAL_SD_InitCard                        0x08001a1c   Section        0  stm32f1xx_hal_sd.o(i.HAL_SD_InitCard)
    i.HAL_SD_MspInit                         0x08001a70   Section        0  sdio.o(i.HAL_SD_MspInit)
    i.HAL_SD_ReadBlocks                      0x08001af4   Section        0  stm32f1xx_hal_sd.o(i.HAL_SD_ReadBlocks)
    i.HAL_SD_WriteBlocks                     0x08001cec   Section        0  stm32f1xx_hal_sd.o(i.HAL_SD_WriteBlocks)
    i.HAL_SRAM_Init                          0x08001eb8   Section        0  stm32f1xx_hal_sram.o(i.HAL_SRAM_Init)
    i.HAL_SRAM_MspInit                       0x08001f1c   Section        0  fsmc.o(i.HAL_SRAM_MspInit)
    i.HAL_SYSTICK_Config                     0x08001f20   Section        0  stm32f1xx_hal_cortex.o(i.HAL_SYSTICK_Config)
    i.HAL_UART_Init                          0x08001f48   Section        0  stm32f1xx_hal_uart.o(i.HAL_UART_Init)
    i.HAL_UART_MspInit                       0x08001fac   Section        0  usart.o(i.HAL_UART_MspInit)
    i.HAL_UART_Transmit                      0x0800201c   Section        0  stm32f1xx_hal_uart.o(i.HAL_UART_Transmit)
    i.HardFault_Handler                      0x080020ce   Section        0  stm32f1xx_it.o(i.HardFault_Handler)
    i.LCD_Clear                              0x080020d0   Section        0  lcd_header.o(i.LCD_Clear)
    i.LCD_Display_Dir                        0x0800213c   Section        0  lcd_header.o(i.LCD_Display_Dir)
    i.LCD_Fast_DrawPoint                     0x08002270   Section        0  lcd_header.o(i.LCD_Fast_DrawPoint)
    i.LCD_Fill                               0x0800238c   Section        0  lcd_header.o(i.LCD_Fill)
    i.LCD_GetID                              0x08002418   Section        0  tft_lcd_fsmc.o(i.LCD_GetID)
    i.LCD_Init                               0x08002538   Section        0  lcd_header.o(i.LCD_Init)
    i.LCD_RD_DATA                            0x0800587c   Section        0  tft_lcd_fsmc.o(i.LCD_RD_DATA)
    i.LCD_ReadReg                            0x08005890   Section        0  tft_lcd_fsmc.o(i.LCD_ReadReg)
    i.LCD_SSD_BackLightSet                   0x0800589c   Section        0  lcd_header.o(i.LCD_SSD_BackLightSet)
    i.LCD_Scan_Dir                           0x080058e8   Section        0  lcd_header.o(i.LCD_Scan_Dir)
    i.LCD_SetCursor                          0x08005aec   Section        0  lcd_header.o(i.LCD_SetCursor)
    i.LCD_ShowChar                           0x08005c34   Section        0  lcd_header.o(i.LCD_ShowChar)
    i.LCD_ShowString                         0x08005d08   Section        0  lcd_header.o(i.LCD_ShowString)
    i.LCD_WR_DATA                            0x08005d5c   Section        0  tft_lcd_fsmc.o(i.LCD_WR_DATA)
    i.LCD_WR_REG                             0x08005d68   Section        0  tft_lcd_fsmc.o(i.LCD_WR_REG)
    i.LCD_WriteRAM_Prepare                   0x08005d74   Section        0  tft_lcd_fsmc.o(i.LCD_WriteRAM_Prepare)
    i.LCD_WriteReg                           0x08005d88   Section        0  tft_lcd_fsmc.o(i.LCD_WriteReg)
    i.MX_CRC_Init                            0x08005d98   Section        0  crc.o(i.MX_CRC_Init)
    i.MX_FATFS_Init                          0x08005dbc   Section        0  fatfs.o(i.MX_FATFS_Init)
    i.MX_FSMC_Init                           0x08005dd8   Section        0  fsmc.o(i.MX_FSMC_Init)
    i.MX_GPIO_Init                           0x08005e9c   Section        0  gpio.o(i.MX_GPIO_Init)
    i.MX_RTC_Init                            0x08005ff4   Section        0  rtc.o(i.MX_RTC_Init)
    i.MX_SDIO_SD_Init                        0x08006064   Section        0  sdio.o(i.MX_SDIO_SD_Init)
    i.MX_USART1_UART_Init                    0x08006088   Section        0  usart.o(i.MX_USART1_UART_Init)
    i.MemManage_Handler                      0x080060c0   Section        0  stm32f1xx_it.o(i.MemManage_Handler)
    i.NMI_Handler                            0x080060c2   Section        0  stm32f1xx_it.o(i.NMI_Handler)
    i.PendSV_Handler                         0x080060c4   Section        0  stm32f1xx_it.o(i.PendSV_Handler)
    i.RTC_Bcd2ToByte                         0x080060c6   Section        0  stm32f1xx_hal_rtc.o(i.RTC_Bcd2ToByte)
    RTC_Bcd2ToByte                           0x080060c7   Thumb Code    18  stm32f1xx_hal_rtc.o(i.RTC_Bcd2ToByte)
    i.RTC_EnterInitMode                      0x080060d8   Section        0  stm32f1xx_hal_rtc.o(i.RTC_EnterInitMode)
    RTC_EnterInitMode                        0x080060d9   Thumb Code    52  stm32f1xx_hal_rtc.o(i.RTC_EnterInitMode)
    i.RTC_ExitInitMode                       0x0800610c   Section        0  stm32f1xx_hal_rtc.o(i.RTC_ExitInitMode)
    RTC_ExitInitMode                         0x0800610d   Thumb Code    54  stm32f1xx_hal_rtc.o(i.RTC_ExitInitMode)
    i.RTC_ReadAlarmCounter                   0x08006142   Section        0  stm32f1xx_hal_rtc.o(i.RTC_ReadAlarmCounter)
    RTC_ReadAlarmCounter                     0x08006143   Thumb Code    14  stm32f1xx_hal_rtc.o(i.RTC_ReadAlarmCounter)
    i.RTC_ReadTimeCounter                    0x08006150   Section        0  stm32f1xx_hal_rtc.o(i.RTC_ReadTimeCounter)
    RTC_ReadTimeCounter                      0x08006151   Thumb Code    32  stm32f1xx_hal_rtc.o(i.RTC_ReadTimeCounter)
    i.RTC_WeekDayNum                         0x08006170   Section        0  stm32f1xx_hal_rtc.o(i.RTC_WeekDayNum)
    RTC_WeekDayNum                           0x08006171   Thumb Code    86  stm32f1xx_hal_rtc.o(i.RTC_WeekDayNum)
    i.RTC_WriteAlarmCounter                  0x080061c6   Section        0  stm32f1xx_hal_rtc.o(i.RTC_WriteAlarmCounter)
    RTC_WriteAlarmCounter                    0x080061c7   Thumb Code    40  stm32f1xx_hal_rtc.o(i.RTC_WriteAlarmCounter)
    i.RTC_WriteTimeCounter                   0x080061ee   Section        0  stm32f1xx_hal_rtc.o(i.RTC_WriteTimeCounter)
    RTC_WriteTimeCounter                     0x080061ef   Thumb Code    40  stm32f1xx_hal_rtc.o(i.RTC_WriteTimeCounter)
    i.SDIO_ConfigData                        0x08006216   Section        0  stm32f1xx_ll_sdmmc.o(i.SDIO_ConfigData)
    i.SDIO_GetPowerState                     0x0800623a   Section        0  stm32f1xx_ll_sdmmc.o(i.SDIO_GetPowerState)
    i.SDIO_GetResponse                       0x08006242   Section        0  stm32f1xx_ll_sdmmc.o(i.SDIO_GetResponse)
    i.SDIO_Init                              0x08006248   Section        0  stm32f1xx_ll_sdmmc.o(i.SDIO_Init)
    i.SDIO_PowerState_ON                     0x0800626c   Section        0  stm32f1xx_ll_sdmmc.o(i.SDIO_PowerState_ON)
    i.SDIO_ReadFIFO                          0x0800627c   Section        0  stm32f1xx_ll_sdmmc.o(i.SDIO_ReadFIFO)
    i.SDIO_SendCommand                       0x08006282   Section        0  stm32f1xx_ll_sdmmc.o(i.SDIO_SendCommand)
    i.SDIO_WriteFIFO                         0x080062a2   Section        0  stm32f1xx_ll_sdmmc.o(i.SDIO_WriteFIFO)
    i.SDMMC_CmdAppCommand                    0x080062ac   Section        0  stm32f1xx_ll_sdmmc.o(i.SDMMC_CmdAppCommand)
    i.SDMMC_CmdAppOperCommand                0x080062e0   Section        0  stm32f1xx_ll_sdmmc.o(i.SDMMC_CmdAppOperCommand)
    i.SDMMC_CmdBlockLength                   0x08006314   Section        0  stm32f1xx_ll_sdmmc.o(i.SDMMC_CmdBlockLength)
    i.SDMMC_CmdBusWidth                      0x08006346   Section        0  stm32f1xx_ll_sdmmc.o(i.SDMMC_CmdBusWidth)
    i.SDMMC_CmdGoIdleState                   0x08006378   Section        0  stm32f1xx_ll_sdmmc.o(i.SDMMC_CmdGoIdleState)
    i.SDMMC_CmdOperCond                      0x080063c8   Section        0  stm32f1xx_ll_sdmmc.o(i.SDMMC_CmdOperCond)
    i.SDMMC_CmdReadMultiBlock                0x0800643c   Section        0  stm32f1xx_ll_sdmmc.o(i.SDMMC_CmdReadMultiBlock)
    i.SDMMC_CmdReadSingleBlock               0x0800646e   Section        0  stm32f1xx_ll_sdmmc.o(i.SDMMC_CmdReadSingleBlock)
    i.SDMMC_CmdSelDesel                      0x080064a0   Section        0  stm32f1xx_ll_sdmmc.o(i.SDMMC_CmdSelDesel)
    i.SDMMC_CmdSendCID                       0x080064d2   Section        0  stm32f1xx_ll_sdmmc.o(i.SDMMC_CmdSendCID)
    i.SDMMC_CmdSendCSD                       0x080064fe   Section        0  stm32f1xx_ll_sdmmc.o(i.SDMMC_CmdSendCSD)
    i.SDMMC_CmdSendSCR                       0x0800652a   Section        0  stm32f1xx_ll_sdmmc.o(i.SDMMC_CmdSendSCR)
    i.SDMMC_CmdSendStatus                    0x0800655a   Section        0  stm32f1xx_ll_sdmmc.o(i.SDMMC_CmdSendStatus)
    i.SDMMC_CmdSetRelAdd                     0x0800658c   Section        0  stm32f1xx_ll_sdmmc.o(i.SDMMC_CmdSetRelAdd)
    i.SDMMC_CmdStopTransfer                  0x080065bc   Section        0  stm32f1xx_ll_sdmmc.o(i.SDMMC_CmdStopTransfer)
    i.SDMMC_CmdWriteMultiBlock               0x080065f0   Section        0  stm32f1xx_ll_sdmmc.o(i.SDMMC_CmdWriteMultiBlock)
    i.SDMMC_CmdWriteSingleBlock              0x08006622   Section        0  stm32f1xx_ll_sdmmc.o(i.SDMMC_CmdWriteSingleBlock)
    i.SDMMC_GetCmdResp1                      0x08006654   Section        0  stm32f1xx_ll_sdmmc.o(i.SDMMC_GetCmdResp1)
    SDMMC_GetCmdResp1                        0x08006655   Thumb Code   278  stm32f1xx_ll_sdmmc.o(i.SDMMC_GetCmdResp1)
    i.SDMMC_GetCmdResp2                      0x08006774   Section        0  stm32f1xx_ll_sdmmc.o(i.SDMMC_GetCmdResp2)
    SDMMC_GetCmdResp2                        0x08006775   Thumb Code    76  stm32f1xx_ll_sdmmc.o(i.SDMMC_GetCmdResp2)
    i.SDMMC_GetCmdResp3                      0x080067c4   Section        0  stm32f1xx_ll_sdmmc.o(i.SDMMC_GetCmdResp3)
    SDMMC_GetCmdResp3                        0x080067c5   Thumb Code    62  stm32f1xx_ll_sdmmc.o(i.SDMMC_GetCmdResp3)
    i.SDMMC_GetCmdResp6                      0x08006808   Section        0  stm32f1xx_ll_sdmmc.o(i.SDMMC_GetCmdResp6)
    SDMMC_GetCmdResp6                        0x08006809   Thumb Code   130  stm32f1xx_ll_sdmmc.o(i.SDMMC_GetCmdResp6)
    i.SD_FindSCR                             0x08006890   Section        0  stm32f1xx_hal_sd.o(i.SD_FindSCR)
    SD_FindSCR                               0x08006891   Thumb Code   212  stm32f1xx_hal_sd.o(i.SD_FindSCR)
    i.SD_InitCard                            0x08006964   Section        0  stm32f1xx_hal_sd.o(i.SD_InitCard)
    SD_InitCard                              0x08006965   Thumb Code   238  stm32f1xx_hal_sd.o(i.SD_InitCard)
    i.SD_PowerON                             0x08006a54   Section        0  stm32f1xx_hal_sd.o(i.SD_PowerON)
    SD_PowerON                               0x08006a55   Thumb Code   174  stm32f1xx_hal_sd.o(i.SD_PowerON)
    i.SD_initialize                          0x08006b08   Section        0  sd_diskio.o(i.SD_initialize)
    i.SD_ioctl                               0x08006b28   Section        0  sd_diskio.o(i.SD_ioctl)
    i.SD_read                                0x08006b78   Section        0  sd_diskio.o(i.SD_read)
    i.SD_status                              0x08006bb4   Section        0  sd_diskio.o(i.SD_status)
    i.SD_write                               0x08006bd4   Section        0  sd_diskio.o(i.SD_write)
    i.SVC_Handler                            0x08006c10   Section        0  stm32f1xx_it.o(i.SVC_Handler)
    i.SysTick_Handler                        0x08006c12   Section        0  stm32f1xx_it.o(i.SysTick_Handler)
    i.SystemClock_Config                     0x08006c16   Section        0  main.o(i.SystemClock_Config)
    i.SystemInit                             0x08006c7e   Section        0  system_stm32f1xx.o(i.SystemInit)
    i.UART_SetConfig                         0x08006c80   Section        0  stm32f1xx_hal_uart.o(i.UART_SetConfig)
    UART_SetConfig                           0x08006c81   Thumb Code   178  stm32f1xx_hal_uart.o(i.UART_SetConfig)
    i.UART_WaitOnFlagUntilTimeout            0x08006d38   Section        0  stm32f1xx_hal_uart.o(i.UART_WaitOnFlagUntilTimeout)
    UART_WaitOnFlagUntilTimeout              0x08006d39   Thumb Code   100  stm32f1xx_hal_uart.o(i.UART_WaitOnFlagUntilTimeout)
    i.UsageFault_Handler                     0x08006d9c   Section        0  stm32f1xx_it.o(i.UsageFault_Handler)
    i.__0printf$3                            0x08006da0   Section        0  printf3.o(i.__0printf$3)
    i.__0sprintf$3                           0x08006dc0   Section        0  printf3.o(i.__0sprintf$3)
    i.__NVIC_SetPriority                     0x08006de8   Section        0  stm32f1xx_hal_cortex.o(i.__NVIC_SetPriority)
    __NVIC_SetPriority                       0x08006de9   Thumb Code    32  stm32f1xx_hal_cortex.o(i.__NVIC_SetPriority)
    i.__scatterload_copy                     0x08006e08   Section       14  handlers.o(i.__scatterload_copy)
    i.__scatterload_null                     0x08006e16   Section        2  handlers.o(i.__scatterload_null)
    i.__scatterload_zeroinit                 0x08006e18   Section       14  handlers.o(i.__scatterload_zeroinit)
    i._printf_core                           0x08006e28   Section        0  printf3.o(i._printf_core)
    _printf_core                             0x08006e29   Thumb Code   436  printf3.o(i._printf_core)
    i._sputc                                 0x08006fe0   Section        0  printf3.o(i._sputc)
    _sputc                                   0x08006fe1   Thumb Code    10  printf3.o(i._sputc)
    i.check_fs                               0x08006fec   Section        0  ff.o(i.check_fs)
    check_fs                                 0x08006fed   Thumb Code    90  ff.o(i.check_fs)
    i.chk_chr                                0x0800704c   Section        0  ff.o(i.chk_chr)
    chk_chr                                  0x0800704d   Thumb Code    16  ff.o(i.chk_chr)
    i.chk_lock                               0x0800705c   Section        0  ff.o(i.chk_lock)
    chk_lock                                 0x0800705d   Thumb Code   102  ff.o(i.chk_lock)
    i.clear_lock                             0x080070c8   Section        0  ff.o(i.clear_lock)
    clear_lock                               0x080070c9   Thumb Code    32  ff.o(i.clear_lock)
    i.clmt_clust                             0x080070ec   Section        0  ff.o(i.clmt_clust)
    clmt_clust                               0x080070ed   Thumb Code    42  ff.o(i.clmt_clust)
    i.clust2sect                             0x08007116   Section        0  ff.o(i.clust2sect)
    i.create_chain                           0x08007134   Section        0  ff.o(i.create_chain)
    create_chain                             0x08007135   Thumb Code   176  ff.o(i.create_chain)
    i.create_name                            0x080071e4   Section        0  ff.o(i.create_name)
    create_name                              0x080071e5   Thumb Code   558  ff.o(i.create_name)
    i.dec_lock                               0x08007428   Section        0  ff.o(i.dec_lock)
    dec_lock                                 0x08007429   Thumb Code    54  ff.o(i.dec_lock)
    i.dir_find                               0x08007464   Section        0  ff.o(i.dir_find)
    dir_find                                 0x08007465   Thumb Code   320  ff.o(i.dir_find)
    i.dir_next                               0x080075a8   Section        0  ff.o(i.dir_next)
    dir_next                                 0x080075a9   Thumb Code   286  ff.o(i.dir_next)
    i.dir_read                               0x080076c8   Section        0  ff.o(i.dir_read)
    dir_read                                 0x080076c9   Thumb Code   258  ff.o(i.dir_read)
    i.dir_register                           0x080077d0   Section        0  ff.o(i.dir_register)
    dir_register                             0x080077d1   Thumb Code   460  ff.o(i.dir_register)
    i.dir_sdi                                0x080079a0   Section        0  ff.o(i.dir_sdi)
    dir_sdi                                  0x080079a1   Thumb Code   152  ff.o(i.dir_sdi)
    i.disk_initialize                        0x08007a38   Section        0  diskio.o(i.disk_initialize)
    i.disk_ioctl                             0x08007a60   Section        0  diskio.o(i.disk_ioctl)
    i.disk_read                              0x08007a7c   Section        0  diskio.o(i.disk_read)
    i.disk_status                            0x08007a98   Section        0  diskio.o(i.disk_status)
    i.disk_write                             0x08007ab0   Section        0  diskio.o(i.disk_write)
    i.f_close                                0x08007acc   Section        0  ff.o(i.f_close)
    i.f_closedir                             0x08007af6   Section        0  ff.o(i.f_closedir)
    i.f_gets                                 0x08007b1a   Section        0  ff.o(i.f_gets)
    i.f_lseek                                0x08007b64   Section        0  ff.o(i.f_lseek)
    i.f_mount                                0x08007de8   Section        0  ff.o(i.f_mount)
    i.f_open                                 0x08007e44   Section        0  ff.o(i.f_open)
    i.f_opendir                              0x08008014   Section        0  ff.o(i.f_opendir)
    i.f_read                                 0x080080c4   Section        0  ff.o(i.f_read)
    i.f_readdir                              0x08008250   Section        0  ff.o(i.f_readdir)
    i.f_sync                                 0x080082ca   Section        0  ff.o(i.f_sync)
    i.ff_convert                             0x08008384   Section        0  cc936.o(i.ff_convert)
    i.ff_memalloc                            0x080083d0   Section        0  syscall.o(i.ff_memalloc)
    i.ff_memfree                             0x080083d4   Section        0  syscall.o(i.ff_memfree)
    i.ff_wtoupper                            0x080083d8   Section        0  cc936.o(i.ff_wtoupper)
    i.findFileAndDir                         0x080083fc   Section        0  main.o(i.findFileAndDir)
    i.find_volume                            0x080084d8   Section        0  ff.o(i.find_volume)
    find_volume                              0x080084d9   Thumb Code   588  ff.o(i.find_volume)
    i.follow_path                            0x08008730   Section        0  ff.o(i.follow_path)
    follow_path                              0x08008731   Thumb Code   114  ff.o(i.follow_path)
    i.fputc                                  0x080087a4   Section        0  main.o(i.fputc)
    i.free                                   0x080087bc   Section        0  malloc.o(i.free)
    i.gen_numname                            0x0800880c   Section        0  ff.o(i.gen_numname)
    gen_numname                              0x0800880d   Thumb Code   136  ff.o(i.gen_numname)
    i.get_fat                                0x08008898   Section        0  ff.o(i.get_fat)
    i.get_fattime                            0x0800895a   Section        0  fatfs.o(i.get_fattime)
    i.get_fileinfo                           0x0800895e   Section        0  ff.o(i.get_fileinfo)
    get_fileinfo                             0x0800895f   Thumb Code   206  ff.o(i.get_fileinfo)
    i.get_ldnumber                           0x08008a2c   Section        0  ff.o(i.get_ldnumber)
    get_ldnumber                             0x08008a2d   Thumb Code    60  ff.o(i.get_ldnumber)
    i.iap_load_app                           0x08008a68   Section        0  iap.o(i.iap_load_app)
    i.iap_write_appbin                       0x08008a94   Section        0  iap.o(i.iap_write_appbin)
    i.inc_lock                               0x08008aa0   Section        0  ff.o(i.inc_lock)
    inc_lock                                 0x08008aa1   Thumb Code   154  ff.o(i.inc_lock)
    i.ld_clust                               0x08008b40   Section        0  ff.o(i.ld_clust)
    ld_clust                                 0x08008b41   Thumb Code    20  ff.o(i.ld_clust)
    i.main                                   0x08008b54   Section        0  main.o(i.main)
    i.malloc                                 0x08008c00   Section        0  malloc.o(i.malloc)
    i.mem_cpy                                0x08008c6c   Section        0  ff.o(i.mem_cpy)
    mem_cpy                                  0x08008c6d   Thumb Code    18  ff.o(i.mem_cpy)
    i.mem_set                                0x08008c7e   Section        0  ff.o(i.mem_set)
    mem_set                                  0x08008c7f   Thumb Code    14  ff.o(i.mem_set)
    i.move_window                            0x08008c8c   Section        0  ff.o(i.move_window)
    move_window                              0x08008c8d   Thumb Code    54  ff.o(i.move_window)
    i.my_mem_free                            0x08008cc4   Section        0  malloc.o(i.my_mem_free)
    i.my_mem_init                            0x08008d1c   Section        0  malloc.o(i.my_mem_init)
    i.my_mem_malloc                          0x08008d58   Section        0  malloc.o(i.my_mem_malloc)
    i.my_mem_perused                         0x08008de8   Section        0  malloc.o(i.my_mem_perused)
    i.myfree                                 0x08008e20   Section        0  malloc.o(i.myfree)
    i.mymalloc                               0x08008e38   Section        0  malloc.o(i.mymalloc)
    i.mymemcpy                               0x08008e58   Section        0  malloc.o(i.mymemcpy)
    i.mymemset                               0x08008e6c   Section        0  malloc.o(i.mymemset)
    i.put_fat                                0x08008e7a   Section        0  ff.o(i.put_fat)
    i.readDataToSram                         0x08008f74   Section        0  main.o(i.readDataToSram)
    i.remove_chain                           0x0800906c   Section        0  ff.o(i.remove_chain)
    remove_chain                             0x0800906d   Thumb Code   110  ff.o(i.remove_chain)
    i.showFileList                           0x080090dc   Section        0  lcd_show.o(i.showFileList)
    i.showFileListReset                      0x0800913c   Section        0  lcd_show.o(i.showFileListReset)
    i.st_clust                               0x08009150   Section        0  ff.o(i.st_clust)
    st_clust                                 0x08009151   Thumb Code    16  ff.o(i.st_clust)
    i.sum_sfn                                0x08009160   Section        0  ff.o(i.sum_sfn)
    sum_sfn                                  0x08009161   Thumb Code    26  ff.o(i.sum_sfn)
    i.sync_fs                                0x0800917a   Section        0  ff.o(i.sync_fs)
    sync_fs                                  0x0800917b   Thumb Code   182  ff.o(i.sync_fs)
    i.sync_window                            0x08009230   Section        0  ff.o(i.sync_window)
    sync_window                              0x08009231   Thumb Code    96  ff.o(i.sync_window)
    i.validate                               0x08009290   Section        0  ff.o(i.validate)
    validate                                 0x08009291   Thumb Code    44  ff.o(i.validate)
    .constdata                               0x080092bc   Section       16  system_stm32f1xx.o(.constdata)
    .constdata                               0x080092cc   Section        8  system_stm32f1xx.o(.constdata)
    .constdata                               0x080092d4   Section       58  ff.o(.constdata)
    LfnOfs                                   0x080092d4   Data          13  ff.o(.constdata)
    vst                                      0x080092e2   Data          22  ff.o(.constdata)
    cst                                      0x080092f8   Data          22  ff.o(.constdata)
    .constdata                               0x0800930e   Section    175304  cc936.o(.constdata)
    uni2oem                                  0x0800930e   Data       87172  cc936.o(.constdata)
    oem2uni                                  0x0801e792   Data       87172  cc936.o(.constdata)
    tbl_lower                                0x08033c16   Data         480  cc936.o(.constdata)
    tbl_upper                                0x08033df6   Data         480  cc936.o(.constdata)
    .constdata                               0x08033fd8   Section       20  sd_diskio.o(.constdata)
    .constdata                               0x08033fec   Section     6080  lcd_header.o(.constdata)
    .constdata                               0x080357ac   Section       24  malloc.o(.constdata)
    .conststring                             0x080357c4   Section        2  main.o(.conststring)
    .data                                    0x20000000   Section       24  main.o(.data)
    fileIndex                                0x20000001   Data           1  main.o(.data)
    .data                                    0x20000018   Section        8  crc.o(.data)
    .data                                    0x20000020   Section        5  fatfs.o(.data)
    .data                                    0x20000028   Section        8  fsmc.o(.data)
    FSMC_Initialized                         0x20000028   Data           4  fsmc.o(.data)
    FSMC_DeInitialized                       0x2000002c   Data           4  fsmc.o(.data)
    .data                                    0x20000030   Section       12  stm32f1xx_hal.o(.data)
    .data                                    0x2000003c   Section        4  system_stm32f1xx.o(.data)
    .data                                    0x20000040   Section        8  ff.o(.data)
    Fsid                                     0x20000040   Data           2  ff.o(.data)
    FatFs                                    0x20000044   Data           4  ff.o(.data)
    .data                                    0x20000048   Section        1  sd_diskio.o(.data)
    Stat                                     0x20000048   Data           1  sd_diskio.o(.data)
    .data                                    0x2000004c   Section        4  lcd_header.o(.data)
    .data                                    0x20000050   Section        2  tft_lcd_fsmc.o(.data)
    .data                                    0x20000052   Section        2  tft_lcd_fsmc.o(.data)
    .data                                    0x20000054   Section       28  malloc.o(.data)
    .data                                    0x20000070   Section        4  iap.o(.data)
    .data                                    0x20000074   Section       16  lcd_show.o(.data)
    .data                                    0x20000084   Section        4  stdout.o(.data)
    .data                                    0x20000088   Section        4  mvars.o(.data)
    .data                                    0x2000008c   Section        4  mvars.o(.data)
    .bss                                     0x20000090   Section       12  main.o(.bss)
    .bss                                     0x2000009c   Section      560  fatfs.o(.bss)
    .bss                                     0x200002cc   Section      144  fsmc.o(.bss)
    .bss                                     0x2000035c   Section       20  rtc.o(.bss)
    .bss                                     0x20000370   Section      132  sdio.o(.bss)
    .bss                                     0x200003f4   Section       64  usart.o(.bss)
    .bss                                     0x20000434   Section       24  ff.o(.bss)
    Files                                    0x20000434   Data          24  ff.o(.bss)
    .bss                                     0x2000044c   Section       12  ff_gen_drv.o(.bss)
    .bss                                     0x20000458   Section       14  tft_lcd_fsmc.o(.bss)
    .bss                                     0x20000480   Section    40960  malloc.o(.bss)
    .bss                                     0x2000a480   Section     2560  malloc.o(.bss)
    .bss                                     0x2000ae80   Section       12  file_list.o(.bss)
    HEAP                                     0x2000ae90   Section     4096  startup_stm32f103xe.o(HEAP)
    STACK                                    0x2000be90   Section     4096  startup_stm32f103xe.o(STACK)
    .ARM.__AT_0x68000000                     0x68000000   Section    983040  malloc.o(.ARM.__AT_0x68000000)
    .ARM.__AT_0x680F0000                     0x680f0000   Section    61440  malloc.o(.ARM.__AT_0x680F0000)

    Global Symbols

    Symbol Name                              Value     Ov Type        Size  Object(Section)

    BuildAttributes$$THM_ISAv4$P$D$K$B$S$PE$A:L22UL41UL21$X:L11$S22US41US21$IEEE1$IW$USESV6$~STKCKD$USESV7$~SHL$OSPACE$ROPI$EBA8$MICROLIB$REQ8$PRES8$EABIv2 0x00000000   Number         0  anon$$obj.o ABSOLUTE
    __ARM_use_no_argv                        0x00000000   Number         0  main.o ABSOLUTE
    _printf_a                                0x00000000   Number         0  stubs.o ABSOLUTE
    _printf_c                                0x00000000   Number         0  stubs.o ABSOLUTE
    _printf_charcount                        0x00000000   Number         0  stubs.o ABSOLUTE
    _printf_d                                0x00000000   Number         0  stubs.o ABSOLUTE
    _printf_e                                0x00000000   Number         0  stubs.o ABSOLUTE
    _printf_f                                0x00000000   Number         0  stubs.o ABSOLUTE
    _printf_flags                            0x00000000   Number         0  stubs.o ABSOLUTE
    _printf_fp_dec                           0x00000000   Number         0  stubs.o ABSOLUTE
    _printf_fp_hex                           0x00000000   Number         0  stubs.o ABSOLUTE
    _printf_g                                0x00000000   Number         0  stubs.o ABSOLUTE
    _printf_i                                0x00000000   Number         0  stubs.o ABSOLUTE
    _printf_int_dec                          0x00000000   Number         0  stubs.o ABSOLUTE
    _printf_l                                0x00000000   Number         0  stubs.o ABSOLUTE
    _printf_lc                               0x00000000   Number         0  stubs.o ABSOLUTE
    _printf_ll                               0x00000000   Number         0  stubs.o ABSOLUTE
    _printf_lld                              0x00000000   Number         0  stubs.o ABSOLUTE
    _printf_lli                              0x00000000   Number         0  stubs.o ABSOLUTE
    _printf_llo                              0x00000000   Number         0  stubs.o ABSOLUTE
    _printf_llu                              0x00000000   Number         0  stubs.o ABSOLUTE
    _printf_llx                              0x00000000   Number         0  stubs.o ABSOLUTE
    _printf_longlong_dec                     0x00000000   Number         0  stubs.o ABSOLUTE
    _printf_longlong_hex                     0x00000000   Number         0  stubs.o ABSOLUTE
    _printf_longlong_oct                     0x00000000   Number         0  stubs.o ABSOLUTE
    _printf_ls                               0x00000000   Number         0  stubs.o ABSOLUTE
    _printf_mbtowc                           0x00000000   Number         0  stubs.o ABSOLUTE
    _printf_n                                0x00000000   Number         0  stubs.o ABSOLUTE
    _printf_o                                0x00000000   Number         0  stubs.o ABSOLUTE
    _printf_p                                0x00000000   Number         0  stubs.o ABSOLUTE
    _printf_percent                          0x00000000   Number         0  stubs.o ABSOLUTE
    _printf_pre_padding                      0x00000000   Number         0  stubs.o ABSOLUTE
    _printf_return_value                     0x00000000   Number         0  stubs.o ABSOLUTE
    _printf_s                                0x00000000   Number         0  stubs.o ABSOLUTE
    _printf_sizespec                         0x00000000   Number         0  stubs.o ABSOLUTE
    _printf_str                              0x00000000   Number         0  stubs.o ABSOLUTE
    _printf_truncate_signed                  0x00000000   Number         0  stubs.o ABSOLUTE
    _printf_truncate_unsigned                0x00000000   Number         0  stubs.o ABSOLUTE
    _printf_u                                0x00000000   Number         0  stubs.o ABSOLUTE
    _printf_wc                               0x00000000   Number         0  stubs.o ABSOLUTE
    _printf_wctomb                           0x00000000   Number         0  stubs.o ABSOLUTE
    _printf_widthprec                        0x00000000   Number         0  stubs.o ABSOLUTE
    _printf_x                                0x00000000   Number         0  stubs.o ABSOLUTE
    __cpp_initialize__aeabi_                  - Undefined Weak Reference
    __cxa_finalize                            - Undefined Weak Reference
    __decompress                              - Undefined Weak Reference
    _clock_init                               - Undefined Weak Reference
    _microlib_exit                            - Undefined Weak Reference
    __Vectors_Size                           0x00000130   Number         0  startup_stm32f103xe.o ABSOLUTE
    __Vectors                                0x08000000   Data           4  startup_stm32f103xe.o(RESET)
    __Vectors_End                            0x08000130   Data           0  startup_stm32f103xe.o(RESET)
    __main                                   0x08000131   Thumb Code     0  entry.o(.ARM.Collect$$$$00000000)
    _main_stk                                0x08000131   Thumb Code     0  entry2.o(.ARM.Collect$$$$00000001)
    _main_scatterload                        0x08000135   Thumb Code     0  entry5.o(.ARM.Collect$$$$00000004)
    __main_after_scatterload                 0x08000139   Thumb Code     0  entry5.o(.ARM.Collect$$$$00000004)
    _main_clock                              0x08000139   Thumb Code     0  entry7b.o(.ARM.Collect$$$$00000008)
    _main_cpp_init                           0x08000139   Thumb Code     0  entry8b.o(.ARM.Collect$$$$0000000A)
    _main_init                               0x08000139   Thumb Code     0  entry9a.o(.ARM.Collect$$$$0000000B)
    __rt_final_cpp                           0x08000141   Thumb Code     0  entry10a.o(.ARM.Collect$$$$0000000D)
    __rt_final_exit                          0x08000141   Thumb Code     0  entry11a.o(.ARM.Collect$$$$0000000F)
    MSR_MSP                                  0x08000145   Thumb Code     6  iap.o(.emb_text)
    Reset_Handler                            0x0800014d   Thumb Code     8  startup_stm32f103xe.o(.text)
    ADC1_2_IRQHandler                        0x08000167   Thumb Code     0  startup_stm32f103xe.o(.text)
    ADC3_IRQHandler                          0x08000167   Thumb Code     0  startup_stm32f103xe.o(.text)
    CAN1_RX1_IRQHandler                      0x08000167   Thumb Code     0  startup_stm32f103xe.o(.text)
    CAN1_SCE_IRQHandler                      0x08000167   Thumb Code     0  startup_stm32f103xe.o(.text)
    DMA1_Channel1_IRQHandler                 0x08000167   Thumb Code     0  startup_stm32f103xe.o(.text)
    DMA1_Channel2_IRQHandler                 0x08000167   Thumb Code     0  startup_stm32f103xe.o(.text)
    DMA1_Channel3_IRQHandler                 0x08000167   Thumb Code     0  startup_stm32f103xe.o(.text)
    DMA1_Channel4_IRQHandler                 0x08000167   Thumb Code     0  startup_stm32f103xe.o(.text)
    DMA1_Channel5_IRQHandler                 0x08000167   Thumb Code     0  startup_stm32f103xe.o(.text)
    DMA1_Channel6_IRQHandler                 0x08000167   Thumb Code     0  startup_stm32f103xe.o(.text)
    DMA1_Channel7_IRQHandler                 0x08000167   Thumb Code     0  startup_stm32f103xe.o(.text)
    DMA2_Channel1_IRQHandler                 0x08000167   Thumb Code     0  startup_stm32f103xe.o(.text)
    DMA2_Channel2_IRQHandler                 0x08000167   Thumb Code     0  startup_stm32f103xe.o(.text)
    DMA2_Channel3_IRQHandler                 0x08000167   Thumb Code     0  startup_stm32f103xe.o(.text)
    DMA2_Channel4_5_IRQHandler               0x08000167   Thumb Code     0  startup_stm32f103xe.o(.text)
    EXTI15_10_IRQHandler                     0x08000167   Thumb Code     0  startup_stm32f103xe.o(.text)
    EXTI1_IRQHandler                         0x08000167   Thumb Code     0  startup_stm32f103xe.o(.text)
    EXTI9_5_IRQHandler                       0x08000167   Thumb Code     0  startup_stm32f103xe.o(.text)
    FLASH_IRQHandler                         0x08000167   Thumb Code     0  startup_stm32f103xe.o(.text)
    FSMC_IRQHandler                          0x08000167   Thumb Code     0  startup_stm32f103xe.o(.text)
    I2C1_ER_IRQHandler                       0x08000167   Thumb Code     0  startup_stm32f103xe.o(.text)
    I2C1_EV_IRQHandler                       0x08000167   Thumb Code     0  startup_stm32f103xe.o(.text)
    I2C2_ER_IRQHandler                       0x08000167   Thumb Code     0  startup_stm32f103xe.o(.text)
    I2C2_EV_IRQHandler                       0x08000167   Thumb Code     0  startup_stm32f103xe.o(.text)
    PVD_IRQHandler                           0x08000167   Thumb Code     0  startup_stm32f103xe.o(.text)
    RCC_IRQHandler                           0x08000167   Thumb Code     0  startup_stm32f103xe.o(.text)
    RTC_Alarm_IRQHandler                     0x08000167   Thumb Code     0  startup_stm32f103xe.o(.text)
    RTC_IRQHandler                           0x08000167   Thumb Code     0  startup_stm32f103xe.o(.text)
    SDIO_IRQHandler                          0x08000167   Thumb Code     0  startup_stm32f103xe.o(.text)
    SPI1_IRQHandler                          0x08000167   Thumb Code     0  startup_stm32f103xe.o(.text)
    SPI2_IRQHandler                          0x08000167   Thumb Code     0  startup_stm32f103xe.o(.text)
    SPI3_IRQHandler                          0x08000167   Thumb Code     0  startup_stm32f103xe.o(.text)
    TAMPER_IRQHandler                        0x08000167   Thumb Code     0  startup_stm32f103xe.o(.text)
    TIM1_BRK_IRQHandler                      0x08000167   Thumb Code     0  startup_stm32f103xe.o(.text)
    TIM1_CC_IRQHandler                       0x08000167   Thumb Code     0  startup_stm32f103xe.o(.text)
    TIM1_TRG_COM_IRQHandler                  0x08000167   Thumb Code     0  startup_stm32f103xe.o(.text)
    TIM1_UP_IRQHandler                       0x08000167   Thumb Code     0  startup_stm32f103xe.o(.text)
    TIM2_IRQHandler                          0x08000167   Thumb Code     0  startup_stm32f103xe.o(.text)
    TIM3_IRQHandler                          0x08000167   Thumb Code     0  startup_stm32f103xe.o(.text)
    TIM4_IRQHandler                          0x08000167   Thumb Code     0  startup_stm32f103xe.o(.text)
    TIM5_IRQHandler                          0x08000167   Thumb Code     0  startup_stm32f103xe.o(.text)
    TIM6_IRQHandler                          0x08000167   Thumb Code     0  startup_stm32f103xe.o(.text)
    TIM7_IRQHandler                          0x08000167   Thumb Code     0  startup_stm32f103xe.o(.text)
    TIM8_BRK_IRQHandler                      0x08000167   Thumb Code     0  startup_stm32f103xe.o(.text)
    TIM8_CC_IRQHandler                       0x08000167   Thumb Code     0  startup_stm32f103xe.o(.text)
    TIM8_TRG_COM_IRQHandler                  0x08000167   Thumb Code     0  startup_stm32f103xe.o(.text)
    TIM8_UP_IRQHandler                       0x08000167   Thumb Code     0  startup_stm32f103xe.o(.text)
    UART4_IRQHandler                         0x08000167   Thumb Code     0  startup_stm32f103xe.o(.text)
    UART5_IRQHandler                         0x08000167   Thumb Code     0  startup_stm32f103xe.o(.text)
    USART1_IRQHandler                        0x08000167   Thumb Code     0  startup_stm32f103xe.o(.text)
    USART2_IRQHandler                        0x08000167   Thumb Code     0  startup_stm32f103xe.o(.text)
    USART3_IRQHandler                        0x08000167   Thumb Code     0  startup_stm32f103xe.o(.text)
    USBWakeUp_IRQHandler                     0x08000167   Thumb Code     0  startup_stm32f103xe.o(.text)
    USB_HP_CAN1_TX_IRQHandler                0x08000167   Thumb Code     0  startup_stm32f103xe.o(.text)
    USB_LP_CAN1_RX0_IRQHandler               0x08000167   Thumb Code     0  startup_stm32f103xe.o(.text)
    WWDG_IRQHandler                          0x08000167   Thumb Code     0  startup_stm32f103xe.o(.text)
    __aeabi_llsr                             0x08000171   Thumb Code    32  llushr.o(.text)
    _ll_ushift_r                             0x08000171   Thumb Code     0  llushr.o(.text)
    __aeabi_memset                           0x08000191   Thumb Code    14  memseta.o(.text)
    __aeabi_memset4                          0x08000191   Thumb Code     0  memseta.o(.text)
    __aeabi_memset8                          0x08000191   Thumb Code     0  memseta.o(.text)
    __aeabi_memclr                           0x0800019f   Thumb Code     4  memseta.o(.text)
    __aeabi_memclr4                          0x0800019f   Thumb Code     0  memseta.o(.text)
    __aeabi_memclr8                          0x0800019f   Thumb Code     0  memseta.o(.text)
    _memset$wrapper                          0x080001a3   Thumb Code    18  memseta.o(.text)
    strstr                                   0x080001b5   Thumb Code    36  strstr.o(.text)
    strlen                                   0x080001d9   Thumb Code    14  strlen.o(.text)
    __aeabi_dmul                             0x080001e7   Thumb Code   228  dmul.o(.text)
    __aeabi_ui2d                             0x080002cb   Thumb Code    26  dfltui.o(.text)
    __aeabi_d2uiz                            0x080002e5   Thumb Code    50  dfixui.o(.text)
    __aeabi_uidiv                            0x08000317   Thumb Code     0  uidiv.o(.text)
    __aeabi_uidivmod                         0x08000317   Thumb Code    44  uidiv.o(.text)
    __I$use$fp                               0x08000343   Thumb Code     0  iusefp.o(.text)
    _double_round                            0x08000343   Thumb Code    30  depilogue.o(.text)
    _double_epilogue                         0x08000361   Thumb Code   156  depilogue.o(.text)
    __scatterload                            0x080003fd   Thumb Code    28  init.o(.text)
    __scatterload_rt2                        0x080003fd   Thumb Code     0  init.o(.text)
    __aeabi_llsl                             0x08000421   Thumb Code    30  llshl.o(.text)
    _ll_shift_l                              0x08000421   Thumb Code     0  llshl.o(.text)
    BSP_SD_GetCardInfo                       0x08000441   Thumb Code     8  bsp_driver_sd.o(i.BSP_SD_GetCardInfo)
    BSP_SD_GetCardState                      0x0800044d   Thumb Code    20  bsp_driver_sd.o(i.BSP_SD_GetCardState)
    BSP_SD_Init                              0x08000465   Thumb Code    42  bsp_driver_sd.o(i.BSP_SD_Init)
    BSP_SD_IsDetected                        0x08000495   Thumb Code    14  bsp_driver_sd.o(i.BSP_SD_IsDetected)
    BSP_SD_ReadBlocks                        0x080004a5   Thumb Code    26  bsp_driver_sd.o(i.BSP_SD_ReadBlocks)
    BSP_SD_WriteBlocks                       0x080004c5   Thumb Code    26  bsp_driver_sd.o(i.BSP_SD_WriteBlocks)
    BusFault_Handler                         0x080004e5   Thumb Code     2  stm32f1xx_it.o(i.BusFault_Handler)
    DebugMon_Handler                         0x080004e7   Thumb Code     2  stm32f1xx_it.o(i.DebugMon_Handler)
    EXTI0_IRQHandler                         0x080004e9   Thumb Code     6  stm32f1xx_it.o(i.EXTI0_IRQHandler)
    EXTI2_IRQHandler                         0x080004ef   Thumb Code     6  stm32f1xx_it.o(i.EXTI2_IRQHandler)
    EXTI3_IRQHandler                         0x080004f5   Thumb Code     6  stm32f1xx_it.o(i.EXTI3_IRQHandler)
    EXTI4_IRQHandler                         0x080004fb   Thumb Code     6  stm32f1xx_it.o(i.EXTI4_IRQHandler)
    EnterFileOrDir                           0x08000501   Thumb Code    64  main.o(i.EnterFileOrDir)
    Error_Handler                            0x08000595   Thumb Code     2  main.o(i.Error_Handler)
    FATFS_LinkDriver                         0x08000597   Thumb Code     6  ff_gen_drv.o(i.FATFS_LinkDriver)
    FATFS_LinkDriverEx                       0x0800059d   Thumb Code    60  ff_gen_drv.o(i.FATFS_LinkDriverEx)
    FSMC_NORSRAM_Extended_Timing_Init        0x080005dd   Thumb Code    56  stm32f1xx_ll_fsmc.o(i.FSMC_NORSRAM_Extended_Timing_Init)
    FSMC_NORSRAM_Init                        0x08000619   Thumb Code    98  stm32f1xx_ll_fsmc.o(i.FSMC_NORSRAM_Init)
    FSMC_NORSRAM_Timing_Init                 0x08000681   Thumb Code    64  stm32f1xx_ll_fsmc.o(i.FSMC_NORSRAM_Timing_Init)
    FSMC_SRAM_WriteBuffer                    0x080006c5   Thumb Code    26  sram.o(i.FSMC_SRAM_WriteBuffer)
    FileList_Add                             0x080006e1   Thumb Code    90  file_list.o(i.FileList_Add)
    FileList_GetToDo                         0x08000741   Thumb Code    58  file_list.o(i.FileList_GetToDo)
    FileList_Init                            0x0800077d   Thumb Code     8  file_list.o(i.FileList_Init)
    FileList_New                             0x08000789   Thumb Code    10  file_list.o(i.FileList_New)
    FileList_Traverse                        0x08000793   Thumb Code    86  file_list.o(i.FileList_Traverse)
    HAL_CRC_Init                             0x080007e9   Thumb Code    34  stm32f1xx_hal_crc.o(i.HAL_CRC_Init)
    HAL_CRC_MspInit                          0x0800080d   Thumb Code    30  crc.o(i.HAL_CRC_MspInit)
    HAL_Delay                                0x08000835   Thumb Code    32  stm32f1xx_hal.o(i.HAL_Delay)
    HAL_GPIO_EXTI_Callback                   0x080008ed   Thumb Code   238  main.o(i.HAL_GPIO_EXTI_Callback)
    HAL_GPIO_EXTI_IRQHandler                 0x08000a61   Thumb Code    18  stm32f1xx_hal_gpio.o(i.HAL_GPIO_EXTI_IRQHandler)
    HAL_GPIO_Init                            0x08000a79   Thumb Code   462  stm32f1xx_hal_gpio.o(i.HAL_GPIO_Init)
    HAL_GPIO_TogglePin                       0x08000c71   Thumb Code    16  stm32f1xx_hal_gpio.o(i.HAL_GPIO_TogglePin)
    HAL_GPIO_WritePin                        0x08000c81   Thumb Code    10  stm32f1xx_hal_gpio.o(i.HAL_GPIO_WritePin)
    HAL_GetTick                              0x08000c8d   Thumb Code     6  stm32f1xx_hal.o(i.HAL_GetTick)
    HAL_IncTick                              0x08000c99   Thumb Code    12  stm32f1xx_hal.o(i.HAL_IncTick)
    HAL_Init                                 0x08000ca9   Thumb Code    32  stm32f1xx_hal.o(i.HAL_Init)
    HAL_InitTick                             0x08000ccd   Thumb Code    54  stm32f1xx_hal.o(i.HAL_InitTick)
    HAL_MspInit                              0x08000d0d   Thumb Code    48  stm32f1xx_hal_msp.o(i.HAL_MspInit)
    HAL_NVIC_EnableIRQ                       0x08000d45   Thumb Code    26  stm32f1xx_hal_cortex.o(i.HAL_NVIC_EnableIRQ)
    HAL_NVIC_SetPriority                     0x08000d61   Thumb Code    60  stm32f1xx_hal_cortex.o(i.HAL_NVIC_SetPriority)
    HAL_NVIC_SetPriorityGrouping             0x08000da1   Thumb Code    26  stm32f1xx_hal_cortex.o(i.HAL_NVIC_SetPriorityGrouping)
    HAL_PWR_EnableBkUpAccess                 0x08000dc5   Thumb Code     8  stm32f1xx_hal_pwr.o(i.HAL_PWR_EnableBkUpAccess)
    HAL_RCCEx_GetPeriphCLKFreq               0x08000dd1   Thumb Code   180  stm32f1xx_hal_rcc_ex.o(i.HAL_RCCEx_GetPeriphCLKFreq)
    HAL_RCCEx_PeriphCLKConfig                0x08000ea5   Thumb Code   224  stm32f1xx_hal_rcc_ex.o(i.HAL_RCCEx_PeriphCLKConfig)
    HAL_RCC_ClockConfig                      0x08000f91   Thumb Code   280  stm32f1xx_hal_rcc.o(i.HAL_RCC_ClockConfig)
    HAL_RCC_GetPCLK1Freq                     0x080010bd   Thumb Code    20  stm32f1xx_hal_rcc.o(i.HAL_RCC_GetPCLK1Freq)
    HAL_RCC_GetPCLK2Freq                     0x080010dd   Thumb Code    20  stm32f1xx_hal_rcc.o(i.HAL_RCC_GetPCLK2Freq)
    HAL_RCC_GetSysClockFreq                  0x080010fd   Thumb Code    74  stm32f1xx_hal_rcc.o(i.HAL_RCC_GetSysClockFreq)
    HAL_RCC_OscConfig                        0x08001169   Thumb Code   778  stm32f1xx_hal_rcc.o(i.HAL_RCC_OscConfig)
    HAL_RTC_Init                             0x08001489   Thumb Code   154  stm32f1xx_hal_rtc.o(i.HAL_RTC_Init)
    HAL_RTC_MspInit                          0x08001529   Thumb Code    40  rtc.o(i.HAL_RTC_MspInit)
    HAL_RTC_SetDate                          0x0800155d   Thumb Code   192  stm32f1xx_hal_rtc.o(i.HAL_RTC_SetDate)
    HAL_RTC_SetTime                          0x08001621   Thumb Code   168  stm32f1xx_hal_rtc.o(i.HAL_RTC_SetTime)
    HAL_RTC_WaitForSynchro                   0x080016cd   Thumb Code    58  stm32f1xx_hal_rtc.o(i.HAL_RTC_WaitForSynchro)
    HAL_SD_ConfigWideBusOperation            0x08001709   Thumb Code   238  stm32f1xx_hal_sd.o(i.HAL_SD_ConfigWideBusOperation)
    HAL_SD_GetCardCSD                        0x080017fd   Thumb Code   402  stm32f1xx_hal_sd.o(i.HAL_SD_GetCardCSD)
    HAL_SD_GetCardInfo                       0x08001995   Thumb Code    36  stm32f1xx_hal_sd.o(i.HAL_SD_GetCardInfo)
    HAL_SD_GetCardState                      0x080019b9   Thumb Code    44  stm32f1xx_hal_sd.o(i.HAL_SD_GetCardState)
    HAL_SD_Init                              0x080019e5   Thumb Code    54  stm32f1xx_hal_sd.o(i.HAL_SD_Init)
    HAL_SD_InitCard                          0x08001a1d   Thumb Code    78  stm32f1xx_hal_sd.o(i.HAL_SD_InitCard)
    HAL_SD_MspInit                           0x08001a71   Thumb Code   114  sdio.o(i.HAL_SD_MspInit)
    HAL_SD_ReadBlocks                        0x08001af5   Thumb Code   500  stm32f1xx_hal_sd.o(i.HAL_SD_ReadBlocks)
    HAL_SD_WriteBlocks                       0x08001ced   Thumb Code   454  stm32f1xx_hal_sd.o(i.HAL_SD_WriteBlocks)
    HAL_SRAM_Init                            0x08001eb9   Thumb Code   100  stm32f1xx_hal_sram.o(i.HAL_SRAM_Init)
    HAL_SRAM_MspInit                         0x08001f1d   Thumb Code     4  fsmc.o(i.HAL_SRAM_MspInit)
    HAL_SYSTICK_Config                       0x08001f21   Thumb Code    40  stm32f1xx_hal_cortex.o(i.HAL_SYSTICK_Config)
    HAL_UART_Init                            0x08001f49   Thumb Code    98  stm32f1xx_hal_uart.o(i.HAL_UART_Init)
    HAL_UART_MspInit                         0x08001fad   Thumb Code   100  usart.o(i.HAL_UART_MspInit)
    HAL_UART_Transmit                        0x0800201d   Thumb Code   178  stm32f1xx_hal_uart.o(i.HAL_UART_Transmit)
    HardFault_Handler                        0x080020cf   Thumb Code     2  stm32f1xx_it.o(i.HardFault_Handler)
    LCD_Clear                                0x080020d1   Thumb Code    98  lcd_header.o(i.LCD_Clear)
    LCD_Display_Dir                          0x0800213d   Thumb Code   304  lcd_header.o(i.LCD_Display_Dir)
    LCD_Fast_DrawPoint                       0x08002271   Thumb Code   276  lcd_header.o(i.LCD_Fast_DrawPoint)
    LCD_Fill                                 0x0800238d   Thumb Code   132  lcd_header.o(i.LCD_Fill)
    LCD_GetID                                0x08002419   Thumb Code   280  tft_lcd_fsmc.o(i.LCD_GetID)
    LCD_Init                                 0x08002539   Thumb Code 13122  lcd_header.o(i.LCD_Init)
    LCD_RD_DATA                              0x0800587d   Thumb Code    16  tft_lcd_fsmc.o(i.LCD_RD_DATA)
    LCD_ReadReg                              0x08005891   Thumb Code     8  tft_lcd_fsmc.o(i.LCD_ReadReg)
    LCD_SSD_BackLightSet                     0x0800589d   Thumb Code    70  lcd_header.o(i.LCD_SSD_BackLightSet)
    LCD_Scan_Dir                             0x080058e9   Thumb Code   512  lcd_header.o(i.LCD_Scan_Dir)
    LCD_SetCursor                            0x08005aed   Thumb Code   324  lcd_header.o(i.LCD_SetCursor)
    LCD_ShowChar                             0x08005c35   Thumb Code   188  lcd_header.o(i.LCD_ShowChar)
    LCD_ShowString                           0x08005d09   Thumb Code    84  lcd_header.o(i.LCD_ShowString)
    LCD_WR_DATA                              0x08005d5d   Thumb Code     6  tft_lcd_fsmc.o(i.LCD_WR_DATA)
    LCD_WR_REG                               0x08005d69   Thumb Code     6  tft_lcd_fsmc.o(i.LCD_WR_REG)
    LCD_WriteRAM_Prepare                     0x08005d75   Thumb Code    10  tft_lcd_fsmc.o(i.LCD_WriteRAM_Prepare)
    LCD_WriteReg                             0x08005d89   Thumb Code    10  tft_lcd_fsmc.o(i.LCD_WriteReg)
    MX_CRC_Init                              0x08005d99   Thumb Code    28  crc.o(i.MX_CRC_Init)
    MX_FATFS_Init                            0x08005dbd   Thumb Code    18  fatfs.o(i.MX_FATFS_Init)
    MX_FSMC_Init                             0x08005dd9   Thumb Code   182  fsmc.o(i.MX_FSMC_Init)
    MX_GPIO_Init                             0x08005e9d   Thumb Code   320  gpio.o(i.MX_GPIO_Init)
    MX_RTC_Init                              0x08005ff5   Thumb Code   104  rtc.o(i.MX_RTC_Init)
    MX_SDIO_SD_Init                          0x08006065   Thumb Code    28  sdio.o(i.MX_SDIO_SD_Init)
    MX_USART1_UART_Init                      0x08006089   Thumb Code    48  usart.o(i.MX_USART1_UART_Init)
    MemManage_Handler                        0x080060c1   Thumb Code     2  stm32f1xx_it.o(i.MemManage_Handler)
    NMI_Handler                              0x080060c3   Thumb Code     2  stm32f1xx_it.o(i.NMI_Handler)
    PendSV_Handler                           0x080060c5   Thumb Code     2  stm32f1xx_it.o(i.PendSV_Handler)
    SDIO_ConfigData                          0x08006217   Thumb Code    36  stm32f1xx_ll_sdmmc.o(i.SDIO_ConfigData)
    SDIO_GetPowerState                       0x0800623b   Thumb Code     8  stm32f1xx_ll_sdmmc.o(i.SDIO_GetPowerState)
    SDIO_GetResponse                         0x08006243   Thumb Code     6  stm32f1xx_ll_sdmmc.o(i.SDIO_GetResponse)
    SDIO_Init                                0x08006249   Thumb Code    36  stm32f1xx_ll_sdmmc.o(i.SDIO_Init)
    SDIO_PowerState_ON                       0x0800626d   Thumb Code    16  stm32f1xx_ll_sdmmc.o(i.SDIO_PowerState_ON)
    SDIO_ReadFIFO                            0x0800627d   Thumb Code     6  stm32f1xx_ll_sdmmc.o(i.SDIO_ReadFIFO)
    SDIO_SendCommand                         0x08006283   Thumb Code    32  stm32f1xx_ll_sdmmc.o(i.SDIO_SendCommand)
    SDIO_WriteFIFO                           0x080062a3   Thumb Code    10  stm32f1xx_ll_sdmmc.o(i.SDIO_WriteFIFO)
    SDMMC_CmdAppCommand                      0x080062ad   Thumb Code    50  stm32f1xx_ll_sdmmc.o(i.SDMMC_CmdAppCommand)
    SDMMC_CmdAppOperCommand                  0x080062e1   Thumb Code    48  stm32f1xx_ll_sdmmc.o(i.SDMMC_CmdAppOperCommand)
    SDMMC_CmdBlockLength                     0x08006315   Thumb Code    50  stm32f1xx_ll_sdmmc.o(i.SDMMC_CmdBlockLength)
    SDMMC_CmdBusWidth                        0x08006347   Thumb Code    50  stm32f1xx_ll_sdmmc.o(i.SDMMC_CmdBusWidth)
    SDMMC_CmdGoIdleState                     0x08006379   Thumb Code    74  stm32f1xx_ll_sdmmc.o(i.SDMMC_CmdGoIdleState)
    SDMMC_CmdOperCond                        0x080063c9   Thumb Code   112  stm32f1xx_ll_sdmmc.o(i.SDMMC_CmdOperCond)
    SDMMC_CmdReadMultiBlock                  0x0800643d   Thumb Code    50  stm32f1xx_ll_sdmmc.o(i.SDMMC_CmdReadMultiBlock)
    SDMMC_CmdReadSingleBlock                 0x0800646f   Thumb Code    50  stm32f1xx_ll_sdmmc.o(i.SDMMC_CmdReadSingleBlock)
    SDMMC_CmdSelDesel                        0x080064a1   Thumb Code    50  stm32f1xx_ll_sdmmc.o(i.SDMMC_CmdSelDesel)
    SDMMC_CmdSendCID                         0x080064d3   Thumb Code    44  stm32f1xx_ll_sdmmc.o(i.SDMMC_CmdSendCID)
    SDMMC_CmdSendCSD                         0x080064ff   Thumb Code    44  stm32f1xx_ll_sdmmc.o(i.SDMMC_CmdSendCSD)
    SDMMC_CmdSendSCR                         0x0800652b   Thumb Code    48  stm32f1xx_ll_sdmmc.o(i.SDMMC_CmdSendSCR)
    SDMMC_CmdSendStatus                      0x0800655b   Thumb Code    50  stm32f1xx_ll_sdmmc.o(i.SDMMC_CmdSendStatus)
    SDMMC_CmdSetRelAdd                       0x0800658d   Thumb Code    48  stm32f1xx_ll_sdmmc.o(i.SDMMC_CmdSetRelAdd)
    SDMMC_CmdStopTransfer                    0x080065bd   Thumb Code    46  stm32f1xx_ll_sdmmc.o(i.SDMMC_CmdStopTransfer)
    SDMMC_CmdWriteMultiBlock                 0x080065f1   Thumb Code    50  stm32f1xx_ll_sdmmc.o(i.SDMMC_CmdWriteMultiBlock)
    SDMMC_CmdWriteSingleBlock                0x08006623   Thumb Code    50  stm32f1xx_ll_sdmmc.o(i.SDMMC_CmdWriteSingleBlock)
    SD_initialize                            0x08006b09   Thumb Code    26  sd_diskio.o(i.SD_initialize)
    SD_ioctl                                 0x08006b29   Thumb Code    74  sd_diskio.o(i.SD_ioctl)
    SD_read                                  0x08006b79   Thumb Code    52  sd_diskio.o(i.SD_read)
    SD_status                                0x08006bb5   Thumb Code    26  sd_diskio.o(i.SD_status)
    SD_write                                 0x08006bd5   Thumb Code    52  sd_diskio.o(i.SD_write)
    SVC_Handler                              0x08006c11   Thumb Code     2  stm32f1xx_it.o(i.SVC_Handler)
    SysTick_Handler                          0x08006c13   Thumb Code     4  stm32f1xx_it.o(i.SysTick_Handler)
    SystemClock_Config                       0x08006c17   Thumb Code   104  main.o(i.SystemClock_Config)
    SystemInit                               0x08006c7f   Thumb Code     2  system_stm32f1xx.o(i.SystemInit)
    UsageFault_Handler                       0x08006d9d   Thumb Code     2  stm32f1xx_it.o(i.UsageFault_Handler)
    __0printf$3                              0x08006da1   Thumb Code    22  printf3.o(i.__0printf$3)
    __1printf$3                              0x08006da1   Thumb Code     0  printf3.o(i.__0printf$3)
    __2printf                                0x08006da1   Thumb Code     0  printf3.o(i.__0printf$3)
    __0sprintf$3                             0x08006dc1   Thumb Code    34  printf3.o(i.__0sprintf$3)
    __1sprintf$3                             0x08006dc1   Thumb Code     0  printf3.o(i.__0sprintf$3)
    __2sprintf                               0x08006dc1   Thumb Code     0  printf3.o(i.__0sprintf$3)
    __scatterload_copy                       0x08006e09   Thumb Code    14  handlers.o(i.__scatterload_copy)
    __scatterload_null                       0x08006e17   Thumb Code     2  handlers.o(i.__scatterload_null)
    __scatterload_zeroinit                   0x08006e19   Thumb Code    14  handlers.o(i.__scatterload_zeroinit)
    clust2sect                               0x08007117   Thumb Code    30  ff.o(i.clust2sect)
    disk_initialize                          0x08007a39   Thumb Code    36  diskio.o(i.disk_initialize)
    disk_ioctl                               0x08007a61   Thumb Code    24  diskio.o(i.disk_ioctl)
    disk_read                                0x08007a7d   Thumb Code    24  diskio.o(i.disk_read)
    disk_status                              0x08007a99   Thumb Code    18  diskio.o(i.disk_status)
    disk_write                               0x08007ab1   Thumb Code    24  diskio.o(i.disk_write)
    f_close                                  0x08007acd   Thumb Code    42  ff.o(i.f_close)
    f_closedir                               0x08007af7   Thumb Code    36  ff.o(i.f_closedir)
    f_gets                                   0x08007b1b   Thumb Code    72  ff.o(i.f_gets)
    f_lseek                                  0x08007b65   Thumb Code   644  ff.o(i.f_lseek)
    f_mount                                  0x08007de9   Thumb Code    88  ff.o(i.f_mount)
    f_open                                   0x08007e45   Thumb Code   460  ff.o(i.f_open)
    f_opendir                                0x08008015   Thumb Code   176  ff.o(i.f_opendir)
    f_read                                   0x080080c5   Thumb Code   396  ff.o(i.f_read)
    f_readdir                                0x08008251   Thumb Code   122  ff.o(i.f_readdir)
    f_sync                                   0x080082cb   Thumb Code   184  ff.o(i.f_sync)
    ff_convert                               0x08008385   Thumb Code    68  cc936.o(i.ff_convert)
    ff_memalloc                              0x080083d1   Thumb Code     4  syscall.o(i.ff_memalloc)
    ff_memfree                               0x080083d5   Thumb Code     4  syscall.o(i.ff_memfree)
    ff_wtoupper                              0x080083d9   Thumb Code    28  cc936.o(i.ff_wtoupper)
    findFileAndDir                           0x080083fd   Thumb Code   148  main.o(i.findFileAndDir)
    fputc                                    0x080087a5   Thumb Code    18  main.o(i.fputc)
    free                                     0x080087bd   Thumb Code    76  malloc.o(i.free)
    get_fat                                  0x08008899   Thumb Code   194  ff.o(i.get_fat)
    get_fattime                              0x0800895b   Thumb Code     4  fatfs.o(i.get_fattime)
    iap_load_app                             0x08008a69   Thumb Code    36  iap.o(i.iap_load_app)
    iap_write_appbin                         0x08008a95   Thumb Code    10  iap.o(i.iap_write_appbin)
    main                                     0x08008b55   Thumb Code   134  main.o(i.main)
    malloc                                   0x08008c01   Thumb Code    92  malloc.o(i.malloc)
    my_mem_free                              0x08008cc5   Thumb Code    78  malloc.o(i.my_mem_free)
    my_mem_init                              0x08008d1d   Thumb Code    50  malloc.o(i.my_mem_init)
    my_mem_malloc                            0x08008d59   Thumb Code   136  malloc.o(i.my_mem_malloc)
    my_mem_perused                           0x08008de9   Thumb Code    48  malloc.o(i.my_mem_perused)
    myfree                                   0x08008e21   Thumb Code    20  malloc.o(i.myfree)
    mymalloc                                 0x08008e39   Thumb Code    28  malloc.o(i.mymalloc)
    mymemcpy                                 0x08008e59   Thumb Code    18  malloc.o(i.mymemcpy)
    mymemset                                 0x08008e6d   Thumb Code    14  malloc.o(i.mymemset)
    put_fat                                  0x08008e7b   Thumb Code   248  ff.o(i.put_fat)
    readDataToSram                           0x08008f75   Thumb Code   140  main.o(i.readDataToSram)
    showFileList                             0x080090dd   Thumb Code    92  lcd_show.o(i.showFileList)
    showFileListReset                        0x0800913d   Thumb Code    14  lcd_show.o(i.showFileListReset)
    AHBPrescTable                            0x080092bc   Data          16  system_stm32f1xx.o(.constdata)
    APBPrescTable                            0x080092cc   Data           8  system_stm32f1xx.o(.constdata)
    SD_Driver                                0x08033fd8   Data          20  sd_diskio.o(.constdata)
    asc2_1206                                0x08033fec   Data        1140  lcd_header.o(.constdata)
    asc2_1608                                0x08034460   Data        1520  lcd_header.o(.constdata)
    asc2_2412                                0x08034a50   Data        3420  lcd_header.o(.constdata)
    memtblsize                               0x080357ac   Data           8  malloc.o(.constdata)
    memblksize                               0x080357b4   Data           8  malloc.o(.constdata)
    memsize                                  0x080357bc   Data           8  malloc.o(.constdata)
    Region$$Table$$Base                      0x080357c8   Number         0  anon$$obj.o(Region$$Table)
    Region$$Table$$Limit                     0x080357e8   Number         0  anon$$obj.o(Region$$Table)
    ind                                      0x20000000   Data           1  main.o(.data)
    FilesTopInd                              0x20000004   Data           4  main.o(.data)
    FilesDownInd                             0x20000008   Data           4  main.o(.data)
    loadAdd                                  0x2000000c   Data           4  main.o(.data)
    SRAMMAX                                  0x20000010   Data           4  main.o(.data)
    rootPath                                 0x20000014   Data           4  main.o(.data)
    hcrc                                     0x20000018   Data           8  crc.o(.data)
    retSD                                    0x20000020   Data           1  fatfs.o(.data)
    SDPath                                   0x20000021   Data           4  fatfs.o(.data)
    uwTickFreq                               0x20000030   Data           1  stm32f1xx_hal.o(.data)
    uwTickPrio                               0x20000034   Data           4  stm32f1xx_hal.o(.data)
    uwTick                                   0x20000038   Data           4  stm32f1xx_hal.o(.data)
    SystemCoreClock                          0x2000003c   Data           4  system_stm32f1xx.o(.data)
    delayFunc                                0x2000004c   Data           4  lcd_header.o(.data)
    POINT_COLOR                              0x20000050   Data           2  tft_lcd_fsmc.o(.data)
    BACK_COLOR                               0x20000052   Data           2  tft_lcd_fsmc.o(.data)
    mallco_dev                               0x20000054   Data          28  malloc.o(.data)
    jump2app                                 0x20000070   Data           4  iap.o(.data)
    showFileIndex                            0x20000074   Data           1  lcd_show.o(.data)
    GetTime                                  0x20000075   Data           3  lcd_show.o(.data)
    x                                        0x20000078   Data           4  lcd_show.o(.data)
    y                                        0x2000007c   Data           4  lcd_show.o(.data)
    GetData                                  0x20000080   Data           4  lcd_show.o(.data)
    __stdout                                 0x20000084   Data           4  stdout.o(.data)
    __microlib_freelist                      0x20000088   Data           4  mvars.o(.data)
    __microlib_freelist_initialised          0x2000008c   Data           4  mvars.o(.data)
    FoundFilesAndDirs                        0x20000090   Data          12  main.o(.bss)
    SDFatFS                                  0x2000009c   Data         560  fatfs.o(.bss)
    hsram1                                   0x200002cc   Data          72  fsmc.o(.bss)
    hsram2                                   0x20000314   Data          72  fsmc.o(.bss)
    hrtc                                     0x2000035c   Data          20  rtc.o(.bss)
    hsd                                      0x20000370   Data         132  sdio.o(.bss)
    huart1                                   0x200003f4   Data          64  usart.o(.bss)
    disk                                     0x2000044c   Data          12  ff_gen_drv.o(.bss)
    lcddev                                   0x20000458   Data          14  tft_lcd_fsmc.o(.bss)
    mem1base                                 0x20000480   Data       40960  malloc.o(.bss)
    mem1mapbase                              0x2000a480   Data        2560  malloc.o(.bss)
    mem                                      0x2000ae80   Data          12  file_list.o(.bss)
    __heap_base                              0x2000ae90   Data           0  startup_stm32f103xe.o(HEAP)
    __heap_limit                             0x2000be90   Data           0  startup_stm32f103xe.o(HEAP)
    __initial_sp                             0x2000ce90   Data           0  startup_stm32f103xe.o(STACK)
    mem2base                                 0x68000000   Data       983040  malloc.o(.ARM.__AT_0x68000000)
    mem2mapbase                              0x680f0000   Data       61440  malloc.o(.ARM.__AT_0x680F0000)



==============================================================================

Memory Map of the image

  Image Entry point : 0x08000131

  Load Region LR_IROM1 (Base: 0x08000000, Size: 0x00035878, Max: 0x00080000, ABSOLUTE)

    Execution Region ER_IROM1 (Exec base: 0x08000000, Load base: 0x08000000, Size: 0x000357e8, Max: 0x00080000, ABSOLUTE)

    Exec Addr    Load Addr    Size         Type   Attr      Idx    E Section Name        Object

    0x08000000   0x08000000   0x00000130   Data   RO            3    RESET               startup_stm32f103xe.o
    0x08000130   0x08000130   0x00000000   Code   RO         4281  * .ARM.Collect$$$$00000000  mc_w.l(entry.o)
    0x08000130   0x08000130   0x00000004   Code   RO         4591    .ARM.Collect$$$$00000001  mc_w.l(entry2.o)
    0x08000134   0x08000134   0x00000004   Code   RO         4594    .ARM.Collect$$$$00000004  mc_w.l(entry5.o)
    0x08000138   0x08000138   0x00000000   Code   RO         4596    .ARM.Collect$$$$00000008  mc_w.l(entry7b.o)
    0x08000138   0x08000138   0x00000000   Code   RO         4598    .ARM.Collect$$$$0000000A  mc_w.l(entry8b.o)
    0x08000138   0x08000138   0x00000008   Code   RO         4599    .ARM.Collect$$$$0000000B  mc_w.l(entry9a.o)
    0x08000140   0x08000140   0x00000000   Code   RO         4601    .ARM.Collect$$$$0000000D  mc_w.l(entry10a.o)
    0x08000140   0x08000140   0x00000000   Code   RO         4603    .ARM.Collect$$$$0000000F  mc_w.l(entry11a.o)
    0x08000140   0x08000140   0x00000004   Code   RO         4592    .ARM.Collect$$$$00002712  mc_w.l(entry2.o)
    0x08000144   0x08000144   0x00000006   Code   RO         4141    .emb_text           iap.o
    0x0800014a   0x0800014a   0x00000002   PAD
    0x0800014c   0x0800014c   0x00000024   Code   RO            4    .text               startup_stm32f103xe.o
    0x08000170   0x08000170   0x00000020   Code   RO         4284    .text               mc_w.l(llushr.o)
    0x08000190   0x08000190   0x00000024   Code   RO         4288    .text               mc_w.l(memseta.o)
    0x080001b4   0x080001b4   0x00000024   Code   RO         4290    .text               mc_w.l(strstr.o)
    0x080001d8   0x080001d8   0x0000000e   Code   RO         4292    .text               mc_w.l(strlen.o)
    0x080001e6   0x080001e6   0x000000e4   Code   RO         4585    .text               mf_w.l(dmul.o)
    0x080002ca   0x080002ca   0x0000001a   Code   RO         4587    .text               mf_w.l(dfltui.o)
    0x080002e4   0x080002e4   0x00000032   Code   RO         4589    .text               mf_w.l(dfixui.o)
    0x08000316   0x08000316   0x0000002c   Code   RO         4606    .text               mc_w.l(uidiv.o)
    0x08000342   0x08000342   0x00000000   Code   RO         4612    .text               mc_w.l(iusefp.o)
    0x08000342   0x08000342   0x000000ba   Code   RO         4613    .text               mf_w.l(depilogue.o)
    0x080003fc   0x080003fc   0x00000024   Code   RO         4623    .text               mc_w.l(init.o)
    0x08000420   0x08000420   0x0000001e   Code   RO         4625    .text               mc_w.l(llshl.o)
    0x0800043e   0x0800043e   0x00000002   PAD
    0x08000440   0x08000440   0x0000000c   Code   RO          335    i.BSP_SD_GetCardInfo  bsp_driver_sd.o
    0x0800044c   0x0800044c   0x00000018   Code   RO          336    i.BSP_SD_GetCardState  bsp_driver_sd.o
    0x08000464   0x08000464   0x00000030   Code   RO          338    i.BSP_SD_Init       bsp_driver_sd.o
    0x08000494   0x08000494   0x0000000e   Code   RO          339    i.BSP_SD_IsDetected  bsp_driver_sd.o
    0x080004a2   0x080004a2   0x00000002   PAD
    0x080004a4   0x080004a4   0x00000020   Code   RO          340    i.BSP_SD_ReadBlocks  bsp_driver_sd.o
    0x080004c4   0x080004c4   0x00000020   Code   RO          343    i.BSP_SD_WriteBlocks  bsp_driver_sd.o
    0x080004e4   0x080004e4   0x00000002   Code   RO          665    i.BusFault_Handler  stm32f1xx_it.o
    0x080004e6   0x080004e6   0x00000002   Code   RO          666    i.DebugMon_Handler  stm32f1xx_it.o
    0x080004e8   0x080004e8   0x00000006   Code   RO          667    i.EXTI0_IRQHandler  stm32f1xx_it.o
    0x080004ee   0x080004ee   0x00000006   Code   RO          668    i.EXTI2_IRQHandler  stm32f1xx_it.o
    0x080004f4   0x080004f4   0x00000006   Code   RO          669    i.EXTI3_IRQHandler  stm32f1xx_it.o
    0x080004fa   0x080004fa   0x00000006   Code   RO          670    i.EXTI4_IRQHandler  stm32f1xx_it.o
    0x08000500   0x08000500   0x00000094   Code   RO           13    i.EnterFileOrDir    main.o
    0x08000594   0x08000594   0x00000002   Code   RO           14    i.Error_Handler     main.o
    0x08000596   0x08000596   0x00000006   Code   RO         3668    i.FATFS_LinkDriver  ff_gen_drv.o
    0x0800059c   0x0800059c   0x00000040   Code   RO         3669    i.FATFS_LinkDriverEx  ff_gen_drv.o
    0x080005dc   0x080005dc   0x0000003c   Code   RO         1867    i.FSMC_NORSRAM_Extended_Timing_Init  stm32f1xx_ll_fsmc.o
    0x08000618   0x08000618   0x00000068   Code   RO         1868    i.FSMC_NORSRAM_Init  stm32f1xx_ll_fsmc.o
    0x08000680   0x08000680   0x00000044   Code   RO         1869    i.FSMC_NORSRAM_Timing_Init  stm32f1xx_ll_fsmc.o
    0x080006c4   0x080006c4   0x0000001a   Code   RO         4121    i.FSMC_SRAM_WriteBuffer  sram.o
    0x080006de   0x080006de   0x00000002   PAD
    0x080006e0   0x080006e0   0x00000060   Code   RO         4212    i.FileList_Add      file_list.o
    0x08000740   0x08000740   0x0000003a   Code   RO         4215    i.FileList_GetToDo  file_list.o
    0x0800077a   0x0800077a   0x00000002   PAD
    0x0800077c   0x0800077c   0x0000000c   Code   RO         4216    i.FileList_Init     file_list.o
    0x08000788   0x08000788   0x0000000a   Code   RO         4218    i.FileList_New      file_list.o
    0x08000792   0x08000792   0x00000056   Code   RO         4221    i.FileList_Traverse  file_list.o
    0x080007e8   0x080007e8   0x00000022   Code   RO          828    i.HAL_CRC_Init      stm32f1xx_hal_crc.o
    0x0800080a   0x0800080a   0x00000002   PAD
    0x0800080c   0x0800080c   0x00000028   Code   RO          291    i.HAL_CRC_MspInit   crc.o
    0x08000834   0x08000834   0x00000024   Code   RO          891    i.HAL_Delay         stm32f1xx_hal.o
    0x08000858   0x08000858   0x00000094   Code   RO          491    i.HAL_FSMC_MspInit  fsmc.o
    0x080008ec   0x080008ec   0x00000174   Code   RO           15    i.HAL_GPIO_EXTI_Callback  main.o
    0x08000a60   0x08000a60   0x00000018   Code   RO         1198    i.HAL_GPIO_EXTI_IRQHandler  stm32f1xx_hal_gpio.o
    0x08000a78   0x08000a78   0x000001f8   Code   RO         1199    i.HAL_GPIO_Init     stm32f1xx_hal_gpio.o
    0x08000c70   0x08000c70   0x00000010   Code   RO         1202    i.HAL_GPIO_TogglePin  stm32f1xx_hal_gpio.o
    0x08000c80   0x08000c80   0x0000000a   Code   RO         1203    i.HAL_GPIO_WritePin  stm32f1xx_hal_gpio.o
    0x08000c8a   0x08000c8a   0x00000002   PAD
    0x08000c8c   0x08000c8c   0x0000000c   Code   RO          895    i.HAL_GetTick       stm32f1xx_hal.o
    0x08000c98   0x08000c98   0x00000010   Code   RO          901    i.HAL_IncTick       stm32f1xx_hal.o
    0x08000ca8   0x08000ca8   0x00000024   Code   RO          902    i.HAL_Init          stm32f1xx_hal.o
    0x08000ccc   0x08000ccc   0x00000040   Code   RO          903    i.HAL_InitTick      stm32f1xx_hal.o
    0x08000d0c   0x08000d0c   0x00000038   Code   RO          764    i.HAL_MspInit       stm32f1xx_hal_msp.o
    0x08000d44   0x08000d44   0x0000001a   Code   RO         1359    i.HAL_NVIC_EnableIRQ  stm32f1xx_hal_cortex.o
    0x08000d5e   0x08000d5e   0x00000002   PAD
    0x08000d60   0x08000d60   0x00000040   Code   RO         1365    i.HAL_NVIC_SetPriority  stm32f1xx_hal_cortex.o
    0x08000da0   0x08000da0   0x00000024   Code   RO         1366    i.HAL_NVIC_SetPriorityGrouping  stm32f1xx_hal_cortex.o
    0x08000dc4   0x08000dc4   0x0000000c   Code   RO         1481    i.HAL_PWR_EnableBkUpAccess  stm32f1xx_hal_pwr.o
    0x08000dd0   0x08000dd0   0x000000d4   Code   RO         1161    i.HAL_RCCEx_GetPeriphCLKFreq  stm32f1xx_hal_rcc_ex.o
    0x08000ea4   0x08000ea4   0x000000ec   Code   RO         1162    i.HAL_RCCEx_PeriphCLKConfig  stm32f1xx_hal_rcc_ex.o
    0x08000f90   0x08000f90   0x0000012c   Code   RO         1059    i.HAL_RCC_ClockConfig  stm32f1xx_hal_rcc.o
    0x080010bc   0x080010bc   0x00000020   Code   RO         1066    i.HAL_RCC_GetPCLK1Freq  stm32f1xx_hal_rcc.o
    0x080010dc   0x080010dc   0x00000020   Code   RO         1067    i.HAL_RCC_GetPCLK2Freq  stm32f1xx_hal_rcc.o
    0x080010fc   0x080010fc   0x0000006c   Code   RO         1068    i.HAL_RCC_GetSysClockFreq  stm32f1xx_hal_rcc.o
    0x08001168   0x08001168   0x00000320   Code   RO         1071    i.HAL_RCC_OscConfig  stm32f1xx_hal_rcc.o
    0x08001488   0x08001488   0x000000a0   Code   RO         2128    i.HAL_RTC_Init      stm32f1xx_hal_rtc.o
    0x08001528   0x08001528   0x00000034   Code   RO          540    i.HAL_RTC_MspInit   rtc.o
    0x0800155c   0x0800155c   0x000000c4   Code   RO         2134    i.HAL_RTC_SetDate   stm32f1xx_hal_rtc.o
    0x08001620   0x08001620   0x000000ac   Code   RO         2135    i.HAL_RTC_SetTime   stm32f1xx_hal_rtc.o
    0x080016cc   0x080016cc   0x0000003a   Code   RO         2136    i.HAL_RTC_WaitForSynchro  stm32f1xx_hal_rtc.o
    0x08001706   0x08001706   0x00000002   PAD
    0x08001708   0x08001708   0x000000f4   Code   RO         2659    i.HAL_SD_ConfigWideBusOperation  stm32f1xx_hal_sd.o
    0x080017fc   0x080017fc   0x00000198   Code   RO         2664    i.HAL_SD_GetCardCSD  stm32f1xx_hal_sd.o
    0x08001994   0x08001994   0x00000024   Code   RO         2665    i.HAL_SD_GetCardInfo  stm32f1xx_hal_sd.o
    0x080019b8   0x080019b8   0x0000002c   Code   RO         2666    i.HAL_SD_GetCardState  stm32f1xx_hal_sd.o
    0x080019e4   0x080019e4   0x00000036   Code   RO         2671    i.HAL_SD_Init       stm32f1xx_hal_sd.o
    0x08001a1a   0x08001a1a   0x00000002   PAD
    0x08001a1c   0x08001a1c   0x00000054   Code   RO         2672    i.HAL_SD_InitCard   stm32f1xx_hal_sd.o
    0x08001a70   0x08001a70   0x00000084   Code   RO          582    i.HAL_SD_MspInit    sdio.o
    0x08001af4   0x08001af4   0x000001f8   Code   RO         2675    i.HAL_SD_ReadBlocks  stm32f1xx_hal_sd.o
    0x08001cec   0x08001cec   0x000001cc   Code   RO         2680    i.HAL_SD_WriteBlocks  stm32f1xx_hal_sd.o
    0x08001eb8   0x08001eb8   0x00000064   Code   RO         1989    i.HAL_SRAM_Init     stm32f1xx_hal_sram.o
    0x08001f1c   0x08001f1c   0x00000004   Code   RO          493    i.HAL_SRAM_MspInit  fsmc.o
    0x08001f20   0x08001f20   0x00000028   Code   RO         1370    i.HAL_SYSTICK_Config  stm32f1xx_hal_cortex.o
    0x08001f48   0x08001f48   0x00000062   Code   RO         2942    i.HAL_UART_Init     stm32f1xx_hal_uart.o
    0x08001faa   0x08001faa   0x00000002   PAD
    0x08001fac   0x08001fac   0x00000070   Code   RO          624    i.HAL_UART_MspInit  usart.o
    0x0800201c   0x0800201c   0x000000b2   Code   RO         2950    i.HAL_UART_Transmit  stm32f1xx_hal_uart.o
    0x080020ce   0x080020ce   0x00000002   Code   RO          671    i.HardFault_Handler  stm32f1xx_it.o
    0x080020d0   0x080020d0   0x0000006c   Code   RO         3847    i.LCD_Clear         lcd_header.o
    0x0800213c   0x0800213c   0x00000134   Code   RO         3849    i.LCD_Display_Dir   lcd_header.o
    0x08002270   0x08002270   0x0000011c   Code   RO         3854    i.LCD_Fast_DrawPoint  lcd_header.o
    0x0800238c   0x0800238c   0x0000008c   Code   RO         3855    i.LCD_Fill          lcd_header.o
    0x08002418   0x08002418   0x00000120   Code   RO         3980    i.LCD_GetID         tft_lcd_fsmc.o
    0x08002538   0x08002538   0x00003342   Code   RO         3856    i.LCD_Init          lcd_header.o
    0x0800587a   0x0800587a   0x00000002   PAD
    0x0800587c   0x0800587c   0x00000014   Code   RO         3981    i.LCD_RD_DATA       tft_lcd_fsmc.o
    0x08005890   0x08005890   0x0000000c   Code   RO         3982    i.LCD_ReadReg       tft_lcd_fsmc.o
    0x0800589c   0x0800589c   0x0000004c   Code   RO         3859    i.LCD_SSD_BackLightSet  lcd_header.o
    0x080058e8   0x080058e8   0x00000204   Code   RO         3860    i.LCD_Scan_Dir      lcd_header.o
    0x08005aec   0x08005aec   0x00000148   Code   RO         3861    i.LCD_SetCursor     lcd_header.o
    0x08005c34   0x08005c34   0x000000d4   Code   RO         3863    i.LCD_ShowChar      lcd_header.o
    0x08005d08   0x08005d08   0x00000054   Code   RO         3865    i.LCD_ShowString    lcd_header.o
    0x08005d5c   0x08005d5c   0x0000000c   Code   RO         3983    i.LCD_WR_DATA       tft_lcd_fsmc.o
    0x08005d68   0x08005d68   0x0000000c   Code   RO         3984    i.LCD_WR_REG        tft_lcd_fsmc.o
    0x08005d74   0x08005d74   0x00000014   Code   RO         3986    i.LCD_WriteRAM_Prepare  tft_lcd_fsmc.o
    0x08005d88   0x08005d88   0x00000010   Code   RO         3987    i.LCD_WriteReg      tft_lcd_fsmc.o
    0x08005d98   0x08005d98   0x00000024   Code   RO          292    i.MX_CRC_Init       crc.o
    0x08005dbc   0x08005dbc   0x0000001c   Code   RO          453    i.MX_FATFS_Init     fatfs.o
    0x08005dd8   0x08005dd8   0x000000c4   Code   RO          494    i.MX_FSMC_Init      fsmc.o
    0x08005e9c   0x08005e9c   0x00000158   Code   RO          266    i.MX_GPIO_Init      gpio.o
    0x08005ff4   0x08005ff4   0x00000070   Code   RO          541    i.MX_RTC_Init       rtc.o
    0x08006064   0x08006064   0x00000024   Code   RO          583    i.MX_SDIO_SD_Init   sdio.o
    0x08006088   0x08006088   0x00000038   Code   RO          625    i.MX_USART1_UART_Init  usart.o
    0x080060c0   0x080060c0   0x00000002   Code   RO          672    i.MemManage_Handler  stm32f1xx_it.o
    0x080060c2   0x080060c2   0x00000002   Code   RO          673    i.NMI_Handler       stm32f1xx_it.o
    0x080060c4   0x080060c4   0x00000002   Code   RO          674    i.PendSV_Handler    stm32f1xx_it.o
    0x080060c6   0x080060c6   0x00000012   Code   RO         2137    i.RTC_Bcd2ToByte    stm32f1xx_hal_rtc.o
    0x080060d8   0x080060d8   0x00000034   Code   RO         2140    i.RTC_EnterInitMode  stm32f1xx_hal_rtc.o
    0x0800610c   0x0800610c   0x00000036   Code   RO         2141    i.RTC_ExitInitMode  stm32f1xx_hal_rtc.o
    0x08006142   0x08006142   0x0000000e   Code   RO         2142    i.RTC_ReadAlarmCounter  stm32f1xx_hal_rtc.o
    0x08006150   0x08006150   0x00000020   Code   RO         2143    i.RTC_ReadTimeCounter  stm32f1xx_hal_rtc.o
    0x08006170   0x08006170   0x00000056   Code   RO         2144    i.RTC_WeekDayNum    stm32f1xx_hal_rtc.o
    0x080061c6   0x080061c6   0x00000028   Code   RO         2145    i.RTC_WriteAlarmCounter  stm32f1xx_hal_rtc.o
    0x080061ee   0x080061ee   0x00000028   Code   RO         2146    i.RTC_WriteTimeCounter  stm32f1xx_hal_rtc.o
    0x08006216   0x08006216   0x00000024   Code   RO         2392    i.SDIO_ConfigData   stm32f1xx_ll_sdmmc.o
    0x0800623a   0x0800623a   0x00000008   Code   RO         2396    i.SDIO_GetPowerState  stm32f1xx_ll_sdmmc.o
    0x08006242   0x08006242   0x00000006   Code   RO         2397    i.SDIO_GetResponse  stm32f1xx_ll_sdmmc.o
    0x08006248   0x08006248   0x00000024   Code   RO         2398    i.SDIO_Init         stm32f1xx_ll_sdmmc.o
    0x0800626c   0x0800626c   0x00000010   Code   RO         2400    i.SDIO_PowerState_ON  stm32f1xx_ll_sdmmc.o
    0x0800627c   0x0800627c   0x00000006   Code   RO         2401    i.SDIO_ReadFIFO     stm32f1xx_ll_sdmmc.o
    0x08006282   0x08006282   0x00000020   Code   RO         2402    i.SDIO_SendCommand  stm32f1xx_ll_sdmmc.o
    0x080062a2   0x080062a2   0x0000000a   Code   RO         2404    i.SDIO_WriteFIFO    stm32f1xx_ll_sdmmc.o
    0x080062ac   0x080062ac   0x00000032   Code   RO         2405    i.SDMMC_CmdAppCommand  stm32f1xx_ll_sdmmc.o
    0x080062de   0x080062de   0x00000002   PAD
    0x080062e0   0x080062e0   0x00000034   Code   RO         2406    i.SDMMC_CmdAppOperCommand  stm32f1xx_ll_sdmmc.o
    0x08006314   0x08006314   0x00000032   Code   RO         2407    i.SDMMC_CmdBlockLength  stm32f1xx_ll_sdmmc.o
    0x08006346   0x08006346   0x00000032   Code   RO         2408    i.SDMMC_CmdBusWidth  stm32f1xx_ll_sdmmc.o
    0x08006378   0x08006378   0x00000050   Code   RO         2412    i.SDMMC_CmdGoIdleState  stm32f1xx_ll_sdmmc.o
    0x080063c8   0x080063c8   0x00000074   Code   RO         2414    i.SDMMC_CmdOperCond  stm32f1xx_ll_sdmmc.o
    0x0800643c   0x0800643c   0x00000032   Code   RO         2415    i.SDMMC_CmdReadMultiBlock  stm32f1xx_ll_sdmmc.o
    0x0800646e   0x0800646e   0x00000032   Code   RO         2416    i.SDMMC_CmdReadSingleBlock  stm32f1xx_ll_sdmmc.o
    0x080064a0   0x080064a0   0x00000032   Code   RO         2419    i.SDMMC_CmdSelDesel  stm32f1xx_ll_sdmmc.o
    0x080064d2   0x080064d2   0x0000002c   Code   RO         2420    i.SDMMC_CmdSendCID  stm32f1xx_ll_sdmmc.o
    0x080064fe   0x080064fe   0x0000002c   Code   RO         2421    i.SDMMC_CmdSendCSD  stm32f1xx_ll_sdmmc.o
    0x0800652a   0x0800652a   0x00000030   Code   RO         2422    i.SDMMC_CmdSendSCR  stm32f1xx_ll_sdmmc.o
    0x0800655a   0x0800655a   0x00000032   Code   RO         2423    i.SDMMC_CmdSendStatus  stm32f1xx_ll_sdmmc.o
    0x0800658c   0x0800658c   0x00000030   Code   RO         2424    i.SDMMC_CmdSetRelAdd  stm32f1xx_ll_sdmmc.o
    0x080065bc   0x080065bc   0x00000034   Code   RO         2426    i.SDMMC_CmdStopTransfer  stm32f1xx_ll_sdmmc.o
    0x080065f0   0x080065f0   0x00000032   Code   RO         2428    i.SDMMC_CmdWriteMultiBlock  stm32f1xx_ll_sdmmc.o
    0x08006622   0x08006622   0x00000032   Code   RO         2429    i.SDMMC_CmdWriteSingleBlock  stm32f1xx_ll_sdmmc.o
    0x08006654   0x08006654   0x00000120   Code   RO         2430    i.SDMMC_GetCmdResp1  stm32f1xx_ll_sdmmc.o
    0x08006774   0x08006774   0x00000050   Code   RO         2431    i.SDMMC_GetCmdResp2  stm32f1xx_ll_sdmmc.o
    0x080067c4   0x080067c4   0x00000044   Code   RO         2432    i.SDMMC_GetCmdResp3  stm32f1xx_ll_sdmmc.o
    0x08006808   0x08006808   0x00000088   Code   RO         2433    i.SDMMC_GetCmdResp6  stm32f1xx_ll_sdmmc.o
    0x08006890   0x08006890   0x000000d4   Code   RO         2688    i.SD_FindSCR        stm32f1xx_hal_sd.o
    0x08006964   0x08006964   0x000000ee   Code   RO         2689    i.SD_InitCard       stm32f1xx_hal_sd.o
    0x08006a52   0x08006a52   0x00000002   PAD
    0x08006a54   0x08006a54   0x000000b4   Code   RO         2690    i.SD_PowerON        stm32f1xx_hal_sd.o
    0x08006b08   0x08006b08   0x00000020   Code   RO         3792    i.SD_initialize     sd_diskio.o
    0x08006b28   0x08006b28   0x00000050   Code   RO         3793    i.SD_ioctl          sd_diskio.o
    0x08006b78   0x08006b78   0x0000003c   Code   RO         3794    i.SD_read           sd_diskio.o
    0x08006bb4   0x08006bb4   0x00000020   Code   RO         3795    i.SD_status         sd_diskio.o
    0x08006bd4   0x08006bd4   0x0000003c   Code   RO         3796    i.SD_write          sd_diskio.o
    0x08006c10   0x08006c10   0x00000002   Code   RO          675    i.SVC_Handler       stm32f1xx_it.o
    0x08006c12   0x08006c12   0x00000004   Code   RO          676    i.SysTick_Handler   stm32f1xx_it.o
    0x08006c16   0x08006c16   0x00000068   Code   RO           16    i.SystemClock_Config  main.o
    0x08006c7e   0x08006c7e   0x00000002   Code   RO         3239    i.SystemInit        system_stm32f1xx.o
    0x08006c80   0x08006c80   0x000000b8   Code   RO         2968    i.UART_SetConfig    stm32f1xx_hal_uart.o
    0x08006d38   0x08006d38   0x00000064   Code   RO         2969    i.UART_WaitOnFlagUntilTimeout  stm32f1xx_hal_uart.o
    0x08006d9c   0x08006d9c   0x00000002   Code   RO          677    i.UsageFault_Handler  stm32f1xx_it.o
    0x08006d9e   0x08006d9e   0x00000002   PAD
    0x08006da0   0x08006da0   0x00000020   Code   RO         4385    i.__0printf$3       mc_w.l(printf3.o)
    0x08006dc0   0x08006dc0   0x00000028   Code   RO         4387    i.__0sprintf$3      mc_w.l(printf3.o)
    0x08006de8   0x08006de8   0x00000020   Code   RO         1372    i.__NVIC_SetPriority  stm32f1xx_hal_cortex.o
    0x08006e08   0x08006e08   0x0000000e   Code   RO         4631    i.__scatterload_copy  mc_w.l(handlers.o)
    0x08006e16   0x08006e16   0x00000002   Code   RO         4632    i.__scatterload_null  mc_w.l(handlers.o)
    0x08006e18   0x08006e18   0x0000000e   Code   RO         4633    i.__scatterload_zeroinit  mc_w.l(handlers.o)
    0x08006e26   0x08006e26   0x00000002   PAD
    0x08006e28   0x08006e28   0x000001b8   Code   RO         4392    i._printf_core      mc_w.l(printf3.o)
    0x08006fe0   0x08006fe0   0x0000000a   Code   RO         4394    i._sputc            mc_w.l(printf3.o)
    0x08006fea   0x08006fea   0x00000002   PAD
    0x08006fec   0x08006fec   0x00000060   Code   RO         3331    i.check_fs          ff.o
    0x0800704c   0x0800704c   0x00000010   Code   RO         3332    i.chk_chr           ff.o
    0x0800705c   0x0800705c   0x0000006c   Code   RO         3333    i.chk_lock          ff.o
    0x080070c8   0x080070c8   0x00000024   Code   RO         3334    i.clear_lock        ff.o
    0x080070ec   0x080070ec   0x0000002a   Code   RO         3335    i.clmt_clust        ff.o
    0x08007116   0x08007116   0x0000001e   Code   RO         3336    i.clust2sect        ff.o
    0x08007134   0x08007134   0x000000b0   Code   RO         3337    i.create_chain      ff.o
    0x080071e4   0x080071e4   0x00000244   Code   RO         3338    i.create_name       ff.o
    0x08007428   0x08007428   0x0000003c   Code   RO         3339    i.dec_lock          ff.o
    0x08007464   0x08007464   0x00000144   Code   RO         3340    i.dir_find          ff.o
    0x080075a8   0x080075a8   0x0000011e   Code   RO         3341    i.dir_next          ff.o
    0x080076c6   0x080076c6   0x00000002   PAD
    0x080076c8   0x080076c8   0x00000108   Code   RO         3342    i.dir_read          ff.o
    0x080077d0   0x080077d0   0x000001d0   Code   RO         3343    i.dir_register      ff.o
    0x080079a0   0x080079a0   0x00000098   Code   RO         3345    i.dir_sdi           ff.o
    0x08007a38   0x08007a38   0x00000028   Code   RO         3276    i.disk_initialize   diskio.o
    0x08007a60   0x08007a60   0x0000001c   Code   RO         3277    i.disk_ioctl        diskio.o
    0x08007a7c   0x08007a7c   0x0000001c   Code   RO         3278    i.disk_read         diskio.o
    0x08007a98   0x08007a98   0x00000018   Code   RO         3279    i.disk_status       diskio.o
    0x08007ab0   0x08007ab0   0x0000001c   Code   RO         3280    i.disk_write        diskio.o
    0x08007acc   0x08007acc   0x0000002a   Code   RO         3347    i.f_close           ff.o
    0x08007af6   0x08007af6   0x00000024   Code   RO         3348    i.f_closedir        ff.o
    0x08007b1a   0x08007b1a   0x00000048   Code   RO         3350    i.f_gets            ff.o
    0x08007b62   0x08007b62   0x00000002   PAD
    0x08007b64   0x08007b64   0x00000284   Code   RO         3351    i.f_lseek           ff.o
    0x08007de8   0x08007de8   0x0000005c   Code   RO         3354    i.f_mount           ff.o
    0x08007e44   0x08007e44   0x000001d0   Code   RO         3355    i.f_open            ff.o
    0x08008014   0x08008014   0x000000b0   Code   RO         3356    i.f_opendir         ff.o
    0x080080c4   0x080080c4   0x0000018c   Code   RO         3360    i.f_read            ff.o
    0x08008250   0x08008250   0x0000007a   Code   RO         3361    i.f_readdir         ff.o
    0x080082ca   0x080082ca   0x000000b8   Code   RO         3364    i.f_sync            ff.o
    0x08008382   0x08008382   0x00000002   PAD
    0x08008384   0x08008384   0x0000004c   Code   RO         3760    i.ff_convert        cc936.o
    0x080083d0   0x080083d0   0x00000004   Code   RO         3718    i.ff_memalloc       syscall.o
    0x080083d4   0x080083d4   0x00000004   Code   RO         3719    i.ff_memfree        syscall.o
    0x080083d8   0x080083d8   0x00000024   Code   RO         3761    i.ff_wtoupper       cc936.o
    0x080083fc   0x080083fc   0x000000dc   Code   RO           17    i.findFileAndDir    main.o
    0x080084d8   0x080084d8   0x00000258   Code   RO         3369    i.find_volume       ff.o
    0x08008730   0x08008730   0x00000072   Code   RO         3370    i.follow_path       ff.o
    0x080087a2   0x080087a2   0x00000002   PAD
    0x080087a4   0x080087a4   0x00000018   Code   RO           18    i.fputc             main.o
    0x080087bc   0x080087bc   0x00000050   Code   RO         4557    i.free              mc_w.l(malloc.o)
    0x0800880c   0x0800880c   0x0000008c   Code   RO         3371    i.gen_numname       ff.o
    0x08008898   0x08008898   0x000000c2   Code   RO         3372    i.get_fat           ff.o
    0x0800895a   0x0800895a   0x00000004   Code   RO          454    i.get_fattime       fatfs.o
    0x0800895e   0x0800895e   0x000000ce   Code   RO         3373    i.get_fileinfo      ff.o
    0x08008a2c   0x08008a2c   0x0000003c   Code   RO         3374    i.get_ldnumber      ff.o
    0x08008a68   0x08008a68   0x0000002c   Code   RO         4142    i.iap_load_app      iap.o
    0x08008a94   0x08008a94   0x0000000a   Code   RO         4143    i.iap_write_appbin  iap.o
    0x08008a9e   0x08008a9e   0x00000002   PAD
    0x08008aa0   0x08008aa0   0x000000a0   Code   RO         3375    i.inc_lock          ff.o
    0x08008b40   0x08008b40   0x00000014   Code   RO         3376    i.ld_clust          ff.o
    0x08008b54   0x08008b54   0x000000ac   Code   RO           19    i.main              main.o
    0x08008c00   0x08008c00   0x0000006c   Code   RO         4558    i.malloc            mc_w.l(malloc.o)
    0x08008c6c   0x08008c6c   0x00000012   Code   RO         3377    i.mem_cpy           ff.o
    0x08008c7e   0x08008c7e   0x0000000e   Code   RO         3378    i.mem_set           ff.o
    0x08008c8c   0x08008c8c   0x00000036   Code   RO         3379    i.move_window       ff.o
    0x08008cc2   0x08008cc2   0x00000002   PAD
    0x08008cc4   0x08008cc4   0x00000058   Code   RO         4051    i.my_mem_free       malloc.o
    0x08008d1c   0x08008d1c   0x0000003c   Code   RO         4052    i.my_mem_init       malloc.o
    0x08008d58   0x08008d58   0x00000090   Code   RO         4053    i.my_mem_malloc     malloc.o
    0x08008de8   0x08008de8   0x00000038   Code   RO         4054    i.my_mem_perused    malloc.o
    0x08008e20   0x08008e20   0x00000018   Code   RO         4055    i.myfree            malloc.o
    0x08008e38   0x08008e38   0x00000020   Code   RO         4056    i.mymalloc          malloc.o
    0x08008e58   0x08008e58   0x00000012   Code   RO         4057    i.mymemcpy          malloc.o
    0x08008e6a   0x08008e6a   0x00000002   PAD
    0x08008e6c   0x08008e6c   0x0000000e   Code   RO         4058    i.mymemset          malloc.o
    0x08008e7a   0x08008e7a   0x000000f8   Code   RO         3380    i.put_fat           ff.o
    0x08008f72   0x08008f72   0x00000002   PAD
    0x08008f74   0x08008f74   0x000000f8   Code   RO           20    i.readDataToSram    main.o
    0x0800906c   0x0800906c   0x0000006e   Code   RO         3382    i.remove_chain      ff.o
    0x080090da   0x080090da   0x00000002   PAD
    0x080090dc   0x080090dc   0x00000060   Code   RO         4172    i.showFileList      lcd_show.o
    0x0800913c   0x0800913c   0x00000014   Code   RO         4173    i.showFileListReset  lcd_show.o
    0x08009150   0x08009150   0x00000010   Code   RO         3383    i.st_clust          ff.o
    0x08009160   0x08009160   0x0000001a   Code   RO         3384    i.sum_sfn           ff.o
    0x0800917a   0x0800917a   0x000000b6   Code   RO         3385    i.sync_fs           ff.o
    0x08009230   0x08009230   0x00000060   Code   RO         3386    i.sync_window       ff.o
    0x08009290   0x08009290   0x0000002c   Code   RO         3387    i.validate          ff.o
    0x080092bc   0x080092bc   0x00000010   Data   RO         3240    .constdata          system_stm32f1xx.o
    0x080092cc   0x080092cc   0x00000008   Data   RO         3241    .constdata          system_stm32f1xx.o
    0x080092d4   0x080092d4   0x0000003a   Data   RO         3389    .constdata          ff.o
    0x0800930e   0x0800930e   0x0002acc8   Data   RO         3762    .constdata          cc936.o
    0x08033fd6   0x08033fd6   0x00000002   PAD
    0x08033fd8   0x08033fd8   0x00000014   Data   RO         3797    .constdata          sd_diskio.o
    0x08033fec   0x08033fec   0x000017c0   Data   RO         3867    .constdata          lcd_header.o
    0x080357ac   0x080357ac   0x00000018   Data   RO         4064    .constdata          malloc.o
    0x080357c4   0x080357c4   0x00000002   Data   RO           22    .conststring        main.o
    0x080357c6   0x080357c6   0x00000002   PAD
    0x080357c8   0x080357c8   0x00000020   Data   RO         4629    Region$$Table       anon$$obj.o


    Execution Region RW_IRAM1 (Exec base: 0x20000000, Load base: 0x080357e8, Size: 0x0000ce90, Max: 0x00010000, ABSOLUTE)

    Exec Addr    Load Addr    Size         Type   Attr      Idx    E Section Name        Object

    0x20000000   0x080357e8   0x00000018   Data   RW           23    .data               main.o
    0x20000018   0x08035800   0x00000008   Data   RW          293    .data               crc.o
    0x20000020   0x08035808   0x00000005   Data   RW          457    .data               fatfs.o
    0x20000025   0x0803580d   0x00000003   PAD
    0x20000028   0x08035810   0x00000008   Data   RW          496    .data               fsmc.o
    0x20000030   0x08035818   0x0000000c   Data   RW          909    .data               stm32f1xx_hal.o
    0x2000003c   0x08035824   0x00000004   Data   RW         3242    .data               system_stm32f1xx.o
    0x20000040   0x08035828   0x00000008   Data   RW         3390    .data               ff.o
    0x20000048   0x08035830   0x00000001   Data   RW         3798    .data               sd_diskio.o
    0x20000049   0x08035831   0x00000003   PAD
    0x2000004c   0x08035834   0x00000004   Data   RW         3868    .data               lcd_header.o
    0x20000050   0x08035838   0x00000002   Data   RW         3990    .data               tft_lcd_fsmc.o
    0x20000052   0x0803583a   0x00000002   Data   RW         3991    .data               tft_lcd_fsmc.o
    0x20000054   0x0803583c   0x0000001c   Data   RW         4065    .data               malloc.o
    0x20000070   0x08035858   0x00000004   Data   RW         4145    .data               iap.o
    0x20000074   0x0803585c   0x00000010   Data   RW         4174    .data               lcd_show.o
    0x20000084   0x0803586c   0x00000004   Data   RW         4605    .data               mc_w.l(stdout.o)
    0x20000088   0x08035870   0x00000004   Data   RW         4610    .data               mc_w.l(mvars.o)
    0x2000008c   0x08035874   0x00000004   Data   RW         4611    .data               mc_w.l(mvars.o)
    0x20000090        -       0x0000000c   Zero   RW           21    .bss                main.o
    0x2000009c        -       0x00000230   Zero   RW          455    .bss                fatfs.o
    0x200002cc        -       0x00000090   Zero   RW          495    .bss                fsmc.o
    0x2000035c        -       0x00000014   Zero   RW          542    .bss                rtc.o
    0x20000370        -       0x00000084   Zero   RW          584    .bss                sdio.o
    0x200003f4        -       0x00000040   Zero   RW          626    .bss                usart.o
    0x20000434        -       0x00000018   Zero   RW         3388    .bss                ff.o
    0x2000044c        -       0x0000000c   Zero   RW         3672    .bss                ff_gen_drv.o
    0x20000458        -       0x0000000e   Zero   RW         3989    .bss                tft_lcd_fsmc.o
    0x20000466   0x08035878   0x0000001a   PAD
    0x20000480        -       0x0000a000   Zero   RW         4062    .bss                malloc.o
    0x2000a480        -       0x00000a00   Zero   RW         4063    .bss                malloc.o
    0x2000ae80        -       0x0000000c   Zero   RW         4222    .bss                file_list.o
    0x2000ae8c   0x08035878   0x00000004   PAD
    0x2000ae90        -       0x00001000   Zero   RW            2    HEAP                startup_stm32f103xe.o
    0x2000be90        -       0x00001000   Zero   RW            1    STACK               startup_stm32f103xe.o



  Load Region LR$$.ARM.__AT_0x68000000 (Base: 0x68000000, Size: 0x00000000, Max: 0x000f0000, ABSOLUTE)

    Execution Region ER$$.ARM.__AT_0x68000000 (Exec base: 0x68000000, Load base: 0x68000000, Size: 0x000f0000, Max: 0x000f0000, ABSOLUTE, UNINIT)

    Exec Addr    Load Addr    Size         Type   Attr      Idx    E Section Name        Object

    0x68000000        -       0x000f0000   Zero   RW         4060    .ARM.__AT_0x68000000  malloc.o



  Load Region LR$$.ARM.__AT_0x680F0000 (Base: 0x680f0000, Size: 0x00000000, Max: 0x0000f000, ABSOLUTE)

    Execution Region ER$$.ARM.__AT_0x680F0000 (Exec base: 0x680f0000, Load base: 0x680f0000, Size: 0x0000f000, Max: 0x0000f000, ABSOLUTE, UNINIT)

    Exec Addr    Load Addr    Size         Type   Attr      Idx    E Section Name        Object

    0x680f0000        -       0x0000f000   Zero   RW         4061    .ARM.__AT_0x680F0000  malloc.o


==============================================================================

Image component sizes


      Code (inc. data)   RO Data    RW Data    ZI Data      Debug   Object Name

       162         26          0          0          0       3536   bsp_driver_sd.o
       112         16     175304          0          0       2103   cc936.o
        76         18          0          8          0       1343   crc.o
       148         22          0          0          0       3417   diskio.o
        32         10          0          5        560       1320   fatfs.o
      7164         88         58          8         24      42121   ff.o
        70          4          0          0         12       1499   ff_gen_drv.o
       262         10          0          0         12       3912   file_list.o
       348         38          0          8        144       2070   fsmc.o
       344         24          0          0          0       1051   gpio.o
        60          8          0          4          0       1796   iap.o
     15178        100       6080          4          0      16121   lcd_header.o
       116         10          0         16          0       1279   lcd_show.o
      1290        442          2         24         12     506690   main.o
       436         44         24         28    1088000       6336   malloc.o
       164         20          0          0         20       1431   rtc.o
       264         34         20          1          0       4188   sd_diskio.o
       168         26          0          0        132       1465   sdio.o
        26          0          0          0          0        820   sram.o
        36          8        304          0       8192        776   startup_stm32f103xe.o
       164         28          0         12          0       6285   stm32f1xx_hal.o
       198         14          0          0          0      28791   stm32f1xx_hal_cortex.o
        34          0          0          0          0        975   stm32f1xx_hal_crc.o
       554         48          0          0          0       3976   stm32f1xx_hal_gpio.o
        56          8          0          0          0        786   stm32f1xx_hal_msp.o
        12          4          0          0          0        487   stm32f1xx_hal_pwr.o
      1272        100          0          0          0       5028   stm32f1xx_hal_rcc.o
       448         44          0          0          0       2489   stm32f1xx_hal_rcc_ex.o
       922         14          0          0          0       9028   stm32f1xx_hal_rtc.o
      2464         34          0          0          0      11828   stm32f1xx_hal_sd.o
       100          0          0          0          0       1152   stm32f1xx_hal_sram.o
       560          6          0          0          0       3848   stm32f1xx_hal_uart.o
        44          0          0          0          0       5122   stm32f1xx_it.o
       232         14          0          0          0       3747   stm32f1xx_ll_fsmc.o
      1656         46          0          0          0      21263   stm32f1xx_ll_sdmmc.o
         8          0          0          0          0       1499   syscall.o
         2          0         24          4          0       1015   system_stm32f1xx.o
       380         44          0          4         14       5269   tft_lcd_fsmc.o
       168         20          0          0         64       1526   usart.o

    ----------------------------------------------------------------------
     35776       1372     181852        132    1097216     717388   Object Totals
         0          0         32          0          0          0   (incl. Generated)
        46          0          4          6         30          0   (incl. Padding)

    ----------------------------------------------------------------------

      Code (inc. data)   RO Data    RW Data    ZI Data      Debug   Library Member Name

         0          0          0          0          0          0   entry.o
         0          0          0          0          0          0   entry10a.o
         0          0          0          0          0          0   entry11a.o
         8          4          0          0          0          0   entry2.o
         4          0          0          0          0          0   entry5.o
         0          0          0          0          0          0   entry7b.o
         0          0          0          0          0          0   entry8b.o
         8          4          0          0          0          0   entry9a.o
        30          0          0          0          0          0   handlers.o
        36          8          0          0          0         68   init.o
         0          0          0          0          0          0   iusefp.o
        30          0          0          0          0         68   llshl.o
        32          0          0          0          0         68   llushr.o
       188         20          0          0          0        160   malloc.o
        36          0          0          0          0        108   memseta.o
         0          0          0          8          0          0   mvars.o
       522         20          0          0          0        336   printf3.o
         0          0          0          4          0          0   stdout.o
        14          0          0          0          0         68   strlen.o
        36          0          0          0          0         80   strstr.o
        44          0          0          0          0         80   uidiv.o
       186          0          0          0          0        176   depilogue.o
        50          0          0          0          0         76   dfixui.o
        26          0          0          0          0         76   dfltui.o
       228          0          0          0          0         96   dmul.o

    ----------------------------------------------------------------------
      1484         56          0         12          0       1460   Library Totals
         6          0          0          0          0          0   (incl. Padding)

    ----------------------------------------------------------------------

      Code (inc. data)   RO Data    RW Data    ZI Data      Debug   Library Name

       988         56          0         12          0       1036   mc_w.l
       490          0          0          0          0        424   mf_w.l

    ----------------------------------------------------------------------
      1484         56          0         12          0       1460   Library Totals

    ----------------------------------------------------------------------

==============================================================================


      Code (inc. data)   RO Data    RW Data    ZI Data      Debug   

     37260       1428     181852        144    1097216     707144   Grand Totals
     37260       1428     181852        144    1097216     707144   ELF Image Totals
     37260       1428     181852        144          0          0   ROM Totals

==============================================================================

    Total RO  Size (Code + RO Data)               219112 ( 213.98kB)
    Total RW  Size (RW Data + ZI Data)           1097360 (1071.64kB)
    Total ROM Size (Code + RO Data + RW Data)     219256 ( 214.12kB)

==============================================================================

