:020000040800F2
:1000000090CE00204D010008C3600008CF200008FA
:10001000C1600008E50400089D6D000800000000B4
:10002000000000000000000000000000116C00084B
:10003000E704000800000000C5600008136C000819
:1000400067010008670100086701000867010008F0
:100050006701000867010008E9040008670100085B
:10006000EF040008F5040008FB040008670100081D
:1000700067010008670100086701000867010008C0
:1000800067010008670100086701000867010008B0
:1000900067010008670100086701000867010008A0
:1000A0006701000867010008670100086701000890
:1000B0006701000867010008670100086701000880
:1000C0006701000867010008670100086701000870
:1000D0006701000867010008670100086701000860
:1000E0006701000867010008670100086701000850
:1000F0006701000867010008670100086701000840
:10010000670100086701000867010008670100082F
:10011000670100086701000867010008670100081F
:10012000670100086701000867010008670100080F
:10013000DFF80CD000F062F900480047558B00084A
:1001400090CE002080F30888704700000648804762
:1001500006480047FEE7FEE7FEE7FEE7FEE7FEE7AC
:10016000FEE7FEE7FEE7FEE77F6C000831010008CE
:10017000202A04DB203A21FA02F00021704721FAFC
:1001800002F3D040C2F12002914008431946704763
:10019000D2B201E000F8012B491EFBD270470022C9
:1001A000F6E710B513460A4604461946FFF7F0FF76
:1001B000204610BD30B505462A460B4612F8010B05
:1001C00013F8014B08B1A042F8D01CB1002802D0AE
:1001D0006D1CF1E7284630BD421C10F8011B0029B8
:1001E000FBD1801A70472DE9FE4F81EA030404F029
:1001F000004421F0004100944FF0000B23F0004335
:1002000050EA01045ED052EA03045BD0C3F30A54FF
:10021000C1F30A552C44A4F2F3340194A0FB025418
:10022000C1F3130141F48011C3F3130343F48013AA
:1002300001FB024400FB034E840A970A44EA8154FE
:1002400047EA8357A4FB076802958D0A05FB0785DB
:100250004FEA932C04FB0C542705029D4FEA0658E5
:1002600047EA1637B5EB08056EEB070C870E920EC2
:1002700047EA811742EA8312A7FB0201B6EB0B01A2
:1002800064EB00042B0D43EA0C335E1844EB1C5066
:10029000DA465146E7FB0201C5F313044FEA0B337C
:1002A00043EA14534FEA0432019C43EA0603A4F1E3
:1002B0000C040294009CCDE900B400F051F803B0A6
:1002C000BDE8F08F00200146F9E70EB540F233415A
:1002D00002910021CDE900110A460B4600F040F8DA
:1002E00003B000BDC1F30A5210B5C1F3130140F2CF
:1002F000FF3341F480119A4201DA002010BD40F230
:1003000033439A42A2F2334203DC5242FFF730FFFA
:1003100010BD904010BD30B50B4601460020202294
:10032000012409E021FA02F59D4205D303FA02F502
:10033000491B04FA02F52844151EA2F10102F1DC62
:1003400030BD10B5141E73F1000408DA401C41F1F1
:10035000000192185B411A4301D120F0010010BD49
:100360002DE9F04D92469B4611B1B1FA81F202E0BF
:10037000B0FA80F22032904600F052F804460F4660
:1003800040EA0A0041EA0B0153465A46084313D09B
:10039000114653EA010019D0C8F140025046FFF758
:1003A000E7FE05460E4650465946424600F038F8EC
:1003B000084305D0012004E020463946BDE8F08D11
:1003C0000020054346EAE0762C4337430A9863054C
:1003D000E40AA0EB08000022FD0A44EA47540A3070
:1003E00002D500200146E9E7010510196941DDE960
:1003F000084500196941BDE8F04DA2E7064C074DDC
:1004000006E0E06840F0010394E8070098471034E4
:10041000AC42F6D3FFF790FEC8570308E85703082D
:10042000202A04DB203A00FA02F1002070479140B4
:10043000C2F1200320FA03F31943904070470000F3
:100440000146014801F0A6BA7003002010B5044827
:1004500001F0B2FA042801D0012010BD002010BD27
:100460007003002010B500F015F8012801D001201C
:1004700010BD074801F0B6FA040006D14FF4006140
:10048000034801F041F900B10124204610BD0000ED
:100490007003002008B501208DF800009DF80000D1
:1004A00008BD000038B50024009313460A460146F3
:1004B000034801F01FFB00B10124204638BD0000B5
:1004C0007003002038B50024009313460A46014605
:1004D000034801F00BFC00B10124204638BD0000A8
:1004E00070030020FEE77047012000F0B9BA042035
:1004F00000F0B6BA082000F0B3BA102000F0B0BA8D
:1005000010B50446007AC0B10DA006F049FC0FA159
:10051000E068FFF74FFE20B10EA0BDE8104006F0E6
:100520003FBC204608F026FD002808D11048C068CE
:10053000BDE81040001D08F097BA0EA0EDE710BD11
:10054000696E746F2066696C650D0A002E626974AD
:1005500000000000746869732066696C6520697327
:10056000206E6F7420222E62696E220D0A00000038
:1005700000000020646F6E2774206F70656E206429
:10058000697220696E207468652046415446530D97
:100590000A00000070470022AFF3008030B50E4B18
:1005A000054601205C7A012C15D8587A00241C5489
:1005B000587A03EB800045605D7A03F108002A5405
:1005C000587A421C5A72303008703A2048702F20F6
:1005D0008870CC70002030BD4C04002030B5B3F5DD
:1005E000804F05D06FF0704140F82210002030BDE0
:1005F0008C690B688D6823434C688989240144EA1F
:100600000524234343EA014150F82230014C2340A2
:100610001943E9E70000F0CF10B50A6850F822301E
:1006200023F0010340F822308C68082C23D00023EB
:100630004A682243CC681C430B6922431A434B6926
:100640000E4C1A43CB691A430B6A1A434B6A1A437E
:100650008B6A1A43CB6A1A430B6B1A438B69134399
:100660004A6B09681A4350F82130A343134340F8FA
:100670002130002010BD4023DAE700007FFF0F008B
:1006800030B5D1E9003443EA04138C688D89240223
:1006900044EA054423430C8A094D00EB820005EB34
:1006A000045423430C7D6D0105EB046489692343E5
:1006B0000B43416801F040410B434360002030BDD3
:1006C0000000F0FF10B5002A08D000BF4FF0D04363
:1006D00010F8014B5C54891C521EF7D110BD00006C
:1006E0002DE9F047154F91468846054618213A688E
:1006F0001E4600209047044668682661606084F8C2
:1007000008803A68314600209047E060BF68324672
:100710004946B847A868206000206061686840B119
:10072000296831B1401C6860A8684461AC60BDE8CC
:10073000F0870120C5E90040F8E7000080AE002006
:1007400070B505460068AC686D68954201D201201D
:1007500070BD39B120B14568954207D04069F8E7CE
:10076000022070BD2CB16168914204D198470020ED
:1007700070BD032070BD2468F4E70000014B83E8DE
:100780000700704780AE0020002101604160816059
:1007900070472DE9F0471F4685680468DDF820A002
:1007A000D01916468846A0F10109B8F1000F0BD008
:1007B000002C17D06068484514D0B04202D32046C0
:1007C000514688476469F0E7F71B7F1C002D09D06C
:1007D0006068B84206D0B04202D8284651468847E1
:1007E0002D68F3E7BDE8F08710B5040002D060790A
:1007F00010B106E0012010BD00202071204600F05D
:1008000005F801206071002010BD000008B50068E7
:100810000649884208D10648416941F040014161DA
:10082000406900F04000009008BD00000030024028
:100830000010024070B5044600F028FA0546601C1E
:1008400002D004480078044400F020FA401BA04283
:10085000FAD370BD3000002030B585B00020009084
:100860000190029003901B480168002930D10121BA
:1008700001601948416941F4807141614069022475
:1008800000F4807004904FF23F00CDE9000403258E
:1008900069460395114800F0EFF841F23F40CDE979
:1008A0000004694603950E4800F0E6F84FF68370A1
:1008B000CDE90004694603950A4800F0DDF84DF6DD
:1008C0003370CDE9000469460395074800F0D4F879
:1008D00005B030BD2800002000100240001C01407F
:1008E000002001400018014000140140F8B50746FF
:1008F0003AA006F055FA3C4E3C4C012F11D0042F83
:100900002ED03B4D082F30D0102F57D139A006F0F4
:1009100047FA627868683B4BB2EB500F4FD9002121
:100920004EE039A006F03CFA207810B1401E20704D
:1009300006E0606820B1401E6060A068401EA060B4
:10094000607800283AD0207808F0F8FB0096D4E9C7
:10095000012301212648FFF71CFF6078401E2CE090
:10096000BDE8F8402CA006F01BBA2FA006F018FA3C
:100970002078132806D26968491E814202D9401C9A
:10098000207009E06968A068491E814204D9616845
:10099000401C491CC4E9011068686178401E884207
:1009A0000CD9207808F0CAFB0096D4E90123012174
:1009B0000F48FFF7EEFE6078401C6070F8BD012123
:1009C0000B48FFF7BDFE0100F8D063786A6801B0FC
:1009D00019A0BDE8F04006F0E3B90000696E746547
:1009E0007270744F4B0D0A00DD900008000000206B
:1009F000900000204750494F5F50494E5F34204FD0
:100A00004B0D0A00010500084750494F5F50494E01
:100A10005F30204F4B0D0A004750494F5F50494E01
:100A20005F32204F4B0D0A004750494F5F50494EEF
:100A30005F33204F4B0D0A0046696C65476F746F3A
:100A4000204572726F7225643A206C6973743A257E
:100A5000642C696E6465783A25640D0A0000000014
:100A6000044910B50A68024202D00860FFF73EFF51
:100A700010BD0000140401402DE9F84FDFF8C891C3
:100A8000002409F1040A0AF1040B23460F270BF195
:100A9000040ED1E00125A54006EA0502AA4276D15E
:100AA000DFF8A8C14E68A6EB0C0866452BD00DDC1C
:100AB000032E34D005DC36B3012E19D0022E2FD1EF
:100AC0001BE0112E16D0122E2AD119E0B8F5881F7E
:100AD00019D006DCB8F5803F15D0B8F5801F1FD1BE
:100AE00011E0B8F5001F0ED0B8F5041F18D10AE0C8
:100AF000CB6815E0CB681B1D12E0CB6808330FE014
:100B0000CB680C330CE08B682BB1012B4FF0080342
:100B100003D0456104E0042302E0056100E0002306
:100B2000FF2A01D8064601E000F104064FEA8405D9
:100B300001D9A5F12005D6F8008007FA05FC28EABE
:100B40000C0803FA05F548EA0508C6F800804D6868
:100B5000ED0070D53E4DAE6946F00106AE61AD695F
:100B600024F0030605F0010500953A4D06EB050C4F
:100B7000DCF80850A607360F07FA06F825EA08053C
:100B8000DFF8D480404503D14FF0000825E052E063
:100B9000DFF8C880404502D14FF001081DE0DFF8C2
:100BA000C080404502D14FF0020816E0DFF8B48063
:100BB000404502D14FF003080FE0DFF8AC8040451C
:100BC00002D14FF0040808E0DFF8A080404502D1D0
:100BD0004FF0050801E04FF0060808FA06F848EA69
:100BE0000508CCF808804D68D9F80060ED034D4643
:100BF00001D5164300E096432E604D68DAF8006098
:100C0000AD03554601D5164300E096432E604D686E
:100C1000DBF80060ED025D4601D5164300E0964327
:100C20002E604D68DEF80060AD02754601D51643B2
:100C300000E096432E60641C0A681646E2407FF48A
:100C400029AFBDE8F88F000000040140000011103A
:100C5000001002400000014000080140000C01406B
:100C6000001001400014014000180140001C014028
:100C7000C26821EA02030A4043EA02410161704767
:100C80000AB1016170470904FBE700000148806870
:100C9000704700003000002002488168027811444B
:100CA0008160704730000020074810B5016841F0AE
:100CB00010010160032000F073F8002000F006F836
:100CC00000F024F8002010BD0020024070B50D4D4A
:100CD00004464FF47A712878B1FBF0F00A490968AC
:100CE000B1FBF0F001F01CF948B9102C07D200223A
:100CF0002146501E00F034F800206C6070BD0120C9
:100D000070BD0000300000203C0000200B4808B5FA
:100D1000816941F001018161816901F00101009166
:100D2000C16941F08051C161C06900F080500090FC
:100D30000348416821F0E061416008BD00100240B5
:100D400000000140002809DB00F01F020121914052
:100D50004009800000F1E020C0F800117047000059
:100D6000F0B40E4B1B680C46C3F30223C3F1070516
:100D7000042D00D90425191D072901D2002300E004
:100D8000DB1E012606FA05F1491E214099409E40CE
:100D9000761E16403143F0BC06F026B80CED00E09C
:100DA000064900F0070208684FF6FF03184040EAC2
:100DB0000220034A10430860704700000CED00E079
:100DC0000000FA05014901200862704700000E4248
:100DD00010B52CA401461DCC86B08DE81D002DA0B9
:100DE0002D4C00680490002004292FD00BDC012931
:100DF0002FD0022928D100F071F96168C1F3813147
:100E0000491C49001EE0082920D010291CD1616826
:100E10002268D20118D5C1F38342C9031DF802002C
:100E200009D5616804AAC1F34041515C1B4AB2FB79
:100E3000F1F1484301E01A4948436168490203D48B
:100E400040000321B0FBF1F006B010BD00F056F9F0
:100E5000FAE7226AC2F30121012903D1920701D5E1
:100E6000C803F1E7022905D1626A920702D549F663
:100E70004040E9E70329E7D121688903E4D54FF22F
:100E80002440E1E702030405060708090A0B0C0DDC
:100E90000E0F1010010200000010024000127A0034
:100EA00000093D002DE9F84305460078354CC007A0
:100EB00054D0E0690026C00008D4E06940F08050BA
:100EC000E061E069012600F0805000902E48016842
:100ED000C90512D40168804641F480710160FFF7B2
:100EE000D5FE074605E000BFFFF7D0FEC01B642813
:100EF00023D8D8F80000C005F6D5206A10F4407059
:100F000021D0A98801F4407181421CD0206A1F4978
:100F1000012220F440700A6000220A602062C007AB
:100F200011D0FFF7B3FE074641F2883808E000BF52
:100F3000FFF7ACFEC11B414502D90320BDE8F88391
:100F4000206A8007F4D5206A696820F4407008435D
:100F500020621EB1E06920F08050E06128788007AF
:100F600005D56068A96820F440400843606028788F
:100F7000C00605D56068696920F480000843606098
:100F80000020DBE7001002400070004040044242B5
:100F90002DE9F0470F46050061D0434E306800F060
:100FA0000700B84209D2306820F0070038433060AB
:100FB000306800F00700B84251D128683B4C8107E7
:100FC00012D5400703D5606840F4E060606028787F
:100FD000000703D5606840F4605060606068A968ED
:100FE00020F0F000084360602878C00728D06868C7
:100FF000012810D02168022810D0890700292EDA94
:10100000616821F0030101436160FFF73FFE804604
:1010100041F288390DE021688903EFE78901EDE7A6
:10102000FFF734FEA0EB0801494502D90320BDE8D3
:10103000F0876068696800F00C00B0EB810FEFD1B9
:10104000306800F00700B8420BD9306820F0070084
:1010500038433060306800F00700B84201D001200A
:10106000E5E72878400705D56068E96820F4E06086
:10107000084360602878000706D56068296920F475
:10108000605040EAC100606000F038F86168084ACA
:10109000C1F30311515CC840064908600648006866
:1010A000FFF714FE0020C2E70020024000100240BB
:1010B000BC9200083C000020340000200448054990
:1010C00000684968044AC1F30221515CC840704776
:1010D0003C00002000100240CC9200080448054962
:1010E00000684968044AC1F3C221515CC840704796
:1010F0003C00002000100240CC92000812A185B0F4
:101100000FC98DE80F0014A0144A006804905168BC
:10111000134801F00C03042B10D0082B0ED1C1F39F
:101120008343C9031DF803000AD5516804AAC1F31B
:101130004041515C0A4A5043B0FBF1F005B07047A2
:1011400008494843FAE700000203040506070809B6
:101150000A0B0C0D0E0F10100102000000100240CF
:1011600000127A0000093D002DE9F84F040070D00C
:101170002078C04DC00749D06868C0F381000128BD
:1011800007D06868C0F38100022809D16868C003ED
:1011900006D52868800339D560680028E7D035E097
:1011A0006068B0F5803F0BD010B1B0F5A02F11D022
:1011B000286820F480302860286820F4802002E02D
:1011C000286840F480302860606890B1FFF75EFDC9
:1011D00006460AE0286840F480202860F0E700BF57
:1011E000FFF754FD801B642873D828688003F7D567
:1011F0000CE0FFF74BFD064605E000BFFFF746FD9C
:10120000801B6428F0D828688003F7D420789A4E91
:1012100080074FF001094FF0000839D5686810F0D9
:101220000C0F07D06868C0F38100022809D16868F4
:10123000C00306D42868800714D52069012808D186
:1012400010E02069B0B1C6F80090FFF71FFD074617
:1012500005E00AE1FFF71AFDC01B0228C4D8286880
:101260008007F7D52868616920F0F80040EAC100DE
:1012700028600DE0C6F80080FFF708FD074604E08F
:10128000FFF704FDC01B022823D828688007F7D485
:10129000207800072CD57948A169D9B1C0F8009011
:1012A000FFF7F4FC074604E0FFF7F0FCC01B022840
:1012B0000FD8686A8007F7D571484FF4FA51006873
:1012C000B0FBF1F0009000BF0098411E0091FAD2EF
:1012D0000EE080E0C0F80080FFF7D8FC074604E08D
:1012E000FFF7D4FCC01B022875D8686A8007F7D4C2
:1012F0002078400760D5E8690027C00008D4E86975
:1013000040F08050E861E869012700F080500090CB
:101310005C480168C90513D40168834641F48071B3
:101320000160FFF7B3FC824606E000BFFFF7AEFCAA
:10133000A0EB0A0064284ED8DBF80000C005F5D504
:10134000E06801280AD008B1052813D0286A20F0E7
:1013500001002862286A20F0040002E0286A40F0B8
:1013600001002862E06841F2883B98B1FFF78EFCEB
:1013700082460BE0286A40F004002862EEE700BFD6
:10138000FFF784FCA0EB0A0159455AD8286A800768
:10139000F6D50CE0FFF77AFC824605E0FFF776FC15
:1013A000A0EB0A0159454CD8286A8007F6D41FB132
:1013B000E86920F08050E861E06988B36968C1F3AA
:1013C0008101022944D00228C6F8608004D0FFF7CA
:1013D0005DFC044638E034E0FFF758FC074604E0C3
:1013E000FFF754FCC01B02282BD828688001F7D4D3
:1013F000206AB0F5803F05D16868A16820F400300C
:1014000008436860D4E908010843696821F474114D
:1014100008436860C6F86090FFF738FC044606E0B1
:1014200025E000BFFFF732FC001B022809D828681E
:101430008001F7D51BE000BFFFF728FC001B022846
:1014400002D90320BDE8F88F28688001F4D40EE0AB
:101450000128F7D06868226A00F48031914204D1F3
:10146000616A00F47010884201D00120EAE7002090
:10147000E8E70000001002400000424280044242BF
:101480003C0000200070004070B5040003D0607C78
:10149000002610B105E0012070BD2674204600F042
:1014A00043F802206074204600F010F9042578BB50
:1014B000204604F011FE58BB2068416821F0070166
:1014C0004160A06820B11748016821F00101016066
:1014D0001448001F0168A26821F460711143016083
:1014E0006068411C04D10120FFF772FC80B1401EEE
:1014F00021688A6822F00F0242EA10428A6021685D
:10150000CA6860F30F02CA60204604F0FFFD08B10C
:101510006574C0E7E67301206073A07360740020F7
:1015200070BD0000306C004008B500680849884272
:101530000DD1FFF747FC0748C16941F00061C16167
:10154000C069054900F0006000900120086008BDF6
:1015500000280040001002403C0442422DE9F041C6
:101560000D4604003BD0C5B3207C01283AD04FF093
:10157000010884F8108002206074E87872B304F0E7
:10158000A2FDE073687804F09EFD6073A87804F013
:101590009AFDA073C2B2617BE07B04F0E9FD207389
:1015A0002870204604F0D4FD4FF46161B0FBF1F1E6
:1015B000002518292DD91822B1FBF2F1A1EB011158
:1015C00001EB4101C1EB011100EBC1163146204690
:1015D00004F00DFE0427C8B90BE000E004E0012090
:1015E000BDE8F0810220FBE7E07368786073A878BB
:1015F000CFE7204604F0A5FD411C0AD0B04208D236
:1016000006490144204604F0DEFD10B167742574DC
:10161000E5E784F8118025740020E1E7805101009E
:101620002DE9F0410D46040024D01DB3207C012893
:1016300023D04FF0010884F81080022060742878CD
:10164000EAB104F040FD4FF4616100FB01F66878F7
:1016500004F039FDC0EB001006EB8006A87804F01A
:1016600032FD35182946204604F0C1FD0026042726
:1016700010BB0FE00120BDE8F0810220FBE74FF432
:10168000616148436978C1EB011100EB8100A978E1
:101690004518E7E72068416821F0050141602046D0
:1016A00004F04FFD411C0AD0A84208D2064901446B
:1016B000204604F088FD10B167742674DAE784F8D8
:1016C000118026740020D6E78051010070B5040017
:1016D0000AD02068416821F008014160FFF7D6FA7E
:1016E00005464FF47A7608E0012070BDFFF7CEFA88
:1016F000401BB04201D9032070BD2068406800073C
:10170000F4D5002070BD00002DE9FE4304460320FF
:101710000F4684F83400606C03285AD0B7F5805F18
:1017200057D04FF4006600254FF08068B7421CD1B7
:10173000009501950021206804F083FD800121D4EB
:101740006946204605F0A4F898BB0198400332D5BD
:10175000B4F850000104206804F0A8FD48BB022141
:10176000206822E0A06B284327E01FB1A06B40F067
:10177000006022E0009501950021206804F061FDE1
:10178000800101D53546EDE76946204605F080F831
:1017900078B90198C0030ED5B4F850000104206850
:1017A00004F084FD28B90021206804F0CCFD002855
:1017B000D8D00546D6E74546D4E7A063A06B0125FF
:1017C00058B121680C48886384F834500120BDE882
:1017D000FE83A06B40F08050EFE7211DD4E90506A1
:1017E0000EC90097CDE90106206804F02DFD84F8AC
:1017F00034500020EBE70000FF054000F0B5426EDA
:10180000920F0A70426EC2F383624A70426EC2F354
:1018100001628A70426E120CCA70B0F86420120A1B
:101820000A7190F864204A71826E120DCA80826E2D
:10183000C2F303420A72B0F86820C2F3C0324A729F
:10184000B0F86820C2F380328A72B0F86820C2F320
:101850004032CA72B0F86820C2F300320A73002620
:101860004E73426C4FF40075012462B1012A3AD0E4
:10187000026847499163816B41F08051816380F830
:1018800034400120F0BDB0F86820C36E9205120DFF
:1018900042EA93720A61C26EC2F3C2620A75C26EF4
:1018A000C2F302624A75C26EC2F342528A75C26EB8
:1018B000C2F38242CA75C26EC2F3C2320A760A69A4
:1018C000521C42650B7E03F007039B1C9A40426545
:1018D0000B7A03F00F0704FA07F383655B0A5A4398
:1018E000C0E917250EE090F86820C36E9206920AB0
:1018F00042EA13420A610A69521C92024265C0E937
:101900001652056630F86C2FC2F3803201F8192F99
:101910000288C2F3C6124A70027802F07F028A700F
:101920004268D20FCA704268C2F341720A714268BB
:10193000C2F382624A714268C2F383528A7142687A
:10194000C2F34052CA710E724268C2F300424A7238
:101950008288C2F3C0328A728288C2F38032CA722D
:101960008288C2F340320A738288C2F300324A731B
:101970008288C2F381228A738288C2F30122CA73E9
:101980000079C0F3460008744C740020F0BD0000DC
:10199000FF054000426C0A60826C4A60C26C8A603B
:1019A000026DCA60426D0A61826D4A61C26D8A61D0
:1019B000006EC8610020704770B50446B0F8500052
:1019C00000250104206804F0C8FD18B1A16B014393
:1019D000A16304E00021206804F033FC0546C5F350
:1019E000432070BD70B504000ED094F8340000257B
:1019F00018B92577204600F03BF8032084F834001E
:101A0000204600F00BF808B1012070BDA5632563E6
:101A1000012084F83400002070BD0000FEB50025D0
:101A2000044676200095CDE9015029460B460A462A
:101A3000206804F009FC08B10120FEBD0B4E46F8F9
:101A4000A05F206804F012FC01253560204605F0F7
:101A500001F820B9204604F085FF0028EDD084F875
:101A60003450A16B0143A163E6E70000000030425F
:101A700030B585B000210091019102910391006879
:101A8000184988422BD11848416941F4806141616D
:101A9000416901F480610491816941F01001816123
:101AA000816901F010010491816941F02001816197
:101AB0008069022400F0200004904FF4F850CDE932
:101AC00000040325694603950848FEF7D5FF042066
:101AD000CDE90004694603950548FEF7CDFF05B042
:101AE00030BD0000008001400010024000100140A5
:101AF000001401402DE9F04F87B09B4616460D4675
:101B00000446FFF7C3F800903DB194F83400012873
:101B100007D0A06B40F000500DE0A06B40F00060DB
:101B200009E00027A763E16D06EB0B00884204D9AA
:101B3000A06B40F00070A06395E0032084F83400AF
:101B40002068C762606C012800D076024FF40071F3
:101B5000206804F0DFFBDFF890A1012140B1236889
:101B6000C3F838A0A26B0243A26384F834107AE071
:101B70004FF0FF3001904FEA4B20029090200390ED
:101B80000220CDE9040706918846B94601A92068DC
:101B900004F041FBBBF1010F06D90220206331465E
:101BA000206804F04BFC05E0C4F830803146206822
:101BB00004F05DFC30B12268C2F838A0A16B01438B
:101BC000A1634CE0029E1EE0406B000413D596B169
:101BD0000027206804F052FB05F8010B010A05F804
:101BE000011B010C05F8021B000E361F7F1C05F8B7
:101BF000010C082FEDD3FFF749F80099411A10980E
:101C000081421DD2E0B12068426B40F22A310A4283
:101C1000DAD0416BC90509D5BBF1010F06D9616C5A
:101C2000032903D004F0CAFC0028C4D12068416B0A
:101C300009071AD5C0F838A0A06B40F0080051E0A1
:101C40002168C1F838A0A06B40F00040A06384F880
:101C50003480C4F83090032007B0BDE8F08F84F8DA
:101C60003480C4F830900120F6E7416B890705D530
:101C7000C0F838A0A06B40F0020033E0416B890649
:101C80001CD5C0F838A0A06B40F020002AE000BFAF
:101C900004F0F4FA05F8010B010A05F8011B010C28
:101CA00005F8021B000E05F8010C361FFEF7EEFFCB
:101CB0000099411A109881420ED268B12068416B98
:101CC000890201D5002EE3D1216840F23A508863A1
:101CD00084F834800020BFE72168C1F838A0A06BE9
:101CE00040F00040A063BAE7FF0540002DE9FF4F38
:101CF0008DB016460D460446FEF7C8FF0B903DB169
:101D000094F83400012807D0A06B40F000500DE09B
:101D1000A06B40F0006009E00027A7631098E16D18
:101D20003044884204D9A06B40F00070A0638BE07F
:101D3000032084F834002068C762606C012800D05A
:101D400076024FF40071206804F0E4FADFF864B121
:101D5000012140B12368C3F838B0A26B0243A263EB
:101D600084F8341070E04FF0FF30039010988946EB
:101D7000400204909020CDE90507CDE90771BA46ED
:101D800003A9206804F047FA1098012806D92020FA
:101D900020633146206804F02BFC05E0102020630E
:101DA0003146206804F03DFC5FEA000806D0216857
:101DB000C1F838B0A06B40EA080071E0049E27E04B
:101DC000406B40041CD5DEB15FF0000715F8010B35
:101DD000009015F8011B361F40EA0120009015F80D
:101DE000021B40EA0140009015F8011C40EA016026
:101DF00000906946206804F054FA7F1C082FE5D350
:101E0000FEF744FF0B99411A1A98814220D2F8B18B
:101E10002068416B40F21A321142D1D0416BC905A2
:101E200023D51099012920D9616C03291DD004F014
:101E3000C5FBD0B12268C2F838B0A16B0143A163E1
:101E400084F83490C4F830A0012011B0BDE8F08FC0
:101E50002168C1F838B0A06B40EA0800A06384F89C
:101E60003490C4F830A00320EFE72068416B0907E5
:101E700005D5C0F838B0A06B40F0080010E0416B09
:101E8000890705D5C0F838B0A06B40F0020007E024
:101E9000416BC90606D5C0F838B0A06B40F0100001
:101EA000A063CDE740F23A51816384F8349000207A
:101EB000CBE70000FF05400070B515460E46040054
:101EC00007D0A069B0F5807F03D094F8410010B12D
:101ED00007E0012070BD002084F84000204600F09B
:101EE0001DF804F108012068FEF796FB3146A26850
:101EF0002068FEF7C5FBD4E901022946236BFEF7F3
:101F00006DFBA168206850F8212042F0010240F8E2
:101F10002120012084F84100002070BDFEF79CBC08
:101F200010B5401EB0F1807F01D3012010BD4FF0ED
:101F3000E02460610F21601704F056FF0020A061CB
:101F400007202061002010BD70B5040004D094F873
:101F50003900002510B106E0012070BD84F838502A
:101F6000204600F023F8242084F839002068C16856
:101F700021F40051C160204604F082FE206801690E
:101F800021F4904101612068416921F02A014161F9
:101F90002068C16841F40051C160E563202084F8E5
:101FA000390084F83A00002070BD000030B585B0DB
:101FB0000024009401940294039400681449884218
:101FC00024D11448816941F480418161816901F41F
:101FD00080410491816941F00401816180690E4D65
:101FE00000F0040004904FF4007000900220019073
:101FF0000320039069462846FEF73EFD2815CDE9EB
:102000000004694628460294FEF736FD05B030BD4F
:102010000038014000100240000801402DE9F8435B
:10202000044690F839001F4616460D4620284CD12C
:10203000C5B1BEB194F83800012846D0012084F81B
:1020400038004FF00008C4F83C80212084F83900A3
:10205000FEF71CFEA6848146E684A068B0F5805F8A
:1020600003D004E00120BDE8F883206928B12E46A2
:102070005FF0000584F838800EE00026FAE7802142
:10208000204604F059FEA0B9AEB116F8010B216844
:102090004860E08C401EE084E08C4B464FF000022C
:1020A00000970028EBD14FF04001204604F044FE99
:1020B00030B10320D7E735F8020BC0F30800E6E79C
:1020C000202084F839000020CDE70220CBE7FEE78E
:1020D0002DE9F047174C8146002520886688464345
:1020E000A088A0F5D041043902D1A079012807D0F9
:1020F0000021084603F0FAFC03F03CFE0E4814E011
:102100000020A0712A2767814FF02B08A4F80C80CB
:10211000014603F0EBFC0120A071A4F80A80A7811E
:10212000EAE700BFA0F800906D1CB542FAD3BDE805
:10213000F0870000580400200008006C2DE9F05FD3
:102140004A492A242B25898845F2105A4FF4305BDE
:102150004FF4285E4FF448764FF0F00C49F24139C5
:102160004FF4A07345F210374FF4F07280B13F483E
:102170004FF00108494580F806800380A0F802C0AE
:1021800001D0B9423ED12C2606814481858157E099
:1021900036484FF00008494580F80680A0F800C096
:1021A000438006D0A1F5D04CBCF1040C01D0B9425B
:1021B0000CD12C2606814481A1F5D0448581043CB4
:1021C00001D0B94244D10380428041E0514507D15A
:1021D000A0F808B0A0F80AE04FF42C5181810EE07D
:1021E000A1F5C853633B06D0222101812021418102
:1021F000212181812CE02C21018145818481028073
:10220000468025E0A1F5D04CBCF1040C09D0514525
:102210000BD1A0F808B0A0F80AE04FF42C54848148
:1022200021E02C260681458109E0A1F5C85CBCF1BE
:10223000630C12D02224048121244481202484812F
:10224000A1F5D044043C01D0B94201D102804380C1
:10225000BDE8F05F002003F047BB4FF02C0CA0F866
:1022600008C04481858106804280E9E75804002047
:102270002DE9F047434D0E4604464FEA1128A88841
:1022800029469146270A4A89A0F51343413B17D0B6
:10229000A0F5A641103913D0A0F5AA41103914D0E9
:1022A0002B46A0F5C85799791B881B1B5B1E633F03
:1022B00025D0A0F5D047043F3DD0012951D051E0B1
:1022C000104603F051FD38463CE0104603F04CFD4B
:1022D000384603F043FD6889401C80B203F044FD9A
:1022E000E0B203F03BFDA88903F03EFD404603F059
:1022F00035FDA889401C80B203F036FD2DE001B900
:102300009CB2104603F030FD270A384603F026FD44
:10231000E0B203F023FD384603F020FDE0B203F005
:102320001DFDA88903F020FD404603F017FDF0B223
:1023300003F014FD0EE0012900D19CB2104603F019
:1023400013FD200A03F00AFDE0B203F007FDA8899F
:1023500003F00AFD404603F001FDF0B203F0FEFC7D
:1023600008E09CB22146104603F00EFDA8893146D4
:1023700003F00AFD044928890880891CA1F800900F
:10238000BDE8F08758040020FE07006C2DE9F843F3
:102390001F4C1E468046A388089FA3F5D0400438F2
:1023A00002D1A079012807D0A2EB0800401C84B21A
:1023B0000D46DFF8609028E025880846A91AA5EBAD
:1023C00008030025A57132462A2565812B26491E62
:1023D0005B1EA68189B29BB20097FFF7D7FF012051
:1023E000A0716681A581BDE8F8832946404603F0C7
:1023F0007DFB03F0BFFC0020494602E00F80401C3B
:1024000080B2A042FAD36D1CADB2B542EDD9EAE775
:10241000580400200008006C10B5002003F038FAC2
:1024200043494FF6FF74FF28888004D3A04202D0AE
:10243000B0F5134F78D13F4AD320108003F01EFA35
:10244000888003F01BFA888003F018FA04EA002061
:10245000888003F013FA8B881843A0F51343888013
:10246000413B61D0BF20108003F008FA888003F060
:1024700005FA888003F002FA888003F0FFF904EA85
:102480000020888003F0FAF98B881843A0F5D04328
:102490008880043B48D0D420108003F0EFF9888076
:1024A00003F0ECF9888003F0E9F904EA0020888061
:1024B00003F0E4F98B881843A0F5A6438880103B0D
:1024C00032D04FF45A40108003F0D8F988804FF48E
:1024D0005B40108003F0D2F904EA002088804FF4BA
:1024E0005C40108003F0CAF98B881843888045F25D
:1024F0001053B0F5004F19D0984215D0A12010808C
:1025000003F0BCF9888003F0B9F904EA0020888060
:1025100003F0B4F98A881043A0F5AE428880613A8E
:1025200002D141F663108880888810BD8B80FBE75C
:1025300058040020FE07006C2DE9F05FFE4C0146B8
:1025400020600A208847FFF767FFFC488088A0F5D5
:102550001341413956D0A0F5D04104397ED0A0F5C1
:10256000A64110397BD0A0F5AA41103901F07F8136
:10257000A0F513414FF480754FF4E06740F2022953
:1025800040F23F1A4FF42748253902F0ED80FE1D36
:10259000A0F51341283902F0B381A0F513414FF49F
:1025A00088784FF41C5B203902F06682A0F5134155
:1025B000313902F00583A0F5A841083902F0D5832E
:1025C000A0F5A8514FF44078053902F06984A0F5D0
:1025D0003541053902F06F85A0F54541053902F016
:1025E0006686A0F58A41313902F02987A0F58A4133
:1025F000353902F0DA87A0F5C851633903F07C80E1
:1026000003F032B9CF2003F0AFFB002003F0A6FBAC
:10261000C12003F0A3FB302003F0A0FBED2003F06A
:10262000A3FB642003F09AFB032003F097FB122026
:1026300003F094FB812003F091FBE82003F094FB6E
:10264000852003F08BFB102003F088FB7A2003F039
:1026500085FBCB2003F088FB392001E0E4E090E12A
:1026600003F07CFB2C2003F079FB002003F076FBC9
:10267000342003F073FB022003F070FBF72003F01B
:1026800073FB202003F06AFBEA2003F06DFB0020BF
:1026900003F064FB002003F061FBC02003F064FB47
:1026A0001B2003F05BFBC12003F05EFB012003F065
:1026B00055FBC52003F058FB302003F04FFB3020C2
:1026C00003F04CFBC72003F04FFBB72003F046FBA1
:1026D000362003F049FB482003F040FB3A2003F08A
:1026E00043FB552003F03AFBB12003F03DFB0020F3
:1026F00003F034FB1A2003F031FBB62003F034FB67
:102700000A2003F02BFBA22003F028FBF22003F0A9
:102710002BFB002003F022FB262003F025FB0120E9
:1027200003F01CFBE02003F01FFB0F2003F016FB5F
:102730002A2003F013FB282003F010FB082003F0ED
:102740000DFB0E2003F00AFB082003F007FB5420CA
:1027500003F004FBA92003F001FB432003F0FEFA81
:102760000A2003F0FBFA0F2003F0F8FA002003F030
:10277000F5FA002003F0F2FA002003F0EFFA00204F
:1027800003F0ECFAE12003F0EFFA002003F0E6FAA0
:10279000152003F0E3FA172003F0E0FA072003F016
:1027A000DDFA112003F0DAFA062003F0D7FA2B2025
:1027B00003F0D4FA562003F0D1FA3C2003F0CEFA0D
:1027C000052003F0CBFA102003F0C8FA0F2003F025
:1027D000C5FA3F2003F0C2FA3F2003F0BFFA0F20F2
:1027E00003F0BCFA2B2003F0BFFA002003F0B6FA86
:1027F000002003F0B3FA012003F0B0FA3F2003F009
:10280000ADFA2A2003F0B0FA002003F0A7FA002066
:1028100003F0A4FA002003F0A1FAEF2003F09EFADF
:10282000112003F0A1FAA6E0112003F09DFA21681F
:1028300014208847D02003F097FA072003F08EFA7F
:10284000422003F08BFA1D2003F088FAD12003F018
:102850008BFA002003F082FA1A2003F07FFA092095
:1028600003F07CFAD22003F07FFA012003F076FA1D
:10287000222003F073FAC02003F076FA102003F050
:102880006DFA3B2003F06AFA002003F067FA022099
:1028900003F064FA112003F061FAC52003F064FA32
:1028A000032003F05BFAC82003F05EFA002003F077
:1028B00055FA252003F052FA212003F04FFA0520A3
:1028C00003F04CFA002003F049FA0A2003F046FA1C
:1028D000652003F043FA252003F040FA772003F047
:1028E0003DFA502003F03AFA0F2003F037FA0020A7
:1028F00003F034FAF82003F037FA012003F02EFA3F
:10290000FE2003F031FA002003F028FA022003F041
:1029100025FA202003F028FA362003F025FA0820B3
:1029200003F01CFA3A2003F01FFA552003F016FAC0
:102930002B2003F019FA03E04C000020580400207B
:10294000002003F00BFA002003F008FA012003F046
:1029500005FA3F2003F002FA2A2003F005FA0020CE
:1029600003F0FCF9002003F0F9F9012003F0F6F977
:10297000DF2003F0F3F9216878208847292001F04F
:10298000F0BEED2003F0F0F9012003F0E7F9FE209E
:1029900003F0E4F9EE2003F0E7F9DE2003F0DEF9BE
:1029A000212003F0DBF9F12003F0DEF9012003F030
:1029B000D5F9DF2003F0D8F9102003F0CFF9C420B7
:1029C00003F0D2F98F2003F0C9F9C62003F0CCF947
:1029D000002003F0C3F9E22003F0C0F9E22003F085
:1029E000BDF9E22003F0BAF9BF2003F0BDF9AA2037
:1029F00003F0B4F9B02003F0B7F90D2003F0AEF9FD
:102A0000002003F0ABF90D2003F0A8F9002003F03B
:102A1000A5F9112003F0A2F9002003F09FF9192075
:102A200003F09CF9002003F099F9212003F096F9B6
:102A3000002003F093F92D2003F090F9002003F01B
:102A40008DF93D2003F08AF9002003F087F95D201D
:102A500003F084F9002003F081F95D2003F07EF992
:102A6000002003F07BF9B12003F07EF9802003F011
:102A700075F9002003F072F98B2003F06FF9002044
:102A800003F06CF9962003F069F9002003F066F971
:102A9000B22003F069F9002003F060F9002003F090
:102AA0005DF9022003F05AF9002003F057F90320E2
:102AB00003F054F9002003F051F9B32003F054F966
:102AC000002003F04BF9002003F048F9002003F048
:102AD00045F9002003F042F9002003F03FF90020FF
:102AE00003F03CF9002003F039F9002003F036F937
:102AF000002003F033F9002003F030F9002003F048
:102B00002DF9002003F02AF9002003F027F9002016
:102B100003F024F9002003F021F9002003F01EF94E
:102B2000002003F01BF9002003F018F9002003F047
:102B300015F9002003F012F9002003F00FF900202E
:102B400003F00CF9002003F009F9002003F006F966
:102B5000B42003F009F98B2003F000F9002003F002
:102B6000FDF8962003F0FAF8002003F0F7F8A12012
:102B700003F0F4F8002003F0F1F8B52003F0F4F8C6
:102B8000022003F0EBF8002003F0E8F8032003F044
:102B9000E5F8002003F0E2F8042003F0DFF800205D
:102BA00003F0DCF8B62003F0DFF8002003F0D6F8DD
:102BB000002003F0D3F8B72003F0D6F8002003F08C
:102BC000CDF8002003F0CAF83F2003F0C7F800203A
:102BD00003F0C4F85E2003F0C1F8002003F0BEF853
:102BE000642003F0BBF8002003F0B8F88C2003F059
:102BF000B5F8002003F0B2F8AC2003F0AFF80020E5
:102C000003F0ACF8DC2003F0A9F8002003F0A6F8EC
:102C1000702003F0A3F8002003F0A0F8902003F048
:102C20009DF8002003F09AF8EB2003F097F80020BD
:102C300003F094F8DC2003F091F8002003F08EF804
:102C4000B82003F091F8002003F088F8002003F08A
:102C500085F8002003F082F8002003F07FF80020C0
:102C600003F07CF8002003F079F8002003F076F8F8
:102C7000002003F073F8BA2003F076F8242003F064
:102C80006DF8002003F06AF8002003F067F80020D8
:102C900003F064F8C12003F067F8202003F05EF829
:102CA000002003F05BF8542003F058F8002003F0F4
:102CB00055F8FF2003F052F8002003F04FF8C2202F
:102CC00003F052F80A2003F049F8002003F046F818
:102CD000042003F043F8002003F040F8C32003F081
:102CE00043F83C2003F03AF8002003F037F83A208C
:102CF00003F034F8002003F031F8392003F02EF807
:102D0000002003F02BF8372003F028F8002003F010
:102D100025F83C2003F022F8002003F01FF83620AD
:102D200003F01CF8002003F019F8322003F016F825
:102D3000002003F013F82F2003F010F8002003F018
:102D40000DF82C2003F00AF8002003F007F82920E2
:102D500003F004F8002003F001F8262002F0FEFF43
:102D6000002002F0FBFF242002F0F8FF002002F018
:102D7000F5FF242002F0F2FF002002F0EFFF2320F5
:102D800002F0ECFF002002F0E9FF3C2002F0E6FF39
:102D9000002002F0E3FF362002F0E0FF002002F006
:102DA000DDFF322002F0DAFF002002F0D7FF2F20F3
:102DB00002F0D4FF002002F0D1FF2C2002F0CEFF61
:102DC000002002F0CBFF292002F0C8FF002002F013
:102DD000C5FF262002F0C2FF002002F0BFFF242022
:102DE00002F0BCFF002002F0B9FF242002F0B6FF81
:102DF000002002F0B3FF232002F0B0FF002002F019
:102E0000ADFFC42002F0B0FF622002F0A7FF002057
:102E100002F0A4FF052002F0A1FF002002F09EFFB7
:102E2000842002F09BFF002002F098FFF02002F0C7
:102E300095FF002002F092FF182002F08FFF002083
:102E400002F08CFFA42002F089FF002002F086FF30
:102E5000182002F083FF002002F080FF502002F0D3
:102E60007DFF002002F07AFF0C2002F077FF0020A7
:102E700002F074FF172002F071FF002002F06EFFD5
:102E8000952002F06BFF002002F068FFF32002F0B3
:102E900065FF002002F062FFE62002F05FFF0020E5
:102EA00002F05CFFC52002F05FFF322002F056FF07
:102EB000002002F053FF442002F050FF002002F0F7
:102EC0004DFF652002F04AFF002002F047FF762008
:102ED00002F044FF002002F041FF882002F03EFF94
:102EE000002002F03BFFC62002F03EFF202002F04F
:102EF00035FF002002F032FF172002F02FFF0020E4
:102F000002F02CFF012002F029FF002002F026FF32
:102F1000C72002F029FF002002F020FF002002F06D
:102F20001DFF002002F01AFF002002F017FFC8204A
:102F300002F01AFF002002F011FF002002F00EFF45
:102F4000002002F00BFF002002F008FFC92002F071
:102F50000BFF002002F002FF002002F0FFFE002025
:102F600002F0FCFE002002F0F9FE002002F0F6FE66
:102F7000002002F0F3FE002002F0F0FE002002F03C
:102F8000EDFE002002F0EAFE002002F0E7FE002045
:102F900002F0E4FE002002F0E1FE002002F0DEFE7E
:102FA000002002F0DBFE002002F0D8FE002002F03C
:102FB000D5FEE02002F0D8FE162002F0CFFE002061
:102FC00002F0CCFE1C2002F0C9FE002002F0C6FE7A
:102FD000212002F0C3FE002002F0C0FE362002F0E5
:102FE000BDFE002002F0BAFE462002F0B7FE00202F
:102FF00002F0B4FE522002F0B1FE002002F0AEFE5C
:10300000642002F0ABFE002002F0A8FE7A2002F05D
:10301000A5FE002002F0A2FE8B2002F09FFE002001
:1030200002F09CFE992002F099FE002002F096FE2C
:10303000A82002F093FE002002F090FEB92002F0DA
:103040008DFE002002F08AFEC42002F087FE0020E0
:1030500002F084FECA2002F081FE002002F07EFE13
:10306000D22002F07BFE002002F078FED92002F090
:1030700075FE002002F072FEE02002F06FFE0020DC
:1030800002F06CFEF32002F069FE002002F066FE02
:10309000E12002F069FE162002F060FE002002F03E
:1030A0005DFE1C2002F05AFE002002F057FE222096
:1030B00002F054FE002002F051FE362002F04EFED7
:1030C000002002F04BFE452002F048FE002002F0F6
:1030D00045FE522002F042FE002002F03FFE642036
:1030E00002F03CFE002002F039FE7A2002F036FEAB
:1030F000002002F033FE8B2002F030FE002002F0B0
:103100002DFE992002F02AFE002002F027FEA820C2
:1031100002F024FE002002F021FEB92002F01EFE83
:10312000002002F01BFEC42002F018FE002002F076
:1031300015FECA2002F012FE002002F00FFED2207F
:1031400002F00CFE002002F009FED82002F006FE7C
:10315000002002F003FEE02002F000FE002002F05A
:10316000FDFDF32002F0FAFD002002F0F7FDE22061
:1031700002F0FAFD052002F0F1FD002002F0EEFD64
:103180000B2002F0EBFD002002F0E8FD1B2002F016
:10319000E5FD002002F0E2FD342002F0DFFD00201A
:1031A00002F0DCFD442002F0D9FD002002F0D6FD43
:1031B0004F2002F0D3FD002002F0D0FD612002F08C
:1031C000CDFD002002F0CAFD792002F0C7FD0020ED
:1031D00002F0C4FD882002F0C1FD002002F0BEFD17
:1031E000972002F0BBFD002002F0B8FDA62002F0FF
:1031F000B5FD002002F0B2FDB72002F0AFFD0020C7
:1032000002F0ACFDC22002F0A9FD002002F0A6FDF4
:10321000C72002F0A3FD002002F0A0FDD12002F0A3
:103220009DFD002002F09AFDD62002F097FD0020BF
:1032300002F094FDDD2002F091FD002002F08EFDF1
:10324000F32002F08BFD002002F088FDE32002F065
:103250008BFD052002F082FD002002F07FFD0A2098
:1032600002F07CFD002002F079FD1C2002F076FDCA
:10327000002002F073FD332002F070FD002002F008
:103280006DFD442002F06AFD002002F067FD502031
:1032900002F064FD002002F061FD622002F05EFD9C
:1032A000002002F05BFD782002F058FD002002F0C3
:1032B00055FD882002F052FD002002F04FFD9720BE
:1032C00002F04CFD002002F049FDA62002F046FD70
:1032D000002002F043FDB72002F040FD002002F084
:1032E0003DFDC22002F03AFD002002F037FDC7206C
:1032F00002F034FD002002F031FDD12002F02EFD5D
:10330000002002F02BFDD52002F028FD002002F065
:1033100025FDDD2002F022FD002002F01FFDF3203C
:1033200002F01CFD002002F019FDE42002F01CFD5B
:10333000012002F013FD002002F010FD012002F038
:103340000DFD002002F00AFD022002F007FD002022
:1033500002F004FD2A2002F001FD002002F0FEFC34
:103360003C2002F0FBFC002002F0F8FC4B2002F0B5
:10337000F5FC002002F0F2FC5D2002F0EFFC0020E2
:1033800002F0ECFC742002F0E9FC002002F0E6FC04
:10339000842002F0E3FC002002F0E0FC932002F025
:1033A000DDFC002002F0DAFCA22002F0D7FC0020B5
:1033B00002F0D4FCB32002F0D1FC002002F0CEFCDD
:1033C000BE2002F0CBFC002002F0C8FCC42002F0BA
:1033D000C5FC002002F0C2FCCD2002F0BFFC0020A2
:1033E00002F0BCFCD32002F0B9FC002002F0B6FCD5
:1033F000DD2002F0B3FC002002F0B0FCF32002F06C
:10340000ADFC002002F0AAFCE52002F0ADFC00209B
:1034100002F0A4FC002002F0A1FC002002F09EFCBF
:10342000002002F09BFC022002F098FC002002F039
:1034300095FC292002F092FC002002F08FFC3C2039
:1034400002F08CFC002002F089FC4B2002F086FC8C
:10345000002002F083FC5D2002F080FC002002F0DE
:103460007DFC742002F07AFC002002F077FC8420BE
:1034700002F074FC002002F071FC932002F06EFC5C
:10348000002002F06BFCA22002F068FC002002F099
:1034900065FCB32002F062FC002002F05FFCBE205D
:1034A00002F05CFC002002F059FCC42002F056FC43
:1034B000002002F053FCCD2002F050FC002002F06E
:1034C0004DFCD32002F04AFC002002F047FCDC2037
:1034D00002F044FC002002F041FCF32002F03EFC2C
:1034E000002002F03BFCE62002F03EFC112002F03E
:1034F00035FC002002F032FC342002F02FFC0020CA
:1035000002F02CFC562002F029FC002002F026FCE0
:10351000762002F023FC002002F020FC772002F04D
:103520001DFC002002F01AFC662002F017FC0020AF
:1035300002F014FC882002F011FC002002F00EFCC6
:10354000992002F00BFC002002F008FCBB2002F0E6
:1035500005FC002002F002FC992002F0FFFB002095
:1035600002F0FCFB662002F0F9FB002002F0F6FB03
:10357000552002F0F3FB002002F0F0FB552002F092
:10358000EDFB002002F0EAFB452002F0E7FB002003
:1035900002F0E4FB432002F0E1FB002002F0DEFB3E
:1035A000442002F0DBFB002002F0D8FBE72002F011
:1035B000DBFB322002F0D2FB002002F0CFFB5520D3
:1035C00002F0CCFB002002F0C9FB762002F0C6FB23
:1035D000002002F0C3FB662002F0C0FB002002F0D6
:1035E000BDFB672002F0BAFB002002F0B7FB6720AA
:1035F00002F0B4FB002002F0B1FB872002F0AEFB2A
:10360000002002F0ABFB992002F0A8FB002002F0A2
:10361000A5FBBB2002F0A2FB002002F09FFB99203B
:1036200002F09CFB002002F099FB772002F096FB51
:10363000002002F093FB442002F090FB002002F0F7
:103640008DFB562002F08AFB002002F087FB23202E
:1036500002F084FB002002F081FB332002F07EFBAD
:10366000002002F07BFB452002F078FB002002F0F6
:1036700075FBE82002F078FB002002F06FFB0020D1
:1036800002F06CFB992002F069FB002002F066FB5F
:10369000872002F063FB002002F060FB882002F02C
:1036A0005DFB002002F05AFB772002F057FB002060
:1036B00002F054FB662002F051FB002002F04EFBAA
:1036C000882002F04BFB002002F048FBAA2002F009
:1036D00045FB002002F042FBBB2002F03FFB002034
:1036E00002F03CFB992002F039FB002002F036FB8F
:1036F000662002F033FB002002F030FB552002F080
:103700002DFB002002F02AFB552002F027FB0020B1
:1037100002F024FB442002F021FB002002F01EFBFB
:10372000442002F01BFB002002F018FB552002F0A1
:1037300015FB002002F012FBE92002F015FBAA2085
:1037400002F00CFB002002F009FB002002F006FB57
:10375000002002F003FB002002F006FBAA2002F08A
:10376000FDFACF2002F000FB002002F0F7FA002063
:1037700002F0F4FA002002F0F1FA002002F0EEFA72
:10378000002002F0EBFA002002F0E8FA002002F03C
:10379000E5FA002002F0E2FA002002F0DFFA002051
:1037A00002F0DCFA002002F0D9FA002002F0D6FA8A
:1037B000002002F0D3FA002002F0D0FA002002F03C
:1037C000CDFA002002F0CAFA002002F0C7FAF02079
:1037D00002F0CAFA002002F0C1FA502002F0BEFA4C
:1037E000002002F0BBFA002002F0B8FA002002F03C
:1037F000B5FAF32002F0B8FA002002F0AFFAF9208F
:1038000002F0B2FA062002F0A9FA102002F0A6FA9D
:10381000292002F0A3FA002002F0A0FA3A2002F0D8
:10382000A3FA552002F09AFA112002F09DFA2168BD
:1038300064208847292002F097FA352002F094FA94
:10384000002002F08BFA512002F08EFAFF2002F0E5
:1038500085FA532002F088FA2C2002F07FFA5520D6
:1038600002F082FA822002F079FA2C20FDE34FF474
:1038700070455521284602F087FA6E1CAA21304671
:1038800002F082FAAF1C5221384602F07DFA4FF264
:1038900003080821404602F077FA4FF2040901219B
:1038A000484602F071FA0D214FF4304002F06CFAF4
:1038B0000D214BF2010002F067FA0D214BF20200DC
:1038C00002F062FA4FF4364A3421504602F05CFAB4
:1038D00034214BF2016002F057FA34214BF20260BE
:1038E00002F052FA4FF4314B0D21584602F04CFAD7
:1038F0000D214BF2011002F047FA0D214BF202109C
:1039000002F042FA34214FF4374002F03DFA3421FC
:103910004BF2017002F038FA34214BF2027002F0DF
:1039200033FA00214FF4324002F02EFA00214BF21C
:10393000012002F029FA00214BF2022002F024FAC1
:1039400024214FF4384002F01FFA24214BF60100E5
:1039500002F01AFA24214BF6020002F015FA0121B6
:103960004FF43F4002F010FA0F214FF4334002F0C1
:103970000BFA0F214BF2013002F006FA0F214BF245
:10398000023002F001FA34214FF4394002F0FCF920
:1039900034214BF6011002F0F7F934214BF60210F6
:1039A00002F0F2F908214FF4354002F0EDF9082158
:1039B0004BF2015002F0E8F908214BF2025002F0FC
:1039C000E3F903214FF4424002F0DEF924214FF4E1
:1039D0003A4002F0D9F924214BF6012002F0D4F943
:1039E00024214BF6022002F0CFF900214FF43C4095
:1039F00002F0CAF978214BF6014002F0C5F9002126
:103A00004BF6024002F0C0F900214FF43D4002F0B5
:103A1000BBF978214BF6015002F0B6F900214BF6C4
:103A2000025002F0B1F900214FF43E4002F0ACF92F
:103A300064214BF6016002F0A7F900214FF45140D8
:103A400002F0A2F933214DF2011002F09DF900219C
:103A50004DF2021002F098F934214DF2031002F0F9
:103A600093F900214DF2041002F08EF93A214DF243
:103A7000051002F089F900214DF2061002F084F9D8
:103A80004A214DF2071002F07FF900214DF2081093
:103A900002F07AF95C214DF2091002F075F900216B
:103AA0004DF20A1002F070F981214DF20B1002F074
:103AB0006BF900214DF20C1002F066F9A6214DF2CF
:103AC0000D1002F061F900214DF20E1002F05CF9C8
:103AD000E5214DF20F1002F057F901214DF21010BF
:103AE00002F052F913214DF2111002F04DF90121AB
:103AF0004DF2121002F048F954214DF2131002F069
:103B000043F901214DF2141002F03EF982214DF2E9
:103B1000151002F039F901214DF2161002F034F9B6
:103B2000CA214DF2171002F02FF902214DF21810A0
:103B300002F02AF900214DF2191002F025F90221B4
:103B40004DF21A1002F020F901214DF21B1002F083
:103B50001BF902214DF21C1002F016F934214DF22E
:103B60001D1002F011F902214DF21E1002F00CF9A5
:103B700067214DF21F1002F007F902214DF22010CB
:103B800002F002F984214DF2211002F0FDF8022129
:103B90004DF2221002F0F8F8A4214DF2231002F0A9
:103BA000F3F802214DF2241002F0EEF8B7214DF2A5
:103BB000251002F0E9F802214DF2261002F0E4F897
:103BC000CF214DF2271002F0DFF802214DF228102C
:103BD00002F0DAF8DE214DF2291002F0D5F80221C8
:103BE0004DF22A1002F0D0F8F2214DF22B1002F023
:103BF000CBF802214DF22C1002F0C6F8FE214DF256
:103C00002D1002F0C1F803214DF22E1002F0BCF885
:103C100010214DF22F1002F0B7F803214DF23010B1
:103C200002F0B2F833214DF2311002F0ADF8032169
:103C30004DF2321002F0A8F86D214DF2331002F06F
:103C4000A3F800214FF4524002F09EF833214DF2C8
:103C5000012002F099F800214DF2022002F094F8C0
:103C600034214DF2032002F08FF800214DF20420A0
:103C700002F08AF83A214DF2052002F085F8002181
:103C80004DF2062002F080F84A214DF2072002F0A2
:103C90007BF800214DF2082002F076F85C214DF20D
:103CA000092002F071F800214DF20A2002F06CF8B0
:103CB00081214DF20B2002F067F800214DF20C201B
:103CC00002F062F8A6214DF20D2002F05DF800210D
:103CD0004DF20E2002F058F8E5214DF20F2002F0CF
:103CE00053F801214DF2102002F04EF813214DF24D
:103CF000112002F049F801214DF2122002F044F89F
:103D000054214DF2132002F03FF801214DF214200E
:103D100002F03AF882214DF2152002F035F8012127
:103D20004DF2162002F030F8CA214DF2172002F0B1
:103D30002BF802214DF2182002F026F800214DF256
:103D4000192002F021F802214DF21A2002F01CF88D
:103D500001214DF21B2002F017F802214DF21C2028
:103D600002F012F834214DF21D2002F00DF802216C
:103D70004DF21E2002F008F867214DF21F2002F0DC
:103D800003F802214DF2202001F0FEFF84214DF2C4
:103D9000212001F0F9FF02214DF2222001F0F4FF71
:103DA000A4214DF2232001F0EFFF02214DF2242047
:103DB00001F0EAFFB7214DF2252001F0E5FF0221D5
:103DC0004DF2262001F0E0FFCF214DF2272001F037
:103DD000DBFF02214DF2282001F0D6FFDE214DF25B
:103DE000292001F0D1FF02214DF22A2001F0CCFF61
:103DF000F2214DF22B2001F0C7FF02214DF22C20C1
:103E000001F0C2FFFE214DF22D2001F0BDFF032184
:103E10004DF22E2001F0B8FF10214DF22F2001F0BD
:103E2000B3FF03214DF2302001F0AEFF33214DF2FC
:103E3000312001F0A9FF03214DF2322001F0A4FF4F
:103E40006D214DF2332001F09FFF00214FF45340CC
:103E500001F09AFF33214DF2013001F095FF00216E
:103E60004DF2023001F090FF34214DF2033001F0A9
:103E70008BFF00214DF2043001F086FF3A214DF214
:103E8000053001F081FF00214DF2063001F07CFF8A
:103E90004A214DF2073001F077FF00214DF2083042
:103EA00001F072FF5C214DF2093001F06DFF00213D
:103EB0004DF20A3001F068FF81214DF20B3001F024
:103EC00063FF00214DF20C3001F05EFFA6214DF2A0
:103ED0000D3001F059FF00214DF20E3001F054FF7A
:103EE000E5214DF20F3001F04FFF01214DF210306E
:103EF00001F04AFF13214DF2113001F045FF01217D
:103F00004DF2123001F040FF54214DF2133001F018
:103F10003BFF01214DF2143001F036FF82214DF2BA
:103F2000153001F031FF01214DF2163001F02CFF68
:103F3000CA214DF2173001F027FF02214DF218304F
:103F400001F022FF00214DF2193001F01DFF022186
:103F50004DF21A3001F018FF01214DF21B3001F033
:103F600013FF02214DF21C3001F00EFF34214DF2FF
:103F70001D3001F009FF02214DF21E3001F004FF57
:103F800067214DF21F3001F0FFFE02214DF220307B
:103F900001F0FAFE84214DF2213001F0F5FE0221FC
:103FA0004DF2223001F0F0FEA4214DF2233001F059
:103FB000EBFE02214DF2243001F0E6FEB7214DF276
:103FC000253001F0E1FE02214DF2263001F0DCFE49
:103FD000CF214DF2273001F0D7FE02214DF22830DB
:103FE00001F0D2FEDE214DF2293001F0CDFE02219A
:103FF0004DF22A3001F0C8FEF2214DF22B3001F0D3
:10400000C3FE02214DF22C3001F0BEFEFE214DF226
:104010002D3001F0B9FE03214DF22E3001F0B4FE37
:1040200010214DF22F3001F0AFFE03214DF2303060
:1040300001F0AAFE33214DF2313001F0A5FE03213B
:104040004DF2323001F0A0FE6D214DF2333001F01F
:104050009BFE00214FF4544001F096FE33214DF2B7
:10406000014001F091FE002100E07AE34DF20240B0
:1040700001F08AFE34214DF2034001F085FE00215B
:104080004DF2044001F080FE3A214DF2054001F06E
:104090007BFE00214DF2064001F076FE4A214DF2F2
:1040A000074001F071FE00214DF2084001F06CFE66
:1040B0005C214DF2094001F067FE00214DF20A40FB
:1040C00001F062FE81214DF20B4001F05DFE002106
:1040D0004DF20C4001F058FEA6214DF20D4001F0CA
:1040E00053FE00214DF20E4001F04EFEE5214DF24F
:1040F0000F4001F049FE01214DF2104001F044FE55
:1041000013214DF2114001F03FFE01214DF212400A
:1041100001F03AFE54214DF2134001F035FE012129
:104120004DF2144001F030FE82214DF2154001F0B5
:104130002BFE01214DF2164001F026FECA214DF260
:10414000174001F021FE02214DF2184001F01CFE43
:1041500000214DF2194001F017FE02214DF21A40E4
:1041600001F012FE01214DF21B4001F00DFE022173
:104170004DF21C4001F008FE34214DF21D4001F0CB
:1041800003FE02214DF21E4001F0FEFD67214DF2BB
:104190001F4001F0F9FD02214DF2204001F0F4FD35
:1041A00084214DF2214001F0EFFD02214DF2224029
:1041B00001F0EAFDA4214DF2234001F0E5FD0221CA
:1041C0004DF2244001F0E0FDB7214DF2254001F011
:1041D000DBFD02214DF2264001F0D6FDCF214DF24C
:1041E000274001F0D1FD02214DF2284001F0CCFD25
:1041F000DE214DF2294001F0C7FD02214DF22A4097
:1042000001F0C2FDF2214DF22B4001F0BDFD022173
:104210004DF22C4001F0B8FDFE214DF22D4001F091
:10422000B3FD03214DF22E4001F0AEFD10214DF201
:104230002F4001F0A9FD03214DF2304001F0A4FD13
:1042400033214DF2314001F09FFD03214DF2324008
:1042500001F09AFD6D214DF2334001F095FD0021F2
:104260004FF4554001F090FD33214DF2015001F023
:104270008BFD00214DF2025001F086FD34214DF2FC
:10428000035001F081FD00214DF2045001F07CFD4E
:104290003A214DF2055001F077FD00214DF2065014
:1042A00001F072FD4A214DF2075001F06DFD002131
:1042B0004DF2085001F068FD5C214DF2095001F00B
:1042C00063FD00214DF20A5001F05EFD81214DF2A7
:1042D0000B5001F059FD00214DF20C5001F054FD3E
:1042E000A6214DF20D5001F04FFD00214DF20E5070
:1042F00001F04AFDE5214DF20F5001F045FD01218D
:104300004DF2105001F040FD13214DF2115001F01B
:104310003BFD01214DF2125001F036FD54214DF2CA
:10432000135001F031FD01214DF2145001F02CFD2C
:1043300082214DF2155001F027FD01214DF216505A
:1043400001F022FDCA214DF2175001F01DFD02219E
:104350004DF2185001F018FD00214DF2195001F0F6
:1043600013FD02214DF21A5001F00EFD01214DF214
:104370001B5001F009FD02214DF21C5001F004FD1B
:1043800034214DF21D5001F0FFFC02214DF21E5070
:1043900001F0FAFC67214DF21F5001F0F5FC0221FB
:1043A0004DF2205001F0F0FC84214DF2215001F03B
:1043B000EBFC02214DF2225001F0E6FCA4214DF26B
:1043C000235001F0E1FC02214DF2245001F0DCFC0D
:1043D000B7214DF2255001F0D7FC02214DF22650B5
:1043E00001F0D2FCCF214DF2275001F0CDFC02218B
:1043F0004DF2285001F0C8FCDE214DF2295001F0A9
:10440000C3FC02214DF22A5001F0BEFCF2214DF214
:104410002B5001F0B9FC02214DF22C5001F0B4FCFC
:10442000FE214DF22D5001F0AFFC03214DF22E5034
:1044300001F0AAFC10214DF22F5001F0A5FC032140
:104440004DF2305001F0A0FC33214DF2315001F01B
:104450009BFC03214DF2325001F096FC6D214DF290
:10446000335001F091FC00214FF4564001F08CFCD8
:1044700033214DF2016001F087FC00214DF2026012
:1044800001F082FC34214DF2036001F07DFC00213B
:104490004DF2046001F078FC3A214DF2056001F024
:1044A00073FC00214DF2066001F06EFC4A214DF2D2
:1044B000076001F069FC00214DF2086001F064FC26
:1044C0005C214DF2096001F05FFC00214DF20A60B1
:1044D00001F05AFC81214DF20B6001F055FC0021E6
:1044E0004DF20C6001F050FCA6214DF20D6001F080
:1044F0004BFC00214DF20E6001F046FCE5214DF22F
:104500000F6001F041FC01214DF2106001F03CFC14
:1045100013214DF2116001F037FC01214DF21260C0
:1045200001F032FC54214DF2136001F02DFC012109
:104530004DF2146001F028FC82214DF2156001F06B
:1045400023FC01214DF2166001F01EFCCA214DF240
:10455000176001F019FC02214DF2186001F014FC03
:1045600000214DF2196001F00FFC02214DF21A609A
:1045700001F00AFC01214DF21B6001F005FC022153
:104580004DF21C6001F000FC34214DF21D6001F081
:10459000FBFB02214DF21E6001F0F6FB67214DF29C
:1045A0001F6001F0F1FB02214DF2206001F0ECFBF5
:1045B00084214DF2216001F0E7FB02214DF22260DF
:1045C00001F0E2FBA4214DF2236001F0DDFB0221AA
:1045D0004DF2246001F0D8FBB7214DF2256001F0C7
:1045E000D3FB02214DF2266001F0CEFBCF214DF22C
:1045F000276001F0C9FB02214DF2286001F0C4FBE5
:10460000DE214DF2296001F0BFFB02214DF22A604C
:1046100001F0BAFBF2214DF22B6001F0B5FB022153
:104620004DF22C6001F0B0FBFE214DF22D6001F047
:10463000ABFB03214DF22E6001F0A6FB10214DF2E1
:104640002F6001F0A1FB03214DF2306001F09CFBD3
:1046500033214DF2316001F097FB03214DF23260BE
:1046600001F092FB6D214DF2336001F08DFB55217D
:10467000284601F089FBAA21304601F085FB522132
:10468000384601F081FB0821404601F07DFB002106
:10469000484601F079FBCC21584601F075FB00211A
:1046A0004BF2011001F070FB0521504601F06CFB4C
:1046B00070214FF4374001F067FB70214BF201701D
:1046C00001F062FB01214FF4384001F05DFB032152
:1046D0004BF6010001F058FB03214BF6020001F0FC
:1046E00053FB03214BF6030001F04EFB02214FF474
:1046F0003C4001F049FB00214BF6014001F044FB36
:1047000000214BF6024001F03FFBD0214FF449401D
:1047100001F03AFB02214CF6011001F035FB50216B
:104720004CF6021001F030FB50214CF6031001F062
:104730002BFB50214CF6041001F026FB00214FF416
:10474000545001F021FB55214FF4685001F01CFB3F
:104750004FF4885001F008FB2168782088474FF417
:10476000245001F001FBFDE347F6F001E52001F0E4
:104770000BFB2946012001F007FB3946022001F01E
:1047800003FB41F23001032001F0FEFA0021042076
:1047900001F0FAFA4946082001F0F6FA0021092052
:1047A00001F0F2FA00210A2001F0EEFA00210C20BB
:1047B00001F0EAFA00210D2001F0E6FA00210F20B5
:1047C00001F0E2FA0021102001F0DEFA07211120A9
:1047D00001F0DAFA0021122001F0D6FA00211320AC
:1047E00001F0D2FA0021072001F0CEFA41F29061E7
:1047F000102001F0C9FA40F22721112001F0C4FA7B
:104800009D21122001F0C0FA4FF4C851132001F08D
:10481000BBFA2521292001F0B7FA0D212B2001F048
:10482000B3FA0721302001F0AFFA40F20331312012
:1048300001F0AAFA0321322001F0A6FA40F2062183
:10484000352001F0A1FA0821362001F09DFA40F24E
:104850000641372001F098FA4FF44171382001F0F9
:1048600093FA0721392001F08FFA40F202613C20CF
:1048700001F08AFA08213D2001F086FA002150203B
:1048800001F082FAEF21512001F07EFA002152203E
:1048900001F07AFA5146532001F076FA4146602041
:1048A00001F072FA0121612001F06EFA00216A2004
:1048B00001F06AFA0021802001F066FA00218120CF
:1048C00001F062FA0021822001F05EFA00218320CB
:1048D00001F05AFA0021842001F056FA00218520C7
:1048E00001F052FA1021902001F04EFA4FF4C0610D
:1048F000922001F049FA40F233110720FEE300BF95
:1049000041F28F01EC2001F03FFA41F23421EF2017
:1049100001F03AFA2946012001F036FA3946022020
:1049200001F032FA41F23001032001F02DFA0021AA
:10493000042001F029FA4946082001F025FA002157
:10494000092001F021FA00210A2001F01DFA0121BD
:104950000C2001F019FA00210D2001F015FA0021B8
:104960000F2001F011FA0021102001F00DFA0721AB
:10497000112001F009FA0021122001F005FA0021AE
:10498000132001F001FA0121072001F0FDF921684F
:104990003220884741F29041102001F0F5F940F2B1
:1049A0002721112001F0F0F92168322088478A215F
:1049B000122001F0E9F92168322088474FF4D051E4
:1049C000132001F0E1F90621292001F0DDF90D2184
:1049D0002B2001F0D9F921683220884700212020BE
:1049E00001F0D2F90021212001F0CEF92168322016
:1049F00088470021302001F0C7F940F204613120DE
:104A000001F0C2F940F20531322001F0BDF9002178
:104A1000352001F0B9F940F60941362001F0B4F92A
:104A20004FF40171372001F0AFF940F20131382025
:104A300001F0AAF93146392001F0A6F900213C2005
:104A400001F0A2F940F60A213D2001F09DF921680C
:104A5000322088470021502001F096F9EF215120A3
:104A600001F092F90021522001F08EF951465320B5
:104A700001F08AF941464DE10021084601F084F930
:104A80002946012001F080F93946022001F07CF925
:104A900041F23001032001F077F90021042001F0F8
:104AA00073F94946082001F06FF90021092001F04F
:104AB0006BF900210A2001F067F901210C2001F0B7
:104AC00063F900210D2001F05FF900210F2001F0B2
:104AD0005BF921683220884740F20111072001F07C
:104AE00053F92168322088474FF48651102001F095
:104AF0004BF90721112001F047F9444641461220A5
:104B000001F042F94FF43061132001F03DF900212A
:104B1000292001F039F944F210012B2001F034F979
:104B20000021502001F030F9EF21512001F02CF943
:104B30000021522001F028F95146532001F024F9B8
:104B40005946602001F020F90121612001F01CF993
:104B500000216A2001F018F90021802001F014F9E9
:104B60000021812001F010F90021822001F00CF9D0
:104B70000021832001F008F90021842001F004F9CC
:104B80000021852001F000F91021902001F0FCF8AF
:104B90000021922001F0F8F80121932001F0F4F8AF
:104BA0002146952001F0F0F80021972001F0ECF863
:104BB0000021982001F0E8F840F27311072075E316
:104BC00041F21401E72001F0DFF82946012001F04D
:104BD000DBF84FF40071022001F0D6F841F2380101
:104BE000032001F0D1F84946082001F0CDF800215A
:104BF000092001F0C9F800210A2001F0C5F80021C0
:104C00000C2001F0C1F800210D2001F0BDF80021B9
:104C10000F2001F0B9F80021102001F0B5F80721AC
:104C2000112001F0B1F80021122001F0ADF80021AF
:104C3000132001F0A9F82168C820884741F290614B
:104C4000102001F0A1F840F22721112001F09CF87A
:104C50002168322088470C21122001F095F8216844
:104C6000322088474FF40061132001F08DF81121A4
:104C7000292001F089F80B212B2001F085F821680B
:104C8000322088470021202001F07EF8544651460A
:104C9000212001F079F80021302001F075F84FF45F
:104CA00083752946312001F06FF80021322001F090
:104CB0006BF84FF40171352001F066F841F20A619A
:104CC000362001F061F83146372001F05DF82946C1
:104CD000382001F059F83146392001F055F840F2FA
:104CE00002413C2001F050F840F60F413D2001F018
:104CF0004BF80021502001F047F8EF21512001F03E
:104D000043F80021522001F03FF82146532001F0E2
:104D10003BF85946602001F037F80121612001F08D
:104D200033F800216A2001F02FF80021802001F0E3
:104D30002BF80021812001F027F80021822001F0CA
:104D400023F80021832001F01FF80021842001F0C6
:104D50001BF80021852001F017F81021902001F0A8
:104D600013F84FF4C0619220FEE32946012001F0C0
:104D70000BF83946022001F007F841F23001032018
:104D800001F002F80021042000F0FEFF40F20721AC
:104D9000082000F0F9FF0021092000F0F5FF0021B4
:104DA0000A2000F0F1FF00210C2000F0EDFF0021AF
:104DB0000D2000F0E9FF00210F2000F0E5FF216841
:104DC0001420884741F2B061102000F0DDFF01217E
:104DD000112000F0D9FF0121172000F0D5FF4FF47A
:104DE0009C71122000F0D0FF4FF40061132000F0FE
:104DF000CBFF0921292000F0C7FF09212A2000F05C
:104E0000C3FF0021A42000F0BFFF0021502000F0CC
:104E1000BBFFEF21512000F0B7FF0021522000F02E
:104E2000B3FF5146532000F0AFFF5946602000F019
:104E3000ABFF0121612000F0A7FF00216A2000F0F4
:104E4000A3FF0021802000F09FFF0021812000F0BF
:104E50009BFF0021822000F097FF0021832000F0BB
:104E600093FF0021842000F08FFF0021852000F0B7
:104E70008BFF1321902000F087FF0021922000F08B
:104E800083FF0321932000F07FFF4146952000F02F
:104E90007BFF40F27311072000F076FF322007E11C
:104EA0000021072000F070FF2168322088474FF46E
:104EB0008E71122000F068FF0121A42000F064FF31
:104EC0000F21082000F060FF08210A2000F05CFF9D
:104ED00008210D2000F058FF3146302000F054FF2B
:104EE0000721312000F050FF40F20361322000F032
:104EF0004BFF3946332000F047FF4946342000F08D
:104F000043FF0221352000F03FFF41F60F713620AC
:104F100000F03AFF3146372000F036FF00213820FC
:104F200000F032FF0021392000F02EFF31463A20F8
:104F300000F02AFF00213B2000F026FF07213C2043
:104F400000F022FF00213D2000F01EFF21683220EA
:104F500088470121072000F017FF0121172000F0EA
:104F600013FF00E020E32168322088474FF4BD5151
:104F7000102000F009FF40F21721112000F004FF7B
:104F80004FF48F71122000F0FFFE4FF47061132078
:104F900000F0FAFE00212A2000F0F6FE0A21292066
:104FA00000F0F2FE4FF49F71122000F0EDFE0021A0
:104FB000502000F0E9FEEF21512000F0E5FE002135
:104FC000522000F0E1FE5146532000F0DDFE59462C
:104FD000602000F0D9FE0121612000F0D5FE002103
:104FE0006A2000F0D1FE0021802000F0CDFE0021DB
:104FF000812000F0C9FE0021822000F0C5FE0021C2
:10500000832000F0C1FE0021842000F0BDFE0021BD
:10501000852000F0B9FE1321902000F0B5FE414636
:10502000922000F0B1FE0521932000F0ADFE00219A
:10503000952000F0A9FE0021972000F0A5FE002198
:10504000982000F0A1FE2946012000F09DFE39467F
:10505000022000F099FE41F23801032000F094FE96
:105060000021042000F090FE00210C2000F08CFEB6
:1050700000210F2000F088FE0021202000F084FE97
:105080000021212000F080FE2121072000F07CFE7D
:105090002168142088476121072000F075FE2168EF
:1050A0001420884740F27311072000F06DFE142091
:1050B00021688847D8E30021084600F065FE0021FA
:1050C000084600F061FE0021084600F05DFE002168
:1050D000084600F059FE0121A42000F055FE216889
:1050E000142088475946602000F04EFE4E4649463F
:1050F000082000F049FE4FF4057100E0D2E03020B6
:1051000000F042FE43F21571312000F03DFE40F206
:105110000461322000F038FE40F61661332000F0C2
:1051200033FE42F21121342000F02EFE4FF4A8513C
:10513000352000F029FE48F20751362000F024FE09
:1051400041F20741372000F01FFE41F203413820B1
:1051500000F01AFE2021392000F016FE1A219020BE
:1051600000F012FE0021102000F00EFE0721112099
:1051700000F00AFE0021122000F006FE002113209C
:1051800000F002FE2168142088474FF4E6611020E9
:1051900000F0FAFD40F23711112000F0F5FD216812
:1051A000142088474FF4DC71122000F0EDFD2168D7
:1051B000142088474FF47061132000F0E5FD802132
:1051C0002A2000F0E1FD4821292000F0DDFD2168C2
:1051D000142088472946012000F0D6FD39460220D8
:1051E00000F0D2FD41F23801032000F0CDFD314640
:1051F000082000F0C9FD00210A2000F0C5FD0021B3
:105200000C2000F0C1FD00210D2000F0BDFD30217B
:105210000E2000F0B9FD0021502000F0B5FDEF2177
:10522000512000F0B1FD0021522000F0ADFD5146AB
:10523000532000F0A9FD5946602000F0A5FD012192
:10524000612000F0A1FD00216A2000F09DFD1121E8
:10525000902000F099FD4FF4C061922000F094FD81
:1052600040F20241932000F08FFD0221942000F0D3
:105270008BFD2168142088470121072000F084FD60
:105280002168142088476121072000F07DFD40F24D
:105290007311072000F078FD0021202000F074FD3C
:1052A0000021212000F070FD222100207AE1002160
:1052B000084600F069FD0021084600F065FD216800
:1052C000142088470021084600F05EFD00210846B2
:1052D00000F05AFD0021084600F056FD0021084666
:1052E00000F052FD0121A42000F04EFD21681420A1
:1052F00088475946602000F047FD40F60601082027
:1053000000F042FD40F203773946302000F03CFDCA
:105310000121312000F038FD0421322000F034FD5D
:105320004FF48171332000F02FFD46464146342072
:1053300000F02AFD40F20311352000F025FD1F2169
:10534000362000F021FD3946372000F01DFD0121F7
:10535000382000F019FD0421392000F015FD152139
:10536000902000F011FD4FF48261102000F00CFD40
:1053700040F24721112000F007FD4FF4DE711220AA
:1053800000F002FD4FF46061132000F0FDFC216885
:10539000782088472946012000F0F6FC4FF4007180
:1053A000022000F0F1FC41F23001032000F0ECFC9F
:1053B00008210A2000F0E8FC00210C2000F0E4FCA9
:1053C00020210E2000F0E0FC00210F2000F0DCFC8A
:1053D0000021202000F0D8FC0021212000F0D4FC86
:1053E0003D212A2000F0D0FC2168142088472D217F
:1053F000292000F0C9FC0021502000F0C5FC4DF22E
:10540000EF01512000F0C0FC0021522000F0BCFC54
:105410005146532000F0B8FC0021612000F0B4FC9C
:1054200000216A2000F0B0FC3146922000F0ACFC74
:105430000521932000F0A8FC2946FFF7BFBB0121FE
:10544000002000F0A1FC21680A20884741F2286171
:10545000102000F099FC0E21122000F095FC40F67F
:105460003921132000F090FC21680A208847402150
:10547000112000F089FC5021152000F085FC2168E6
:105480000A2088471E21122000F07EFC21680A2095
:1054900088474FF4B151102000F076FC42F63921D4
:1054A000132000F071FC21680A208847294601205A
:1054B00000F06AFC4146022000F066FC41F238012F
:1054C000032000F061FC4946082000F05DFC082143
:1054D0000A2000F059FC0021302000F055FC40F279
:1054E0000241312000F050FC4FF48371322000F073
:1054F0004BFC40F20351332000F046FC4FF4827124
:10550000342000F041FC40F20131352000F03CFC39
:105510003146362000F038FC40F20531372000F0EB
:1055200033FC4FF40271382000F02EFC40F60B7172
:10553000392000F029FC0221412000F025FC5946C9
:10554000602000F021FC0121612000F01DFC4FF4DF
:105550000471902000F018FC4FF48571922000F047
:1055600013FC0421932000E0C1E000F00DFC29466B
:10557000A02000F009FC0121072000F005FC2121FA
:10558000072000F001FC2321072000F0FDFB332160
:10559000072000F0F9FB40F23311072000F0F4FB84
:1055A0000021A02000F0F0FB5EE13021152000F08A
:1055B000EBFB10219A2000F0E7FB2021112000F0E6
:1055C000E3FB43F22841102000F0DEFB0221122011
:1055D00000F0DAFB41F23801132000F0D5FB21681E
:1055E000282088471221084600F0CEFB2168282099
:1055F000884743F22041102000F0C6FB43F23801F7
:10560000132000F0C1FB216846208847002130208C
:1056100000F0BAFB40F20241312000F0B5FB40F24D
:105620000731322000F0B0FB4FF44171332000F01D
:10563000ABFB0421342000F0A7FB40F201413520F0
:1056400000F0A2FB3146362000F09EFB40F205310F
:10565000372000F099FB4FF4C2642146382000F057
:1056600093FB2146392000F08FFB2946012000F0F2
:105670008BFB4146022000F087FB41F23001032002
:1056800000F082FB40F60801082000F07DFB0821B5
:105690000A2000F079FB5946602000F075FB0121DB
:1056A000612000F071FB4FF49F71902000F06CFBC3
:1056B0002946922000F068FB2946932000F064FB05
:1056C0004FF44051A02000F05FFB1021A32000F018
:1056D0005BFB0121072000F057FB2121072000F090
:1056E00053FB2321072000F04FFB3321072000F05C
:1056F0004BFB40F23311A0E6E22000F035FB1D2009
:1057000000F02CFB022000F029FB042000F026FB17
:1057100021680A208847E02000F026FB012000F0E5
:105720001DFB21680A208847E02000F01DFB0320B4
:1057300000F014FB21680C208847012000F014FBC6
:1057400021680A208847E62000F00EFB2F2000F099
:1057500005FBFF2000F002FBFF2000F0FFFAB02065
:1057600000F002FB202000F0F9FA002000F0F6FA29
:10577000032000F0F3FA40F21F3000F0EFFA0120AE
:1057800000F0ECFA40F2DF1000F0E8FA002000F040
:10579000E5FAB42000F0E8FA042000F0DFFA40F265
:1057A0001F4000F0DBFA002000F0D8FA2E2000F0B5
:1057B000D5FA002000F0D2FA002000F0CFFA002045
:1057C00000F0CCFA002000F0C9FAB62000F0CCFAC4
:1057D000022000F0C3FA4FF4037000F0BFFA00207B
:1057E00000F0BCFA172000F0B9FA152000F0B6FA64
:1057F000002000F0B3FA002000F0B0FAF02000F032
:10580000B3FA032000F0AAFA292000F0ADFAD02064
:1058100000F0AAFA002000F0A1FABE2000F0A4FADD
:10582000052000F09BFAFE2000F098FA012000F01D
:1058300095FA002000F092FA002000F08FFA002084
:1058400000F08CFAB82000F08FFA032000F086FAFE
:10585000012000F083FABA2000F086FA012000F05F
:105860007DFA642000F01AF80020FCF767FCBDE820
:10587000F05F4FF6FF70FCF72BBC0000034808B543
:105880000088ADF80000BDF8000008BD0008006CFD
:1058900001490880FFF7F2BFFE07006C10B504460F
:1058A000BE2000F061FA052000F058FA2046FAF711
:1058B0000CFD4FF066320B4BFAF795FCFAF712FD30
:1058C00080B200F04BFA012000F048FAFF2000F00F
:1058D00045FA002000F042FABDE81040002000F038
:1058E0003DBA0000666604402DE9F0417E4D00247B
:1058F0002946AB79898846F6040241F66317012BE5
:1059000001D02BB11DE091421BD0B94202D118E069
:10591000B94216D1082814D2DFE800F00406080ABC
:105920000C0E101206200CE007200AE0042008E00C
:10593000052006E0012004E0002002E0032000E052
:105940000220A1F5134C45F2103345F21056BCF17C
:10595000410C07D0914205D0994203D0B14201D009
:10596000B9427BD1082812D2DFE800F01104060802
:105970000A0C0E1080240AE0402408E0C02406E04F
:10598000202404E0602402E0A02400E0E024B142EE
:1059900002D14FF4585000E03620994205D0B14270
:1059A00003D0B94201D044F00804914201D144F03F
:1059B0000204214600F0E8F9A988B9420AD0A006FD
:1059C00028886A8802D5904202D303E0904201D928
:1059D0002A8068806889B14241D100F0C5F9002071
:1059E00000F0BCF96889401C80B200F0BDF90020CD
:1059F00000F0B4F96889801C80B200F0B5F92888FD
:105A0000401EC0F30F2000F0A9F96889C01C80B2C5
:105A100000F0AAF92878401EC0B200F09FF9A889CA
:105A200000F0A2F9002000F099F9A889401C80B28A
:105A300000F09AF9002000F091F9A889801C80B24A
:105A400000F092F96888401EC0F30F2000F086F93C
:105A5000A889C01C80B200F087F922E028E000F09D
:105A600083F9002000F07AF9002000F077F9288807
:105A7000401EC0F30F2000F071F92878401EC0B21C
:105A800000F06CF9A88900F06FF9002000F066F9C9
:105A9000002000F063F96888401EC0F30F2000F07A
:105AA0005DF9A878BDE8F041401EC0B200F056B9DB
:105AB000082812D2DFE800F0040608110A0C0E10C4
:105AC00030240AE0102408E0202406E0382404E012
:105AD000282402E0182400E0082444F48051BDE8A2
:105AE000F041032000F050B9580400202DE9F041A6
:105AF0004F4C0E4605464FEA1128A08821462F0A32
:105B00004A89A0F51343413B1AD0A0F5A6411039AC
:105B100016D02346A0F5D04C99791B885B1B5B1EE1
:105B2000BCF1040C11D0A0F5C85CBCF1630C20D012
:105B3000A0F5A04CBCF5A26C55D001296DD06DE04C
:105B4000104600F011F9384606E0012900D19DB257
:105B5000104600F009F9280A00F000F9E8B200F058
:105B6000FDF8A08900F000F9404600F0F7F8F0B227
:105B700026E049B3104600F0F7F8384600F0EEF89A
:105B8000E8B200F0EBF82088401EC0F30F2000F0D0
:105B9000E5F82078401EC0B200F0E0F8A08900F0DF
:105BA000E3F8404600F0DAF8F0B200F0D7F8608889
:105BB000401EC0F30F2000F0D1F8A078401EC0B204
:105BC000BDE8F04100F0CAB89DB2104600F0CCF834
:105BD000002000F0C3F8002000F0C0F8280A00F010
:105BE000BDF8E8B2D8E7104600F0BEF8384600F03D
:105BF000B5F86089401C80B200F0B6F8E8B200F059
:105C0000ADF8A08900F0B0F8404600F0A7F8A089F0
:105C1000401C80B200F0A8F8A9E79DB229461046C2
:105C200000F0B2F8A0893146BDE8F04100F0ACB810
:105C3000580400202DE9FF5F1D460C468A46580790
:105C400000D0012000EBD50069084843203A00F05D
:105C5000FF09D0B20026DFF898B0029044E00C2D86
:105C600011D0102D14D0182D40D10298214900EBED
:105C7000C00000BF01EB80004FF00008875D3806D0
:105C80000BD51D480CE002981C4900EB4000F1E7E1
:105C90001B49029801EB0010EEE70E9828B919484D
:105CA000214602880098FCF7E3FA7806070E641C88
:105CB000BBF80200A4B2A04218D9A4EB0A00A84283
:105CC00009D100985446401C80B20090BBF80010E7
:105CD00081420BD906E008F1010000F0FF08B8F19D
:105CE000080FCCD3761CF6B24E45B8D3BDE8FF9F63
:105CF00058040020504A030850000020EC3F0308DD
:105D000060440308520000202DE9F84F044600F0DB
:105D1000FF0910190D46DDE90AB61FFA80F8581977
:105D200087B24FF0000A12E0444503D305EB0B00A5
:105D30004C4685B2BD420FD25B4629462046CDF87F
:105D400000A0FFF777FF04EB5B0084B2761C32788B
:105D5000A2F120005E28E7D9BDE8F88F014908804C
:105D6000704700000008006C01490880704700007F
:105D7000FE07006C02480349008908807047000054
:105D800058040020FE07006C024A1080901C01801D
:105D900070470000FE07006C074910B50548086011
:105DA0000846FAF721FD002803D0BDE81040FAF7B5
:105DB000F1BB10BD003002401800002010B50449AE
:105DC0000448FAF7E8FB0249491E087010BD0000BC
:105DD00021000020D83F03082DE9F04387B01C21A3
:105DE0006846FAF7DCF92A4806210024C0E90214C3
:105DF0001025C0E904458461C46129020462C0E938
:105E00000941C4620463234E44634FF02048846315
:105E1000C0E900860F27CDE9004702A902204FF014
:105E2000110981E831020022694619480694FCF7FD
:105E300043F808B1FAF7AEFB1548042148300022B8
:105E4000C0E90214C0E904458461C461046244628B
:105E50008462C462046344638463C0E90086FF20F3
:105E60000097CDE90170CDE905940948CDE90375A6
:105E700069464830FCF720F808B1FAF78BFB064872
:105E8000C16941F48061C16107B0BDE8F0830000E1
:105E9000CC020020040100A0000001402DE9F047E1
:105EA00086B000244D4800940194029403948169C3
:105EB00041F040018161816901F0400104918169F3
:105EC00041F010018161816901F010010491816943
:105ED00041F080018161816901F080010491816953
:105EE00041F004018161816901F00401049181693B
:105EF00041F008018161816901F008010491816923
:105F000041F480718161816901F48071049181693A
:105F100041F0200181618069DFF8C49000F0200029
:105F20000490012220214846FAF7AAFEDFF8B4A027
:105F3000012221215046FAF7A3FE1C2000902A4896
:105F40000125CDE9010569464846FAF795FD202768
:105F50004FF011080226CDE90246CDE900786946E6
:105F60004846FAF789FD21486946CDE90050029676
:105F70001F48FAF781FD03960095CDE90154694663
:105F80005046FAF779FDCDE90246CDE90078694639
:105F90005046FAF771FD002211460620FAF7E0FE9E
:105FA0000620FAF7CFFE002211460820FAF7D8FEA5
:105FB0000820FAF7C7FE002211460920FAF7D0FEA2
:105FC0000920FAF7BFFE002211460A20FAF7C8FEA0
:105FD0000A20FAF7B7FE06B0BDE8F08700100240CD
:105FE00000180140000C01400000211000001110B9
:105FF000000801401CB50024194801941749009479
:106000000160611EC0E90114FBF73EFA08B1FAF71E
:10601000C1FA14208DF804008DF805408DF8064073
:10602000012201A90E48FBF7FBFA08B1FAF7B2FA10
:1060300006208DF8000004208DF8010019208DF84D
:10604000020021208DF80300012269460448FBF775
:1060500085FA002801D0FAF79DFA1CBD00280040FF
:106060005C0300200748064901600021416081600F
:10607000C16001614FF48041416104218161704739
:1060800000800140700300200C4810B50A490160EF
:106090004FF4E1314160002181600C22C160C0E910
:1060A00004128161C161FBF74FFF002803D0BDE8F6
:1060B0001040FAF76FBA10BD00380140F403002019
:1060C000FEE770477047010901EB810100F00F0006
:1060D00000EB4100C0B2704770B50446FAF7D6FD38
:1060E00005464FF47A7606E0FAF7D0FD401BB04241
:1060F00001D9032070BD206840688006F4D520686F
:10610000416841F010014160002070BD70B5044647
:106110000068416821F010014160FAF7B7FD0546BB
:106120004FF47A7607E000BFFAF7B0FD401BB042AB
:1061300001D9032070BD206840688006F4D5002096
:1061400070BD0168086A496A89B241EA0040704737
:10615000006881698AB2C1698BB2816989B28A4259
:1061600003D0C06961F31F40704743EA02407047A3
:10617000F0B56424C1EBC1030927A500072603EB92
:1061800001130329B3FBF7F100F5FA601144014450
:106190000AD2401EB0FBF4F201EB9001B0FBF5F027
:1061A000891A0844001D08E0B0FBF4F201EB9001ED
:1061B000B0FBF5F0891A0844801CB0FBF6F106FB31
:1061C0001100C0B2F0BD70B50D4606460024FFF7C1
:1061D00083FF48B93168280C08623168A8B2486268
:1061E0003046FFF793FF00B10124204670BD70B523
:1061F0000D4606460024FFF76FFF48B93168280CAA
:1062000088613168A8B2C8613046FFF77FFF00B1EE
:106210000124204670BD0A6842624A688262D1E960
:1062200002231A43D1E904310B43C16A1A4321F016
:10623000F7011143C16200207047006800F00300BD
:10624000704708444069704770B50DF1100C114358
:106250009CE870002343194329434268314347F6C1
:10626000FF639A430A434260002070BD10B50321CA
:1062700001600220FAF7DEFA002010BDD0F880009D
:1062800070470A688260D1E901231A43D1E90331DA
:106290000B43C1681A436FF30B011143C160002027
:1062A00070470968C0F880100020704710B586B0AC
:1062B00004463720CDE900104020029000200390D2
:1062C0004FF48060049069462046FFF7DAFF41F200
:1062D00088323721204600F0BDF906B010BD00001D
:1062E00010B504460A4886B001432920CDE90010C4
:1062F00040200290002003904FF480600490694693
:106300002046FFF7BEFF204600F05CFA06B010BD45
:106310000000108010B586B004461020CDE90010B2
:1063200040200290002003904FF480600490694662
:106330002046FFF7A6FF41F288321021204600F0E8
:1063400089F906B010BD10B586B004460620CDE927
:10635000001040200290002003904FF480600490D1
:1063600069462046FFF78DFF41F28832062120461C
:1063700000F070F906B010BD30B585B000240546B8
:10638000009401944FF480600294CDE90340694683
:106390002846FFF776FF0B484FF4FA510068B0FB30
:1063A000F1F041F288314843401E03D24FF00040E3
:1063B00005B030BD696B0906F6D5C520A863204637
:1063C000F6E700003C00002070B585B004464FF4AD
:1063D000D570009001A908204025002681E86100C1
:1063E000C001049069462046FFF74BFF12484FF466
:1063F000FA510068B0FBF1F041F288314843401E89
:1064000003D24FF0004005B070BD616B11F0450F35
:10641000F5D00905F3D4606B400701D5042003E0F3
:10642000606BC00702D00120A063ECE7606B400600
:1064300000D5A5633046E6E73C00002010B586B0E5
:1064400004461220CDE90010402002900020039065
:106450004FF48060049069462046FFF712FF41F236
:1064600088321221204600F0F5F806B010BD10B5B4
:1064700086B004461120CDE9001040200290002093
:1064800003904FF48060049069462046FFF7F9FEC0
:1064900041F288321121204600F0DCF806B010BD30
:1064A00010B586B004460720CDE9002040200290B8
:1064B000002003904FF48060049069462046FFF767
:1064C000E0FE41F288320721204600F0C3F806B012
:1064D00010BD10B586B0044600210220CDE90010A1
:1064E000C020CDE902014FF4806004906946204647
:1064F000FFF7C7FE204600F03DF906B010BD10B50D
:1065000086B004460920CDE90010C020029000208A
:1065100003904FF48060049069462046FFF7B1FE77
:10652000204600F027F906B010BD10B586B004462D
:1065300000213320CDE900104020CDE90201000107
:10654000049069462046FFF79CFE41F288323321D1
:10655000204600F07FF806B010BD10B586B00446A6
:106560000D20CDE9001040200290002003904FF450
:106570008060049069462046FFF783FE41F288322E
:106580000D21204600F066F806B010BD30B585B08C
:106590000C46054600210320CDE900104020CDE93E
:1065A00002010001049069462846FFF76AFE224670
:1065B0000321284600F028F905B030BD10B586B09B
:1065C000044600210C20CDE900104020CDE9020155
:1065D0000001049069462046FFF753FE034A0C2150
:1065E000204600F037F806B010BD000000E1F505C8
:1065F00010B586B004461920CDE900104020029065
:10660000002003904FF48060049069462046FFF715
:1066100038FE41F288321921204600F01BF806B0FE
:1066200010BD10B586B004461820CDE900104020FA
:106630000290002003904FF4806004906946204649
:10664000FFF71FFE41F288321821204600F002F8C1
:1066500006B010BD454B10B51B684FF4FA54B3FBA0
:10666000F4F353435B1E02D24FF0004010BD426B67
:1066700012F0450FF6D01205F4D4426B520703D541
:1066800004218163084610BD426BD20702D001216C
:10669000816305E0C52282630269D2B28A4201D0D9
:1066A000012010BD0021FFF7CCFD3149084201D186
:1066B000002010BD002802DA4FF0007010BD41002C
:1066C00001D5402010BD810001D5802010BDC10042
:1066D00002D54FF4807010BD010102D54FF4007057
:1066E00010BD410102D54FF4806010BDC10102D53B
:1066F0004FF4006010BD010202D54FF4805010BD70
:10670000410202D54FF4005010BD810202D54FF472
:10671000804010BDC10202D54FF4004010BD4103BE
:1067200002D54FF4003010BD810302D54FF4802014
:1067300010BDC10302D54FF4002010BD010402D5E5
:106740004FF4801010BD410402D54FF4001010BD6D
:10675000810402D54FF4800010BD000702D54FF42C
:10676000000010BD4FF4803010BD00003C00002040
:1067700008E0FFFD12494FF4FA520968B1FBF2F14B
:1067800041F288325143491E02D24FF00040704717
:10679000426B12F0450FF6D01205F4D4416B490755
:1067A00003D50421816308467047416BC90703D0B4
:1067B0000121816308467047C5218163002070472D
:1067C0003C0000200F494FF4FA520968B1FBF2F186
:1067D00041F288325143491E02D24FF000407047C7
:1067E000426B12F0450FF6D01205F4D4416B490705
:1067F00003D50421816308467047C52181630020C9
:10680000704700003C00002030B5204B4FF4FA5494
:106810001B68B3FBF4F341F2883463435B1E02D27E
:106820004FF0004030BD446B14F0450FF6D0240506
:10683000F4D4436B5B0703D504218163084630BD64
:10684000436BDB0702D00121816303E00369DBB204
:106850008B4201D0012030BDC52181630021FFF7AB
:10686000F0FC10F4604F04D0410406D54FF4005002
:1068700030BD000C1080002030BD000402D54FF464
:10688000805030BD4FF4803030BD00003C0000200F
:106890002DE9F04F89B00D460446FAF7F7F90026C6
:1068A000834600960196374608212068FFF732FD9F
:1068B000002834D1B4F8500001042068FFF7F6FC3A
:1068C00000282CD1401E4FF00808CDE902083020E6
:1068D0004FF00209CDE904090120CDE9067002A9B3
:1068E0002068FFF798FC2068FFF71FFE002816D1EC
:1068F000EA4640F22A472068416B394212D1416B87
:10690000890204D5FFF7BAFC4AF82600761CFAF78C
:10691000BDF9A0EB0B00401CEDD14FF0004009B0D9
:10692000BDE8F08F416B090703D5C0F83880082017
:10693000F5E7416B890703D5C0F838900220EEE7F0
:10694000416B890603D5202181630846E7E740F2C1
:106950003A518163019800BA2860009800BA6860D3
:106960000020DCE710B590B004460120ADF83800F7
:106970002068FFF762FC002854D0606C032842D0E6
:106980002068FFF7A6FD00284AD100212068FFF704
:1069900058FC606704212068FFF753FCA0670821BA
:1069A0002068FFF74EFCE0670C212068FFF749FCE8
:1069B000C4F88000606C032825D00EA92068FFF77A
:1069C000E5FD00282CD1606C03281CD0BDF83800F0
:1069D000206501042068FFF792FD002820D10021E6
:1069E0002068FFF72EFC606604212068FFF729FC71
:1069F000A06608212068FFF724FCE0660C212068CF
:106A0000FFF71FFC206704212068FFF71AFC000D28
:106A1000E06403A92046FAF7F1FE30B14FF0805050
:106A200010B010BD4FF08060FAE7B4F850000023BA
:106A300002042068FFF734FD0028F1D104F11000B2
:106A400007C88DE8070094E80F00FFF7FDFB002062
:106A5000E6E700002DE9F84F00260446009635468B
:106A6000B0460068FFF788FC002827D12068FFF7B0
:106A7000ABFC4FF0805B4FF001094FF6FF7748B158
:106A8000A6642068FFF778FC002817D1A06C0128C5
:106A900002D020E0C4F8489000212068FFF706FCEF
:106AA00058B918E000212068FFF700FC002805D144
:106AB00051462068FFF714FC10B15846BDE8F88F26
:106AC00000212068FFF7BDFB05464FEAD07800980B
:106AD000401C009002E0DFF82CA00098B84202D2DF
:106AE000B8F1000FDED00098B84202D34FF08070AA
:106AF000E4E7680002D5C4F8449000E06664002032
:106B0000DCE70000000010C110B5064C0120207029
:106B1000F9F7A8FC18B9207820F00100207020783F
:106B200010BD00004800002010B5124888B014467F
:106B30000078C00702D0032008B010BDB9B1012908
:106B400005D0022908D003290CD00420F4E76846B8
:106B5000F9F776FC069809E06846F9F771FC0798A2
:106B6000208004E06846F9F76BFC0798206000205D
:106B7000E2E70000480000202DE9F0411E461746DC
:106B800008460125094C0A4B32463946F9F78AFC7A
:106B900028B109E0641E02D20120BDE8F081F9F7B6
:106BA00055FC0028F6D100252846F6E7A08601000E
:106BB00000E1F50510B5064C01202070F9F746FC00
:106BC00018B9207820F001002070207810BD000056
:106BD000480000202DE9F0411E46174608460125D1
:106BE000094C0A4B32463946F9F76CFC28B109E0EA
:106BF000641E02D20120BDE8F081F9F727FC0028CD
:106C0000F6D100252846F6E7A086010000E1F5054B
:106C10007047FAF741B870B596B028216846F9F781
:106C2000BEFA14210AA8F9F7BAFA18210FA8F9F741
:106C3000B6FA0520009001A94FF480300024012508
:106C400081E8310002260495CDE907604FF4E01099
:106C500009906846FAF788FA0F20CDE90A06A802DB
:106C6000CDE90C4002210AA80E94FAF791F9280206
:106C7000CDE90F500FA8FAF715F916B070BD70479F
:106C800070B5044600680169E26821F4405111437F
:106C900001612169A0680843616908432168CA68E5
:106CA00041F20C639A430243CA6020684169A269B9
:106CB00021F44071114341611E492068884202D18C
:106CC000FAF70CFA01E0FAF7F9F900EBC00101EB71
:106CD0000012606864218000B2FBF0F3B3FBF1F3B3
:106CE0006FF018067343B2FBF0F5B2FBF0F605EB5C
:106CF0008305322303EB0515B5FBF1F5B6FBF1F681
:106D000005F0F00505EB0615B2FBF0F6B2FBF0F06E
:106D1000B0FBF1F06FF01802504306EB800003EB7C
:106D20000010B0FBF1F0216800F00F0028448860EB
:106D300070BD0000003801402DE9F041984617462B
:106D40000E460446069D1DE0681C1BD02DB1F9F7C8
:106D50009DFFA0EB0800A84214D92068C16821F467
:106D6000D071C1602068416921F00101416120209A
:106D700084F8390084F83A00002084F838000320B1
:106D8000BDE8F0812068006836EA000004D00020E9
:106D9000B842D9D00020F3E70120F9E7FEE7000070
:106DA0000FB4054B10B503A9044A029800F03CF853
:106DB00010BC5DF814FB0000A587000884000020CB
:106DC0000FB4084B10B504A902AA039800F02CF8E0
:106DD000044602A9002000F003F9204610BC5DF82B
:106DE00014FB0000E16F00080907090E002804DB0E
:106DF00000F1E02080F80014704700F00F0000F16F
:106E0000E02080F8141D704702E008C8121F08C176
:106E1000002AFAD170477047002001E001C1121F1B
:106E2000002AFBD1704700002DE9FF4F8BB09A4636
:106E30000F460546002606E025280BD052460D9940
:106E400090476D1C761C28780028F5D10FB030468D
:106E5000BDE8F08F0024A0460122604900E0044311
:106E600015F8013F203B02FA03F00842F7D12878D9
:106E70002E2817D115F8010F44F004042A280ED04B
:106E80006FF02F022878A0F1300109290AD808EB09
:106E9000880102EB410100EB01086D1CF2E757F895
:106EA000048B6D1C287869283ED006DC0028CDD0E4
:106EB00063280BD0642804D136E0732810D07528DD
:106EC0004BD052460D999047761C85E017F8040B7D
:106ED0008DF8000000208DF80100E946012003E054
:106EE00057F8049B4FF0FF3061074FF0000401D4C6
:106EF0000AE0641C44450DDA8442FADB19F80410F8
:106F00000029F6D106E0641C8442FCDB19F8041069
:106F10000029F8D1264404E019F8010B52460D99D6
:106F20009047641EF8D257E001CF4FF00A0B0028BB
:106F300002DA40422D2102E0210504D52B218DF8F3
:106F40002410012103E0E10705D02021F7E70DF12E
:106F5000200908910CE00021F9E701CF4FF00A0B5E
:106F6000F9E75946F9F7D7F901F1300209F8012D8F
:106F70000028F6D1ADEB090000F1200B600701D429
:106F80004FF00108D84502DDA8EB0B0000E000201F
:106F90008046002406E009A85246005D0D999047FE
:106FA000641C761C08988442F5DB04E030205246CD
:106FB0000D999047761CB8F10001A8F10108F5DCA5
:106FC00005E019F8010B52460D999047761CBBF16C
:106FD0000001ABF1010BF4DC6D1C34E70928010062
:106FE0000A68531C0B6010707047000010B504460F
:106FF000002084F80402401EC4F82C02204601F050
:1070000045FE08B1032010BDB4F8FE01A0F52A41E9
:10701000553901D0022010BD94F83600B4F837106D
:1070200040EA01210848B0EB012F08D094F8521033
:10703000B4F8532041EA0221B0EB012F01D1002026
:1070400010BD012010BD00000046415400E0401C6E
:1070500002780AB18A42FAD1D0B27047F0B5002264
:10706000184B144602EB420653F8265085B1D0F86F
:107070000072BD420DD103EB8605D0F808626F683F
:10708000B74206D12D89B0F80662B54204D000E0BF
:107090000124521C022AE5D3022A01D079B904E066
:1070A0005CB9022909D01220F0BD02EB420003EBCB
:1070B00080004089B0F5807F01D00020F0BD102015
:1070C000F0BD00003404002030B50021064A0C4613
:1070D00001EB410352F82350854201D142F823408D
:1070E000491C0229F4D330BD34040020D0F82422F6
:1070F000D0F80002490A90F80202B1FBF0F0121D2C
:1071000002CA19B1884203D3401AF8E70020704739
:10711000116808447047D0F81422891E921E8A42D2
:1071200001D800207047D0F8282290F8020201FB15
:10713000002070472DE9F0410F00054606D001F010
:10714000ABFB02280BD20120BDE8F081D5F80C6220
:107150001EB1D5F81402B04208D8012606E0411C41
:10716000F2D0D5F814128142EED83E463446D5F816
:107170001402641CA04202D80224022E0AD3214623
:10718000284601F089FB38B1411CDDD00128DBD055
:10719000B442ECD10020D7E76FF070422146284678
:1071A00001F06BFE30B957B122463946284601F04E
:1071B00064FE20B1012812D001242046C4E7C5F89E
:1071C0000C42D5F81002411CF7D0401EC5F8100241
:1071D00095F8050240F0010085F80502EDE74FF053
:1071E000FF34EAE72DE9F84F884682460F6800E051
:1071F0007F1C38782F28FBD05C28F9D00024DAF8DF
:1072000020622546785D6D1C202827D32F2825D0A5
:107210005C2823D0FF2C42D2A0F181017D290BD81C
:10722000795D6D1C01EB0020A1F1400280B23F2A84
:1072300002D380397F2932D2012101F0A3F85FEA1D
:1072400000092CD0B9F1800F04D2014671A0FFF7DC
:10725000FDFE20BB26F81490641CD3E77A19C8F809
:107260000020202801D2042517E0002515E000BFEA
:1072700006EB440030F8020C20280DD02E280BD04D
:107280006CB1002026F814000B222021DAF8180235
:1072900001F0F5FC002706E0641E002CE8D1062072
:1072A000BDE8F88F7F1C36F817002028FAD02E286A
:1072B000F8D01FB145F0030500E0641E2CB106EBC9
:1072C000440030F8020C2E28F7D1002081464FF000
:1072D000080B009036F8170007F101075FEA000875
:1072E00024D0B8F1200F04D0B8F12E0F04D1A7425A
:1072F00002D045F00305EDE70099594501D2A742B8
:107300001AD1BBF10B0F0FD0A74201D045F00305F6
:107310000CD84FF0080000904FEA896027464FF0E4
:107320000B0B4FEA1069D5E745F00305DAF81802B0
:107330000178E52949D04AE04046B8F1800F07D3EB
:1073400001F04AF8002101F01DF8804645F00205E1
:10735000B8F1FF0F13D90099ABF10100814204D3BA
:1073600045F00305CDF800B0B4E7DAF8182200982C
:107370004FEA182111540098401C00901CE0B8F10D
:10738000000F04D0014626A0FFF760FE20B14FF0A9
:107390005F0845F003050FE0A8F14100192802D865
:1073A00049F0020908E0A8F16100192804D8413029
:1073B00049F001091FFA80F8DAF81822009902F85A
:1073C00001800098401C009084E705210170BBF10A
:1073D000080F03D14FEA89604FEA1069C9F38100B1
:1073E000032803D06FEA0901890701D145F002059E
:1073F000A90709D409F00301012901D145F01005BD
:10740000012801D145F00805DAF81802C5720020FC
:1074100046E70000222A3A3C3E3F7C7F0000000005
:107420002B2C3B3D5B5D0000401E022815D20C4B0F
:1074300000EB400203EB82014889B0F5807F05D064
:1074400008B1401E80B2488110B104E00020FAE784
:10745000002043F8220000207047022070470000FF
:10746000340400202DE9FC5F0546002100F098FA65
:1074700000286ED1FF204FF6FF7A00908146A5F8D4
:1074800024A200BFD5F81012D5F8000201F0FEFBCF
:1074900006000ED1D5F81442207848B1E17AE528EB
:1074A00001F03F0170D00A0704D50F296CD107E025
:1074B000042674E00F2903D0B9F1000F4DD052E03B
:1074C000D5F8201291B3420608D5627B009220F0D5
:1074D0004000B5F806228146A5F82422484534D15B
:1074E000627B0098824230D101912078A04620F042
:1074F0004000401E00EB80010027DFF8A8B001EB40
:10750000C00601241BF8071001EB0800008874B1C5
:1075100000F062FF0446FF2E17D2019830F81600E3
:10752000761C00F059FFA0420FD102E030E0504538
:107530000BD17F1C0D2FE5D398F80000400609D52C
:1075400044B1019830F8160020B1FF2000F0FF0987
:107550001EE025E0A9F10100F8E7204601F000FE59
:10756000009988421BD0D5F81802C17AC9070BD1FF
:107570000A2101E0491E06D314F8012B10F8013B43
:10758000D21AF7D000E052B14FF0FF09A5F824A2BB
:107590000021284600F008F806003FF473AF30469B
:1075A000BDE8FC9FD49200082DE9F041B0F80662D6
:1075B0000446761C30040F46000C37D0D4F8100275
:1075C00098B3310773D1401CC4F81002D4F80C12E0
:1075D000D4F8000231B190F80222521E12EA161FAE
:1075E00005D064E0B0F80802B0421FD95FE001F0B6
:1075F00053F9054601281ED9681C3AD0D4F8000278
:10760000D0F81412A94249D87FB1D4F80C12FFF770
:1076100091FD05000DD0012D0DD0681C29D0D4F8A6
:10762000000201F005FE20BB07E0FFE70420BDE8F3
:10763000F0810720FBE70220F9E74FF400720021F8
:10764000D4F8000201F01BFB2946D4F80002FFF732
:1076500062FDD4F8001200274FF00108C1F82C0297
:1076600011E000BF80F80482D4F8000201F0E0FDD0
:1076700008B10120DBE7D4F80002D0F82C12491C35
:107680007F1CC0F82C12D4F8000290F80212B94204
:10769000E8D8D0F82C12C91BC0F82C12C4F80C5230
:1076A0002946D4F80002FFF736FDC4F81002A4F80A
:1076B0000662D4F8000206F00F0100EB4110C4F896
:1076C00014020020B3E700002DE9F05FFF248B4691
:1076D0000546274604264FF6FF784FF000096AE07A
:1076E000D5F8000201F0D2FA060069D1D5F81402EB
:1076F000017879B1C27AE52902F03F0208D02E293B
:1077000006D022F02003082B06D0B446DC4506D074
:10771000FF2442E0042653E04FF0010CF6E70F2A65
:1077200001D0BCBB40E04A0607D5477B21F04001B1
:10773000B5F806220C46A5F82422A1422BD1417BA4
:10774000B94228D10178DFF884A001F03F01491E39
:1077500001EB810202EBC1010022D5F820C2012316
:107760001AF802600644368833B1FF2913D22CF888
:1077700011603346491C01E046450CD1521C0D2ACC
:10778000EED30078400603D5FF2904D22CF81190DF
:10779000641E01E00CE0FF24E4B200212846FFF75C
:1077A00003FF060007D00BE001F0DAFCB84209D075
:1077B000A5F8248206E0D5F81012002990D10EB168
:1077C000C5F810923046BDE8F09F0000D492000842
:1077D0002DE9FF5FD0F818720446D0F820620C2221
:1077E0003946684601F042FA9DF80B00C0071AD0EE
:1077F0000020F8720125C4F820022B463246694663
:10780000384601F003F82046FFF72CFE10B96D1C36
:10781000642DF2D3642D0CD004280BD19DF80B00FD
:10782000F872C4F820629DF80B0080070FD5002085
:1078300004E0072004B0BDE8F09F401C36F81010AB
:107840000029FAD10D211930B0FBF1F600E0012634
:107850000021204600F0A4F8A0B90027D4F81012A7
:10786000D4F8000201F012FA60B9D4F814020078DA
:10787000E5280AD048B1002701212046FFF794FEF1
:107880000028EBD0042812D012E07F1C3046B7420B
:10789000F2D1461E5FEA060A5FD0B4F8061220460F
:1078A000A1EB0A0100F07CF8050003D074E007208A
:1078B000054671E0D4F8180201F052FCCDF80C0036
:1078C000D4F81012D4F8000201F0E0F9050063D1F9
:1078D000D4F81412D4F82092039848730F20C87279
:1078E0000020087388760AF0FF0BC876ABF1010020
:1078F00000EB800202EBC00500234FF6FF7E274E0F
:107900004A1C01E0604503D039F81500F4466D1CAF
:10791000F75CC85516F80380070A08F8027000B92A
:1079200060465B1C0D2BEDD3704502D039F8150075
:1079300008B94BF0400B81F800B0D4F800120120D8
:1079400081F8040200212046FFF72EFE050023D116
:10795000AAF101005FEA000AB2D1D4F81012D4F8FB
:10796000000201F093F9050016D1D4F81402202288
:10797000002104F5007401F082F9D4E905010B221D
:1079800001F074F9A0696169C07A00F01800087309
:107990002168012081F8040228464BE7D4920008B0
:1079A00070B5A0F80612D0F808320D460446012B37
:1079B00040D0D4F80002D0F8141299423AD933B921
:1079C00090F80012032906D1D0F824321BB190F8A8
:1079D0000202060114E0B0F80812A9422AD9D0F830
:1079E000240214E000F058FF0346401C20D0022B74
:1079F00020D3D4F80002D0F8140298421AD9AD1B53
:107A0000D4F80002B5421946ECD2FFF784FBC4F863
:107A10000C3278B100EB1510C4F81002D4F8000253
:107A200005F00F0100EB4110C4F81402002070BDF6
:107A3000012070BD022070BD084910B50B5C00220A
:107A400053B901220A540A1801EB8000127A4068E7
:107A50000168104688470246104610BD4C040020BD
:107A600030B4054C231804EB80001B7A406804698D
:107A70001846A44630BC60474C04002030B4054D85
:107A80002C1805EB8000247A406885682046AC46B7
:107A900030BC60474C040020044A111802EB8000FF
:107AA000097A406842680846104700004C040020EC
:107AB00030B4054D2C1805EB8000247A4068C56869
:107AC0002046AC4630BC60474C04002010B504464C
:107AD00000F0FBFB00280DD1204601F0D9FB002867
:107AE00008D1D4F82802FFF79FFC002802D100211A
:107AF000C4F8001210BD10B5044601F0C9FB0028FF
:107B00000AD1D4F81C1221B10846FFF78DFC0028D9
:107B100002D10021C4F8001210BD2DE9FC4100255E
:107B20009046074604464E1E11E001AB012269460D
:107B3000404600F0C7FA019801280AD19DF80000DC
:107B40000D2804D06D1C04F8010B0A2801D0B542A1
:107B5000EBDB0020207015B13846BDE8FC81002029
:107B6000FBE700002DE9FC5F0D46044601F090FBA9
:107B70005FEA000973D194F8070200286FD1D4F8A6
:107B8000240201274FF0020A002869D0691C33D073
:107B9000D4F80C02A84200D20546C4F80852002DC1
:107BA0005CD02046691EFFF7A1FA0146C4F8140212
:107BB000D4F80002FFF7AFFA00287CD0D4F8001206
:107BC0006D1E91F80222521E02EA55221518B4F8D1
:107BD0000802C005E4D0D4F81822AA42E0D094F8F4
:107BE0000602400646D591F8010201232146FFF71F
:107BF0005FFF002874D137E002C80091D4F810125A
:107C00008346022509B30026AD1C01918846761CE7
:107C1000D4F8000200F040FE014601284BD9481C70
:107C20005ED008F101008142F0D00098854206D86C
:107C3000CBF800600BF10400019A04C08346D4F82D
:107C40000002D0F814028842DDD8D4F8240205607E
:107C50000098854205D80021CBF80010C2E09DE0D5
:107C600016E04FF01109BDE094F8060220F0400044
:107C700084F80602D4F8000201232A4690F8010293
:107C80002146FFF7FBFE00282AD1C4F81852A9E0CC
:107C9000D4F80C02A84204D294F80612890700D442
:107CA00005464FF00008D4F80802C4F808824DB326
:107CB000D4F8002200E06EE092F802124E0280B189
:107CC000691E401EB1FBF6F1B0FBF6F3994208D3F2
:107CD000711E8843C4F808022D1AD4F8141210E05B
:107CE0006EE0D4F8101251B900211046FFF722FAC5
:107CF000014601284FD0481C62D0C4F81012C4F8C5
:107D0000141211BB31E000BF94F806028007D4F8CA
:107D1000000205D5FFF70EFA010004D1354616E042
:107D200000F0BAFD0146481C4AD0012933D9D4F8E5
:107D30000002D0F8140288422DD9C4F81412D4F8E5
:107D40000802AD1B3044C4F80802B542DCD8D4F8B0
:107D500008022844C4F80802E80506D0D4F8000256
:107D6000FFF7D9F9B8B100EB5528B4F80802C005FF
:107D70002CD0D4F81822424528D094F806024006A8
:107D800014D5D4F800020123214690F80102FFF730
:107D90008FFEA8B904E084F807A20220BDE8FC9F8A
:107DA00094F8060220F0400084F80602D4F800029D
:107DB0000123424690F801022146FFF75FFE18B109
:107DC00084F807720120E9E7C4F81882D4E9820137
:107DD000884207D9C4F80C0294F8060240F020004B
:107DE00084F806024846D9E72DE9F74181B090466C
:107DF00002980090684600F019FE040003D50B209D
:107E000004B0BDE8F0810E4E002756F8245025B18D
:107E10002846FFF759F985F800720198002801D02B
:107E200080F8007246F8240002D0B8F1010F01D0AA
:107E30000020E5E7002202A901A800F04DFBDFE7E2
:107E4000440000202DE9F74FADF50E7D06000ED061
:107E50004FF0000902F01F0727F001028FA980A848
:107E6000C6F8009200F038FB040005D0C9E00920F4
:107E70000DF5117DBDE8F08F4FF4007000F0A8FA09
:107E80005FEA00080BD08AA88690CDF82082684669
:107E90008F9900F04DFC859D040002D00DE011206B
:107EA000E6E71DB1780803D0012102E0062404E0D2
:107EB00000216846FFF7D2F8044617F01C0F5FD088
:107EC0004FF0010BD4B1042C13D10020504902E033
:107ED000401C022805D200EB400251F82220002A63
:107EE000F6D1022804D06846FFF772FC044600E091
:107EF0001224859D47F0080754B146E0E87A10F057
:107F0000110F01D0072440E0780701D508243CE098
:107F1000380749D500F021FDA873010AE973010C67
:107F20002974000E687485F80B9085F81C9085F80C
:107F30001D9085F81E9085F81F902946809800F0C6
:107F4000FFFD82460021284601F002F98099BAF12E
:107F5000000F81F804B225D080985146D0F82CB299
:107F600001F084F8040010D18099AAF10100C1F851
:107F70000C025946809800F089FE040010D004E0FD
:107F80001CB9E87AC10605D50424404600F022FA5F
:107F9000ECB136E0B90703D5C00701D0072433E0C0
:107FA000380701D547F020078098D0F82C02C6E9A1
:107FB0008705780801D0012100E00021684600F023
:107FC0006FFDC6F82802F0B1404600F003FA86F8CB
:107FD000067286F807924F46294606F50076809885
:107FE00000F0AEFD3061287FD5F81D1040EA012079
:107FF000C6E90270B761776280983060B0F8060217
:10800000B080204634E70224404600F0E3F9F8E768
:1080100034040020F3B585B0040009D0002206A97D
:10802000684600F059FA05004FF0000703D045E01C
:10803000092007B0F0BD0098C4F800024FF40070AA
:1080400000F0C6F906000ED001A8C4F82062C4F8FA
:1080500018022046069900F06BFB0546304600F0FA
:10806000B9F915B117E01120E3E7D4F8141239B1CA
:10807000C87AC00621D5009800F062FDC4F8080255
:1080800000980021B0F80602A4F804022046FFF789
:1080900087FC050002D0042D0FD00FE0D4F80802B1
:1080A00040B10021204600F0FBFCC4F81C0238B9A6
:1080B000122503E0C4F81C7202E00525C4F8007222
:1080C0002846B6E72DE9F84F88460021994615461F
:1080D0000446196001F0DCF8002812D194F8070278
:1080E00000280ED194F80602C00709D0D4E9820115
:1080F000081A01274FF0020A854200D90546A2E07E
:108100000720BDE8F88F00BFD4F80812C8057CD15D
:10811000D4F8000290F80222521E02EA512212F014
:10812000FF0614D131B1D4F8242232B12046FEF733
:10813000DDFF06E0D4F8100203E0D4F8141200F0DA
:10814000ABFB022823D3411C5BD0C4F81402D4F843
:108150001412D4F80002FEF7DEFFC0B130440090E4
:10816000680A5FEA000B2AD0D4F8001206EB0B0273
:1081700091F80202824201D9A0EB060B91F80102AC
:108180005B464146009AFFF779FCD0BB03E084F8D8
:1081900007A20220B5E794F8060240060CD5D4F8F1
:1081A00018120098081A584506D208EB40204FF4E0
:1081B0000072214600F05AFD4FEA4B2637E0D4F812
:1081C00018220098824221D094F8060240060ED56B
:1081D000D4F800020123214690F80102FFF768FC61
:1081E00078B994F8060220F0400084F80602D4F82A
:1081F00000020123214690F80102009AFFF73EFC9D
:1082000020B184F8077201207BE702E00098C4F8EF
:108210001802B4F80802C0F30800C0F50076AE42B8
:1082200000D92E4601193246404600F01FFDD4F811
:108230000802B0443044C4F80802D9F8000081199B
:10824000AD1BC9F80010002D7FF45EAF002058E789
:108250002DE9FE438846054601F01AF8040032D1A4
:10826000B8F1000F13D04FF4007000F0B1F8060021
:1082700013D0C5F82062C5F818D200212846FFF7B0
:1082800023FA0027044604280AD05CB118E0002134
:108290002846FFF785FB044615E01120BDE8FE8364
:1082A000C5F810724146284600F059FB00212846C7
:1082B000FFF77AF90446042802D10024C5F81072A9
:1082C000304600F087F82046E8E770B5044600F035
:1082D000DFFF002811D194F806128A060DD5480652
:1082E00012D5D4F800020123214690F80102D4F8F7
:1082F0001822FFF7DDFB08B1012070BD94F80602DB
:1083000020F0400084F80602D4F81C12D4F80002D1
:1083100000F0BCFC0028F0D1D4F82052E87A40F0FC
:108320002000E87294F80C022877B4F80C02000AD6
:108330006877D4F80C02000CA877D4F80C02000E71
:10834000E877D4F81012284604F5007400F000FF16
:1083500000F003FBA875010AE975010C2976000EEF
:1083600068760020A874E874A07920F02000A0713D
:108370002168012081F804022068BDE8704000F007
:10838000FCBE000070B580281BD345F2205309B114
:108390000D4D00E00D4D002110245A1A02EBD2724F
:1083A00001EB620235F82260864206D001D2114606
:1083B00000E01346641EF0D104E01CB105EB82001E
:1083C000408870BD002070BD92E701080E93000840
:1083D00000F016BC00F0F2B90021064B00E0491C89
:1083E00033F81120002A04D08242F8D1024830F834
:1083F00011007047163C0308F63D030830B50446EB
:108400000146ADF5137D22A0FEF7CAFC01222449E6
:108410002448FFF7E9FC002836D123A0FEF7C0FC72
:1084200021466846FFF7F6FD70BB21A0FEF7B8FCB9
:108430000DF231248AA96846FFF70AFF05001DD115
:108440009DF83102D0B19DF83002C00620460CD50F
:10845000F7F7C2FE20441AA1FEF7B2FC2046F7F758
:10846000BBFE03462246002104E0F7F7B5FE0346B3
:10847000224601211348F8F733F9DBE712A0FEF793
:108480008FFC6846FFF737FB0DF5137D284630BD9E
:1084900072656164696E67203A2025730D0A0000D9
:1084A000210000209C0000205344204F4B0D0A0067
:1084B000646972206F70656E65640D0A00000000CB
:1084C0002F00000090000020726561646564204602
:1084D000696C65730D0A00002DE9FF474FF0000934
:1084E0000746C0F800901646084600F09FFA0500BF
:1084F00003D50B2004B0BDE8F0878A4850F825402A
:10850000A4B13C6094F8000228B194F80102FFF78E
:10851000C3FAC1070CD084F80092E8B284F80102D3
:10852000FFF78AFAC10708D00320E3E70C20E1E750
:108530000EB1400704D40020DCE71EB1400701D58E
:108540000A20D7E7002529462046FEF74FFD0128DF
:1085500023D100204FEA0D0704EB001191F8C2214E
:1085600001F5DF712AB10A7AD1F8091042EA012136
:1085700000E0002147F82010401C0428ECD300261E
:1085800057F826502DB129462046FEF72FFD08B991
:1085900009E00220761C042EF2D3032801D0E0BBB0
:1085A00001E00120A6E7B4F80B00B0F5007F60D130
:1085B000E28A2AB994F82400D4F8251040EA01226E
:1085C000C4F81822217C84F80312012901D0022961
:1085D0004FD1607B514384F80202F0B1431E184230
:1085E00047D1B4F81130A4F808321E0741D1B4F8CD
:1085F00013602EB994F82060D4F8217046EA07265B
:10860000B4F80EC0BCF1000F33D00CEB010707EB40
:108610001317BE422DD3F61B00E02AE0B6FBF0F0A4
:1086200038B3012640F6F678404500D302264FF6CF
:10863000F678404500D30326801C2F44C4F82872E6
:10864000AC44C4F81402C4E9875C032E13D083B190
:108650006144C4F82412022E19D000F0010100EB8D
:10866000400001EB500000BF00F2FF10B2EB502FB2
:108670000FD20D203EE7002BFBD194F82C10D4F83C
:108680002D30800041EA0321C4F82412ECE74000B9
:10869000EAE74FF0FF30C4F81002C4F80C02802063
:1086A00084F80502032E30D1208E01282DD12046DA
:1086B000691C00F0EBFA40BB84F80592B4F8FE01A7
:1086C000A0F52A41553920D12078D4F8011040EA8C
:1086D00001201549884218D194F8E401D4F8E51135
:1086E00040EA0120114988420FD194F8E801D4F8FA
:1086F000E91140EA0120C4F8100294F8EC01D4F822
:10870000ED1140EA0120C4F80C02064984F8006229
:10871000091F0888401C0880A4F806022046FEF7BE
:10872000D3FC08E74400002052526141727241615B
:1087300073B50446019801782F2901D05C2901D135
:10874000401C01900025C4F80852019800782028A8
:1087500006D200212046FFF723F9C4F814527CBD4D
:1087600001A92046FEF73EFD0028F8D12046FEF77D
:1087700079FED4F81812C97A28B10428EFD1490734
:10878000EDD405207CBD4907FCD4D4F81412C87A76
:10879000C006F6D5D4F8000200F0D2F9C4F80802F9
:1087A000DEE7000013B5FF23012269460248F9F70E
:1087B00035FC00981CBD0000F403002010B5002813
:1087C00021D0114B0022001F196803E0814203D819
:1087D0000A4649680029F9D152B11368841A9C42AB
:1087E00004D1006818441060104602E0506000E0B8
:1087F000186039B102680B1A934203D10B681A440E
:1088000002604968416010BD880000207CB51646B2
:108810001C4605460B2200F029FA052C11D91D4AE9
:108820000CE00021B61C2346044663F35F044008B5
:10883000E30300D55440491C1029F4D330880028A4
:10884000EFD107214FEA0D0304F00F003030392833
:1088500000D9C01D5854491E2409F5D17E2000229C
:1088600058544C1E06E081387D2802D8A24206D01A
:10887000521C521C8A4202D2A85C2028F3D108293B
:1088800002D2585C491C00E02020A854521C082A3F
:10889000F5D37CBD211001002DE9F0410D460446C1
:1088A00002290DD3D4F81402A84209D994F8000281
:1088B0004FF0FF36012807D002282AD0032836D0EF
:1088C00001263046BDE8F081D4F8200205EB5507BB
:1088D00000EB5721204600F0D9F90028F1D1C7F369
:1088E00008007F1C14F80080D4F8200200EB572108
:1088F000204600F0CBF90028E3D1C7F30800215C43
:1089000048EA0120E90701D00609DAE7C0F30B06BF
:10891000D7E7D4F8200200EB1521204600F0B6F985
:108920000028CED1E8B204EB40000688C9E7D4F8AD
:10893000200200EBD511204600F0A8F90028C0D194
:1089400040F2FF1000EA850020440178D0F80100D1
:1089500041EA002020F07046B3E7002070472DE97F
:10896000F0410C4601F10902D0F8101279B300254C
:10897000D0F814322E26595D6D1C202919D00529F6
:1089800000D1E521092D01D102F8016BA1F14107C8
:10899000192F0CD81F7B092D02D34FF0100C01E0CA
:1089A0004FF0080C17EA0C0F01D02031C9B202F8C1
:1089B000011B0B2DDFD3D97A2172197FD3F81D50FB
:1089C00041EA05212160198BA180D98AE1804FF00D
:1089D000000882F80080A669002E25D0D0F8101279
:1089E0000025F9B1E169E9B1B0F82412A1F57F429F
:1089F000FF3A17D0D0F8207210E00021FFF7C2FC38
:108A000040B1FF2802D9010A71556D1CE169491E68
:108A1000A94201D8002505E070556D1C37F8020BFE
:108A20000028EAD106F80580BDE8F08110B50446BB
:108A30004FF0FF302268002A13D0114600E0491C95
:108A40000B78202B0ED33A2BF9D112F8013B303B97
:108A50000A2B06D28A4204D1002B02D1491C1846A7
:108A6000216010BD002010BD10B50168074A1140FB
:108A7000B1F1005F09D14168054C21600068F7F74A
:108A800061FB2068BDE81040004710BD0000FE2FCC
:108A9000700000200B4601461846F7F713BE000091
:108AA000F0B50346254AD3F80042002000EB40050C
:108AB00052F82560A6420BD102EB8505D3F8086277
:108AC0006F68B74204D12D89B3F80662B54202D06F
:108AD000401C0228EAD302281AD1002002E0401CE0
:108AE000022805D200EB400552F82550002DF6D1A2
:108AF000022815D000EB400542F8254002EB850422
:108B0000D3F808626660B3F80632238100236381DC
:108B1000002900EB400102EB8101498902D019B123
:108B20000020F0BD491C01E04FF4807100EB4003D0
:108B300002EB8302401C5181F0BD00003404002090
:108B40000246488B92F80022032A02D1898A40EA21
:108B5000014070470EB5F8F7A7F8FEF75CF8FDF78F
:108B60009DF9FDF77FFAFDF729F9FDF735F9FDF7D6
:108B700041FAFDF789FAFDF70FF9002000F0CEF871
:108B80001648F9F7D9FC16481649174AF7F7F6FDC3
:108B90006846F7F7F9FD15489DE80E0080E80E00DD
:108BA000134C6069FFF72AFC12480090D4E90123B6
:108BB00001210E48F7F7EDFD0F4C104D2021204606
:108BC000F8F756F8C820F7F735FE20212846F8F7C1
:108BD0004FF8C820F7F72EFEF0E700003508000830
:108BE000398E0008218E0008598E00089000002060
:108BF00000000020DD90000800180140000C01403A
:108C0000F0B50B30154D20F007010024144A0FE099
:108C100003688B420BD38B4205D95E1A4318476811
:108C2000C3E9006700E04368136002C004E0021D6E
:108C300010680028ECD12046002802D1286808B12D
:108C40000020F0BD064A07481060074A121A22F0B9
:108C50000702C0E9002401202860D7E78C0000202B
:108C60008800002094AE002090BE002004E000BFE9
:108C700011F8013B00F8013B521EF9D27047C9B20E
:108C800001E000F8011B521EFBD2704770B505468B
:108C9000D0F82C020C460026A04210D0284600F046
:108CA000C7FA06000BD195F8010201232246294696
:108CB000FEF7E4FE08B1741E0126C5F82C423046CA
:108CC00070BD000070B5134A13181B7E93B1124B90
:108CD00053F820308B421AD90F4B083B53F8203001
:108CE000B1FBF3F102EB8003186930F8112000208A
:108CF000044608E011688847012070BD1D690E1800
:108D0000401C25F816409042F8DB002070BD022080
:108D100070BD000054000020BC57030870B5044625
:108D20000B480C4E002150F8240006EB840542004D
:108D3000286900F09BF806480021103050F82420E4
:108D4000A86800F093F801203119087670BD000082
:108D5000AC570308540000202DE9F041204E044692
:108D6000002530190F46007E10B93168204688472B
:108D70004FF0FF327FB31B4B53F82410B7FBF1F0D9
:108D8000B7FBF1FC01FB1C7101B1401C154908390E
:108D900051F82410491E21D406EB8406D6F8107031
:108DA00037F811C0BCF1000F05D00025854213D162
:108DB000002285B208E06D1CF8E700BF376901EBBF
:108DC000020C521C27F81C508242F7D353F824009F
:108DD0004843BDE8F08101E0491EE1D51046F8E7BF
:108DE00054000020B457030810B50B4B0B4C002265
:108DF00053F82030114604EB800005E0046934F894
:108E0000114004B1521C491C8B42F7D864204243E4
:108E1000B2FBF3F0C0B210BDAC5703085400002001
:108E2000002906D0034A02EB80029268891AFFF7F4
:108E300049BF70475400002010B50446FFF78CFF6F
:108E4000411C05D0034901EB84018968084410BD29
:108E5000002010BD5400002004E000BF11F8013BC9
:108E600000F8013B521EF9D27047000002E000BF3B
:108E700000F8011B521EFBD270472DE9F047174640
:108E80000D460446022903D3D4F81402A84202D89E
:108E90000220BDE8F08794F8001207F0FF084FF0B9
:108EA0000109012920D0022950D00329F0D1D4F89A
:108EB000200200EBD5112046FFF7E8FE0028E8D19C
:108EC00040F2FF1101EA85010A194FF07043D2F810
:108ED000011003EA0121394311700B0A53700B0C86
:108EE0009370090ED17041E0D4F8200205EB5506CD
:108EF00000EB56212046FFF7C9FE0028C9D1C6F372
:108F00000800761C2044E90703D0017868F31F119C
:108F100000E03946017084F80492D4F8200200EB96
:108F200056212046FFF7B2FE0028B2D1C6F3080151
:108F30002144EA0702D0C7F3071205E00A78C7F315
:108F4000032302F0F0021A430A700FE0D4F8200263
:108F500000EB15212046FFF799FE002899D1E9B2D0
:108F600004EB41013A0A81F800804A7084F80492C7
:108F70008FE70000F0B5224C0546C168ADF50D7DC8
:108F80000027E6681FA0FDF70BFF012222492348B6
:108F9000FEF72AFF00282FD101226846E968FEF774
:108FA00051FF002828D1839D1DA02946FDF7F8FE1A
:108FB000D4E90310401AA84217D900240FE0214633
:108FC0006846FEF7CFFD6A4601218BA8FEF7A5FD96
:108FD00001228BA93046FFF75DFD641C761CAC4274
:108FE000EDD315A0FDF7DCFE03E01AA0FDF7D8FED7
:108FF00008276846FEF76AFD0DF50D7D3846F0BD81
:109000000000002066696C652072656164696E67A6
:10901000203A2025730D0A00210000209C0000202A
:1090200066696C65206F70656E65642C2073697A63
:10903000653A2025640D0A007265616465642066E6
:10904000696C652C206C6F61646572206973204FB8
:109050004B0D0A0066696C6520636F646520697357
:1090600020746F6F20626967000000002DE9F041F5
:109070000F460646022917D3D6F81402B84213D970
:10908000002523E039463046FFF706FC040021D0D6
:10909000012C09D0601C09D0002239463046FFF768
:1090A000ECFE050016D103E0022513E0012511E0D6
:1090B000D6F81002411C08D0401CC6F8100296F8E1
:1090C000050240F0010086F805022746D6F8140292
:1090D000B842D7D82846BDE8F08100007CB5164CD0
:1090E0000646204623788168456801F1280205F587
:1090F000F070F3B14FF6FF73009393B282B289B26E
:10910000A8B2F9F743F9F1681820CDE900012089E8
:1091100018230A3081B2A0884FF4C8720F3080B291
:10912000FCF7F2FDA0682830A0602078401E207077
:109130007CBD48F23043DFE774000020034908702B
:1091400000204860282088607047000074000020DC
:1091500081760A0AC2760A0C0275090E41757047BB
:10916000014600200B22430803EBC01011F8013B1D
:10917000521E1844C0B2F6D1704770B5044600F0D4
:1091800057F8050052D194F80002032846D194F80C
:109190000502012842D1420200212046FFF76FFD5F
:1091A000552084F8FE01AA2084F8FF015220207087
:1091B00060706120A0704121E170722284F8E42186
:1091C00084F8E52184F8E61184F8E701D4F8100268
:1091D00084F8E801010A84F8E911010C84F8EA1125
:1091E000000E84F8EB01D4F80C0284F8EC01010ABB
:1091F00084F8ED11010C84F8EE11000E84F8EF01F3
:10920000D4F81C220123521CC4F82C2294F8010229
:109210002146FEF74DFC002084F80502002294F858
:1092200001021146FEF71CFC00B10125284670BD65
:109230002DE9F041044690F80402002728B3D4F841
:109240002C5294F8010201232A462146FEF730FCF5
:1092500008B1012719E0002084F80402D4F82002A4
:10926000D4F81812281A88420FD294F803620AE040
:10927000D4F818020123054494F801022A46214635
:10928000FEF716FC761E022EF2D23846BDE8F081BB
:1092900010B588B1D0F8001271B191F800225AB11E
:1092A000B1F80622B0F80402824205D191F8010219
:1092B000FEF7F2FBC00700D0092010BD000000003F
:1092C0000000000001020304060708090000000076
:1092D0000102030401030507090E10121416181CDD
:1092E0001E00000400020001800040002000100069
:1092F0000800040002000000008000400020001070
:109300000008004000200010000800040002A40033
:10931000E8A1A700ECA1A800A7A1B000E3A1B100BB
:10932000C0A1B700A4A1D700C1A1E000A4A8E1009A
:10933000A2A8E800A8A8E900A6A8EA00BAA8EC003C
:10934000ACA8ED00AAA8F200B0A8F300AEA8F70000
:10935000C2A1F900B4A8FA00B2A8FC00B9A80101A2
:10936000A1A81301A5A81B01A7A82B01A9A8440126
:10937000BDA84801BEA84D01ADA86B01B1A8CE01A2
:10938000A3A8D001ABA8D201AFA8D401B3A8D6013D
:10939000B5A8D801B6A8DA01B7A8DC01B8A851026F
:1093A000BBA86102C0A8C702A6A1C902A5A1CA02A2
:1093B00040A8CB0241A8D90242A89103A1A69203DA
:1093C000A2A69303A3A69403A4A69503A5A6960319
:1093D000A6A69703A7A69803A8A69903A9A69A03E9
:1093E000AAA69B03ABA69C03ACA69D03ADA69E03B9
:1093F000AEA69F03AFA6A003B0A6A103B1A6A30388
:10940000B2A6A403B3A6A503B4A6A603B5A6A70354
:10941000B6A6A803B7A6A903B8A6B103C1A6B2030E
:10942000C2A6B303C3A6B403C4A6B503C5A6B603B8
:10943000C6A6B703C7A6B803C8A6B903C9A6BA0388
:10944000CAA6BB03CBA6BC03CCA6BD03CDA6BE0358
:10945000CEA6BF03CFA6C003D0A6C103D1A6C30327
:10946000D2A6C403D3A6C503D4A6C603D5A6C703F4
:10947000D6A6C803D7A6C903D8A60104A7A7100477
:10948000A1A71104A2A71204A3A71304A4A714045C
:10949000A5A71504A6A71604A8A71704A9A718042A
:1094A000AAA71904ABA71A04ACA71B04ADA71C04F8
:1094B000AEA71D04AFA71E04B0A71F04B1A72004C8
:1094C000B2A72104B3A72204B4A72304B5A7240498
:1094D000B6A72504B7A72604B8A72704B9A7280468
:1094E000BAA72904BBA72A04BCA72B04BDA72C0438
:1094F000BEA72D04BFA72E04C0A72F04C1A7300408
:10950000D1A73104D2A73204D3A73304D4A734049B
:10951000D5A73504D6A73604D8A73704D9A7380469
:10952000DAA73904DBA73A04DCA73B04DDA73C0437
:10953000DEA73D04DFA73E04E0A73F04E1A7400407
:10954000E2A74104E3A74204E4A74304E5A74404D7
:10955000E6A74504E7A74604E8A74704E9A74804A7
:10956000EAA74904EBA74A04ECA74B04EDA74C0477
:10957000EEA74D04EFA74E04F0A74F04F1A7510446
:10958000D7A710205CA9132043A81420AAA1152056
:1095900044A81620ACA11820AEA11920AFA11C2010
:1095A000B0A11D20B1A1252045A82620ADA13020C5
:1095B000EBA13220E4A13320E5A1352046A83B20D1
:1095C000F9A1AC2080000321E6A1052147A80921CB
:1095D00048A81621EDA1212159A96021F1A26121FC
:1095E000F2A26221F3A26321F4A26421F5A2652113
:1095F000F6A26621F7A26721F8A26821F9A26921E3
:10960000FAA26A21FBA26B21FCA27021A1A2712106
:10961000A2A27221A3A27321A4A27421A5A27521E2
:10962000A6A27621A7A27721A8A27821A9A27921B2
:10963000AAA29021FBA19121FCA19221FAA1932140
:10964000FDA1962149A897214AA898214BA89921C4
:109650004CA80822CAA10F22C7A11122C6A1152217
:109660004DA81A22CCA11D22D8A11E22DEA11F22A4
:109670004EA82022CFA123224FA82522CEA1272207
:10968000C4A12822C5A12922C9A12A22C8A12B220E
:10969000D2A12E22D3A13422E0A13522DFA136228D
:1096A000C3A13722CBA13D22D7A14822D6A14C226B
:1096B000D5A1522250A86022D9A16122D4A164224E
:1096C000DCA16522DDA1662251A8672252A86E2284
:1096D000DAA16F22DBA1952292A89922D1A1A5221D
:1096E000CDA1BF2253A81223D0A16024D9A2612406
:1096F000DAA26224DBA26324DCA26424DDA2652456
:10970000DEA26624DFA26724E0A26824E1A2692425
:10971000E2A27424C5A27524C6A27624C7A2772427
:10972000C8A27824C9A27924CAA27A24CBA27B2415
:10973000CCA27C24CDA27D24CEA27E24CFA27F24E5
:10974000D0A28024D1A28124D2A28224D3A28324B5
:10975000D4A28424D5A28524D6A28624D7A2872485
:10976000D8A28824B1A28924B2A28A24B3A28B24CD
:10977000B4A28C24B5A28D24B6A28E24B7A28F24C5
:10978000B8A29024B9A29124BAA29224BBA2932495
:10979000BCA29424BDA29524BEA29624BFA2972465
:1097A000C0A29824C1A29924C2A29A24C3A29B2435
:1097B000C4A20025A4A90125A5A90225A6A90325BF
:1097C000A7A90425A8A90525A9A90625AAA90725A9
:1097D000ABA90825ACA90925ADA90A25AEA90B2579
:1097E000AFA90C25B0A90D25B1A90E25B2A90F2549
:1097F000B3A91025B4A91125B5A91225B6A9132519
:10980000B7A91425B8A91525B9A91625BAA91725E8
:10981000BBA91825BCA91925BDA91A25BEA91B25B8
:10982000BFA91C25C0A91D25C1A91E25C2A91F2588
:10983000C3A92025C4A92125C5A92225C6A9232558
:10984000C7A92425C8A92525C9A92625CAA9272528
:10985000CBA92825CCA92925CDA92A25CEA92B25F8
:10986000CFA92C25D0A92D25D1A92E25D2A92F25C8
:10987000D3A93025D4A93125D5A93225D6A9332598
:10988000D7A93425D8A93525D9A93625DAA9372568
:10989000DBA93825DCA93925DDA93A25DEA93B2538
:1098A000DFA93C25E0A93D25E1A93E25E2A93F2508
:1098B000E3A94025E4A94125E5A94225E6A94325D8
:1098C000E7A94425E8A94525E9A94625EAA94725A8
:1098D000EBA94825ECA94925EDA94A25EEA94B2578
:1098E000EFA9502554A8512555A8522556A853250F
:1098F00057A8542558A8552559A856255AA857257C
:109900005BA858255CA859255DA85A255EA85B254B
:109910005FA85C2560A85D2561A85E2562A85F251B
:1099200063A8602564A8612565A8622566A86325EB
:1099300067A8642568A8652569A866256AA86725BB
:109940006BA868256CA869256DA86A256EA86B258B
:109950006FA86C2570A86D2571A86E2572A86F255B
:1099600073A8702574A8712575A8722576A873252B
:1099700077A8812578A8822579A883257AA88425C7
:109980007BA885257CA886257DA887257EA8882597
:1099900080A8892581A88A2582A88B2583A88C2563
:1099A00084A88D2585A88E2586A88F2587A8932530
:1099B00088A8942589A895258AA8A025F6A1A1257F
:1099C000F5A1B225F8A1B325F7A1BC258BA8BD252B
:1099D0008CA8C625F4A1C725F3A1CB25F0A1CE25DF
:1099E000F2A1CF25F1A1E2258DA8E3258EA8E425DB
:1099F0008FA8E52590A80526EFA10626EEA1092649
:109A000091A84026E2A14226E1A10030A1A10130A7
:109A1000A2A10230A3A10330A8A10530A9A106305C
:109A200065A9073096A90830B4A10930B5A10A305C
:109A3000B6A10B30B7A10C30B8A10D30B9A10E30D2
:109A4000BAA10F30BBA11030BEA11130BFA112309E
:109A500093A81330FEA11430B2A11530B3A1163073
:109A6000BCA11730BDA11D3094A81E3095A821308F
:109A700040A9223041A9233042A9243043A92530EE
:109A800044A9263045A9273046A9283047A92930BE
:109A900048A94130A1A44230A2A44330A3A4443039
:109AA000A4A44530A5A44630A6A44730A7A44830B6
:109AB000A8A44930A9A44A30AAA44B30ABA44C3086
:109AC000ACA44D30ADA44E30AEA44F30AFA4503056
:109AD000B0A45130B1A45230B2A45330B3A4543026
:109AE000B4A45530B5A45630B6A45730B7A45830F6
:109AF000B8A45930B9A45A30BAA45B30BBA45C30C6
:109B0000BCA45D30BDA45E30BEA45F30BFA4603095
:109B1000C0A46130C1A46230C2A46330C3A4643065
:109B2000C4A46530C5A46630C6A46730C7A4683035
:109B3000C8A46930C9A46A30CAA46B30CBA46C3005
:109B4000CCA46D30CDA46E30CEA46F30CFA47030D5
:109B5000D0A47130D1A47230D2A47330D3A47430A5
:109B6000D4A47530D5A47630D6A47730D7A4783075
:109B7000D8A47930D9A47A30DAA47B30DBA47C3045
:109B8000DCA47D30DDA47E30DEA47F30DFA4803015
:109B9000E0A48130E1A48230E2A48330E3A48430E5
:109BA000E4A48530E5A48630E6A48730E7A48830B5
:109BB000E8A48930E9A48A30EAA48B30EBA48C3085
:109BC000ECA48D30EDA48E30EEA48F30EFA4903055
:109BD000F0A49130F1A49230F2A49330F3A49B301E
:109BE00061A99C3062A99D3066A99E3067A9A13009
:109BF000A1A5A230A2A5A330A3A5A430A4A5A530F9
:109C0000A5A5A630A6A5A730A7A5A830A8A5A930C8
:109C1000A9A5AA30AAA5AB30ABA5AC30ACA5AD3098
:109C2000ADA5AE30AEA5AF30AFA5B030B0A5B13068
:109C3000B1A5B230B2A5B330B3A5B430B4A5B53038
:109C4000B5A5B630B6A5B730B7A5B830B8A5B93008
:109C5000B9A5BA30BAA5BB30BBA5BC30BCA5BD30D8
:109C6000BDA5BE30BEA5BF30BFA5C030C0A5C130A8
:109C7000C1A5C230C2A5C330C3A5C430C4A5C53078
:109C8000C5A5C630C6A5C730C7A5C830C8A5C93048
:109C9000C9A5CA30CAA5CB30CBA5CC30CCA5CD3018
:109CA000CDA5CE30CEA5CF30CFA5D030D0A5D130E8
:109CB000D1A5D230D2A5D330D3A5D430D4A5D530B8
:109CC000D5A5D630D6A5D730D7A5D830D8A5D93088
:109CD000D9A5DA30DAA5DB30DBA5DC30DCA5DD3058
:109CE000DDA5DE30DEA5DF30DFA5E030E0A5E13028
:109CF000E1A5E230E2A5E330E3A5E430E4A5E530F8
:109D0000E5A5E630E6A5E730E7A5E830E8A5E930C7
:109D1000E9A5EA30EAA5EB30EBA5EC30ECA5ED3097
:109D2000EDA5EE30EEA5EF30EFA5F030F0A5F13067
:109D3000F1A5F230F2A5F330F3A5F430F4A5F53037
:109D4000F5A5F630F6A5FC3060A9FD3063A9FE301C
:109D500064A90531C5A80631C6A80731C7A80831CE
:109D6000C8A80931C9A80A31CAA80B31CBA80C313F
:109D7000CCA80D31CDA80E31CEA80F31CFA810310F
:109D8000D0A81131D1A81231D2A81331D3A81431DF
:109D9000D4A81531D5A81631D6A81731D7A81831AF
:109DA000D8A81931D9A81A31DAA81B31DBA81C317F
:109DB000DCA81D31DDA81E31DEA81F31DFA820314F
:109DC000E0A82131E1A82231E2A82331E3A824311F
:109DD000E4A82531E5A82631E6A82731E7A82831EF
:109DE000E8A82931E9A82032E5A22132E6A22232F0
:109DF000E7A22332E8A22432E9A22532EAA22632DF
:109E0000EBA22732ECA22832EDA22932EEA23132A7
:109E10005AA9A33249A98E334AA98F334BA99C333F
:109E20004CA99D334DA99E334EA9A1334FA9C433EC
:109E300050A9CE3351A9D13352A9D23353A9D53326
:109E400054A9004EBBD2014EA1B6024E4081034E32
:109E5000DFC6044E4181054E4281064E4381074EC6
:109E6000F2CD084EC9D5094EFDC80A4ECFC90B4EDA
:109E7000C2CF0C4EA2D80D4EBBB20E4EEBD30F4E3E
:109E80004481104EA4D8114EF3B3124E4581134EA7
:109E9000A8D7144ED2C7154EA7D8164EC0CA174E13
:109EA0004681184EF0C7194EFBB11A4EB5D21B4E63
:109EB000D4B41C4EABB61D4EBFCB1E4EA9D81F4E00
:109EC0004781204E4881214E4981224EAAB6234E19
:109ED0004A81244EBDC1254ECFD1264E4B81274EFF
:109EE000A5C9284EADD8294E4C812A4EF6B82B4E26
:109EF000BED12C4EDCE32D4ED0D62E4E4D812F4EB2
:109F00004E81304EE1B7314E4F81324EAEB4334EBA
:109F10005081344ED9C1354E5181364EBCD8374E62
:109F20005281384EE8CD394EA4B53A4EAACE3B4EBA
:109F3000F7D63C4E53813D4EF6C03E4ED9BE3F4E05
:109F4000AFD8404E5481414E5581424E5681434ECA
:109F5000CBC4444E5781454EC3BE464E5881474EF2
:109F6000B1D8484EB4C3494EE5D24A4E59814B4E02
:109F7000AED64C4EDACE4D4EA7D54E4EF5BA4F4E1C
:109F8000A6B7504ED6C0514E5A81524EB9C6534E06
:109F9000D2C5544EC7C7554E5B81564ED4B9574EA5
:109FA0005C81584ECBB3594ED2D25A4E5D815B4E36
:109FB0005E815C4EBFD85D4EC5BE5E4EF2C65F4E42
:109FC000B2D2604EB0CF614EE7CF624E5F81634E3A
:109FD0006081644E6181654E6281664EE9CA674E5A
:109FE0006381684E6481694EC0D86A4E65816B4E4C
:109FF00066816C4E67816D4E68816E4E69816F4ED1
:10A000006A81704EF2C2714ED2C2724E6B81734E33
:10A01000E9C8744E6C81754E6D81764E6E81774EB7
:10A020006F81784E7081794E71817A4E72817B4E4C
:10A0300073817C4E74817D4E75817E4EACC77F4EA0
:10A040007681804E7781814E7881824E7981834EF0
:10A050007A81844E7B81854E7C81864ECBC1874E32
:10A060007D81884EE8D3894EF9D58A4E7E818B4E0C
:10A07000C2CA8C4EFEB68D4EA1D88E4EDAD38F4E0C
:10A08000F7BF904E8081914EC6D4924EA5BB934EA1
:10A09000C1D8944EE5CE954EAEBE964E8181974E78
:10A0A0008281984EA8D8994E83819A4EC7D19B4EF3
:10A0B000A9D09C4E84819D4E85819E4E86819F4E67
:10A0C000BDD8A04EEFD9A14EF6CDA24EBABFA34E39
:10A0D0008781A44EBBBDA54EA5BAA64EE0D2A74E21
:10A0E000FAB2A84EE0BAA94EB6C4AA4E8881AB4EC9
:10A0F000EDCFAC4EA9BEAD4EA4CDAE4EC1C1AF4E5C
:10A100008981B04E8A81B14E8B81B24ED7C7B34E92
:10A11000F1D9B44E8C81B54EF4D9B64E8D81B74E7F
:10A120008E81B84E8F81B94E9081BA4ECBC8BB4E4E
:10A13000E9D8BC4E9181BD4E9281BE4E9381BF4EF7
:10A14000DAD2C04EB2CAC14ECAC8C24EECD8C34E53
:10A15000EAD8C44EC6D8C54EF6BDC64ECDC6C74E0B
:10A16000F0B3C84E9481C94EEBD8CA4EF1BDCB4E68
:10A17000E9BDCC4E9581CD4ED4C8CE4ED3B4CF4E92
:10A180009681D04E9781D14ED8C2D24E9881D34E6F
:10A19000D6B2D44ED0D7D54ECBCAD64EFBCBD74EA7
:10A1A000CCD5D84EB6B8D94EC9CFDA4E9981DB4E50
:10A1B0009A81DC4E9B81DD4EDAD9DE4EF0D8DF4E3F
:10A1C000AAC7E04E9C81E14EEED8E24E9D81E34E5F
:10A1D000FAB4E44EEEC1E54ED4D2E64E9E81E74E8F
:10A1E0009F81E84EEDD8E94EA081EA4EC7D2EB4EF2
:10A1F000EFD8EC4EC7C3ED4EA181EE4EA281EF4EDB
:10A20000A381F04EF6D1F14EA481F24ED9D6F34E91
:10A21000F2D8F44EA581F54EF5D8F64EFEBCF74EB9
:10A22000DBBCF84EA681F94EA781FA4EA881FB4E01
:10A23000CEC8FC4EA981FD4EDDB7FE4EAA81FF4E71
:10A24000C2B7004FAB81014FF3C6024FAC81034F41
:10A25000AD81044FAE81054FAF81064FB081074FEE
:10A26000B181084FB281094FF8D80A4FC1D20B4FC4
:10A27000B3810C4FB4810D4FE9CE0E4FBFBC0F4FD1
:10A28000FCB7104FA5B7114FDDD0124FB581134F5A
:10A29000B681144FB781154FB881164FB981174F4A
:10A2A000DAD6184FC5D3194FEFBB1A4FE1BB1B4F7E
:10A2B000F1D81C4FBA811D4FBB811E4FA1C91F4F42
:10A2C000B0CE204FABB4214FBC81224FF3D8234FE7
:10A2D000BD81244FCBC9254FF6D8264FD7C2274F73
:10A2E000F7D8284FBE81294FBF812A4FB1CE2B4FBF
:10A2F000F9D82C4FC0812D4FC1812E4FC2812F4FD5
:10A30000AEB2304FC0B9314FC381324FA3D9334FB2
:10A31000C481344FE9B0354FC581364FE6C1374F60
:10A32000C681384FECC9394FC7813A4FC5CB3B4F37
:10A33000C8813C4FC6CB3D4FA4D93E4FC9813F4F4A
:10A34000CA81404FCB81414FCC81424FCD81434F99
:10A35000E8B5444FCE81454FCF81464FABB5474F0F
:10A36000D081484FD181494FD2814A4FD3814B4F41
:10A37000D4814C4FD5814D4FBBCE4E4FCDB54F4FB5
:10A38000A1D7504FF4D7514FD3D3524FD681534F0B
:10A39000E5CC544FD781554FCEBA564FD881574F41
:10A3A000A2D9584FDCD9594FE0D35A4FFDD85B4F53
:10A3B000F0B75C4FF7D75D4FFED85E4FFAD85F4FCE
:10A3C000A1D9604FE3C4614FD981624FDA81634FF5
:10A3D000B6D3644FF4D8654FDDD9664FDB81674F44
:10A3E000FBD8684FDC81694FE5C56A4FDD816B4F53
:10A3F000DE816C4FD0C06D4FDF816E4FE0816F4FBB
:10A40000F0D1704FDBB0714FE181724FE281734F39
:10A41000D1BC744FA6D9754FE381764FA5D9774F3C
:10A42000E481784FE581794FE6817A4FE7817B4F70
:10A43000ACD97C4FAED97D4FE8817E4FABD97F4FF1
:10A44000B9CA804FE981814FEA81824FEB81834F06
:10A45000A9D9844FB6D6854FEC81864FED81874FC1
:10A46000EE81884FDEB3894FA8D98A4FEF818B4F99
:10A47000FDC08C4FF0818D4FCCCA8E4FF1818F4F34
:10A48000AAD9904FF281914FA7D9924FF381934F60
:10A49000F481944FB0D9954FF581964FF681974F3F
:10A4A000B1B6984FF781994FF8819A4FF9819B4F38
:10A4B000A9B99C4FFA819D4FC0D29E4FFB819F4FFF
:10A4C000FC81A04FC0CFA14FFD81A24FFE81A34FC1
:10A4D000C2C2A44F4082A54FC4BDA64FECD5A74F22
:10A4E000E0B2A84FC8C7A94FEBBFAA4FADD9AB4F39
:10A4F0004182AC4FAFD9AD4F4282AE4FEACEAF4FA3
:10A50000EEBAB04F4382B14F4482B24F4582B34F4F
:10A510004682B44F4782B54FD6C7B64F4882B74F31
:10A520004982B84F4A82B94F4B82BA4F4C82BB4FD7
:10A530004D82BC4F4E82BD4F4F82BE4F5082BF4FA7
:10A54000E3B1C04F5182C14F5282C24F5382C34FB9
:10A55000D9B4C44FEDB6C54FB4D9C64F5482C74F16
:10A560005582C84F5682C94F5782CA4FA1BFCB4FA1
:10A570005882CC4F5982CD4F5A82CE4FDED9CF4F21
:10A58000CEC7D04FFEC0D14FB8D9D24F5B82D34F88
:10A590005C82D44F5D82D54F5E82D64F5F82D74FAB
:10A5A000D7CBD84FFDB7D94F6082DA4FB5D9DB4F43
:10A5B0006182DC4FB7D9DD4FA3B1DE4FE1D3DF4F6E
:10A5C000B9D9E04F6282E14FC5D0E24F6382E34FD9
:10A5D000B6D9E44F6482E54F6582E64FB1D9E74FC3
:10A5E0006682E84FB2D9E94FA9C1EA4FB3D9EB4F20
:10A5F0006782EC4F6882ED4FF3BCEE4FDED0EF4F39
:10A60000A9B8F04F6982F14FE3BEF24F6A82F34F6F
:10A61000BDD9F44F6B82F54F6C82F64F6D82F74FC8
:10A620006E82F84FBAD9F94F6F82FA4FB3B0FB4F31
:10A630007082FC4F7182FD4F7282FE4FC2D9FF4F74
:10A6400073820050748201507582025076820350EA
:10A650007782045078820550798206507A820750BA
:10A660007B8208507C8209507D820A507E820B508A
:10A6700080820C50C4D90D50B6B10E5081820F505B
:10A68000BFD910508282115083821250B9B5135035
:10A6900084821450F3BE155085821650868217505E
:10A6A00087821850C8CC1950F2BA1A50D0D21B5019
:10A6B00088821C50C3D91D5089821E508A821F5027
:10A6C000E8BD20508B822150ABB322508C822350A6
:10A6D0008D8224508E822550C5D92650EBBE27503E
:10A6E0008F822850C6D92950BBD92A50DFC42B509D
:10A6F00090822C50BED92D50C1D92E50C0D92F5088
:10A7000091823050928231509382325094823350F1
:10A7100095823450968235509782365098823750C1
:10A72000998238509A8239509B823A50AED53B502C
:10A730009C823C50B5D63D509D823E50E3C73F5071
:10A740009E8240509F824150A0824250A18243503D
:10A75000C8D94450A2824550A3824650A482475093
:10A76000D9BC4850CAD94950A5824A50A6824B50FC
:10A77000A7824C50BCD94D50A8824E50CBD94F50D7
:10A78000ABC65050A9825150AA825250AB8253504E
:10A79000AC825450AD825550C9D95650AE825750F4
:10A7A000AF825850B0825950B1825A50F6D75B50A0
:10A7B000B2825C50A3CD5D50B3825E50B4825F50D4
:10A7C000B5826050B6826150B7826250B8826350E1
:10A7D000B9826450BA826550A1BD6650BB82675091
:10A7E000BC826850BD826950BE826A50BF826B5085
:10A7F000C0826C50CCD96D50C1826E50C2826F50F5
:10A80000C3827050C4827150C5827250C682735028
:10A81000C7827450C8827550C9827650BCC57750C3
:10A82000B5CD7850CA827950CB827A50CC827B5099
:10A83000CDD97C50CD827D50CE827E50C7D97F50FD
:10A84000A5B38050FEBF8150CF828250D08283500A
:10A85000D1828450D2828550B5B88650D382875039
:10A86000D4828850FCC08950D5828A50D6828B50C1
:10A87000D7828C50D8828D50F8B08E50D9828F50AC
:10A88000DA829050DB829150DC829250DD829350CC
:10A89000DE829450DF829550E0829650E18297509C
:10A8A000E2829850E3829950E4829A50E5829B506C
:10A8B000E6829C50E7829D50E8829E50E9829F503C
:10A8C000EA82A050EB82A150EC82A250ED82A3500C
:10A8D000F6B4A450EE82A550CED9A650EF82A75070
:10A8E000CFD9A850A2B4A950D0D9AA50F082AB5069
:10A8F000F182AC50DFB4AD50F282AE50F382AF5073
:10A90000F482B050F582B150F682B250C1B0B3506B
:10A91000F782B450F882B550F982B650FA82B75037
:10A92000FB82B850FC82B950FD82BA50D1D9BB50DD
:10A93000B5C9BC50FE82BD504083BE504183BF505C
:10A940004283C0504383C1504483C2504583C350A7
:10A950004683C4504783C5504883C6504983C75077
:10A960004A83C8504B83C9504C83CA504D83CB5047
:10A970004E83CC504F83CD505083CE505183CF5017
:10A98000F1CFD0505283D1505383D2505483D350FF
:10A990005583D4505683D5505783D650D2D9D750EB
:10A9A0005883D8505983D9505A83DA50C5C1DB50E7
:10A9B0005B83DC505C83DD505D83DE505E83DF5063
:10A9C0005F83E0506083E1506183E2506283E35033
:10A9D0006383E4506483E5506583E650D6D9E7503D
:10A9E000AEC9E8506683E9506783EA506883EB504C
:10A9F0006983EC50D5D9ED50D4D9EE50D7D9EF506A
:10AA00006A83F0506B83F1506C83F2506D83F35086
:10AA1000DBCBF4506E83F550A9BDF6506F83F75031
:10AA20007083F8507183F9507283FA507383FB502E
:10AA3000A7C6FC507483FD507583FE507683FF508B
:10AA40007783005178830151798302517A830351CE
:10AA50007B8304517C8305517D830651D3D90751F3
:10AA6000D8D908517E83095180830A5181830B51C3
:10AA7000D9D90C5182830D5183830E5184830F5198
:10AA8000858310518683115187831251E5C8135174
:10AA900088831451898315518A8316518B831751EA
:10AAA0008C8318518D8319518E831A518F831B51BA
:10AAB00090831C5191831D5192831E5193831F518A
:10AAC0009483205195832151DCC0225196832351D8
:10AAD0009783245198832551998326519A8327512E
:10AAE0009B8328519C8329519D832A519E832B51FE
:10AAF0009F832C51A0832D51A1832E51A2832F51CE
:10AB0000A3833051A4833151A5833251A68333519D
:10AB1000A7833451A8833551A9833651AA8337516D
:10AB2000AB833851AC833951AD833A51AE833B513D
:10AB3000AF833C51B0833D51B1833E51B2833F510D
:10AB4000F9B64051A3D84151CAD44251B3834351BD
:10AB5000AAD44451D6D04551E4B34651D7D5475134
:10AB6000B4834851C8CF4951E2B94A51B5834B51DA
:10AB7000CBBF4C51B6834D51E2C34E51B7834F51B9
:10AB8000B8835051B9835151D2B65251BA835351FF
:10AB9000BB835451C3CD5551EED95651F0D95751BD
:10ABA000BC835851BD835951BE835A51B3B55B51D3
:10ABB000BF835C51B5B65D51C0835E51C1835F51A7
:10ABC000C2836051C3836151C4836251A4BE635187
:10ABD000C5836451C6836551EBC86651C78367510D
:10ABE000C8836851ABC86951C9836A51CA836B5124
:10ABF000CBB06C51ABB96D51F9C16E51E2D96F5107
:10AC0000CB837051BCC07151B2B97251CC837351B6
:10AC1000D8B97451CBD07551F8B17651E4C677519B
:10AC2000DFBE7851E4B57951C8D77A51CD837B51D5
:10AC3000F8D17C51E6BC7D51DECA7E51CE837F5176
:10AC4000CF838051BDBC8151E6D98251E7D8835171
:10AC5000D0838451D1838551DAC48651D283875100
:10AC6000D3838851D4B88951BDC88A51D4838B51BC
:10AC7000D5838C51E1B28D51D9D48E51D6838F5169
:10AC8000D7839051D8839151D9839251B0C39351B6
:10AC9000DA839451DB839551E1C39651A2DA97513F
:10ACA000DFC89851DC839951B4D09A51DD839B5110
:10ACB000FCBE9C51A9C59D51DE839E51DF839F51EF
:10ACC000E083A051DAB9A151E183A251A3DAA351E3
:10ACD000E283A451A9D4A551A4DAA651E383A751D4
:10ACE000E483A851E583A951E683AA51E783AB51D8
:10ACF000FBD9AC51ACB6AD51E883AE51E983AF514D
:10AD0000EBB7B051F9B1B151FCD9B251E5B3B35180
:10AD1000F6BEB451EA83B551F6BFB651B1D2B751C0
:10AD2000E4C0B851EB83B951EC83BA51ED83BB5108
:10AD3000B3B6BC51FED9BD51FDD9BE51EE83BF5152
:10AD4000EF83C051BBBEC151F083C251F183C351E7
:10AD5000F283C451E0C6C551F383C651BCD7C75175
:10AD6000A1DAC851F483C951B9C1CA51F583CB5195
:10AD7000F2B5CC51E8C1CD51F683CE51F783CF5116
:10AD8000F5BCD051F883D151D5B4D251F983D35108
:10AD9000FA83D451FB83D551FC83D651FD83D7511F
:10ADA000FE83D8514084D9514184DA514284DB5129
:10ADB000DDC1DC514384DD51FDC4DE514484DF51EB
:10ADC0004584E051B8BCE151B2B7E2514684E35149
:10ADD0004784E451EFB7E5514884E6514984E7518F
:10ADE0004A84E8514B84E9514C84EA514D84EB513B
:10ADF000ECD9EC514E84ED51BEC6EE514F84EF516B
:10AE0000ADBFF051CBBBF1515084F2515184F3519D
:10AE1000CAB5F4515284F551C9DBF651D7D0F75178
:10AE20005384F851B9CDF951BCB0FA51F6B3FB5186
:10AE3000F7BBFC51CADBFD51AFBAFE515484FF5140
:10AE4000E4D40052B6B50152F3B50252D6D803523B
:10AE5000D0C804525584055256840652D6B70752BC
:10AE6000D0C70852D7D8095257840A52AFBF0B52E5
:10AE700058840C5259840D52BBDB0E52D8D80F5255
:10AE80005A8410525B841152CCD01252AEBB135272
:10AE90005C8414525D8415525E841652BEEB1752C8
:10AEA000D0C11852F5C11952F2D41A52D5B81B525A
:10AEB000B4B41C525F841D52F5B31E5260841F52FD
:10AEC00061842052BEC9215262842252638423527B
:10AED00064842452D0C52552658426526684275244
:10AEE00067842852D9C52952FBC02A5268842B5244
:10AEF000F0B12C5269842D52D9D82E52CEB92F528E
:10AF00006A843052BDB531526B8432526C843352F4
:10AF1000DAD834526D8435526E843652C6D63752E2
:10AF2000A2CB3852AFC83952B2C93A52CCB43B5214
:10AF3000CCBF3C526F843D52F4B93E5270843F52B4
:10AF4000DBD84052DCD84152E7B64252C1BC435232
:10AF5000EACC4452718445527284465273844752FB
:10AF6000748448527584495276844A52F7CF4B52C2
:10AF700077844C52DDD84D52B0C74E5278844F5230
:10AF800079845052D0B95152A3BD52527A8453524F
:10AF90007B845452DECC55527C845652CAC65752DA
:10AFA0007D8458527E84595280845A5281845B52E7
:10AFB00082845C52E0D85D5283845E52DED85F5258
:10AFC0008484605285846152DFD8625286846352E1
:10AFD0008784645288846552FEB0665289846752C1
:10AFE000E7BE68528A846952A3CA6A52F4BC6B52A3
:10AFF0008B846C528C846D528D846E528E846F5211
:10B00000B1B870528F84715290847252EEB87352FC
:10B0100091847452928475529384765294847752B8
:10B02000958478529684795297847A5298847B5288
:10B0300099847C529A847D52E2D87E529B847F52BE
:10B04000CBBD80529C848152E4D88252E3D8835293
:10B050009D8484529E8485529F848652A084875208
:10B06000A1848852FCC58952A2848A52A3848B523F
:10B07000A4848C52A5848D52A6848E52A7848F52AC
:10B08000A8849052E5D89152A9849252AA849352EE
:10B09000E6D89452AB849552AC849652AD849752C4
:10B0A000AE849852AF849952B0849A52B1849B5224
:10B0B000A6C19C52B2849D52B0C89E52ECB09F5221
:10B0C000A6B9A052D3BCA152F1CEA252BDDBA3526D
:10B0D000D3C1A452B384A552B484A652B584A75256
:10B0E000B684A852AFB6A952FAD6AA52ACC5AB5292
:10B0F000D9BDAC52BEDBAD52BFDBAE52B784AF524E
:10B10000B884B052B984B152F8C0B252A2BEB352A0
:10B11000CDC0B452BA84B552BB84B652BC84B752C7
:10B12000BD84B852BE84B952BF84BA52C084BB52E7
:10B13000C184BC52C284BD52C384BE52C0DBBF5264
:10B14000C6CAC052C484C152C584C252C684C35246
:10B15000AAB2C452C784C552C884C652C984C75251
:10B16000C2D3C852CA84C952E3C3CA52CB84CB5299
:10B17000ABD1CC52CC84CD52CD84CE52CE84CF52E2
:10B18000CF84D052C2DBD152D084D252D5C0D35258
:10B19000D184D452D284D552D384D652C3DBD75271
:10B1A000D484D852B1BFD952D584DA52D684DB5276
:10B1B000D784DC52D884DD52D984DE52DA84DF525F
:10B1C000BCC4E052DB84E152DC84E252DD84E35211
:10B1D000DE84E452DAC7E552DF84E652E084E752C7
:10B1E000E184E852E284E952E384EA52E484EB52D7
:10B1F000E584EC52E684ED52E784EE52E884EF52A7
:10B20000E984F052C4DBF152EA84F252EB84F35247
:10B21000EC84F452ED84F552EE84F652EF84F7524A
:10B22000F084F852F184F952E8D9FA52D7C9FB52A6
:10B23000F284FC52F384FD52F484FE52B4B9FF52FE
:10B24000F0CE0053C8D40153F5840253F68403535F
:10B25000F7840453F8840553FCB00653D2B4075363
:10B26000F9840853D9D00953FA840A53FB840B5349
:10B27000FC840C53FD840D53E9D90E53FE840F5307
:10B28000CBDE1053EBD91153408512534185135334
:10B290004285145343851553B0D81653AFBB17538B
:10B2A000B1B1185344851953D7B31A53CED81B5391
:10B2B00045851C5346851D53D1D41E5347851F53C6
:10B2C00048852053B3BD2153EFBF225349852353F3
:10B2D000BBCF24534A8525534B852653D0D82753BB
:10B2E0004C8528534D8529534E852A53CBB72B5374
:10B2F0004F852C5350852D5351852E53D1D82F5324
:10B3000052853053538531535485325355853353C9
:10B310005685345357853553588536535985375399
:10B320005A8538535B853953A5C63A53F8C73B5302
:10B33000BDD23C535C853D535D853E53D2D83F53CF
:10B34000E4C440535E854153AECA42535F854353C4
:10B35000A7C7445360854553A6D8465361854753D4
:10B36000FDC94853E7CE4953DCBB4A53EBB04B53BE
:10B3700062854C5363854D5364854E53AABB4F532E
:10B38000ADD0505365855153B0B15253E4D75353A8
:10B39000BFD7545366855553A5B55653F4C257537A
:10B3A000CFC458536785595368855A53A9B25B5324
:10B3B00069855C53B7B25D536A855E53E5B15F53EF
:10B3C000B2DF6053BCD56153A8BF6253ACC26353B4
:10B3D000D5D86453B1C265536B856653D4D86753CF
:10B3E000D4CE68536C856953E0DA6A536D856B532C
:10B3F000C0CE6C536E856D536F856E53B4D86F534A
:10B40000AEC37053A1D37153A3CE725370857353DF
:10B41000B4BC7453B4C87553D1C276537185775395
:10B42000EDBE7853B6D0795372857A53E1DA7B5307
:10B4300073857C5374857D5375857E5376857F53E4
:10B44000E4C780537785815378858253A7B38353AC
:10B4500079858453F2B68553FCCC8653FAC0875362
:10B460007A8588537B858953F7C08A537C858B53B3
:10B47000B9D18C53E1D18D53C7D88E537D858F536D
:10B480007E85905380859153818592538285935315
:10B490008385945384859553DEB29653858597535F
:10B4A00086859853E5C0995387859A53F1BA9B5383
:10B4B00088859C5389859D53C8D89E538A859F5300
:10B4C000ADD4A0538B85A1538C85A253E1CFA35358
:10B4D000C9D8A4538D85A553CAD8A653C3CFA753A3
:10B4E0008E85A853F8B3A953C7BEAA538F85AB5313
:10B4F0009085AC539185AD539285AE53CBD8AF5365
:10B500009385B0539485B1539585B2539685B353C3
:10B510009785B4539885B5539985B653CCDBB7530B
:10B520009A85B8539B85B9539C85BA539D85BB5367
:10B53000A5C8BC539E85BD539F85BE53A085BF53F0
:10B54000D8CFC053A185C153FEC8C253CEB2C35396
:10B55000A285C453A385C553A485C653A585C753E7
:10B56000A685C853D6D3C953E6B2CA53B0BCCB5391
:10B57000D1D3CC53ABCBCD53B4B7CE53A785CF5398
:10B58000A885D053A985D153A2B7D253AA85D35346
:10B59000AB85D453E5CAD553AC85D653A1C8D75390
:10B5A000DCCAD853E4B1D953F0D0DA53AD85DB53BC
:10B5B000D1C5DC53AE85DD53AF85DE53B085DF5397
:10B5C000C5DBE053FEB5E153B185E253B285E353E9
:10B5D000DABFE453C5B9E553E4BEE653EDC1E75322
:10B5E000B385E853B6DFE953B5DFEA53BBD6EB5377
:10B5F000D0BDEC53D9D5ED53C8B0EE53A3B6EF533D
:10B60000C9BFF053A8CCF153B3DFF253B7CAF35319
:10B61000D2D3F453B485F553CFD8F653B6D2F753FB
:10B62000C5BAF853BECBF953BECCFA53B585FB531C
:10B63000B7DFFC53F0B5FD53B4DFFE53B685FF53BF
:10B64000B7850054B8850154F5D30254B985035425
:10B65000D4B30454F7B80554BA850654BADF075476
:10B66000BB850854CFBA0954AABC0A54F5B50B548B
:10B67000BC850C54ACCD0D54FBC30E54F3BA0F541F
:10B68000F4C01054C2CD1154F2CF1254B8DF135489
:10B69000C5CF1454BD851554C0C21654B9DF175414
:10B6A000F0C21854BE851954BF851A54C0851B5466
:10B6B000FDBE1C54C1851D54DFC11E54CCCD1F548A
:10B6C000F7D22054CDB72154C1DF2254C285235470
:10B6D000C4DF2454C3852554C4852654F1B72754A8
:10B6E000C9B02854D6B62954D4B72A54C5852B548A
:10B6F000ACBA2C54FDCC2D54D4BF2E54B1CB2F5406
:10B70000F4C63054C6853154A8D63254C5DF3354FC
:10B71000C7853454E2CE3554B3B33654C885375454
:10B72000C9853854FCCE3954B5B43A54CA853B5413
:10B73000C7CE3C54F0BA3D54CB853E54E1CE3F5485
:10B74000CC854054BDD14154CD854254CE8543541F
:10B75000C0DF4454CF854554D0854654F4B4475493
:10B76000D1854854CAB34954D2854A54E6B84B549B
:10B77000BBDF4C54D3854D54D4854E54D5854F549E
:10B78000D6855054C5C45154D7855254BCDF535448
:10B79000BDDF5454BEDF5554BBC55654BFDF5754AC
:10B7A000C2DF5854B1D45954C3DF5A54D8855B54BE
:10B7B000BAC75C54D8CE5D54D9855E54DA855F54DF
:10B7C000DB856054DC856154DD856254D8C46354E4
:10B7D000DE856454CADF6554DF856654CFDF675465
:10B7E000E0856854DCD66954E1856A54E2856B547F
:10B7F000E3856C54E4856D54E5856E54E6856F549D
:10B80000E7857054E8857154C9DF7254DADF7354E8
:10B81000B6CE7454E9857554C7BA7654CEDF7754E2
:10B82000C8DF7854DEC57954EA857A54EB857B54B9
:10B83000EBC97C54F4BA7D54FCC37E54EC857F5430
:10B84000ED858054D7BE8154EE858254C6DF835483
:10B85000EF858454CDDF8554F0858654D8C5875450
:10B86000F1858854F2858954F3858A54F4858B5484
:10B87000A6D58C54CDBA8D54F5858E54CCBE8F543C
:10B88000BDD39054C0B89154F6859254E4D69354E5
:10B89000F7859454C7DF9554BEB99654A7BF975403
:10B8A000F8859854F9859954FCC19A54CBDF9B5480
:10B8B000CCDF9C54FA859D54D0DF9E54FB859F5469
:10B8C000FC85A054FD85A154FE85A2544086A35456
:10B8D000DBDFA454E5DFA5544186A654D7DFA75487
:10B8E000D6DFA854C9D7A954E3DFAA54E4DFAB5488
:10B8F000EBE5AC54A7D2AD54D2DFAE544286AF5480
:10B90000A9BFB0544386B154DBD4B2544486B35477
:10B91000C8BFB454D4DFB5544586B6544686B75430
:10B920004786B854CCCFB9544886BA544986BB54DC
:10B93000DDDFBC544A86BD54CAD1BE544B86BF54C9
:10B94000DEDFC054A7B0C154B7C6C254D3DFC3545E
:10B950004C86C454E5BAC5544D86C654DFB6C754A8
:10B96000DBCDC854FEB9C954D5D4CA544E86CB5485
:10B970004F86CC54DFDFCD54ECCFCE54A5B0CF549E
:10B98000E7DFD054D1DFD154C6D1D254D5DFD35460
:10B99000D8DFD454D9DFD554DCDFD6545086D75401
:10B9A000A9BBD8545186D954E0DFDA54E1DFDB5427
:10B9B0005286DC54E2DFDD54E6DFDE54E8DFDF549C
:10B9C000B4D3E0545386E1545486E2545586E3548C
:10B9D0005686E4545786E554E7B8E654B6C5E754AE
:10B9E000EADFE854DAC9E954A8C1EA54C4C4EB5404
:10B9F0005886EC545986ED54DEBFEE54F8CFEF5420
:10BA00005A86F0545B86F1545C86F254DCD5F354CC
:10BA1000EEDFF4545D86F5545E86F6545F86F75487
:10BA20006086F8546186F9546286FA54B8B2FB54C1
:10BA30006386FC54DFBAFD54ECDFFE546486FF5489
:10BA4000C1DB005565860155E4D102556686035574
:10BA5000678604556886055569860655F4CB0755F3
:10BA6000BDB408556A860955A6B00A556B860B55B4
:10BA70006C860C556D860D556E860E556F860F556E
:10BA8000F1DF1055C6CC1155F2DF125570861355F3
:10BA900071861455EDDF1555728616557386175548
:10BAA000748618557586195576861A5577861B55EE
:10BAB000E9DF1C5578861D5579861E557A861F55F7
:10BAC0007B862055EBDF21557C862255EFDF235501
:10BAD000F0DF2455BDBB25557D8626557E8627552E
:10BAE000F3DF28558086295581862A55F4DF2B55AA
:10BAF00082862C55A3BB2D5583862E55DBCA2F5528
:10BB0000A8CE3055A7E03155AAB3325584863355B7
:10BB1000A6E0345585863555868636558786375551
:10BB2000A1E038558886395589863A558A863B552D
:10BB30008B863C55FEDF3D558C863E55D9CD3F5515
:10BB4000FCDF40558D864155FADF42558E864355C0
:10BB5000D0BF4455C4D745558F864655CCC94755A7
:10BB60009086485591864955F8DF4A55A1B04B5506
:10BB700092864C5593864D5594864E5595864F55D5
:10BB800096865055FDDF51559786525598865355E8
:10BB9000998654559A865555FBDF5655A2E0575560
:10BBA0009B8658559C8659559D865A559E865B5551
:10BBB0009F865C55A8E05D55A0865E55A1865F55C1
:10BBC000A2866055A3866155C8B76255A4866355A1
:10BBD000A5866455A1C66555B6C96655B2C06755F8
:10BBE000F5DF6855A6866955A7866A55BEC56B55AB
:10BBF000A8866C55C4D86D55F9DF6E55F6C46F55DF
:10BC0000A9867055AA867155AB867255AC86735558
:10BC1000AD867455AE867555A3E07655A4E077558C
:10BC2000A5E07855A5D07955AF867A55B0867B5575
:10BC3000B4E07C55E4CC7D55B1867E55B1E07F55AE
:10BC4000B2868055A6BF8155AFE08255B9CE8355E7
:10BC5000ABE08455C6C98555B3868655B4868755ED
:10BC6000AEC08855AEE08955EDBA8A55B0BA8B554D
:10BC7000A9E08C55B5868D55B6868E55B7868F55FD
:10BC8000F6DF9055B8869155B3E09255B986935535
:10BC9000BA869455B8E09555BB869655BC8697559F
:10BCA000BD869855ADB49955B9E09A55BE869B5559
:10BCB000BF869C55B2CF9D55C8BA9E55C0869F552C
:10BCC000B0E0A055C186A155C286A255C386A35532
:10BCD000C486A455C586A555C686A655C786A7554C
:10BCE000FAD0A855C886A955C986AA55CA86AB55A3
:10BCF000CB86AC55CC86AD55CD86AE55CE86AF55F0
:10BD0000CF86B055D086B155ACE0B255D186B3558B
:10BD1000FBD4B455D286B555F7DFB655D386B755A3
:10BD2000E7C5B855D486B955ADE0BA55D586BB55EB
:10BD3000F7D3BC55D686BD55B6E0BE55B7E0BF5566
:10BD4000D786C055D886C155D986C255DA86C3551F
:10BD5000DB86C455C4E0C555E1D0C655DC86C75561
:10BD6000DD86C855DE86C955BCE0CA55DF86CB5591
:10BD7000E086CC55C9E0CD55CAE0CE55E186CF5519
:10BD8000E286D055E386D155BEE0D255AAE0D35520
:10BD9000A4C9D455C1E0D555E486D655B2E0D755EF
:10BDA000E586D855E686D955E786DA55E886DB5527
:10BDB000E986DC55C8CADD55C3E0DE55EA86DF55A5
:10BDC000B5E0E055EB86E155CBCEE255EC86E35588
:10BDD000C3CBE455CDE0E555C6E0E655C2E0E755F6
:10BDE000ED86E855CBE0E955EE86EA55BAE0EB552D
:10BDF000BFE0EC55C0E0ED55EF86EE55F086EF550F
:10BE0000C5E0F055F186F155F286F255C7E0F355DD
:10BE1000C8E0F455F386F555CCE0F655F486F755B1
:10BE2000BBE0F855F586F955F686FA55F786FB55C9
:10BE3000F886FC55F986FD55D4CBFE55D5E0FF5567
:10BE4000FA860056D6E00156D2E00256FB8603562B
:10BE5000FC860456FD860556FE8606564087075624
:10BE600041870856D0E00956CEBC0A5642870B5689
:10BE700043870C56D1E00D5644870E56C2B80F5674
:10BE8000C5D8105645871156468712564787135610
:10BE900048871456498715564A8716564B871756B2
:10BEA0004C871856EAD019564D871A564E871B569E
:10BEB000EFC21C564F871D5650871E56CFE01F56A7
:10BEC000BDE020565187215652872256538723566C
:10BED000D4E02456D3E02556548726565587275656
:10BEE000D7E028565687295657872A5658872B5603
:10BEF00059872C56DCE02D56D8E02E565A872F56FF
:10BF00005B8730565C873156F6D63256B0B333561F
:10BF10005D873456ECD735565E873656BBCB3756E1
:10BF20005F87385660873956DAE03A5661873B5664
:10BF3000FBCE3C5662873D5663873E5664873F562C
:10BF4000D9BA405665874156668742566787435639
:10BF500068874456698745566A8746566B874756B1
:10BF60006C8748566D8749566E874A566F874B5681
:10BF700070874C56E1E04D56DDE04E56ADD24F563F
:10BF8000718750567287515673875256748753562D
:10BF900075875456E2E0555676875656778757563A
:10BFA000DBE05856D9E05956DFE05A5678875B56A1
:10BFB00079875C56E0E05D567A875E567B875F56F0
:10BFC0007C8760567D8761567E876256DEE06356C9
:10BFD00080876456E4E06556818766568287675697
:10BFE00083876856F7C66956ACD86A56EBD46B5649
:10BFF000E6E06C56C9CA6D5684876E5685876F56C3
:10C000008687705687877156E5E072568887735623
:10C01000898774568A8775568B877656C1B8775646
:10C020008C8778568D8779568E877A568F877B5680
:10C03000E7E07C56E8E07D5690877E5691877F56F4
:10C040009287805693878156948782569587835628
:10C050009687845697878556E9E08656E3E08756AB
:10C0600098878856998789569A878A569B878B56D0
:10C070009C878C569D878D569E878E56BFBA8F564D
:10C08000E7CC90569F879156A0879256A1879356EA
:10C09000EAE09456A2879556A3879656A4879756AA
:10C0A000A5879856A6879956A7879A56A8879B561C
:10C0B000A9879C56AA879D56AB879E56AC879F56EC
:10C0C000AD87A056AE87A156AF87A256B087A356BC
:10C0D000F9CFA456B187A556B287A656B387A756FF
:10C0E000B487A856B587A956B687AA56B787AB5660
:10C0F000B887AC56B987AD56BA87AE56BB87AF5630
:10C10000EBE0B056BC87B156BD87B256BE87B3567A
:10C11000BF87B456C087B556C187B656C287B756D3
:10C12000C2C8B856C387B956C487BA56C587BB5666
:10C13000C687BC56C0BDBD56C787BE56C887BF564A
:10C14000C987C056CA87C156CB87C256CC87C3564B
:10C15000CD87C456CE87C556CF87C656D087C7561B
:10C16000D187C856D287C956D387CA56D2C4CB56B0
:10C17000D487CC56D587CD56D687CE56D787CF56BF
:10C18000D887D056D987D156DA87D256DB87D3568F
:10C19000DC87D456ECE0D556DD87D656DE87D756F9
:10C1A000EDE0D856DF87D956E087DA56F4C7DB567C
:10C1B000C4CBDC56E187DD56EEE0DE56D8BBDF5659
:10C1C000B6D8E056F2D2E156EFE0E256C5CDE356DE
:10C1D000E287E456DAB6E556E387E656E487E756A3
:10C1E000E587E856E687E956E787EA56E887EB569B
:10C1F000F1E0EC56E987ED56B0D4EE56EA87EF56FB
:10C20000EB87F056A7C0F156D1B4F256EC87F3563F
:10C21000ED87F456A7CEF556F0E0F656EE87F756C2
:10C22000EF87F856F087F956F2E0FA56CCB9FB568C
:10C23000F187FC56F287FD56FAB9FE56BCCDFF5683
:10C24000F3E00057F3870157F4870257F587035748
:10C25000D4C60457F4E00557F6870657B2D40757FB
:10C26000F7870857A6C80957F6E00A57F5E00B57B5
:10C27000F8870C57F9870D57FA870E57FB870F572A
:10C28000FC871057FD871157FE87125740881357B8
:10C2900041881457428815574388165744881757C2
:10C2A000458818574688195747881A5748881B5792
:10C2B00049881C57F7E01D574A881E574B881F575F
:10C2C000C1CD20574C8821574D8822574E8823577F
:10C2D000A5CA24574F882557508826575188275775
:10C2E00052882857DAD42957D7DB2A57D9DB2B575E
:10C2F00053882C57D8DB2D57E7B92E57DCDB2F5747
:10C30000DDDB3057D8B5315754883257558833570D
:10C31000DADB345756883557578836575888375799
:10C32000598838575A883957DBDB3A57A1B33B57FE
:10C33000DFDB3C575B883D575C883E57F8BB3F5777
:10C340005D884057B7D641575E884257E0DB435778
:10C350005F884457608845576188465762884757C9
:10C36000F9BE48576388495764884A57BBB74B574B
:10C3700065884C57D0DB4D57AECC4E57B2BF4F57A8
:10C38000B5BB5057F8D75157D3BF5257668853574C
:10C390006788545768885557698856576A88575729
:10C3A000E9BF58576B8859576C885A57E1BC5B579F
:10C3B000B3CC5C57DEDB5D57D3B05E57EBCE5F5737
:10C3C000D8B76057B9D76157C2C662576D886357EF
:10C3D0006E886457A4C065576F886657B9CC675795
:10C3E00070886857E7DB6957E1DB6A57BAC66B5755
:10C3F000E3DB6C5771886D57E8DB6E5772886F57B7
:10C40000F7C570577388715774887257758873575A
:10C41000EADB74577688755777887657E9DB775764
:10C42000C0BF78577888795779887A577A887B5748
:10C43000E6DB7C57E5DB7D577B887E577C887F5722
:10C440007D8880577E88815780888257B9B483570A
:10C45000ACC08457A2C28557E2DB8657E4DB87571E
:10C46000818888578288895783888A5784888B5720
:10C47000CDD08C57EDDB8D5785888E5786888F57AA
:10C48000878890578888915789889257DDC093573D
:10C49000F2DB94578A8895578B8896578C889757E4
:10C4A0008D8898578E8899578F889A5790889B5770
:10C4B000E2B69C5791889D5792889E5793889F57C4
:10C4C0009488A057F3DBA157D2DBA257B8B9A35782
:10C4D000ABD4A457ECDBA5579588A657D1BFA75777
:10C4E000F0DBA8579688A957D1DBAA579788AB5796
:10C4F000E6B5AC579888AD57EBDBAE57E5BFAF5705
:10C500009988B0579A88B1579B88B257EEDBB357DA
:10C510009C88B457F1DBB5579D88B6579E88B757AE
:10C520009F88B857F9DBB957A088BA57A188BB577D
:10C53000A288BC57A388BD57A488BE57A588BF57FB
:10C54000A688C057A788C157A888C257A1B9C357A2
:10C55000A3B0C457A988C557AA88C657AB88C75780
:10C56000AC88C857AD88C957AE88CA57AF88CB5773
:10C57000F1C2CC57B088CD57B188CE57C7B3CF578B
:10C58000EFDBD057B288D157B388D257F8DBD357F7
:10C59000B488D457D2C6D557F4DBD657B588D75709
:10C5A000B688D857F5DBD957F7DBDA57F6DBDB5718
:10C5B000B788DC57B888DD57FEDBDE57B988DF5710
:10C5C000F2D3E057BAB2E157BA88E257BB88E357D3
:10C5D000BC88E457FDDBE557BD88E657BE88E757C2
:10C5E000BF88E857C088E957C188EA57C288EB5727
:10C5F000C388EC57C488ED57A4DCEE57C588EF57C5
:10C60000FBDBF057C688F157C788F257C888F35745
:10C61000C988F457FADBF557CA88F657CB88F7571D
:10C62000CC88F857FCDBF957E0C5FA57F9BBFB5744
:10C63000CD88FC57CE88FD57A3DCFE57CF88FF5727
:10C64000D0880058A5DC0158D1880258C3CC0358C3
:10C65000D2880458D3880558D4880658D1B60758CC
:10C66000C0DD0858D5880958D6880A58D7880B588D
:10C67000A1DC0C58D8880D58A2DC0E58D9880F5868
:10C68000DA881058DB881158B5C71258DC8813585F
:10C69000DD881458DE881558E9B61658DF88175813
:10C6A000E0881858E1881958A7DC1A58E2881B5806
:10C6B000E3881C58E4881D58E5881E58A6DC1F58DE
:10C6C000E6882058A9DC2158A4B12258E7882358CD
:10C6D000E8882458CCB52558E9882658EA88275890
:10C6E000EB882858EC882958ED882A58B0BF2B5879
:10C6F000EE882C58EF882D58F0882E58F1882F5846
:10C70000F2883058DFD13158F3883258F4883358E2
:10C71000F5883458F6883558C2B63658F7883758F1
:10C72000F8883858F9883958FA883A58FB883B58BD
:10C73000FC883C58FD883D58FE883E5840893F584B
:10C740004189405842894158438942584489435855
:10C7500045894458A8DC4558468946584789475872
:10C7600048894858498949584A894A584B894B58F9
:10C770004C894C58FACB4D58F3EB4E584D894F58D5
:10C780004E8950584F895158DCCB525850895358D4
:10C7900051895458FECB5558528956585389575889
:10C7A00054895858C1CC595855895A5856895B589C
:10C7B00057895C5858895D5859895E58FBC85F583D
:10C7C0005A8960585B8961585C8962585D896358F1
:10C7D0005E8964585F896558AADC66586089675825
:10C7E000618968586289695863896A5864896B5895
:10C7F000EECC6C58ABDC6D5865896E5866896F5805
:10C800006789705868897158698972586A8973583C
:10C810006B8974586C8975586D8976586E8977580C
:10C820006F8978587089795871897A5872897B58DC
:10C8300073897C5874897D5875897E58D3DB7F58FD
:10C8400076898058AFDC8158ACDC82587789835870
:10C85000B3BE845878898558FBCA86587989875829
:10C860007A8988587B898958ADDC8A587C898B58AD
:10C870007D898C587E898D5880898E5881898F5802
:10C88000828990588389915884899258CAC993584B
:10C89000B9C4945885899558868996588789975838
:10C8A0008889985889899958BDC79A58AEDC9B5891
:10C8B0008A899C588B899D588C899E58F6D49F589C
:10C8C000E6D0A0588D89A1588E89A2588F89A35887
:10C8D0009089A4589189A5589289A6589389A758F8
:10C8E0009489A858ABC4A958D5B6AA589589AB580D
:10C8F0009689AC589789AD589889AE589989AF58A0
:10C900009A89B0589B89B1589C89B2589D89B3586F
:10C910009E89B4589F89B558A089B658A189B7583F
:10C92000A289B858A389B958A489BA58A589BB580F
:10C93000A689BC58D4DBBD58A789BE58A889BF5862
:10C94000A989C058AA89C158DAB1C258AB89C3585D
:10C95000AC89C458AD89C558D5DBC658AE89C7580F
:10C96000AF89C858B089C958B189CA58B289CB585B
:10C97000B389CC58B489CD58B589CE58B689CF582B
:10C98000B789D058B889D158D6DBD258B989D3588D
:10C99000BA89D458BB89D558BEBAD658BC89D7589D
:10C9A000BD89D858BE89D958BF89DA58C089DB58A3
:10C9B000C189DC58C289DD58C389DE58C489DF5873
:10C9C000C589E058C689E158C789E258C889E35843
:10C9D000C989E458C0C8E558CA89E658CB89E758E0
:10C9E000CC89E858CD89E958CE89EA58CF89EB58E7
:10C9F000BFCAEC58C9C8ED58D089EE58B3D7EF5824
:10CA0000D189F058F9C9F158D289F258D389F3582D
:10CA1000C7BFF458D489F558D589F658F8BAF758ED
:10CA2000D689F858D789F958BCD2FA58D889FB5812
:10CA3000D989FC58DA89FD58DB89FE58DC89FF5812
:10CA4000DD890059DE890159DF890259BAE20359AB
:10CA5000E0890459A6B40559E1890659E2890759C4
:10CA6000B8B10859E3890959E4890A59E5890B598C
:10CA7000E6890C59E7890D59B4B80E59E8890F5960
:10CA8000C4CF1059E9891159EA891259EB89135910
:10CA9000EC891459E7D91559A6CF1659E2CD175983
:10CAA000ED891859EE891959EDD91A59E0B61B5973
:10CAB000EF891C59B9D21D59F0891E59F1891F59A6
:10CAC000BBB92059F2892159F3892259F489235994
:10CAD000F5892459B9E22559B7E22659F68927592B
:10CAE000F3B42859F7892959ECCC2A59ABCC2B59E6
:10CAF000F2B72C59F8892D59B2D82E59EBD12F59AC
:10CB0000BBBA3059F9893159A7CA3259FA89335910
:10CB1000FB893459B7CD3559FC893659FD893759C8
:10CB2000C4D23859E4BF3959D0BC3A59E1B63B595F
:10CB3000FE893C59C5DE3D59408A3E59418A3F59DC
:10CB4000428A4059438A4159C6DE4259BCDB4359A7
:10CB5000448A4459D9D14559458A4659468A475944
:10CB6000E6C64859CEC44959EEB74A59478A4B5987
:10CB7000DCB74C59488A4D59498A4E59FCBF4F5928
:10CB8000E0D750594A8A5159F5C652594B8A5359E0
:10CB90004C8A5459BCB15559C8DE5659B1BD575984
:10CBA000D7CC5859CADE59594D8A5A59C9DE5B59F2
:10CBB0004E8A5C594F8A5D59508A5E59518A5F5935
:10CBC000528A6059ECB56159538A6259DDC963597B
:10CBD000548A6459558A6559C2B06659568A67594C
:10CBE000578A6859588A6959598A6A595A8A6B59B1
:10CBF0005B8A6C595C8A6D595D8A6E595E8A6F5981
:10CC00005F8A7059608A7159618A7259628A735950
:10CC1000AEC57459ABC57559638A7659CCC477597A
:10CC2000648A7859E9BC7959FDCB7A59658A7B5970
:10CC3000668A7C59678A7D59C3BA7E59688A7F594A
:10CC4000698A80596A8A8159F9E58259E7C8835906
:10CC5000FAE58459FDCD85596B8A8659B1D7875934
:10CC6000BEB88859E8C289596C8A8A59D1C88B598B
:10CC70006D8A8C596E8A8D59FBE58E596F8A8F5952
:10CC8000708A9059718A9159728A9259CAB6935989
:10CC9000CBBC9459738A9559748A9659FDD197598A
:10CCA000A1E69859758A9959EEC39A59768A9B5983
:10CCB000778A9C59788A9D59798A9E59A4E69F590A
:10CCC0007A8AA0597B8AA1597C8AA2597D8AA35964
:10CCD000FEE5A459A5E6A559D7CDA6597E8AA75940
:10CCE000808AA859C1B7A959FCE5AA59FDE5AB59F5
:10CCF000A3E6AC59818AAD59828AAE59DDC4AF59D9
:10CD0000A8E6B059838AB159848AB259A7E6B359C3
:10CD1000858AB459868AB559878AB659888AB75997
:10CD2000898AB8598A8AB959C3C3BA598B8ABB59F7
:10CD3000DEC6BC598C8ABD598D8ABE59AAE6BF5938
:10CD40008E8AC0598F8AC159908AC259918AC35913
:10CD5000928AC459938AC559948AC659B7C4C75987
:10CD6000958AC859968AC959978ACA59A2E6CB5951
:10CD7000BCCACC59988ACD59998ACE599A8ACF592A
:10CD80009B8AD059E3BDD159C3B9D259A6E6D3592C
:10CD9000D5D0D459AFCED5599C8AD6599D8AD7596A
:10CDA000A9E6D859B0E6D9599E8ADA59A6D2DB59F4
:10CDB0009F8ADC59AABDDD59ADE6DE59A08ADF594C
:10CDC000A18AE059A28AE159A38AE259A48AE359C7
:10CDD000AFE6E459A58AE559D1C0E659A68AE759D4
:10CDE000A78AE859CCD2E959A88AEA59A98AEB5905
:10CDF000AA8AEC59A7BCED59AB8AEE59AC8AEF5917
:10CE0000AD8AF059AE8AF159AF8AF259B08AF35916
:10CE1000B18AF459B28AF559B38AF659B48AF759E6
:10CE2000B58AF859B68AF959B1E6FA59B78AFB5961
:10CE3000F6D2FC59B88AFD59B98AFE59BA8AFF5907
:10CE4000CBD7005ABB8A015AFECD025ABC8A035A7C
:10CE5000DECD045AA6C2055AABE6065AACE6075A1E
:10CE6000BFBD085AAEE6095AB3E60A5ABD8A0B5A44
:10CE7000BE8A0C5AB2E60D5ABF8A0E5AC08A0F5AA1
:10CE8000C18A105AC28A115AB6E6125AC38A135A74
:10CE9000B8E6145AC48A155AC58A165AC68A175A49
:10CEA000C78A185AEFC4195AC88A1A5AC98A1B5A0B
:10CEB000CA8A1C5AC8C41D5ACB8A1E5ACC8A1F5A09
:10CEC000EABE205AEFC9215ACD8A225ACE8A235A65
:10CED000B7E6245ACF8A255AF0B6265AD08A275A5E
:10CEE000D18A285AD28A295AE4C32A5AD38A2B5A79
:10CEF000D48A2C5AD58A2D5AD68A2E5AD78A2F5A96
:10CF0000D88A305AD98A315AE9D3325AB4E6335AD8
:10CF1000DA8A345AB5E6355ADB8A365AA2C8375A05
:10CF2000DC8A385ADD8A395ADE8A3A5ADF8A3B5A15
:10CF3000E08A3C5ABDE63D5AE18A3E5AE28A3F5AAF
:10CF4000E38A405AB9E6415AE48A425AE58A435A8A
:10CF5000E68A445AE78A455AE88A465AC5C6475A75
:10CF6000E98A485AEA8A495AF1CD4A5ABBE64B5AED
:10CF7000EB8A4C5AEC8A4D5AED8A4E5AEE8A4F5A39
:10CF8000EF8A505AF08A515AF18A525AF28A535A09
:10CF9000F38A545AF48A555ABCE6565AF58A575AB7
:10CFA000F68A585AF78A595AF88A5A5AE9BB5B5A8C
:10CFB000F98A5C5AFA8A5D5AFB8A5E5AFC8A5F5A81
:10CFC000FD8A605AFE8A615A408B625ABEE6635AF5
:10CFD000418B645A428B655A438B665A448B675A1D
:10CFE000BAE6685A458B695A468B6A5AB7C06B5A7B
:10CFF000478B6C5A488B6D5A498B6E5A4A8B6F5AC5
:10D000004B8B705A4C8B715A4D8B725A4E8B735A94
:10D010004F8B745AA4D3755ABFE6765AF4C9775A1F
:10D02000C3E6785A508B795A518B7A5AC4E67B5AA8
:10D03000528B7C5A538B7D5A548B7E5A558B7F5A18
:10D04000F6D0805A568B815A578B825A588B835A06
:10D05000598B845A5A8B855A5B8B865A5C8B875ABC
:10D060005D8B885A5E8B895A5F8B8A5A608B8B5A8C
:10D07000618B8C5A628B8D5A638B8E5A648B8F5A5C
:10D08000658B905A668B915A678B925ABDC3935A9F
:10D09000688B945A698B955A6A8B965A6B8B975A00
:10D0A0006C8B985A6D8B995A6E8B9A5AC4C39B5A43
:10D0B000C2E69C5A6F8B9D5A708B9E5A718B9F5AF9
:10D0C000728BA05A738BA15A748BA25A758BA35A78
:10D0D000768BA45A778BA55A788BA65A798BA75A48
:10D0E0007A8BA85A7B8BA95A7C8BAA5AC1E6AB5A79
:10D0F0007D8BAC5A7E8BAD5A808BAE5A818BAF5AEA
:10D10000828BB05A838BB15A848BB25AC7E6B35A1A
:10D11000B1CFB45A858BB55AF4EBB65A868BB75A51
:10D12000878BB85ACAE6B95A888BBA5A898BBB5AC8
:10D130008A8BBC5A8B8BBD5A8C8BBE5AC5E6BF5AA4
:10D140008D8BC05A8E8BC15ADEBCC25AA9C9C35A34
:10D150008F8BC45A908BC55A918BC65A928BC75AE3
:10D16000938BC85A948BC95AB5BCCA5A958BCB5A63
:10D17000968BCC5AD3CFCD5A978BCE5A988BCF5A09
:10D18000998BD05A9A8BD15A9B8BD25AC8E6D35AD4
:10D190009C8BD45AC9E6D55A9D8BD65ACEE6D75A1F
:10D1A0009E8BD85AD0E6D95A9F8BDA5AA08BDB5A7D
:10D1B000A18BDC5AD1E6DD5AA28BDE5AA38BDF5A53
:10D1C000A48BE05ACBE6E15AD5B5E25AA58BE35AD7
:10D1D000CCE6E45AA68BE55AA78BE65ACFE6E75A87
:10D1E000A88BE85AA98BE95ADBC4EA5AAA8BEB5AF6
:10D1F000C6E6EC5AAB8BED5AAC8BEE5AAD8BEF5AC0
:10D20000AE8BF05AAF8BF15ACDE6F25AB08BF35A8F
:10D21000B18BF45AB28BF55AB38BF65AB48BF75ADA
:10D22000B58BF85AB68BF95AB78BFA5AB88BFB5AAA
:10D23000B98BFC5ABA8BFD5ABB8BFE5ABC8BFF5A7A
:10D24000BD8B005BBE8B015BBF8B025BC08B035B46
:10D25000C18B045BC28B055BC38B065BC48B075B16
:10D26000C58B085BC68B095BD2E60A5BC78B0B5B81
:10D27000C88B0C5BC98B0D5BCA8B0E5BCB8B0F5BBA
:10D28000CC8B105BCD8B115BCE8B125BCF8B135B8A
:10D29000D08B145BD18B155BD28B165BD4E6175BFE
:10D2A000D3E6185BD38B195BD48B1A5BD58B1B5BD6
:10D2B000D68B1C5BD78B1D5BD88B1E5BD98B1F5B02
:10D2C000DA8B205BDB8B215BDC8B225BDD8B235BD2
:10D2D000DE8B245BDF8B255BE08B265BE18B275BA2
:10D2E000E28B285BE38B295BE48B2A5BE58B2B5B72
:10D2F000E68B2C5BE78B2D5BE88B2E5BE98B2F5B42
:10D30000EA8B305BEB8B315BEC8B325BD5E6335BCE
:10D31000ED8B345BF8D9355BEE8B365BEF8B375B8F
:10D32000D6E6385BF08B395BF18B3A5BF28B3B5B7B
:10D33000F38B3C5BF48B3D5BF58B3E5BF68B3F5B8D
:10D34000F78B405BD7E6415BF88B425BF98B435B25
:10D35000FA8B445BFB8B455BFC8B465BFD8B475B31
:10D36000FE8B485B408C495B418C4A5B428C4B5B3B
:10D37000438C4C5B448C4D5B458C4E5B468C4F5BC9
:10D38000478C505BD3D7515BDDE6525B488C535BD7
:10D39000DEE6545BD7BF555BD0D4565B498C575BF8
:10D3A000D6D7585BE6B4595BEFCB5A5BDAE65B5BEA
:10D3B000C3D85C5BCED75D5BA2D05E5B4A8C5F5B03
:10D3C000CFC3605B4B8C615B4C8C625BDFE6635B65
:10D3D000BEBC645BC2B9655BDBE6665BA7D1675B1D
:10D3E0004D8C685B4E8C695BA2BA6A5BCFC26B5B8B
:10D3F0004F8C6C5BABD86D5B508C6E5B518C6F5BF4
:10D40000528C705BEBCA715BEEE5725B538C735BA5
:10D41000DCE6745B548C755BF5B7765B558C775B9B
:10D42000568C785B578C795B588C7A5BE6C87B5B53
:10D43000598C7C5B5A8C7D5BF5C47E5B5B8C7F5B1F
:10D440005C8C805BB2E5815BFEC4825B5D8C835B40
:10D45000FCCB845BB3E5855BACD5865B5E8C875B80
:10D46000EED3885BD8CA895BB2B08A5B5F8C8B5B7A
:10D47000CECB8C5BEACD8D5B608C8E5B618C8F5BE1
:10D48000EABA905B628C915B638C925B648C935B79
:10D49000B5E5945B658C955BB4E5965B668C975BB4
:10D4A000DAD7985BD9B9995BE6D69A5BA8B69B5B4D
:10D4B000F0CD9C5BCBD29D5BA6B19E5BB5CA9F5B5A
:10D4C000678CA05BE8B3A15BF3C9A25BCDBFA35B94
:10D4D000FBD0A45BD2CAA55BB6E5A65BC2BBA75BCB
:10D4E000688CA85B698CA95B6A8CAA5BDCCFAB5BA0
:10D4F000ACB9AC5B6B8CAD5B6C8CAE5B6D8CAF5BBD
:10D500006E8CB05BD7D4B15B6F8CB25B708CB35B4D
:10D51000A6BAB45BE7D1B55BFCCFB65BD2BCB75B58
:10D52000718CB85BB7E5B95BDDC8BA5B728CBB5B6D
:10D53000738CBC5B748CBD5BEDBFBE5BF6B1BF5B37
:10D54000DECBC05B758CC15B768CC25BC5BCC35B3C
:10D55000778CC45BC4BCC55BFAD2C65BDCC3C75B5B
:10D56000DCBFC85B788CC95B798CCA5B7A8CCB5B7F
:10D570007B8CCC5BBBB8CD5B7C8CCE5B7D8CCF5B7E
:10D580007E8CD05BC2C3D15B808CD25BAEBAD35BE6
:10D59000A2D4D45B818CD55B828CD65B838CD75B29
:10D5A000848CD85B858CD95B868CDA5B878CDB5B63
:10D5B000888CDC5B898CDD5BDEC7DE5BAFC4DF5B48
:10D5C000ECB2E05B8A8CE15BD1B9E25B8B8CE35B14
:10D5D0008C8CE45BBBE5E55BC8C1E65B8D8CE75BEF
:10D5E0008E8CE85BAFD5E95B8F8CEA5B908CEB5B54
:10D5F000918CEC5B928CED5B938CEE5BBCE5EF5B0E
:10D60000948CF05BBEE5F15B958CF25B968CF35BE2
:10D61000978CF45B988CF55B998CF65B9A8CF75B36
:10D620009B8CF85BE7B4F95BD4B6FA5BC2CBFB5BCF
:10D63000B0D1FC5BBCB5FD5B9C8CFE5B9D8CFF5B45
:10D64000D9CA005C9E8C015CE2B7025C9F8C035CD3
:10D65000A08C045CE4C9055CA18C065CABBD075CD6
:10D66000A28C085CA38C095CBECE0A5CF0D70B5C74
:10D67000A48C0C5CA58C0D5CA68C0E5CA78C0F5C3E
:10D68000A1D0105CA88C115CD9C9125CA98C135C68
:10D69000AA8C145CFBB6155CD8E6165CE2BC175C81
:10D6A000AB8C185CBEB3195CAC8C1A5CD0C91B5C2B
:10D6B000AD8C1C5CD9E61D5CA2B31E5CAE8C1F5CFD
:10D6C000AF8C205CB08C215CB18C225CCCDE235C06
:10D6D000B28C245CC8D3255CCDDE265CB38C275C81
:10D6E000A2D2285CB48C295CB58C2A5CB68C2B5CED
:10D6F000B78C2C5CCEDE2D5CB88C2E5CB98C2F5C8C
:10D70000BA8C305CBB8C315CCDBE325CBC8C335C83
:10D71000BD8C345CCFDE355CBE8C365CBF8C375C38
:10D72000C08C385CACCA395CFCD23A5CDFB33B5C81
:10D73000EAE53C5CE1C43D5CA1BE3E5CB2CE3F5C30
:10D74000F2C4405CD6BE415CA8C6425CE3B2435C16
:10D75000C18C445CC28C455CD3BE465CC38C475CC8
:10D76000C48C485CFCC7495CEBCC4A5CECBD4B5CB0
:10D77000DDCE4C5CC58C4D5CC68C4E5CBACA4F5C31
:10D78000C1C6505CECE5515CBCD0525CC78C535CAC
:10D79000C88C545CC98C555CB9D5565CCA8C575C36
:10D7A000CB8C585CCC8C595CEDE55A5CCD8C5B5CC9
:10D7B000CE8C5C5CCF8C5D5CD08C5E5CF4CA5F5CB4
:10D7C000D18C605CC0CD615CC5C2625CD28C635C94
:10D7D000EFE5645CD38C655CC4C2665CF0E5675CB5
:10D7E000D48C685CD58C695CD68C6A5CD78C6B5C9D
:10D7F000D88C6C5CD98C6D5CDA8C6E5CF8E56F5CF7
:10D80000CDCD705CDB8C715CBDC9725CDC8C735CF3
:10D81000DD8C745CDE8C755CDF8C765CE08C775C18
:10D82000E18C785CE28C795CD9D27A5CA8E17B5C93
:10D83000E38C7C5CE48C7D5CE58C7E5CE68C7F5CC0
:10D84000ECD3805CE78C815CEACB825CF1C6835CC4
:10D85000E88C845CE98C855CEA8C865CEB8C875C6C
:10D86000EC8C885CACE1895CED8C8A5CEE8C8B5C2A
:10D87000EF8C8C5CA7E18D5CA9E18E5CF08C8F5CF9
:10D88000F18C905CAAE1915CAFE1925CF28C935CCC
:10D89000F38C945CEDB2955CF48C965CABE1975C98
:10D8A000DAB8985CADE1995CAEE19A5CB0E19B5C62
:10D8B000BAB59C5CB1E19D5CF58C9E5CF68C9F5C7E
:10D8C000F78CA05CF88CA15CF98CA25CB3E1A35C42
:10D8D000B8E1A45CFA8CA55CFB8CA65CFC8CA75C14
:10D8E000FD8CA85CFE8CA95CD2D1AA5C408DAB5C9F
:10D8F000B6E1AC5CB5E1AD5CEBC1AE5C418DAF5C5B
:10D90000428DB05C438DB15CB7E1B25C448DB35CD9
:10D91000C0D4B45C458DB55CB2E1B65C468DB75CF5
:10D92000BAE1B85CB6B0B95C478DBA5C488DBB5CF7
:10D93000498DBC5C4A8DBD5CB4E1BE5C4B8DBF5C67
:10D94000F9BFC05C4C8DC15CB9E1C25C4D8DC35C5C
:10D950004E8DC45CBBE1C55C4F8DC65C508DC75C11
:10D96000518DC85C528DC95C538DCA5C548DCB5CA3
:10D97000BEE1CC5C558DCD5C568DCE5C578DCF5CB9
:10D98000588DD05C598DD15C5A8DD25CBCE1D35C92
:10D990005B8DD45C5C8DD55C5D8DD65C5E8DD75C1B
:10D9A0005F8DD85C608DD95CC5D6DA5C618DDB5C3F
:10D9B000628DDC5C638DDD5C648DDE5C658DDF5CBF
:10D9C000668DE05C678DE15CBFCFE25C688DE35CF7
:10D9D000698DE45CBDE1E55CBFE1E65CCDC2E75C7E
:10D9E0006A8DE85CEBB6E95C6B8DEA5CF8D3EB5CC6
:10D9F0006C8DEC5C6D8DED5CCDC7EE5C6E8DEF5C7F
:10DA00006F8DF05CE5B7F15C708DF25C718DF35C4D
:10DA1000728DF45C738DF55C748DF65C758DF75CBE
:10DA2000768DF85C778DF95C788DFA5C798DFB5C8E
:10DA3000FEBEFC5C7A8DFD5C7B8DFE5C7C8DFF5CAC
:10DA40007D8D005D7E8D015D808D025DC0E1035D99
:10DA5000C1E1045D818D055D828D065DC7E1075DD5
:10DA6000E7B3085D838D095D848D0A5D858D0B5D4F
:10DA7000868D0C5D878D0D5D888D0E5DE9C60F5D11
:10DA8000898D105D8A8D115D8B8D125D8C8D135D7E
:10DA90008D8D145DDEB4155D8E8D165DC2D1175D62
:10DAA0008F8D185D908D195D918D1A5D928D1B5D26
:10DAB000C8E11C5D938D1D5D948D1E5DC6E11F5DEB
:10DAC000958D205D968D215D978D225D988D235DCE
:10DAD000998D245DC5E1255D9A8D265DC3E1275DA5
:10DAE000C2E1285D9B8D295DC0B12A5D9C8D2B5DB7
:10DAF0009D8D2C5D9E8D2D5DB8D52E5DC4E12F5D75
:10DB00009F8D305DA08D315DA18D325DA28D335D25
:10DB1000A38D345DCBE1355DA48D365DA58D375D7C
:10DB2000A68D385DA78D395DA88D3A5DA98D3B5DC9
:10DB3000AA8D3C5DAB8D3D5DCCE13E5DCAE13F5DB4
:10DB4000AC8D405DAD8D415DAE8D425DAF8D435D71
:10DB5000B08D445DB18D455DB28D465DB38D475D41
:10DB6000FAEF485DB48D495DB58D4A5DD3E14B5DFB
:10DB7000D2E14C5DB6C74D5DB68D4E5DB78D4F5D44
:10DB8000B88D505DB98D515DBA8D525DBB8D535DC1
:10DB9000BC8D545DBD8D555DBE8D565DBF8D575D91
:10DBA000C08D585DC9E1595DC18D5A5DC28D5B5D07
:10DBB000CEE15C5DC38D5D5DD0E15E5DC48D5F5D7A
:10DBC000C58D605DC68D615DC78D625DC88D635D0D
:10DBD000C98D645DCA8D655DCB8D665DCC8D675DDD
:10DBE000CD8D685DCE8D695DD4E16A5DCF8D6B5D55
:10DBF000D1E16C5DCDE16D5DD08D6E5DD18D6F5DE0
:10DC0000CFE1705DD28D715DD38D725DD48D735D0A
:10DC1000D58D745DD5E1755DD68D765DD78D775DDB
:10DC2000D88D785DD98D795DDA8D7A5DDB8D7B5D00
:10DC3000DC8D7C5DDD8D7D5DDE8D7E5DDF8D7F5DD0
:10DC4000E08D805DE18D815DE28D825DD6E1835D59
:10DC5000E38D845DE48D855DE58D865DE68D875D74
:10DC6000E78D885DE88D895DE98D8A5DEA8D8B5D44
:10DC7000EB8D8C5DEC8D8D5DED8D8E5DEE8D8F5D14
:10DC8000EF8D905DF08D915DF18D925DF28D935DE4
:10DC9000F38D945DF48D955DF58D965DF68D975DB4
:10DCA000F78D985DF88D995DD7E19A5DF98D9B5D53
:10DCB000FA8D9C5DFB8D9D5DD8E19E5DFC8D9F5D29
:10DCC000FD8DA05DFE8DA15D408EA25D418EA35DA8
:10DCD000428EA45D438EA55D448EA65D458EA75DF4
:10DCE000468EA85D478EA95D488EAA5D498EAB5DC4
:10DCF0004A8EAC5D4B8EAD5D4C8EAE5D4D8EAF5D94
:10DD00004E8EB05D4F8EB15D508EB25D518EB35D63
:10DD1000528EB45D538EB55D548EB65D558EB75D33
:10DD2000DAE1B85D568EB95D578EBA5D588EBB5D2F
:10DD3000598EBC5D5A8EBD5D5B8EBE5D5C8EBF5DD7
:10DD40005D8EC05D5E8EC15D5F8EC25D608EC35DA7
:10DD5000618EC45D628EC55DDBE1C65D638EC75DAD
:10DD6000648EC85D658EC95D668ECA5D678ECB5D4B
:10DD7000688ECC5D698ECD5DA1CECE5D6A8ECF5DA5
:10DD80006B8ED05D6C8ED15D6D8ED25D6E8ED35DEF
:10DD90006F8ED45D708ED55D718ED65D728ED75DBF
:10DDA000738ED85D748ED95D758EDA5D768EDB5D8F
:10DDB000DDE7DC5D778EDD5DA8B4DE5DDDD6DF5DA1
:10DDC000788EE05D798EE15DB2D1E25DB2B3E35D64
:10DDD0007A8EE45D7B8EE55DA4B9E65DF3D7E75D01
:10DDE000C9C7E85DDEBEE95DAEB9EA5D7C8EEB5D7C
:10DDF000D7CEEC5D7D8EED5D7E8EEE5DEEB2EF5D9D
:10DE0000CFDBF05D808EF15DBABCF25DD1D2F35D07
:10DE1000C8CBF45DCDB0F55D818EF65D828EF75D89
:10DE2000EFCFF85D838EF95D848EFA5D858EFB5DA4
:10DE3000868EFC5D878EFD5DE3D9FE5DEDBDFF5DE9
:10DE4000888E005E898E015ED2B1025ED0CA035E0A
:10DE5000BCB2045E8A8E055EA7CB065EABB7075EDA
:10DE60008B8E085EA6CA095E8C8E0A5E8D8E0B5E56
:10DE70008E8E0C5EA3CF0D5E8F8E0E5E908E0F5E2B
:10DE8000F8E0105ECAD5115EFBE0125E918E135E63
:10DE9000928E145EFAE0155EC1C5165EFBCC175E6D
:10DEA000938E185EB1C1195EF9E01A5EE3D61B5E6F
:10DEB000AFB21C5EC4D61D5EDBB51E5E948E1F5EC7
:10DEC000958E205E968E215E978E225E988E235EC2
:10DED000998E245E9A8E255E9B8E265EF8B4275E10
:10DEE000A1D6285E9C8E295E9D8E2A5E9E8E2B5E1C
:10DEF0009F8E2C5EA08E2D5EAFCF2E5EEFB02F5E7C
:10DF0000A18E305EA28E315EFCE0325EA38E335E67
:10DF1000A48E345EA58E355EA68E365EA78E375EE5
:10DF2000A1E1385EA3B3395EA88E3A5EA98E3B5E4E
:10DF3000FDE03C5EFEE03D5EB1C33E5EAA8E3F5E0C
:10DF4000AB8E405EAC8E415EAD8E425EDDC3435E05
:10DF5000AE8E445EA2E1455EF9B7465EAF8E475E87
:10DF6000B08E485EB18E495EB28E4A5EB38E4B5E15
:10DF7000B48E4C5ECFBB4D5EB58E4E5EB68E4F5EA0
:10DF8000B78E505EB88E515EB98E525EBA8E535EB9
:10DF9000BB8E545EA3E1555EBBC4565EBC8E575E1D
:10DFA000BD8E585EBE8E595EBF8E5A5EC08E5B5E61
:10DFB000A4E15C5EC18E5D5EC28E5E5EA5E15F5EC9
:10DFC000C38E605EC48E615EA6E1625EB1B4635EC4
:10DFD000C58E645EC68E655EC78E665EC88E675EE1
:10DFE000C98E685ECA8E695ECB8E6A5ECC8E6B5EB1
:10DFF000CD8E6C5ECE8E6D5ECF8E6E5ED08E6F5E81
:10E00000D18E705ED28E715ED38E725EC9B8735E31
:10E01000BDC6745EEAC4755ED48E765EA2B2775ECB
:10E02000D58E785ED2D0795ED68E7A5EDBE77B5E67
:10E03000C3BB7C5ED7D37D5EC4D37E5ED78E7F5E4E
:10E04000E3B9805ECFE2815ED88E825ED98E835E38
:10E05000DA8E845EAFD7855EDB8E865EECC7875E28
:10E06000D3B1885EDC8E895EDD8E8A5EB2B48B5E53
:10E07000D1E28C5EDE8E8D5EDF8E8E5EE08E8F5EF8
:10E08000F2D0905EAEC2915ED0E2925EE18E935E7F
:10E09000E2BF945EA6D3955ED7B5965ED2E2975E58
:10E0A000EAB5985EE28E995EEDC39A5EFDB89B5E1E
:10E0B000E38E9C5EAEB89D5EE48E9E5ED3C59F5E91
:10E0C000CFB7A05ED4E2A15EE58EA25EE68EA35E2F
:10E0D000E78EA45EE88EA55ED3E2A65EC8B6A75E14
:10E0E000F9D7A85EE98EA95EEA8EAA5EEB8EAB5EDA
:10E0F000EC8EAC5EED8EAD5EA5CDAE5EEE8EAF5E0F
:10E10000EF8EB05EF08EB15EF18EB25EF28EB35ED7
:10E11000D8E2B45EF38EB55ED6E2B65EFCCAB75EF8
:10E12000B5BFB85EB9D3B95ED5E2BA5EF48EBB5E58
:10E13000F58EBC5EF68EBD5EF78EBE5ED7E2BF5E2C
:10E14000F88EC05EF98EC15EFA8EC25EFB8EC35E33
:10E15000FC8EC45EFD8EC55EFE8EC65E408FC75EC1
:10E16000418FC85E428FC95EAEC1CA5EC8C0CB5E79
:10E17000438FCC5E448FCD5E458FCE5E468FCF5EA3
:10E18000478FD05E488FD15EDBE2D25EDAE2D35EAB
:10E19000AAC0D45E498FD55E4A8FD65ECEC1D75E07
:10E1A0004B8FD85E4C8FD95E4D8FDA5E4E8FDB5E23
:10E1B000DCE2DC5E4F8FDD5E508FDE5E518FDF5E16
:10E1C000528FE05E538FE15E548FE25E558FE35EC7
:10E1D000568FE45E578FE55E588FE65E598FE75E97
:10E1E0005A8FE85EDDE2E95E5B8FEA5EDEE2EB5EBF
:10E1F0005C8FEC5E5D8FED5E5E8FEE5E5F8FEF5E3F
:10E20000608FF05E618FF15E628FF25E638FF35E0E
:10E21000648FF45EC8DBF55E658FF65ED3D1F75E82
:10E22000A2CDF85E668FF95E678FFA5EA8BDFB5ED1
:10E23000688FFC5E698FFD5E6A8FFE5EC3DEFF5EE7
:10E24000A5D8005FAABF015FCDDB025FECD2035F00
:10E25000FAC6045FAAC5055F6B8F065F6C8F075F08
:10E260006D8F085FC4DE095F6E8F0A5FD7B10B5FE9
:10E27000AEDF0C5F6F8F0D5F708F0E5F718F0F5F62
:10E28000BDCA105F728F115FB1DF125F738F135FB2
:10E29000ADB9145F748F155FFDD2165F758F175F70
:10E2A000A5B8185FEBBA195F768F1A5F778F1B5F7F
:10E2B000DAB31C5F788F1D5F798F1E5F7A8F1F5FC7
:10E2C000DCB5205FC5D5215F7B8F225F7C8F235F0C
:10E2D0007D8F245F7E8F255FD6C3265FD2CF275FD9
:10E2E000A1BB285F808F295FF3E52A5FF2E52B5FF2
:10E2F000818F2C5F828F2D5FF4E52E5F838F2F5FE0
:10E30000E4CD305F848F315FF5C8325F858F335F36
:10E31000868F345F878F355F888F365F898F375F51
:10E320008A8F385F8B8F395FAFB53A5FBFC73B5F6E
:10E330008C8F3C5FF6E53D5F8D8F3E5F8E8F3F5F3C
:10E340008F8F405FB0EC415F908F425F918F435F52
:10E35000928F445F938F455F948F465F958F475FA1
:10E36000968F485F978F495F988F4A5F998F4B5F71
:10E370009A8F4C5F9B8F4D5F9C8F4E5F9D8F4F5F41
:10E380009E8F505FE6E5515F9F8F525FE9B9535F03
:10E39000B1B5545FA08F555FBCC2565FE8E5575FCB
:10E3A000E7E5585FE9E5595FA18F5A5FA28F5B5F90
:10E3B000A38F5C5FA48F5D5FCDD25E5FA58F5F5F33
:10E3C000A68F605FA78F615FEAE1625FCED0635F77
:10E3D000A88F645FAECD655FA98F665FE5D1675F8B
:10E3E000AA8F685FAB8F695FCAB26A5FEBB16B5F80
:10E3F000AC8F6C5FF2B16D5FEDC56E5FAD8F6F5F1F
:10E40000AE8F705FC3D5715FB0D3725FAF8F735F34
:10E41000DCE1745FB08F755FB18F765FB28F775F2D
:10E42000DDE1785FB38F795FDBD27A5FB48F7B5F9A
:10E43000B9B37C5FCBB17D5FB58F7E5FB68F7F5FF9
:10E44000B78F805FF9CD815FF7D5825FDEE1835FB3
:10E45000B88F845FB6BE855FFDB4865FB98F875F76
:10E46000DFE1885FDCBA895FE0E18A5FB2BB8B5F86
:10E47000C9C28C5FE1E18D5FBA8F8E5FBB8F8F5F0A
:10E48000BC8F905FECD0915FBD8F925FBDCD935FED
:10E49000BE8F945FBF8F955FE2E1965FC08F975FFD
:10E4A000C3B5985FC7C5995FE3E19A5FC18F9B5F72
:10E4B000C28F9C5FE4E19D5FC38F9E5FC48F9F5FAF
:10E4C000C58FA05FC68FA15FF9D3A25FC78FA35F7F
:10E4D000C88FA45FC98FA55FCA8FA65FCB8FA75FC8
:10E4E000CC8FA85FE5E1A95FCD8FAA5FADD1AB5F0F
:10E4F000CE8FAC5FCF8FAD5FE6E1AE5FA2CEAF5FF8
:10E50000D08FB05FD18FB15FD28FB25FD38FB35F47
:10E51000D48FB45FD58FB55FE7E1B65FD68FB75FB5
:10E52000C2B5B85FD78FB95FD88FBA5FD98FBB5FDD
:10E53000DA8FBC5FE8E1BD5FD5BBBE5FDB8FBF5F3D
:10E54000DC8FC05FDD8FC15FDE8FC25FDF8FC35F97
:10E55000C4D0C45FE0E2C55FD8B1C65FE4D2C75F94
:10E56000E08FC85FE18FC95FE1E2CA5FE28FCB5FF6
:10E57000E38FCC5FC9BCCD5FCCC8CE5FE48FCF5FEB
:10E58000E3E2D05FFEECD15FFDECD25FAFDFD35FA3
:10E59000E58FD45FE68FD55FE78FD65FE2E2D75F86
:10E5A000BED6D85FFCCDD95FA6C3DA5FE88FDB5F4C
:10E5B000E98FDC5FEA8FDD5FC3E3DE5FEB8FDF5F58
:10E5C000EC8FE05FD2D6E15FE7E2E25FED8FE35FE1
:10E5D000EE8FE45FE8E2E55FEF8FE65FF08FE75FE5
:10E5E000C7D3E85FF18FE95FF28FEA5FECE2EB5FA0
:10E5F000ECBFEC5FF38FED5FEDE2EE5FE5E2EF5F26
:10E60000F48FF05FF58FF15FC0B3F25FF68FF35FC9
:10E61000F78FF45FF88FF55FEEC4F65FF98FF75F61
:10E62000FA8FF85FEEE2F95FFB8FFA5FFC8FFB5F1A
:10E63000C3D0FC5FFD8FFD5FF6BAFE5FE9E2FF5FCE
:10E64000DEB70060B3BB0160ACCC0260CBCB036033
:10E65000E4E20460E6E20560EAE20660EBE20760FD
:10E66000FE8F08604090096041900A60F7E20B60FD
:10E6700042900C6043900D60F4E20E60F5D40F60A0
:10E68000F3E210604490116045901260ADC51360D4
:10E6900046901460FAD51560C2C51660C0B2176006
:10E6A0004790186048901960EFE21A6049901B602B
:10E6B000F2E21C60AFC11D60BCCB1E604A901F60BF
:10E6C0004B902060A1B52160F9E222604C9023605C
:10E6D0004D9024604E902560B1BC2660F1E2276029
:10E6E000D4D02860B9D42960F5E22A60D6B92B606D
:10E6F000F6E22C604F902D6050902E6051902F606C
:10E70000D3C7306052903160539032605490336080
:10E710005590346056903560F0E23660579037601F
:10E7200058903860599039605A903A605B903B60DD
:10E73000DCD73C60A1ED3D605C903E605D903F6049
:10E74000F8E240605E904160A5ED4260FEE2436009
:10E75000D1CA44605F9045606090466061904760B8
:10E76000629048606390496064904A6065904B6035
:10E77000B5C14C6066904D60D0BB4E6067904F60F5
:10E7800068905060D6BF516069905260E3BA5360A0
:10E790006A9054606B905560A1CB56606C90576046
:10E7A0006D9058606E905960A6ED5A60A3ED5B6065
:10E7B0006F905C6070905D60A2ED5E6071905F60D4
:10E7C000729060607390616074906260D6BB6360A9
:10E7D000A7ED6460F4D065607590666076906760C0
:10E7E000A4ED6860DEBA6960F7B66A60A1E36B60A9
:10E7F000B2B66C60F1CC6D60A7B96E6077906F6057
:10E80000A2CF7060A1C771607890726079907360D8
:10E81000D2BF74607A9075607B907660F1B6776055
:10E820007C907860FAE27960FBE27A60FDE27B60DE
:10E83000FCE27C60D5C47D60A2E37E607D907F6059
:10E84000C1D380607E90816080908260819083607F
:10E85000A7E38460C4C785608290866083908760E8
:10E860008490886085908960A4CF8A6086908B6050
:10E8700087908C60A9E38D60B7BA8E6088908F60B6
:10E88000899090608A9091608B909260A8E39360E9
:10E890008C909460DABB95608D909660A3E397604E
:10E8A0008E9098608F90996090909A60A4E39B609E
:10E8B000AAE39C6091909D60A6E39E6092909F6009
:10E8C000F2CEA060C6D3A1609390A2609490A360A2
:10E8D000BCBBA4609590A5609690A660C3D4A760C9
:10E8E0009790A860FAC4A9609890AA609990AB60CC
:10E8F000A8EDAC60FCD0AD60A5E3AE609A90AF60CF
:10E90000F5C3B0609B90B160ADE3B260AFB1B360EE
:10E910009C90B460B2E3B5609D90B6609E90B76085
:10E920009F90B860C2BCB960A090BA60A190BB6073
:10E93000ACE3BC60BFB5BD60A290BE60A390BF60F9
:10E94000A490C060A590C160A690C260A790C3606B
:10E95000A890C460A990C560E9C7C660B0E3C7606D
:10E96000AA90C860AB90C960AC90CA60AABECB60E8
:10E97000EFCDCC60AD90CD60AE90CE60AF90CF606B
:10E98000B090D060B190D160F3BBD260B290D36050
:10E99000B390D460B490D560E8CCD660B590D76021
:10E9A000B690D860AFE3D960B790DA60B1E3DB60CE
:10E9B000B890DC60A7CFDD60AEE3DE60B990DF60C9
:10E9C000A9CEE060DDBBE160BA90E260BB90E3609D
:10E9D000BC90E460BD90E560BE90E660EBB5E7609A
:10E9E000E5BEE860D2B2E960CDB3EA60BF90EB600B
:10E9F000B9B1EC60ABE3ED60D1B2EE60ACB5EF6005
:10EA0000DFB9F060E8B6F160C090F260C190F360E9
:10EA1000EBCFF460B7E3F560C290F660CCBBF76073
:10EA2000C390F860C490F960C7C8FA60CAD0FB60B0
:10EA3000C590FC60C690FD60C790FE60C890FF6006
:10EA4000C9900061B8E30161EEB30261CA9003614D
:10EA5000CB900461CC900561CD900661A9ED076172
:10EA6000CE900861FAD30961E4D30A61CF900B61BB
:10EA7000D0900C61D1900D61AAED0E61B9E30F61E8
:10EA8000E2D21061D2901161D3901261D4901361DF
:10EA9000D5901461D6901561B5E31661D7901761D2
:10EAA000D8901861D9901961DA901A61DED31B6190
:10EAB000DB901C61DC901D61DD901E61DE901F61AA
:10EAC000D0B82061B3E32161DF902261E09023613F
:10EAD000B6E32461DFB72561E1902661B4E32761E5
:10EAE000A2C02861E2902961E3902A61E4902B6141
:10EAF000BAE32C61E5902D61E6902E61E7902F61DD
:10EB0000E8903061E9903161EA903261EB903361D5
:10EB1000EC903461ED903561EE903661EF903761A5
:10EB2000F0903861F1903961F2903A61F3903B6175
:10EB3000F4903C61F5903D61F6903E61F7903F6145
:10EB4000B8D44061F8904161F9904261FA90436114
:10EB5000FB904461FC904561FD904661FE904761E9
:10EB600040914861C8B4496141914A61BBE34B613E
:10EB700042914C61C5BB4D6143914E61F7C94F61F4
:10EB80004491506145915161E5C95261469153618B
:10EB90004791546148915561BDC45661499157618F
:10EBA0004A9158614B9159614C915A614D915B6109
:10EBB0004E915C614F915D61ABED5E6150915F6123
:10EBC000519160615291616153916261FDC26361D3
:10EBD0005491646155916561569166615791676181
:10EBE000DBBB6861AEBF696158916A6159916B6125
:10EBF0005A916C615B916D615C916E615D916F6129
:10EC00005E917061BFCE71615F917261609173615D
:10EC10006191746162917561BCE376616391776122
:10EC2000B6BF78616491796165917A6166917B6123
:10EC300067917C6168917D6169917E616A917F6174
:10EC40006B9180616C9181616D9182616E91836144
:10EC50006F91846170918561719186617291876114
:10EC6000739188617491896175918A6176918B61E4
:10EC7000EFB18C6177918D6178918E61F7D48F615E
:10EC8000799190617A9191617B9192617C9193618C
:10EC90007D919461BEE395617E91966180919761CB
:10ECA000819198618291996183919A6184919B612C
:10ECB00085919C6186919D61ADED9E6187919F617B
:10ECC0008891A0618991A1618A91A2618B91A361D0
:10ECD0008C91A4618D91A5618E91A6618F91A761A0
:10ECE000BFE3A861A9BAA961ACEDAA619091AB613B
:10ECF0009191AC61BDE3AD619291AE619391AF61D1
:10ED00009491B0619591B1619691B2619791B3611F
:10ED10009891B4619991B5619A91B6619B91B761EF
:10ED2000C0E3B8619C91B9619D91BA619E91BB614C
:10ED30009F91BC61A091BD61A191BE61B6BABF6156
:10ED4000A291C061A391C161A491C261AEB6C36139
:10ED5000A591C461A691C561A791C661A891C7613B
:10ED6000A991C861B8D0C961AA91CA61C3B0CB6189
:10ED7000AEEDCC61AB91CD61AC91CE61AD91CF6187
:10ED8000AE91D061AF91D161AFEDD261C1C0D3611D
:10ED9000B091D461C1E3D561B191D661B291D7612F
:10EDA000B391D861B491D961B591DA61B691DB6163
:10EDB000B791DC61B891DD61B991DE61BA91DF6133
:10EDC000BB91E061BC91E161BD91E261BE91E36103
:10EDD000BF91E461C091E561C191E661B3C5E761AE
:10EDE000C291E861C391E961C491EA61C591EB61A7
:10EDF000C691EC61C791ED61C891EE61C991EF6177
:10EE0000CA91F061CB91F161CC91F261CD91F36146
:10EE1000CE91F461CF91F561C2E3F661D091F761D3
:10EE2000D191F861D291F961D391FA61D491FB61EA
:10EE3000D591FC61D691FD61D791FE61D891FF61BA
:10EE4000B2DC0062D9910162DA910262DB91036265
:10EE5000DC910462DD910562DE910662B0ED07622D
:10EE6000DF910862EAB80962E0910A62ECCE0B62B7
:10EE7000A7EA0C62E7D00D62F9CA0E62D6C80F622B
:10EE8000B7CF1062C9B31162D2CE1262E4BD136271
:10EE9000E1911462E2911562DEE31662F2BB176241
:10EEA000A8EA1862BDD51962E3911A62DDC61B6239
:10EEB000A9EA1C62E4911D62E5911E62E6911F625F
:10EEC000AAEA2062E7912162ACEA2262ABEA2362FD
:10EED000E8912462AEEA2562ADEA2662E9912762F2
:10EEE000EA912862EB912962EC912A62D8BD2B62EB
:10EEF000ED912C62AFEA2D62EE912E62BEC22F62BE
:10EF0000EF913062F0913162F1913262F2913362AD
:10EF1000C1B43462F7B43562F3913662F49137626A
:10EF2000A7BB3862F5913962F6913A62F7913B627C
:10EF3000F8913C62F9913D62E6EC3E62E5EC3F629D
:10EF4000BFB74062F9CB4162E2B14262FA914362DB
:10EF5000E7EC4462FB914562FC914662FD91476299
:10EF6000C8C94862E8EC4962E9EC4A62FE914B622A
:10EF7000D6CA4C62D0DE4D62C5B24E62FAD44F6240
:10EF80004092506241925162CBC65262C7B0536206
:10EF9000F2B45462D3C855624292566243925762A9
:10EFA00044925862D0CD596245925A6246925B6251
:10EFB000B8BF5C6247925D6248925E6249925F624E
:10EFC0004A9260624B9261624C9262624D926362BD
:10EFD000DBBF64624E9265624F926662A4C767624D
:10EFE000B4D6686250926962A9C06A62D1DE6B626F
:10EFF000A8C96C62EFD16D62A4C56E62E7B06F62A2
:10F00000B6B37062C5C871625192726252927362F5
:10F01000E2B074625392756254927662F6B7776288
:10F020005592786256927962FAC57A6257927B62FB
:10F0300058927C62F3B67D6259927E62D2D57F622D
:10F04000D0B38062BCBC81625A9282625B9283625E
:10F050005C928462ADB385625D9286625E928762E5
:10F060005F92886260928962F1BE8A62D1B08B62DF
:10F0700061928C6262928D6263928E6264928F6200
:10F080006592906266929162D6D29262E3CA93626E
:10F09000A5D7946267929562B6CD9662B6B697622E
:10F0A000B9BF9862DBD5996268929A62A7B89B62F1
:10F0B000D7C59C6269929D626A929E626B929F62C2
:10F0C000D2DEA062D9BFA162D5C2A262C0C7A362CC
:10F0D0006C92A462A4BBA562A8B1A6626D92A7625D
:10F0E0006E92A862EAC5A9626F92AA627092AB6240
:10F0F000FBC5AC62A7CCAD627192AE627292AF6298
:10F100007392B0627492B162A7B1B2627592B36247
:10F110007692B4627792B562D6B5B6627892B762EB
:10F120007992B8627A92B962A8C4BA627B92BB62E1
:10F13000D3DEBC62BAD1BD62E9B3BE627C92BF626B
:10F14000F2C3C0627D92C1627E92C262F7B7C362AF
:10F150008092C462F4D6C562A3B5C662F0B2C7623B
:10F16000B4C4C862E9C4C962ADC0CA62D4DECB62AD
:10F170008192CC62E8B0CD62C4C5CE62E0C1CF62FC
:10F180008292D062D5B9D1628392D262DCBED36260
:10F19000D8CDD462CEB0D5628492D662CFCDD762BC
:10F1A000D6DED862D0BED962BED7DA62D5DEDB62E7
:10F1B000D0D5DC62DDB0DD628592DE628692DF62F0
:10F1C000E2C4E0628792E1628892E262A3C2E362F3
:10F1D000F0BCE4628992E562B5D3E662B9C0E76249
:10F1E000A1C5E862A6B2E962F1D4EA628A92EB6252
:10F1F0008B92EC62A8C0ED62C3CAEE62D7DEEF620A
:10F20000FCD5F0628C92F162B0B9F2628D92F36239
:10F21000ADC8F462A9CBF5628E92F662D9DEF762D0
:10F22000BDBFF8628F92F9629092FA629192FB628E
:10F230009292FC62B4C6FD62A7D7FE62B0CAFF62BA
:10F24000C3C4006393920163D6B30263D2B903636C
:10F25000949204639592056396920663979207636E
:10F26000B8D60863FCEA0963B4B00A6398920B63EA
:10F2700099920C639A920D639B920E63E6BF0F63A3
:10F280009C9210639D921163F4CC12639E9213635F
:10F290009F921463A0921563A1921663DACD17634F
:10F2A000A2921863A3921963A4921A63BFD61B6338
:10F2B000CEC21C63A5921D63CECE1E63A2CC1F637B
:10F2C000AED02063D3C42163B2B52263D8DE2363FA
:10F2D000F5D52463B7BC2563D3BB2663A692276309
:10F2E000A7922863A4B02963A8922A63B2C52B63AE
:10F2F000ECB42C63A9922D63AA922E63AB922F6378
:10F30000F1D53063AC923163AD923263FDEA336381
:10F31000AE923463AF923563B0923663B192376385
:10F32000B2923863B3923963DADE3A63A6CD3B63B7
:10F33000B4923C63B5923D63ECCD3E63B6923F63BD
:10F34000B7924063B8924163B9924263E6CE436399
:10F35000DCDE4463BA924563B1CD4663A6C0476321
:10F36000BB924863BC924963BDD74A63BD924B636D
:10F37000DBDE4C63C6B04D63B4BA4E63D3C94F6392
:10F38000F3C45063E8BE5163BE925263BF925363AD
:10F39000C0925463C1925563B6B25663C29257632A
:10F3A000C3925863C4925963C5925A63C6925B6311
:10F3B000C7925C63C8925D63C9925E63CCC05F63B1
:10F3C000F0CB6063CA926163F1BC6263BBBB6363F1
:10F3D000B7B56463CB926563CC926663CD92676385
:10F3E000F5C56863CE926963E6DE6A63CF926B63AC
:10F3F000D0926C63D1926D63E3DE6E63DDBE6F63AA
:10F40000D2927063D3927163DFDE7263D4927363BE
:10F41000D5927463D6927563D7927663B7B47763E7
:10F42000DDBD7863D8927963D9927A63E0DE7B633D
:10F43000EDC47C63DA927D63DB927E63DC927F6352
:10F44000DD928063C6CF8163DE928263E0B5836321
:10F45000DF928463E0928563E1928663E292876340
:10F46000DEB68863DACA8963F4B58A63E5DE8B6346
:10F47000E3928C63C6D58D63E4928E63E1DE8F6385
:10F48000CDCC9063FEC69163E5929263C5C593634C
:10F49000E6929463E7929563E8929663B4D2976399
:10F4A000E9929863F2BE9963EA929A63EB929B6346
:10F4B000EC929C63ED929D63EE929E63EF929F634C
:10F4C000F092A063D3C2A163F192A263BDCCA36307
:10F4D000B8B3A463F292A563D3BDA663F392A76306
:10F4E000D8BFA863C6CDA963DAD1AA63EBB4AB6376
:10F4F000F492AC63E4DEAD63DDDEAE63E7DEAF6302
:10F50000F592B063FEEAB163F692B263F792B36329
:10F51000B0C2B463E2DEB563F892B663F992B76342
:10F52000C0D6B863A7B5B963FA92BA63F4B2BB6345
:10F53000FB92BC63E8DEBD63FC92BE63F2DEBF6398
:10F54000FD92C063FE92C1634093C2634193C36363
:10F550004293C463EDDEC5634393C663F1DEC763C4
:10F560004493C8634593C963E0C8CA634693CB63B9
:10F570004793CC634893CD63E1D7CE63EFDECF638F
:10F58000E8C3D063E1CCD1634993D263E5B2D363DE
:10F590004A93D4634B93D5634C93D663BED2D7635F
:10F5A0004D93D8634E93D9634F93DA635093DB63E3
:10F5B0005193DC635293DD635393DE63EEDEDF63CE
:10F5C0005493E063EBDEE163D5CEE2635593E363EE
:10F5D000A7B4E4635693E5635793E6635893E763F0
:10F5E0005993E8635A93E963ABBFEA63BEBEEB632A
:10F5F0005B93EC635C93ED63D2BDEE635D93EF636D
:10F600005E93F0635F93F1636093F263E9DEF3630B
:10F610006193F463AED4F5636293F663DEDEF76361
:10F620006393F863EADEF9636493FA636593FB63BB
:10F630006693FC636793FD63BFC0FE636893FF63DB
:10F64000ECDE0064F3B20164E9B80264A7C20364AB
:10F65000699304646A930564C1BD06646B9307648F
:10F660006C9308646D9309646E930A646F930B64E2
:10F67000F5DE0C64F8DE0D6470930E6471930F6414
:10F68000ABB21064A4B411647293126473931364E4
:10F69000EAB41464A6C91564749316647593176468
:10F6A000769318647793196478931A6479931B643A
:10F6B000F6DE1C64D1CB1D647A931E64E3B81F642C
:10F6C0007B932064F7DE2164FADE22647C9323645A
:10F6D0007D9324647E93256480932664F9DE2764F9
:10F6E000819328648293296483932A64C2CC2B6417
:10F6F00084932C64E1B02D64EEB42E6485932F6462
:10F700008693306487933164889332648993336439
:10F710008A933464BAE535648B9336648C9337648A
:10F720008D9338648E9339648F933A64AFD03B6481
:10F7300090933C6491933D64EBB23E6492933F643A
:10F74000A1EB406493934164F4DE42649493436478
:10F7500095934464E3C94564F3DE4664DAB04764D4
:10F76000A1D24864F7B1496496934A64AFCC4B6424
:10F7700097934C6498934D6499934E649A934F6415
:10F780009B9350649C9351649D935264F0DE536448
:10F790009E935464A4CB55649F935664A09357647E
:10F7A000A1935864AAD55964A2935A64A3935B6445
:10F7B000A4935C64A5935D64A6935E64FBDE5F64C2
:10F7C000A7936064A8936164A9936264AA93636435
:10F7D000AB936464AC936564AD936664AE93676405
:10F7E000DDB46864AF936964A6C46A64B0936B6463
:10F7F000B1936C64B2936D64FDDE6E64B3936F6419
:10F80000B4937064B5937164B6937264B793736480
:10F81000B8937464B9937564BA937664BB93776450
:10F82000BC937864FEC37964A1C47A64A1DF7B646D
:10F83000BD937C64BE937D64BF937E64C0937F64FC
:10F84000C1938064C2938164C3938264CCC1836496
:10F85000C4938464FCDE8564EFBE8664C5938764CC
:10F86000B2C68864C6938964C7938A64C8938B645C
:10F87000C9938C64CA938D64CB938E64CC938F644C
:10F88000CD939064CE939164C5B39264F6C89364AB
:10F89000CF939464D0939564BACB9664FEDE97645C
:10F8A000D1939864D2939964A4DF9A64D3939B64B0
:10F8B000D4939C64D5939D64D6939E64B2D79F6481
:10F8C000D793A064D893A164D993A264DA93A36474
:10F8D000DB93A464B7B3A564DC93A664DD93A7644B
:10F8E000DE93A864DF93A964C3C1AA64E093AB6408
:10F8F000E193AC64CBC7AD64A5B2AE64E9B4AF64C8
:10F90000E293B064ABD7B164E393B264E493B364BD
:10F91000E593B464E693B564ECC4B664E793B76466
:10F92000A2DFB864A3DFB964E893BA64A5DFBB645F
:10F93000E993BC64B3BABD64EA93BE64EB93BF645D
:10F94000EC93C064A6DFC164ED93C264DEC0C364FF
:10F95000EE93C464EF93C564C3C9C664F093C764EF
:10F96000F193C864F293C964F393CA64F493CB64CB
:10F97000F593CC64F693CD64D9B2CE64E6C7CF6478
:10F98000F793D064A7DFD164F893D264DCC7D36463
:10F99000F993D464FA93D564FB93D664FC93D7644B
:10F9A000A8DFD864A2EBD964FD93DA64FE93DB642C
:10F9B0004094DC644194DD644294DE64D3CBDF6424
:10F9C0004394E0644494E1644594E264AADFE36410
:10F9D0004694E464A9DFE5644794E664C1B2E76451
:10F9E0004894E8644994E9644A94EA644B94EB646B
:10F9F0004C94EC644D94ED644E94EE644F94EF643B
:10FA00005094F0645194F1645294F2645394F3640A
:10FA10005494F4645594F5645694F6645794F764DA
:10FA20005894F8645994F9645A94FA645B94FB64AA
:10FA30005C94FC645D94FD645E94FE645F94FF647A
:10FA400060940065CAC501656194026562940365AE
:10FA5000639404656494056565940665669407651A
:10FA60006794086568940965ABDF0A6569940B655E
:10FA70006A940C656B940D656C940E656D940F65BE
:10FA80006E9410656F94116570941265DCD41365E3
:10FA90007194146572941565739416657494176562
:10FAA00075941865C1C8196576941A6577941B65B5
:10FAB00078941C6579941D657A941E657B941F6506
:10FAC0007C9420657D9421657E94226580942365D5
:10FAD0008194246582942565ACDF2665839427652F
:10FAE000849428658594296586942A6587942B6576
:10FAF000F0BE2C6588942D6589942E65ADDF2F6549
:10FB0000A7D630658A9431658B9432658C943365C1
:10FB10008D943465B7EA3565B6EB3665D5CA376579
:10FB20008E943865FCD83965C4B83A658F943B65C6
:10FB3000A5B93C6590943D6591943E65C5B73F6518
:10FB4000FED54065929441659394426594944365D3
:10FB50009594446596944565CAB9466597944765FA
:10FB600098944865A7D04965CDF44A6599944B654A
:10FB70009A944C65D0B54D659B944E659C944F65A9
:10FB8000F4C350659D945165C8BE52659E945365FB
:10FB90009F945465A0945565B7EB5665BDB0576505
:10FBA000A1945865A2945965CCBD5A65A3945B6530
:10FBB000B2C15C65A4945D65D6B15E65A8B35F65AE
:10FBC000A5946065A6946165A7946265D2B86365E3
:10FBD000A2C96465A8946565A9946665D8B6676589
:10FBE000AA946865AB946965AC946A65AD946B65DD
:10FBF000B8EB6C65B4BE6D65AE946E65AF946F6521
:10FC0000B0947065FDCA7165B1947265C3C77365C0
:10FC1000B2947465FBD57565B3947665B4947765D5
:10FC2000F3B77865B5947965B6947A65B7947B65D2
:10FC3000B8947C65B9947D65BA947E65BB947F6504
:10FC4000BC948065BD948165BE948265BF948365D4
:10FC5000C0948465C1948565C2948665C3948765A4
:10FC6000C4CE8865C4948965C5948A65C6948B653D
:10FC7000ABD58C65F3B18D65C7948E65C8948F65DF
:10FC8000C9949065B3EC9165DFB09265CA949365B1
:10FC9000B5EC9465CB949565CC949665CD949765B9
:10FCA000B7B69865CE949965CFC19A65CF949B6598
:10FCB000FAF59C65B1D09D65D0949E65D1949F6501
:10FCC000E5D5A065D294A165D3CEA265D394A365F2
:10FCD000D494A465EFBDA565E2B3A665D594A765E8
:10FCE000ABB8A865D694A965B6D5AA65D794AB6517
:10FCF000BDEDAC65D894AD65CFB6AE65D994AF65B2
:10FD0000B9CBB065C2D0B165DA94B265DB94B365A6
:10FD1000DC94B465DD94B565DE94B665DF94B765B3
:10FD2000E094B865E194B965BDB7BA65E294BB6586
:10FD3000E394BC65B6ECBD65A9CABE65E494BF6535
:10FD4000E594C065E694C165D4C5C265E794C36512
:10FD5000B9ECC465B8ECC565C3C2C665B7ECC76588
:10FD6000E894C865E994C965EA94CA65EB94CB65E3
:10FD7000FDD0CC65BAECCD65EC94CE65BBECCF651F
:10FD8000E5D7D065ED94D165EE94D265BCECD36532
:10FD9000EF94D465F094D565F194D665BDECD76544
:10FDA000ECC6D865F294D965F394DA65F494DB6512
:10FDB000F594DC65F694DD65F794DE65F894DF650F
:10FDC000F994E065DECEE165FA94E265C8BCE365CE
:10FDD000FB94E465FC94E565D5C8E665A9B5E765DF
:10FDE000C9BEE865BCD6E965E7D4EA65FD94EB6574
:10FDF000FE94EC65AED1ED65F1D0EE65B8EAEF6545
:10FE0000B9EAF065BAEAF165B5BAF2654095F3650D
:10FE10004195F4654295F5654395F665B1CAF76578
:10FE2000F5BFF8654495F9654595FA65FACDFB652A
:10FE30004695FC654795FD654895FE654995FF65C6
:10FE40004A950066C0EA01664B950266BAB0036641
:10FE5000BEEA04664C9505664D950666A5C0076624
:10FE60004E9508664F95096650950A66BBEA0B6683
:10FE700051950C66FDB20D6652950E66F7C30F667E
:10FE8000E8BB106653951166549512665595136636
:10FE9000D7D21466F4CE1566BFEA16665695176675
:10FEA0005795186658951966BCEA1A6659951B66E7
:10FEB0005A951C665B951D66C3EA1E665C951F66B7
:10FEC000C7D02066B3D321665D9522665E95236612
:10FED0005F95246660952566BAB4266661952766A7
:10FEE000C1C32866F2D7296662952A6663952B6698
:10FEF00064952C6665952D66D1D52E6666952F6620
:10FF0000C7CA306667953166C5EA3266689533665A
:10FF100069953466C4EA3566C7EA3666C6EA376666
:10FF20006A9538666B9539666C953A666D953B6651
:10FF30006E953C66E7D63D666F953E66D4CF3F66CC
:10FF40007095406671954166CBEA4266729543664C
:10FF5000CEBB44667395456674954666759547664F
:10FF6000769548667795496678954A6679954B66A1
:10FF7000FABD4C66CEC94D667A954E667B954F6646
:10FF8000CCEA50667C9551667D955266B9C9536638
:10FF9000FECF5466CAEA5566CED45666CDEA576699
:10FFA000CFEA58667E95596680955A66EDCD5B66B8
:10FFB00081955C6682955D6683955E6684955F66D5
:10FFC000C9EA606685956166CEEA62668695636673
:10FFD00087956466EECE656688956666DEBB676665
:10FFE00089956866BFB369668A956A668B956B6604
:10FFF0008C956C668D956D668E956E66D5C66F66B2
:020000040801F1
:10000000B0BE7066FACE71668F9572669095736613
:1000100091957466E7C7756692957666A7BE776612
:10002000D0EA78669395796694957A66C7D67B66AA
:1000300095957C6696957D6697957E66C0C17F6630
:1000400098958066999581669A958266DDD48366D7
:100050009B958466D1EA85669C9586669D958766A4
:10006000BECF88669E9589669F958A66A0958B66A9
:10007000A1958C66D2EA8D66A2958E66A3958F6651
:10008000A4959066A5959166EECA9266A69593662C
:10009000A7959466A8959566A9959666AFC5976647
:1000A000B5B09866AA959966AB959A66AC959B662D
:1000B000AD959C66AE959D66D4EA9E66AF959F66AB
:1000C000B095A066B195A166B295A266B395A366F8
:1000D000B495A466B595A566B695A666B795A766C8
:1000E000D3EAA866DFF4A966B895AA66B995AB66A7
:1000F000BA95AC66BB95AD66BC95AE66BAC4AF6644
:10010000BD95B066BE95B166BF95B266C095B36643
:10011000C195B466A9B1B566C295B666C395B76612
:10012000C495B866C595B966DFE5BA66C695BB667F
:10013000C795BC66C895BD66C995BE66D5EABF665B
:10014000CA95C066CB95C166CC95C266CD95C3668F
:10015000CE95C466CF95C566D095C666D195C7665F
:10016000D295C866D395C966D495CA66D595CB662F
:10017000D695CC66D795CD66D895CE66D995CF66FF
:10018000DA95D066DB95D166DC95D266DD95D366CF
:10019000DE95D466DF95D566E095D666E195D7669F
:1001A000E295D866E395D966EFCADA66E495DB6630
:1001B000D6EADC66D7EADD66D8C6DE66E595DF6698
:1001C000E695E066E795E166E895E266E995E3661F
:1001D000EA95E466EB95E566EC95E666D8EAE766AF
:1001E000ED95E866EE95E966D9EAEA66EF95EB6685
:1001F000F095EC66F195ED66F295EE66F395EF6697
:10020000F495F066BBD4F166F595F266FAC7F3662D
:10021000B7D2F466FCB8F566F695F666F795F7661C
:10022000C2EAF866F895F966DCB2FA66F995FB66FB
:10023000FA95FC66FCC2FD66FB95FE66F8D4FF6687
:10024000E6CC0067EED70167FC950267FD95036772
:10025000FE950467409605674196066742960767D4
:1002600043960867C2D40967D0D30A67C3EB0B670C
:10027000F3C50C6744960D67FEB70E6745960F678A
:1002800046961067D4EB1167479612674896136736
:1002900049961467B7CB1567DEEB16674A96176762
:1002A000CAC018674B9619674C961A674D961B671C
:1002B000FBCD1C674E961D67AFB31E674F961F6739
:1002C000DAC62067509621675196226752962367B7
:1002D000539624675496256755962667FCEB276747
:1002E00056962867BEC4296757962A67B4CE2B67EF
:1002F000A9C42C67BEB12D67FDD42E6758962F6711
:10030000F5CA306759963167ECD632675A9633672B
:100310005B963467D3C63567E4B636675C96376755
:100320005D9638675E9639675F963A67FABB3B67BA
:1003300060963C6761963D67E0D03E6762963F6796
:1003400063964067B1C9416764964267D3D44367F7
:10035000A8C844676596456766964667CBB8476701
:1003600067964867BEE84967BCC94A6768964B67A5
:1003700069964C67BBE84D676A964E67EEC04F675B
:10038000D3D05067C4B25167E5B452676B965367D8
:10039000BCE854676C9655676D965667C8D5576725
:1003A0006E9658676F96596770965A6771965B6735
:1003B00072965C67C5B65D6773965E67BDE85F67FA
:1003C000F8CA6067DCB86167F5CC626774966367EA
:1003D0007596646776966567B4C066677796676753
:1003E00078966867EED16967BFE86A67C2E86B67AD
:1003F00079966C677A966D67BCBA6E677B966F6705
:10040000ADB17067DCBD71677C967267BDEA7367DA
:10041000C3E874677D967567C6E876677E967767EA
:10042000CBE878678096796781967A6782967B6752
:1004300083967C67CCE87D6784967E67C9CB7F67AF
:10044000E5B0806785968167ABBC826786968367D7
:1004500087968467B9B9856788968667899687671E
:10046000C1E888678A968967F7CD8A678B968B671C
:10047000CAE88C678C968D678D968E678E968F678F
:100480008F969067F6CE9167909692679196936754
:100490009296946793969567EDD59667949697672D
:1004A000D6C19867C4E8996795969A67B6C39B6763
:1004B00096969C67FBB99D67A6D69E67C8E89F671E
:1004C0009796A0679896A1679996A267E0CAA367D6
:1004D000E6D4A4679A96A567C0E8A6679B96A76727
:1004E000C5E8A867C7E8A9679C96AA67B9C7AB67BC
:1004F000E3B7AC679D96AD67C9E8AE679E96AF67F8
:10050000DDBFB067D2E8B1679F96B267A096B367C8
:10051000D7E8B467A196B567D5E8B667DCBCB7671E
:10052000CFBCB867DBE8B967A296BA67A396BB678A
:10053000A496BC67A596BD67A696BE67A796BF673B
:10054000A896C067A996C167DEE8C267AA96C36786
:10055000DAE8C467FAB1C567AB96C667AC96C767F9
:10056000AD96C867AE96C967AF96CA67B096CB67B7
:10057000B196CC67B296CD67B396CE67B496CF6787
:10058000D8B0D067B3C4D167CCB8D267E2C6D3675E
:10059000BEC8D467E1C8D567B596D667B696D767A3
:1005A000B796D867CFE8D967D4E8DA67D6E8DB67CB
:1005B000B896DC67F1B9DD67D8E8DE67F5D7DF67A5
:1005C000B996E067FBC4E167BA96E267DCE8E367E7
:1005D000BB96E467BC96E567E9B2E667BD96E76758
:1005E000BE96E867BF96E967D1E8EA67C096EB6711
:1005F000C196EC67EDBCED67C296EE67C396EF67F8
:10060000C2BFF067CDE8F167F9D6F267C496F36729
:10061000F8C1F467F1B2F567C596F667C696F76755
:10062000C796F867C896F967C996FA67CA96FB67CE
:10063000CB96FC67CC96FD67DFE8FE67CD96FF673B
:10064000C1CA0068D9E80168CE960268CF960368EF
:10065000D0960468D1960568A4D50668D296076836
:10066000EAB10868BBD50968CEE80A68D0E80B682B
:10067000B0B60C68D3E80D68D3960E68DDE80F6855
:10068000B8C01068D4961168F7CA1268D596136876
:10069000A8CB1468D6961568D7961668DCC6176876
:1006A000F5C01868D8961968D9961A68DA961B6842
:1006B000DB961C68DC961D68E9E81E68DD961F68FD
:1006C000DE962068DF962168A3D02268E096236832
:1006D000E1962468E2962568E3962668E496276802
:1006E000E5962868E6962968F2E82A68EAD62B6833
:1006F000E7962C68E8962D68E9962E68EA962F68AA
:10070000EB963068EC963168ED963268E0E8336835
:10071000E1E83468EE963568EF963668F09637680B
:10072000F9D13868CBBA3968F9B83A68F1963B68BC
:10073000F2963C68F1B83D68D4D43E68EFE83F6873
:10074000F3964068EEE84168ECE84268F0B9436827
:10075000D2CC4468E6E84568A6CE4668F2BF476852
:10076000F4964868B8B04968F1E84A68F0E84B6820
:10077000F5964C68C0D74D68F6964E68E4E84F6829
:10078000F7965068A9CD5168A3C95268F896536886
:10079000B8BB5468DBBD5568EAE85668F9965768F7
:1007A000FA965868FB965968FC965A68FD965B68FD
:1007B000FE965C6840975D6841975E6842975F6807
:1007C00043976068E2E86168E3E86268E5E86368C7
:1007D000B5B56468E7E86568C5C76668EBE867684B
:1007E000EDE86868B0BD6968AED76A6844976B6821
:1007F000F8E86C6845976D6846976E6847976F682C
:1008000048977068499771684A9772684B97736800
:100810004C977468F5E875684D977668B0CD776841
:10082000F6E878684E9779684F977A6850977B68B2
:1008300051977C6852977D6853977E6854977F687C
:100840005597806856978168BAC1826857978368C0
:10085000E8E8846858978568B7C38668F0B0876809
:10086000599788685A9789685B978A685C978B68FC
:100870005D978C685E978D685F978E6860978F68CC
:10088000F4E89068619791686297926863979368BB
:10089000F7E894686497956865979668669797688F
:1008A000A3B998686797996868979A6869979B68E9
:1008B0006A979C686B979D686C979E686D979F6818
:1008C0006E97A0686F97A1687097A268D2C9A36855
:1008D0007197A4687297A5687397A668CEC3A76836
:1008E000E0CEA868E6C0A9687497AA687597AB6857
:1008F0007697AC687797AD68F3CBAE687897AF68BA
:10090000DDCCB068B5D0B1687997B2687A97B36832
:10091000E1CAB4687B97B568F3E8B6687C97B768B6
:100920007D97B8687E97B9688097BA688197BB68E9
:100930008297BC688397BD688497BE688597BF68B7
:100940008697C068ECBCC1688797C268F9E8C3683D
:100950008897C4688997C5688A97C6688B97C7685F
:100960008C97C8688D97C968DEC3CA688E97CB68B4
:10097000E5C6CC688F97CD68F7B9CE689097CF68F9
:100980009197D0689297D1689397D268F4B0D36862
:100990009497D4689597D568D8D7D6689697D7682E
:1009A0009797D868ACBCD9689897DA68EFC5DB68C8
:1009B0009997DC689A97DD689B97DE689C97DF685B
:1009C0009D97E068C4CCE1689E97E2689F97E368D2
:1009D000A6E9E468A097E568A197E668A297E768AA
:1009E000A397E868A497E968A597EA68A697EB68D3
:1009F000A797EC68A897ED68A997EE68ADC9EF686E
:100A0000AA97F068A2E9F168E2C0F268AB97F368D0
:100A1000AC97F468AD97F568C3BFF668AE97F76812
:100A2000AF97F868B097F968FEE8FA68D7B9FB683D
:100A3000B197FC68FBE8FD68B297FE68B397FF6862
:100A4000B4970069B5970169A4E90269B69703698B
:100A5000B7970469B8970569CED20669B99707694F
:100A6000BA970869BB970969BC970A69BD970B6972
:100A7000A3E90C69BE970D69B2D60E69B5D70F69A7
:100A8000BF971069A7E91169C0971269B7BD1369CB
:100A9000C1971469C2971569C3971669C4971769F6
:100AA000C5971869C6971969C7971A69C8971B69C6
:100AB000C9971C69CA971D69CB971E69CC971F6996
:100AC000FCE82069FDE82169CD972269CE9723696A
:100AD000CF972469A1E92569D0972669D19727691D
:100AE000D2972869D3972969D4972A69D5972B6912
:100AF000D6972C69D7972D69D6CD2E69D8972F69AF
:100B0000D9973069ACD23169DA973269DB973369AA
:100B1000DC973469B2E93569DD973669DE97376964
:100B2000DF973869E0973969A9E93A69E1973B6944
:100B3000E2973C69E3973D69AAB43E69E4973F694F
:100B4000BBB44069E5974169E6974269ABE94369FF
:100B5000E7974469E8974569E9974669EA974769DD
:100B6000EB974869EC974969ED974A69EE974B69AD
:100B7000EF974C69F0974D69F1974E69F2974F697D
:100B8000F3975069F4975169F5975269F69753694D
:100B9000F7975469A8D05569F8975669F997576936
:100BA000A5E95869FA975969FB975A69FEB35B69D9
:100BB000FC975C69FD975D69ACE95E69E3C05F69BC
:100BC000FE976069AAE96169409862694198636922
:100BD000B9E964694298656943986669B8E96769E3
:100BE000449868694598696946986A6947986B6945
:100BF000AEE96C6948986D6949986E69FAE86F6961
:100C00004A9870694B987169A8E972694C98736940
:100C10004D9874694E9875694F98766950987769C0
:100C2000ACBF7869B1E97969BAE97A6951987B69A9
:100C300052987C69A5C27D6953987E6954987F69F2
:100C400055988069AFE9816956988269C5B883690A
:100C500057988469ADE9856958988669DCD38769B6
:100C6000B4E98869B5E98969B7E98A6959988B69EE
:100C70005A988C695B988D69C7E98E695C988F6911
:100C80005D9890695E9891695F98926960989369A0
:100C900061989469C6C09569C5E996696298976933
:100CA00063989869B0E9996964989A6965989B69AD
:100CB000BBE99C69F1B09D6966989E6967989F69D8
:100CC0006898A0696998A1696A98A2696B98A369F4
:100CD0006C98A4696D98A5696E98A6696F98A769C4
:100CE000BCE9A869A5D5A9697098AA697198AB698A
:100CF000BEE9AC697298AD69BFE9AE697398AF6936
:100D00007498B0697598B169C1E9B2697698B369A8
:100D10007798B469F1C1B5697898B6697998B76977
:100D2000B6C8B8697A98B9697B98BA697C98BB6982
:100D3000BDE9BC697D98BD697E98BE698098BF6930
:100D40008198C0698298C169C2E9C2698398C36900
:100D50008498C4698598C5698698C6698798C76963
:100D60008898C8698998C9698A98CA69C3E9CB69AA
:100D70008B98CC69B3E9CD698C98CE69B6E9CF6917
:100D80008D98D069B1BBD1698E98D2698F98D3699B
:100D90009098D469C0E9D5699198D6699298D76935
:100DA0009398D8699498D9699598DA699698DB6987
:100DB000F7BCDC699798DD699898DE699998DF69D6
:100DC000C4E9E069C6E9E1699A98E2699B98E36938
:100DD0009C98E4699D98E5699E98E6699F98E76903
:100DE000A098E869A198E969A298EA69A398EB69D3
:100DF000A498EC69A598ED69CAE9EE69A698EF692F
:100E0000A798F069A898F169A998F269CEE9F36901
:100E1000AA98F469AB98F569AC98F669AD98F7694A
:100E2000AE98F869AF98F969B098FA69B198FB691A
:100E3000B298FC69B398FD69DBB2FE69B498FF69AA
:100E4000C8E9006AB598016AB698026AB798036A59
:100E5000B898046AB998056ABA98066ABB98076A8E
:100E6000BC98086ABD98096ABE980A6AAEB70B6A50
:100E7000BF980C6AC0980D6AC1980E6AC2980F6A32
:100E8000C398106AC498116AC598126AC698136A02
:100E9000C798146AC898156AC998166ACA98176AD2
:100EA000CBE9186ACCE9196ACB981A6ACC981B6A04
:100EB000CD981C6ACE981D6ACF981E6AD0981F6A7A
:100EC000C1D5206AD198216AA3C4226AD298236A24
:100ED000D398246AD498256AD598266AD698276A22
:100EE000D798286AD8E9296AD8982A6AE1BA2B6A79
:100EF000D9982C6ADA982D6ADB982E6ADC982F6ACA
:100F0000C9E9306ADD98316AA3D3326ADE98336A60
:100F1000DF98346AE098356AD4E9366AE198376A2E
:100F2000E298386AE398396AE4983A6AE5983B6A45
:100F3000E6983C6AE7983D6AD7E93E6AD0E93F6A9D
:100F4000E898406AE998416AEA98426AEB98436AED
:100F5000EC98446ACFE9456AED98466AEE98476A8C
:100F6000C1C7486AEF98496AF0984A6AF1984B6A93
:100F7000F2984C6AF3984D6AF4984E6AF5984F6A65
:100F8000F698506AD2E9516AF798526AF898536A0B
:100F9000F998546AFA98556AFB98566AFC98576A09
:100FA000FD98586AD9E9596AC8B35A6AFE985B6ACB
:100FB000D3E95C6A40995D6A41995E6A42995F6AC9
:100FC0004399606A4499616AF0CF626A4599636A9D
:100FD0004699646A4799656ACDE9666A4899676A7D
:100FE0004999686A4A99696A4B996A6A4C996B6A25
:100FF0004D996C6A4E996D6A4F996E6A50996F6AF5
:101000005199706A5299716AF7B3726A5399736A07
:101010005499746A5599756A5699766A5799776A98
:101020005899786A5999796AD6E97A6A5A997B6A9D
:101030005B997C6ADAE97D6A5C997E6A5D997F6A70
:101040005E99806AB4CC816A5F99826A6099836A8A
:101050006199846AADCF856A6299866A6399876A65
:101060006499886A6599896A66998A6A67998B6AB8
:1010700068998C6A69998D6A6A998E6AD5E98F6ACE
:101080006B99906ADCE9916ADBE9926A6C99936AE0
:101090006D99946A6E99956A6F99966A7099976A34
:1010A000DEE9986A7199996A72999A6A73999B6A4A
:1010B00074999C6A75999D6A76999E6A77999F6AD8
:1010C0007899A06AD1E9A16A7999A26A7A99A36A02
:1010D0007B99A46A7C99A56A7D99A66A7E99A76A7C
:1010E0008099A86A8199A96ADDE9AA6A8299AB6A9E
:1010F000DFE9AC6ACAC3AD6A8399AE6A8499AF6A04
:101100008599B06A8699B16A8799B26A8899B36AF3
:101110008999B46A8A99B56A8B99B66A8C99B76AC3
:101120008D99B86A8E99B96A8F99BA6A9099BB6A93
:101130009199BC6A9299BD6A9399BE6A9499BF6A63
:101140009599C06A9699C16A9799C26A9899C36A33
:101150009999C46A9A99C56A9B99C66A9C99C76A03
:101160009D99C86A9E99C96A9F99CA6AA099CB6AD3
:10117000A199CC6AA299CD6AA399CE6AA499CF6AA3
:10118000A599D06AA699D16AA799D26AA899D36A73
:10119000A999D46AAA99D56AAB99D66AAC99D76A43
:1011A000AD99D86AAE99D96AAF99DA6AB099DB6A13
:1011B000B199DC6AB299DD6AB399DE6AB499DF6AE3
:1011C000B599E06AB699E16AB799E26AB899E36AB3
:1011D000B999E46ABA99E56ABB99E66ABC99E76A83
:1011E000BD99E86ABE99E96ABF99EA6AC099EB6A53
:1011F000C199EC6AC299ED6AC399EE6AC499EF6A23
:10120000C599F06AC699F16AC799F26AC899F36AF2
:10121000C999F46ACA99F56ACB99F66ACC99F76AC2
:10122000CD99F86ACE99F96ACF99FA6AD099FB6A92
:10123000D199FC6AD299FD6AD399FE6AD499FF6A62
:10124000D599006BD699016BD799026BD899036B2E
:10125000D999046BDA99056BDB99066BDC99076BFE
:10126000DD99086BDE99096BDF990A6BE0990B6BCE
:10127000E1990C6BE2990D6BE3990E6BE4990F6B9E
:10128000E599106BE699116BE799126BE899136B6E
:10129000E999146BEA99156BEB99166BEC99176B3E
:1012A000ED99186BEE99196BEF991A6BF0991B6B0E
:1012B000F1991C6BF2991D6BF3991E6BF4991F6BDE
:1012C000F599206BB7C7216BCEB4226BB6BB236BED
:1012D000C0D0246BA3EC256BF699266BF799276B8E
:1012E000B7C5286BF899296BF9992A6BFA992B6B7A
:1012F000FB992C6BFC992D6BFD992E6BFE992F6B36
:10130000409A306B419A316B429A326BFBD3336B0C
:10131000439A346B449A356B459A366B469A376BD1
:10132000A4EC386B479A396BA5EC3A6BDBC63B6B88
:10133000489A3C6B499A3D6B4A9A3E6BEEBF3F6BB5
:101340004B9A406B4C9A416B4D9A426B4E9A436B51
:10135000A6EC446B4F9A456B509A466BA7EC476BD3
:10136000AAD0486B519A496BB8C74A6B529A4B6BDB
:10137000539A4C6BE8B84D6B549A4E6B559A4F6B21
:10138000569A506B579A516B589A526B599A536BA5
:101390005A9A546B5B9A556B5C9A566B5D9A576B75
:1013A0005E9A586B5F9A596BA8EC5A6B609A5B6BAC
:1013B000619A5C6B629A5D6B639A5E6B649A5F6B19
:1013C000659A606B669A616B679A626BB9D6636B5C
:1013D000FDD5646BCBB4656BBDB2666BE4CE676B59
:1013E000E7C6686B689A696B699A6A6BE1CD6B6B4B
:1013F0006A9A6C6B6B9A6D6B6C9A6E6B6D9A6F6B75
:101400006E9A706B6F9A716B709A726B719A736B44
:10141000729A746B739A756B749A766B759A776B14
:10142000769A786B779A796BF5B47A6B789A7B6B4E
:10143000C0CB7C6BDFBC7D6B799A7E6B7A9A7F6BBD
:101440007B9A806B7C9A816BE2E9826BE3E9836B28
:10145000EAD1846BE5E9856B7D9A866BF9B4876B7D
:10146000E4E9886B7E9A896BB3D18A6BE2CA8B6B95
:10147000D0B28C6B809A8D6BE8E98E6B819A8F6B02
:10148000829A906B839A916B849A926BE6E9936B44
:10149000E7E9946B859A956B869A966BB3D6976BB2
:1014A000879A986B889A996B899A9A6BE9E99B6BF2
:1014B000EAE99C6B8A9A9D6B8B9A9E6B8C9A9F6BC8
:1014C0008D9AA06B8E9AA16BEBE9A26B8F9AA36B9E
:1014D000909AA46B919AA56B929AA66B939AA76B1C
:1014E000949AA86B959AA96B969AAA6BECE9AB6B48
:1014F000979AAC6B989AAD6B999AAE6B9A9AAF6BC0
:101500009B9AB06B9C9AB16B9D9AB26B9E9AB36B8F
:10151000AFECB46BB9C5B56BCEB6B66B9F9AB76B73
:10152000F3D2B86BA09AB96BA19ABA6BA29ABB6BB3
:10153000A39ABC6BA49ABD6BA59ABE6BA69ABF6B0F
:10154000EEB5C06BA79AC16BD9BBC26BB1ECC36BD4
:10155000A89AC46BA99AC56BE3D2C66BAA9AC76B4B
:10156000AB9AC86BAC9AC96BAD9ACA6BAE9ACB6B8F
:10157000E3CECC6BAF9ACD6BB8C4CE6BB09ACF6BC9
:10158000BFC3D06BB19AD16BB29AD26BBEB6D36BDC
:10159000B9D8D46BC8B1D56BCFB1D66BD1B1D76B3D
:1015A000FEC5D86BB39AD96BD0B1DA6BB49ADB6B4A
:1015B000ABC3DC6BB59ADD6BB69ADE6BB79ADF6BAB
:1015C000B89AE06BB99AE16BB1D5E26BBA9AE36B6A
:1015D000BB9AE46BBC9AE56BBD9AE66BBE9AE76B6F
:1015E000BF9AE86BC09AE96BC19AEA6BA4EBEB6B0C
:1015F000C1BAEC6BC29AED6BC39AEE6BC49AEF6BF7
:10160000BACCF06BC59AF16BC69AF26BC79AF36BC2
:10161000A5EBF46BC89AF56BA7EBF66BC99AF76B61
:10162000CA9AF86BCB9AF96BA8EBFA6BCC9AFB6B66
:10163000CD9AFC6BCE9AFD6BA6EBFE6BCF9AFF6B3F
:10164000D09A006CD19A016CD29A026CD39A036C36
:10165000D49A046CD59A056CA9EB066CABEB076CBD
:10166000AAEB086CD69A096CD79A0A6CD89A0B6CBC
:10167000D99A0C6CDA9A0D6CACEB0E6CDB9A0F6C91
:10168000CFCA106CB5D8116CF1C3126CDC9A136C14
:10169000A5C3146CF8C6156CADEB166CCAC4176CF8
:1016A000DD9A186CAEEB196CAFEB1A6CB0EB1B6CDF
:1016B000D5B71C6CDE9A1D6CDF9A1E6CE09A1F6C0D
:1016C000FAB7206CE19A216CB1EB226CE2C7236C73
:1016D000E29A246CB3EB256CE39A266CA4BA276CCF
:1016E000F5D1286CB1B0296CB2EB2A6CB4EB2B6C41
:1016F000E49A2C6CE59A2D6CE69A2E6CAAB52F6CA8
:10170000C8C2306CE8C7316CE79A326CB5EB336C09
:10171000E89A346CAECB356CDFE3366CE99A376C03
:10172000EA9A386CC0D3396CEB9A3A6CEC9A3B6C01
:10173000ED9A3C6CEE9A3D6CDBD93E6CEF9A3F6CB7
:10174000F09A406CA1CD416CADD6426CF3C7436CAE
:10175000F19A446CF29A456CF39A466CE0D9476C66
:10176000E3BB486CF49A496CBABA4A6CE2E34B6C3E
:10177000F59A4C6CF69A4D6CF79A4E6CF89A4F6C41
:10178000F99A506CABCF516CFA9A526CFB9A536C2D
:10179000FC9A546CE0E3556CC7C9566CFD9A576CC3
:1017A000B9BA586CFE9A596C409B5A6C419B5B6C61
:1017B000B4D15C6CE1E35D6CEAC85E6CAFB95F6CA0
:1017C000ADBD606CD8B3616CDBCE626C429B636C68
:1017D000439B646CC0CC656C449B666C459B676C9A
:1017E000469B686CE8E3696CE9E36A6CF4CD6B6C6A
:1017F000479B6C6C489B6D6C499B6E6C4A9B6F6CF5
:101800004B9B706CADCC716C4C9B726CB3BC736CAD
:101810004D9B746CEAE3756C4E9B766CEBE3776CD6
:101820004F9B786C509B796CDAD07A6C519B7B6CB7
:10183000529B7C6C539B7D6CFBC67E6CDAB77F6CD5
:10184000549B806C559B816CDFC7826CCAD2836CC1
:10185000D6CE846C569B856CE4E3866CECE3876C97
:10186000579B886CF2C9896CC1B38A6C589B8B6C8E
:10187000599B8C6CE7E38D6C5A9B8E6C5B9B8F6CD9
:10188000E3C6906CE5E3916C5C9B926C5D9B936C02
:10189000B3ED946CE6E3956C5E9B966C5F9B976CE6
:1018A000609B986C619B996CB3C99A6C629B9B6CB2
:1018B000E6C59C6C639B9D6C649B9E6C659B9F6C5A
:1018C000B5B9A06C669BA16CBBC3A26C679BA36CF3
:1018D000E3E3A46CBDC5A56CA4C1A66CD9C2A76C7A
:1018E000D7B2A86C689BA96CEDE3AA6CA6BBAB6CE5
:1018F000ADC4AC6C699BAD6CF0E3AE6CDABEAF6CA2
:101900006A9BB06C6B9BB16CFBE3B26CF5E3B36CA0
:10191000D3BAB46C6C9BB56C6D9BB66C6E9BB76C9C
:101920006F9BB86CD0B7B96CCDD3BA6C709BBB6CE5
:10193000CED6BC6CD3D5BD6CC1B9BE6CB4D5BF6CB2
:10194000D8D1C06C719BC16C729BC26C739BC36C11
:10195000749BC46CB9D0C56CF6C7C66C759BC76C5C
:10196000769BC86C779BC96CAAC8CA6CB4B2CB6CA6
:10197000789BCC6CDAC3CD6C799BCE6C7A9BCF6CA8
:101980007B9BD06CEEE3D16C7C9BD26C7D9BD36C4B
:10199000FCE3D46CEFE3D56CA8B7D66CF7E3D76C57
:1019A000F4E3D86C7E9BD96C809BDA6C819BDB6CFA
:1019B000BAB7DC6C829BDD6C839BDE6CA2C5DF6CEE
:1019C000849BE06CF6E3E16CDDC5E26CA8B2E36CED
:1019D000FCC6E46C859BE56CE0C4E66C869BE76C1A
:1019E000879BE86CA2D7E96C889BEA6CE1C0EB6C42
:1019F000F9E3EC6C899BED6C8A9BEE6CFAE3EF6C7F
:101A0000FDE3F06CA9CCF16CF3E3F26C8B9BF36C0F
:101A1000BED3F46C8C9BF56CC3B1F66CB4EDF76C73
:101A2000F1E3F86CF2E3F96C8D9BFA6CF8E3FB6C74
:101A3000BAD0FC6CC3C6FD6CF3D4FE6CFEE3FF6C45
:101A40008E9B006D8F9B016DE0BD026D909B036DC1
:101A5000919B046DA7E4056D929B066D939B076DAA
:101A6000A6E4086D949B096D959B0A6D969B0B6D82
:101A7000F3D10C6DA3E40D6D979B0E6DA9E40F6D72
:101A8000989B106D999B116D9A9B126DF7C8136D01
:101A90009B9B146D9C9B156D9D9B166D9E9B176D5E
:101AA000B4CF186D9F9B196DA8E41A6DAEE41B6D41
:101AB000E5C21C6DA09B1D6DA19B1E6DB4B61F6D74
:101AC000A29B206DA39B216DA49B226DA59B236DE2
:101AD000A69B246DA79B256DF2BD266DA89B276D47
:101AE000A2E4286DA99B296DAA9B2A6DE9BA2B6DEA
:101AF000AAE42C6DAB9B2D6DAC9B2E6DACE42F6DD1
:101B0000AD9B306DAE9B316DFDB6326DDED6336D63
:101B1000B2E4346DAF9B356DADE4366DB09B376D7F
:101B2000B19B386DB29B396DA1E43A6DB39B3B6DAF
:101B3000EEBB3C6DDDCD3D6DA2C73E6DC9C53F6DB1
:101B4000B49B406DB59B416DF7C1426DB69B436D33
:101B5000A4E4446DB79B456DB3C7466DACBD476DFE
:101B6000BDBD486DA5E4496DB89B4A6DC7D74B6DA7
:101B7000E2B24C6DB99B4D6DABE44E6DC3BC4F6D85
:101B8000AFE4506DBA9B516DEBBB526DB0E4536D39
:101B9000A8C5546DB1E4556DBB9B566DBC9B576D8C
:101BA000BD9B586DBE9B596DE3D55A6DA3BF5B6D50
:101BB000BF9B5C6DBAE45D6DC09B5E6DB7E45F6D0D
:101BC000C19B606DBBE4616DC29B626DC39B636D25
:101BD000BDE4646DC49B656DC59B666DD6C6676DBF
:101BE000C69B686DC79B696DC6BA6A6DCBC06B6DCD
:101BF000C89B6C6DC99B6D6DCA9B6E6DA1B86F6DF6
